01F111111   2222222220000000000000100000000020200101            Test              Employee            1400 S Boston                                                                                                         Nowhere                        IL60518     M19690101N1984090300000002020040100005784480A2020070600000       0000000000        000000000      00000000000000000000                                                                                                                                                                                                                                                                                                                                                                                                                                                                                                                                                                                                                                          *
02F111111   2222222220000000000000133333333320200101            Test              Spouse Dependent                                                                                                                                                                    SF19700101 0000000000000000000000000000000000 0000000000000       0000000000        000000000      00000000000000000000                                                                                                                                                                                                                                                                                                                                                                                                                                                                                                                                                                                                                                          *
02F111111   2222222220000000000000144444444420200101            Test              cHILD Dependent                                                                                                                                                                     CF19700101 0000000000000000000000000000000000 0000000000000       0000000000        000000000      00000000000000000000                                                                                                                                                                                                                                                                                                                                                                                                                                                                                                                                                                                                                                          *
05F111111   2222222220000000000000100000000020200101                                                                                                                                                                                                                    00000000 0000000000000000000000000000000000 0000000000000LIFE   0000000000 00010010000015002    000000000000000000000                                                                                                                                                                                                                                                                                                                                                                                                                                                                                                                                                                                                                                          *
05F111111   2222222220000000000000100000000020200101                                                                                                                                                                                                                    00000000 0000000000000000000000000000000000 0000000000000ADD    0000000000 00020010000015002    000000000000000000000                                                                                                                                                                                                                                                                                                                                                                                                                                                                                                                                                                                                                                          *
05F111111   2222222220000000000000100000000020200101                                                                                                                                                                                                                    00000000 0000000000000000000000000000000000 0000000000000ADDSUP10000000000 00021010000200002    000000000000000000000                                                                                                                                                                                                                                                                                                                                                                                                                                                                                                                                                                                                                                          *
05F111111   2222222220000000000000100000000020200101                                                                                                                                                                                                                    00000000 0000000000000000000000000000000000 0000000000000STDVOL 0000000000 00068010000055222    000000000000000000000                                                                                                                                                                                                                                                                                                                                                                                                                                                                                                                                                                                                                                          *
05F111111   2222222220000000000000100000000020200101                                                                                                                                                                                                                    00000000 0000000000000000000000000000000000 0000000000000LTD    0000000000 00070020000020002    000000000000000000000                                                                                                                                                                                                                                                                                                                                                                                                                                                                                                                                                                                                                                          *
05F111111   2222222220000000000000100000000020200101                                                                                                                                                                                                                    00000000 0000000000000000000000000000000000 0000000000000LIFSUP10000000000 00011010000200002    200000000000000000000                                                                                                                                                                                                                                                                                                                                                                                                                                                                                                                                                                                                                                          *
05F111111   2222222220000000000000100000000020200101                                                                                                                                                                                                                    00000000 0000000000000000000000000000000000 0000000000000ADDSUPC0000000000 00023010000010002    000000000000000000000                                                                                                                                                                                                                                                                                                                                                                                                                                                                                                                                                                                                                                          *
05F111111   2222222220000000000000100000000020200101                                                                                                                                                                                                                    00000000 0000000000000000000000000000000000 0000000000000DEPSUPC0000000000 00013010000010002    200000000000000000000                                                                                                                                                                                                                                                                                                                                                                                                                                                                                                                                                                                                                                          *
05F111111   2222222220000000000000100000000020200101                                                                                                                                                                                                                    00000000 0000000000000000000000000000000000 0000000000000VISV   0000000000F00091060000001002    000000000000000000000                                                                                                                                                                                                                                                                                                                                                                                                                                                                                                                                                                                                                                          *
01F111111   0000222220000000000000100000000020200101            Test              Spouse             1400 S Boston                                                                                                         Nowhere                         IL60518     M19700101N1984090300000002020040100005784480A2020070600000       0000000000        000000000      00000000000000000000                                                                                                                                                                                                                                                                                                                                                                                                                                                                                                                                                                                                                                          *
05F111111   0000222220000000000000100000000020200101                                                                                                                                                                                                                    00000000 0000000000000000000000000000000000 0000000000000ADDSUPS0000000000 00022010000100005    000000000000000000000                                                                                                                                                                                                                                                                                                                                                                                                                                                                                                                                                                                                                                          *
05F111111   0000222220000000000000100000000020200101                                                                                                                                                                                                                    00000000 0000000000000000000000000000000000 0000000000000DEPSUPS0000000000 00012010000100005    000000000000000000000                                                                                                                                                                                                                                                                                                                                                                                                                                                                                                                                                                                                                                          *