09-LF0719000000020211130  3000                                                                                                                                                                                                                                                                                                                                                                                                                                                                                                                                                                                                                                                                                                                                                                                                                                                                                                                                                                                                                                                                                                                                                                                                                                                                                                                                                                                                                                                                                                                                                                                                                                                                                                                                                                                                                                                                                                                                                                                                                                                                                                                                                                                                                                                                                                                                                                                                                                                                                                                                                                                                                                                                                                                                                                                                                                                                                                                                                                                                                                                                                          
D00000000000009-LF0719                                                                                                                                                                                                                                                                                                                                          0000                                                                                          BVivian                             Ayala                                                                                                                                 vayala@alliantcreditunion.com                                                                                                                                                                               107665     IL00000000                   Consumer Loan Funder                               M                                  Torres                             T     603 S RIVER RD                APT 1K                        DES PLAINES         IL60016    USA                                        334545478  1F19590530          0 0    0.0       28.4      20200308HR0.0       0.0       10.0       0                                                                                                                                                                                                                                                                                                                                                                                                                                                                                                                                                                                                                                                                                                                                                                                                                                 10   19890425  A        0.0   0.0       0.0      0.0                                                                        STD  STD01A19900425000999LTD  LTD01A19890425000060LEAVEFMLA A19890425000000                   0  0                     0  0                     0  0                     0  0                     0  0       H1893.7     M012M391                  8.0      8.0      8.0      8.0      8.0      0.0      0.0              19890425N N           20211130                                                                                                                                                                                                                                                                                                                                                                                                                                                                                                                              
D00000000000009-LF0719                                                                                                                                                                                                                                                                                                                                          0000                                                                                          BVivian                             Ayala                                                                                                                                 vayala@alliantcreditunion.com                                                                                                                                                                               109839     IL00000000                   Sr. Account Services Rep                           Sheryl                             Gaynor                                   149 SUNNYSIDE AVE                                           ELMHURST            IL60126    USA                                        345546452  1F19600527          0 0    0.0       30.2      20200308HR0.0       0.0       10.0       0                                                                                                                                                                                                                                                                                                                                                                                                                                                                                                                                                                                                                                                                                                                                                                                                                                 10   19900730  A        0.0   0.0       0.0      0.0                                                                        STD  STD01A19910730000999LTD  LTD01A19900730000060LEAVEFMLA A19900730000000                   0  0                     0  0                     0  0                     0  0                     0  0       H1978.9     M012M376                  8.0      8.0      8.0      8.0      8.0      0.0      0.0              19900730N N           20211130                                                                                                                                                                                                                                                                                                                                                                                                                                                                                                                              
D00000000000009-LF0719                                                                                                                                                                                                                                                                                                                                          0000                                                                                          BVivian                             Ayala                                                                                                                                 vayala@alliantcreditunion.com                                                                                                                                                                               124638     IL00000000                   Mgr Digital Care Experien                          Richard                            Holke                                    21 FREDERICK CT                                             SOUTH ELGIN         IL60177    USA                                        320605882  1M19640810          0 0    105700.0  0.0       20200628SL0.0       0.0       60.0       0                                                                                                                                                                                                                                                                                                                                                                                                                                                                                                                                                                                                                                                                                                                                                                                                                                 10   19910211  A        0.0   0.0       0.0      0.0                                                                        STD  STD01A19920211000999LTD  LTD01A19910211000060LEAVEFMLA A19910211000000                   0  0                     0  0                     0  0                     0  0                     0  0       H1816.0     M012M369                  8.0      8.0      8.0      8.0      8.0      0.0      0.0              19910211N Y           20211130                                                                                                                                                                                                                                                                                                                                                                                                                                                                                                                              
D00000000000009-LF0719                                                                                                                                                                                                                                                                                                                                          0000                                                                                          BVivian                             Ayala                                                                                                                                 vayala@alliantcreditunion.com                                                                                                                                                                               124780     IL00000000                   Mgr, Cons Ln UW & Process                          Matthew                            Dempsey                                  408 N ELM ST                                                MOUNT PROSPECT      IL60056    USA                                        028362983  1M19581001          0 0    156900.0  0.0       20210307SL0.0       0.0       60.0       0                                                                                                                                                                                                                                                                                                                                                                                                                                                                                                                                                                                                                                                                                                                                                                                                                                 10   19910715  A        0.0   0.0       0.0      0.0                                                                        STD  STD01A19920714000999LTD  LTD01A19910715000060LEAVEFMLA A19910715000000                   0  0                     0  0                     0  0                     0  0                     0  0       H1792.0     M012M364                  8.0      8.0      8.0      8.0      8.0      0.0      0.0              19910715N Y           20211130                                                                                                                                                                                                                                                                                                                                                                                                                                                                                                                              
D00000000000009-LF0719                                                                                                                                                                                                                                                                                                                                          0000                                                                                          BVivian                             Ayala                                                                                                                                 vayala@alliantcreditunion.com                                                                                                                                                                               015219     IL00000000                   Mgr, API Platform Enginee                          Edward                             Langel                                   421 COURTLAND CT                                            SCHAUMBURG          IL60193    USA                                        340523726  1M19570430          0 0    184200.0  0.0       20200308SL0.0       0.0       60.0       0                                                                                                                                                                                                                                                                                                                                                                                                                                                                                                                                                                                                                                                                                                                                                                                                                                 10   19770725  A        0.0   0.0       0.0      0.0                                                                        STD  STD01A19780725000999LTD  LTD01A19770725000060LEAVEFMLA A19770725000000                   0  0                     0  0                     0  0                     0  0                     0  0       H1792.0     M012M532                  8.0      8.0      8.0      8.0      8.0      0.0      0.0              19770725N Y           20211130                                                                                                                                                                                                                                                                                                                                                                                                                                                                                                                              
D00000000000009-LF0719                                                                                                                                                                                                                                                                                                                                          0000                                                                                          BVivian                             Ayala                                                                                                                                 vayala@alliantcreditunion.com                                                                                                                                                                               163313     IL00000000                   Sr. Network Engineer                               Andrew                             Nakagi                                   2330 SOMERSET LN                                            MUNDELEIN           IL60060    USA                                        343681052  1M19640802          0 0    144943.1  0.0       20210307SL0.0       0.0       60.0       0                                                                                                                                                                                                                                                                                                                                                                                                                                                                                                                                                                                                                                                                                                                                                                                                                                 10   19951227  A        0.0   0.0       0.0      0.0                                                                        STD  STD01A19961226000999LTD  LTD01A19951227000060LEAVEFMLA A19951227000000                   0  0                     0  0                     0  0                     0  0                     0  0       H1744.0     M012M311                  8.0      8.0      8.0      8.0      8.0      0.0      0.0              19951227N Y           20211130                                                                                                                                                                                                                                                                                                                                                                                                                                                                                                                              
D00000000000009-LF0719                                                                                                                                                                                                                                                                                                                                          0000                                                                                          BVivian                             Ayala                                                                                                                                 vayala@alliantcreditunion.com                                                                                                                                                                               176604     IL00000000                   Fraud Investigator                                 Jessica                            Watson                             K     365 ASCOT LN                                                STREAMWOOD          IL60107    USA                                        350786292  1F19730404          0 0    77445.9   0.0       20210307SL0.0       0.0       60.0       0                                                                                                                                                                                                                                                                                                                                                                                                                                                                                                                                                                                                                                                                                                                                                                                                                                 10   19970519  A        0.0   0.0       0.0      0.0                                                                        STD  STD01A19980519000999LTD  LTD01A19970519000060LEAVEFMLA A19970519000000                   0  0                     0  0                     0  0                     0  0                     0  0       H1804.0     M012M294                  8.0      8.0      8.0      8.0      8.0      0.0      0.0              19970519N Y           20211130                                                                                                                                                                                                                                                                                                                                                                                                                                                                                                                              
D00000000000009-LF0719                                                                                                                                                                                                                                                                                                                                          0000                                                                                          BVivian                             Ayala                                                                                                                                 vayala@alliantcreditunion.com                                                                                                                                                                               196650     IL00000000                   Administrative Assistant                           Colleen                            Panzino                                  1801 N KENNICOTT AVENUE                                     ARLINGTON HEIGHTS   IL60004    USA                                        161425009  1F19500315          0 0    0.0       38.3      20200308HR0.0       0.0       10.0       0                                                                                                                                                                                                                                                                                                                                                                                                                                                                                                                                                                                                                                                                                                                                                                                                                                 10   19980817  A        0.0   0.0       0.0      0.0                                                                        STD  STD01A19990817000999LTD  LTD01A19980817000060LEAVEFMLA A19980817000000                   0  0                     0  0                     0  0                     0  0                     0  0       H1875.9     M012M279                  8.0      8.0      8.0      8.0      8.0      0.0      0.0              19980817N N           20211130                                                                                                                                                                                                                                                                                                                                                                                                                                                                                                                              
D00000000000009-LF0719                                                                                                                                                                                                                                                                                                                                          0000                                                                                          BVivian                             Ayala                                                                                                                                 vayala@alliantcreditunion.com                                                                                                                                                                               199094     IL00000000                   Consumer Loan Funder                               Jovanka                            Nedinic                                  5610 N PROSPECT AVE                                         CHICAGO             IL60631    USA                                        339604946  1F19590910          0 0    0.0       29.3      20200308HR0.0       0.0       10.0       0                                                                                                                                                                                                                                                                                                                                                                                                                                                                                                                                                                                                                                                                                                                                                                                                                                 10   19981019  A        0.0   0.0       0.0      0.0                                                                        STD  STD01A19991019000999LTD  LTD01A19981019000060LEAVEFMLA A19981019000000                   0  0                     0  0                     0  0                     0  0                     0  0       H1976.6     M012M277                  8.0      8.0      8.0      8.0      8.0      0.0      0.0              19981019N N           20211130                                                                                                                                                                                                                                                                                                                                                                                                                                                                                                                              
D00000000000009-LF0719                                                                                                                                                                                                                                                                                                                                          0000                                                                                          BVivian                             Ayala                                                                                                                                 vayala@alliantcreditunion.com                                                                                                                                                                               202371     IL00000000                   Client Services Associate                          Edith                              Ortiz                                    1717 SYCAMORE ST                                            DES PLAINES         IL60018    USA                                        331803079  1F19671208          0 0    70700.0   0.0       20210307SL0.0       0.0       60.0       0                                                                                                                                                                                                                                                                                                                                                                                                                                                                                                                                                                                                                                                                                                                                                                                                                                 10   19940711  A        0.0   0.0       0.0      0.0                                                                        STD  STD01A19950711000999LTD  LTD01A19940711000060LEAVEFMLA A19940711000000                   0  0                     0  0                     0  0                     0  0                     0  0       H1776.0     M012M328                  8.0      8.0      8.0      8.0      8.0      0.0      0.0              19940711N Y           20211130                                                                                                                                                                                                                                                                                                                                                                                                                                                                                                                              
D00000000000009-LF0719                                                                                                                                                                                                                                                                                                                                          0000                                                                                          BVivian                             Ayala                                                                                                                                 vayala@alliantcreditunion.com                                                                                                                                                                               209323     IL00000000                   Loan Servicing Rep.                                Maria                              Gamberdella                              4120 WINSTON DR                                             HOFFMAN ESTATES     IL60192    USA                                        360640454  1F19620106          0 0    0.0       29.4      20130318HR0.0       0.0       10.0       0                                                                                                                                                                                                                                                                                                                                                                                                                                                                                                                                                                                                                                                                                                                                                                                                                                 10   19950905  A        0.0   0.0       0.0      0.0                                                                        STD  STD01A19960904000999LTD  LTD01A19950905000060LEAVEFMLA A19950905000000                   0  0                     0  0                     0  0                     0  0                     0  0       H2120.7     M012M314                  8.0      8.0      8.0      8.0      8.0      0.0      0.0              19950905N N           20211130                                                                                                                                                                                                                                                                                                                                                                                                                                                                                                                              
D00000000000009-LF0719                                                                                                                                                                                                                                                                                                                                          0000                                                                                          BVivian                             Ayala                                                                                                                                 vayala@alliantcreditunion.com                                                                                                                                                                               210706     IL00000000                   Sr. Account Services Rep                           Monika                             Mosley                             T     8521 Hotchkiss Dr                                           Frankfort           IL60423    USA                                        329740277  1F19690726          0 0    0.0       29.0      20210307HR0.0       0.0       10.0       0                                                                                                                                                                                                                                                                                                                                                                                                                                                                                                                                                                                                                                                                                                                                                                                                                                 10   19960415  A        0.0   0.0       0.0      0.0                                                                        STD  STD01A19970415000999LTD  LTD01A19960415000060LEAVEFMLA A19960415000000                   0  0                     0  0                     0  0                     0  0                     0  0       H1959.7     M012M307                  8.0      8.0      8.0      8.0      8.0      0.0      0.0              19960415N N           20211130                                                                                                                                                                                                                                                                                                                                                                                                                                                                                                                              
D00000000000009-LF0719                                                                                                                                                                                                                                                                                                                                          0000                                                                                          BVivian                             Ayala                                                                                                                                 vayala@alliantcreditunion.com                                                                                                                                                                               211876     IL00000000                   Con Direct Mortgage LO                             Thomas                             Kokoszka                                 5322 GALLOWAY DR                                            HOFFMAN ESTATES     IL60192    USA                                        351527545  1M19560311          0 0    0.0       27.5      20200308HR0.0       0.0       10.0       0                                                                                                                                                                                                                                                                                                                                                                                                                                                                                                                                                                                                                                                                                                                                                                                                                                 10   19951113  A        0.0   0.0       0.0      0.0                                                                        STD  STD01A19961112000999LTD  LTD01A19951113000060LEAVEFMLA A19951113000000                   0  0                     0  0                     0  0                     0  0                     0  0       H1959.2     M012M312                  8.0      8.0      8.0      8.0      8.0      0.0      0.0              19951113N N           20211130                                                                                                                                                                                                                                                                                                                                                                                                                                                                                                                              
D00000000000009-LF0719                                                                                                                                                                                                                                                                                                                                          0000                                                                                          BVivian                             Ayala                                                                                                                                 vayala@alliantcreditunion.com                                                                                                                                                                               254940     IL00000000                   Sr. Member Payment Rep                             Vica                               Butnaru                                  6 N 010 OAK RUN CT                                          ST CHARLES          IL60175    USA                                        346942834  1F19740809          0 0    0.0       29.7      20210307HR0.0       0.0       10.0       0                                                                                                                                                                                                                                                                                                                                                                                                                                                                                                                                                                                                                                                                                                                                                                                                                                 10   19991004  A        0.0   0.0       0.0      0.0                                                                        STD  STD01A20001003000999LTD  LTD01A19991004000060LEAVEFMLA A19991004000000                   0  0                     0  0                     0  0                     0  0                     0  0       H2020.3     M012M265                  8.0      8.0      8.0      8.0      8.0      0.0      0.0              19991004N N           20211130                                                                                                                                                                                                                                                                                                                                                                                                                                                                                                                              
D00000000000009-LF0719                                                                                                                                                                                                                                                                                                                                          0000                                                                                          BVivian                             Ayala                                                                                                                                 vayala@alliantcreditunion.com                                                                                                                                                                               262685     IL00000000                   Digital Care Mbr Exp Con                           Ingrid                             Troncoso                                 817 S SECOND AVE                                            DES PLAINES         IL60016    USA                                        339766337  1F19770329          0 0    67249.2   0.0       20210307SL0.0       0.0       60.0       0                                                                                                                                                                                                                                                                                                                                                                                                                                                                                                                                                                                                                                                                                                                                                                                                                                 10   20000619  A        0.0   0.0       0.0      0.0                                                                        STD  STD01A20010619000999LTD  LTD01A20000619000060LEAVEFMLA A20000619000000                   0  0                     0  0                     0  0                     0  0                     0  0       H1776.0     M012M257                  8.0      8.0      8.0      8.0      8.0      0.0      0.0              20000619N Y           20211130                                                                                                                                                                                                                                                                                                                                                                                                                                                                                                                              
D00000000000009-LF0719                                                                                                                                                                                                                                                                                                                                          0000                                                                                          BVivian                             Ayala                                                                                                                                 vayala@alliantcreditunion.com                                                                                                                                                                               264595     IL00000000                   Sr IT Asset Mgmt Analyst                           Laurelle                           Wallace                                  1510 S PEMBROKE DR                                          SOUTH ELGIN         IL60177    USA                                        329626173  1F19640526          0 0    110609.2  0.0       20190310SL0.0       0.0       60.0       0                                                                                                                                                                                                                                                                                                                                                                                                                                                                                                                                                                                                                                                                                                                                                                                                                                 10   20000717  A        0.0   0.0       0.0      0.0                                                                        STD  STD01A20010717000999LTD  LTD01A20000717000060LEAVEFMLA A20000717000000                   0  0                     0  0                     0  0                     0  0                     0  0       H1800.0     M012M256                  8.0      8.0      8.0      8.0      8.0      0.0      0.0              20000717N Y           20211130                                                                                                                                                                                                                                                                                                                                                                                                                                                                                                                              
D00000000000009-LF0719                                                                                                                                                                                                                                                                                                                                          0000                                                                                          BVivian                             Ayala                                                                                                                                 vayala@alliantcreditunion.com                                                                                                                                                                               272900     IL00000000                   Residential Loan UW                                Kimberly                           Asta                                     2124 N 77TH CT                                              ELMWOOD PARK        IL60707    USA                                        331641087  1F19710107          0 0    96960.0   0.0       20210307SL0.0       0.0       60.0       0                                                                                                                                                                                                                                                                                                                                                                                                                                                                                                                                                                                                                                                                                                                                                                                                                                 10   20010409  A        0.0   0.0       0.0      0.0                                                                        STD  STD01A20020409000999LTD  LTD01A20010409000060LEAVEFMLA A20010409000000                   0  0                     0  0                     0  0                     0  0                     0  0       H1736.0     M012M247                  8.0      8.0      8.0      8.0      8.0      0.0      0.0              20010409N Y           20211130                                                                                                                                                                                                                                                                                                                                                                                                                                                                                                                              
D00000000000009-LF0719                                                                                                                                                                                                                                                                                                                                          0000                                                                                          BVivian                             Ayala                                                                                                                                 vayala@alliantcreditunion.com                                                                                                                                                                               272905     IL00000000                   Consumer Loan Underwriter                          Janice                             Mitchell                                 10508 S TRUMBULL AVE                                        CHICAGO             IL60655    USA                                        355560563  1F19671012          0 0    85598.8   0.0       20210307SL0.0       0.0       60.0       0                                                                                                                                                                                                                                                                                                                                                                                                                                                                                                                                                                                                                                                                                                                                                                                                                                 10   20010409  A        0.0   0.0       0.0      0.0                                                                        STD  STD01A20020409000999LTD  LTD01A20010409000060LEAVEFMLA A20010409000000                   0  0                     0  0                     0  0                     0  0                     0  0       H1544.0     M012M247                  8.0      8.0      8.0      8.0      8.0      0.0      0.0              20010409N Y           20211130                                                                                                                                                                                                                                                                                                                                                                                                                                                                                                                              
D00000000000009-LF0719                                                                                                                                                                                                                                                                                                                                          0000                                                                                          BVivian                             Ayala                                                                                                                                 vayala@alliantcreditunion.com                                                                                                                                                                               273915     IL00000000                   Res Loan Closing&Fund Rep                          Dora                               Reyes                                    1350 ROCK COVE CT                                           HOFFMAN ESTATES     IL60192    USA                                        339580377  1F19600503          0 0    0.0       30.2      20210307HR0.0       0.0       10.0       0                                                                                                                                                                                                                                                                                                                                                                                                                                                                                                                                                                                                                                                                                                                                                                                                                                 10   20010611  A        0.0   0.0       0.0      0.0                                                                        STD  STD01A20020611000999LTD  LTD01A20010611000060LEAVEFMLA A20010611000000                   0  0                     0  0                     0  0                     0  0                     0  0       H2108.0     M012M245                  8.0      8.0      8.0      8.0      8.0      0.0      0.0              20010611N N           20211130                                                                                                                                                                                                                                                                                                                                                                                                                                                                                                                              
D00000000000009-LF0719                                                                                                                                                                                                                                                                                                                                          0000                                                                                          BVivian                             Ayala                                                                                                                                 vayala@alliantcreditunion.com                                                                                                                                                                               900092     IL00000000                   Sr. Member Payment Rep                             Cherry                             Carter                                   8036 S CARPENTER ST                                         CHICAGO             IL60620    USA                                        357607483  1F19671119          0 0    0.0       28.7      20210307HR0.0       0.0       10.0       0                                                                                                                                                                                                                                                                                                                                                                                                                                                                                                                                                                                                                                                                                                                                                                                                                                 10   20041115  A        0.0   0.0       0.0      0.0                                                                        STD  STD01A20051115000999LTD  LTD01A20041115000060LEAVEFMLA A20041115000000                   0  0                     0  0                     0  0                     0  0                     0  0       H2092.6     M012M204                  8.0      8.0      8.0      8.0      8.0      0.0      0.0              20041115N N           20211130                                                                                                                                                                                                                                                                                                                                                                                                                                                                                                                              
D00000000000009-LF0719                                                                                                                                                                                                                                                                                                                                          0000                                                                                          BVivian                             Ayala                                                                                                                                 vayala@alliantcreditunion.com                                                                                                                                                                               275925     IL00000000                   VP, Residential Lending                            Jerrold                            Anderson                                 801 E JULES ST                                              ARLINGTON HEIGHTS   IL60004    USA                                        361404404  1M19620523          0 0    222049.6  0.0       20210307SL0.0       0.0       60.0       0                                                                                                                                                                                                                                                                                                                                                                                                                                                                                                                                                                                                                                                                                                                                                                                                                                 10   20021118  A        0.0   0.0       0.0      0.0                                                                        STD  STD01A20031118000999LTD  LTD01A20021118000060LEAVEFMLA A20021118000000                   0  0                     0  0                     0  0                     0  0                     0  0       H1936.0     M012M228                  8.0      8.0      8.0      8.0      8.0      0.0      0.0              20021118N Y           20211130                                                                                                                                                                                                                                                                                                                                                                                                                                                                                                                              
D00000000000009-LF0719                                                                                                                                                                                                                                                                                                                                          0000                                                                                          BVivian                             Ayala                                                                                                                                 vayala@alliantcreditunion.com                                                                                                                                                                               276188     IL00000000                   Home Equity Loan Closer                            Bryan                              Norwood                                  1349 E WYNDHAM CR             UNIT 105                      PALATINE            IL60074    USA                                        341464210  1M19650820          0 0    0.0       30.2      20210307HR0.0       0.0       10.0       0                                                                                                                                                                                                                                                                                                                                                                                                                                                                                                                                                                                                                                                                                                                                                                                                                                 10   20030623  A        0.0   0.0       0.0      0.0                                                                        STD  STD01A20040622000999LTD  LTD01A20030623000060LEAVEFMLA A20030623000000                   0  0                     0  0                     0  0                     0  0                     0  0       H1948.2     M012M221                  8.0      8.0      8.0      8.0      8.0      0.0      0.0              20030623N N           20211130                                                                                                                                                                                                                                                                                                                                                                                                                                                                                                                              
D00000000000009-LF0719                                                                                                                                                                                                                                                                                                                                          0000                                                                                          BVivian                             Ayala                                                                                                                                 vayala@alliantcreditunion.com                                                                                                                                                                               276190     IL00000000                   Op Research&Supp Spec                              Eileen                             Zawila                                   104 BRICKTON PL                                             PARK RIDGE          IL60068    USA                                        341568635  1F19611112          0 0    68675.0   0.0       20210307SL0.0       0.0       60.0       0                                                                                                                                                                                                                                                                                                                                                                                                                                                                                                                                                                                                                                                                                                                                                                                                                                 10   20030707  A        0.0   0.0       0.0      0.0                                                                        STD  STD01A20040706000999LTD  LTD01A20030707000060LEAVEFMLA A20030707000000                   0  0                     0  0                     0  0                     0  0                     0  0       H1792.0     M012M220                  8.0      8.0      8.0      8.0      8.0      0.0      0.0              20030707N Y           20211130                                                                                                                                                                                                                                                                                                                                                                                                                                                                                                                              
D00000000000009-LF0719                                                                                                                                                                                                                                                                                                                                          0000                                                                                          BVivian                             Ayala                                                                                                                                 vayala@alliantcreditunion.com                                                                                                                                                                               277890     IL00000000                   VP, General Auditor                                Michael                            Gard                                     4412 ESQUIRE CR                                             NAPERVILLE          IL60564    USA                                        480702042  1M19610820          0 0    207114.4  0.0       20210307SL0.0       0.0       60.0       0                                                                                                                                                                                                                                                                                                                                                                                                                                                                                                                                                                                                                                                                                                                                                                                                                                 10   20031014  A        0.0   0.0       0.0      0.0                                                                        STD  STD01A20041013000999LTD  LTD01A20031014000060LEAVEFMLA A20031014000000                   0  0                     0  0                     0  0                     0  0                     0  0       H1932.0     M012M217                  8.0      8.0      8.0      8.0      8.0      0.0      0.0              20031014N Y           20211130                                                                                                                                                                                                                                                                                                                                                                                                                                                                                                                              
D00000000000009-LF0719                                                                                                                                                                                                                                                                                                                                          0000                                                                                          BVivian                             Ayala                                                                                                                                 vayala@alliantcreditunion.com                                                                                                                                                                               002960     IL00000000                   Human Capital Generalist                           Anne                               Schwede                                  6N124 MEDINAH RD                                            MEDINAH             IL60157    USA                                        341666962  1F19640308          0 0    88000.1   0.0       20210404SL0.0       0.0       60.0       0                                                                                                                                                                                                                                                                                                                                                                                                                                                                                                                                                                                                                                                                                                                                                                                                                                 10   19870107  A        0.0   0.0       0.0      0.0                                                                        STD  STD01A19880107000999LTD  LTD01A19870107000060LEAVEFMLA A19870107000000                   0  0                     0  0                     0  0                     0  0                     0  0       H1748.0     M012M418                  8.0      8.0      8.0      8.0      8.0      0.0      0.0              19870107N Y           20211130                                                                                                                                                                                                                                                                                                                                                                                                                                                                                                                              
D00000000000009-LF0719                                                                                                                                                                                                                                                                                                                                          0000                                                                                          BVivian                             Ayala                                                                                                                                 vayala@alliantcreditunion.com                                                                                                                                                                               047486     IL00000000                   Fraud Risk Analyst                                 Lisa                               Vitucci                                  1376 DEER CT                                                PALATINE            IL60067    USA                                        357689724  1F19640601          0 0    61284.1   0.0       20210307SL0.0       0.0       60.0       0                                                                                                                                                                                                                                                                                                                                                                                                                                                                                                                                                                                                                                                                                                                                                                                                                                 10   19870831  A        0.0   0.0       0.0      0.0                                                                        STD  STD01A19880830000999LTD  LTD01A19870831000060LEAVEFMLA A19870831000000                   0  0                     0  0                     0  0                     0  0                     0  0       H1958.6     M012M411                  8.0      8.0      8.0      8.0      8.0      0.0      0.0              19870831N Y           20211130                                                                                                                                                                                                                                                                                                                                                                                                                                                                                                                              
D00000000000009-LF0719                                                                                                                                                                                                                                                                                                                                          0000                                                                                          BVivian                             Ayala                                                                                                                                 vayala@alliantcreditunion.com                                                                                                                                                                               063351     IL00000000                   Res. Loan Servicing Rep                            Elizabeth                          Fiorito                                  728 N Walden Dr                                             Palatine            IL60067    USA                                        328661466  1F19640826          0 0    0.0       25.9      20210307HR0.0       0.0       10.0       0                                                                                                                                                                                                                                                                                                                                                                                                                                                                                                                                                                                                                                                                                                                                                                                                                                 10   19840702  A        0.0   0.0       0.0      0.0                                                                        STD  STD01A19850702000999LTD  LTD01A19840702000060LEAVEFMLA A19840702000000                   0  0                     0  0                     0  0                     0  0                     0  0       H2121.0     M012M448                  8.0      8.0      8.0      8.0      8.0      0.0      0.0              19840702N N           20211130                                                                                                                                                                                                                                                                                                                                                                                                                                                                                                                              
D00000000000009-LF0719                                                                                                                                                                                                                                                                                                                                          0000                                                                                          BVivian                             Ayala                                                                                                                                 vayala@alliantcreditunion.com                                                                                                                                                                               071239     IL00000000                   Sr Plastic Card&ATM Rep                            Janet                              Zarth                              L     898 SHOREWOOD DR                                            BARTLETT            IL60103    USA                                        334640350  1F19650721          0 0    0.0       31.1      20210307HR0.0       0.0       10.0       0                                                                                                                                                                                                                                                                                                                                                                                                                                                                                                                                                                                                                                                                                                                                                                                                                                 10   19851001  A        0.0   0.0       0.0      0.0                                                                        STD  STD01A19861001000999LTD  LTD01A19851001000060LEAVEFMLA A19851001000000                   0  0                     0  0                     0  0                     0  0                     0  0       H1996.8     M012M433                  8.0      8.0      8.0      8.0      8.0      0.0      0.0              19851001N N           20211130                                                                                                                                                                                                                                                                                                                                                                                                                                                                                                                              
D00000000000009-LF0719                                                                                                                                                                                                                                                                                                                                          0000                                                                                          BVivian                             Ayala                                                                                                                                 vayala@alliantcreditunion.com                                                                                                                                                                               900007     IL00000000                   Mgr Core Software Dev                              Maria                              Donoulis                                 39 W ALGONQUIN RD                                           DES PLAINES         IL60016    USA                                        336721383  1F19670611          0 0    129000.0  0.0       20211003SL0.0       0.0       60.0       0                                                                                                                                                                                                                                                                                                                                                                                                                                                                                                                                                                                                                                                                                                                                                                                                                                 10   20031117  A        0.0   0.0       0.0      0.0                                                                        STD  STD01A20041116000999LTD  LTD01A20031117000060LEAVEFMLA A20031117000000                   0  0                     0  0                     0  0                     0  0                     0  0       H1724.0     M012M216                  8.0      8.0      8.0      8.0      8.0      0.0      0.0              20031117N Y           20211130                                                                                                                                                                                                                                                                                                                                                                                                                                                                                                                              
D00000000000009-LF0719                                                                                                                                                                                                                                                                                                                                          0000                                                                                          BVivian                             Ayala                                                                                                                                 vayala@alliantcreditunion.com                                                                                                                                                                               900010     IL00000000                   Spvr, Fraud Detection                              Tiffany                            Fustar                                   1305 E 31st                                                 LA GRANGE PARK      IL60526    USA                                        327801480  1F19810324          0 0    79000.0   0.0       20210822SL0.0       0.0       60.0       0                                                                                                                                                                                                                                                                                                                                                                                                                                                                                                                                                                                                                                                                                                                                                                                                                                 10   20031201  A        0.0   0.0       0.0      0.0                                                                        STD  STD01A20041130000999LTD  LTD01A20031201000060LEAVEFMLA A20031201000000                   0  0                     0  0                     0  0                     0  0                     0  0       H1498.9     M012M215                  8.0      8.0      8.0      8.0      8.0      0.0      0.0              20031201N Y           20211130                                                                                                                                                                                                                                                                                                                                                                                                                                                                                                                              
D00000000000009-LF0719                                                                                                                                                                                                                                                                                                                                          0000                                                                                          BVivian                             Ayala                                                                                                                                 vayala@alliantcreditunion.com                                                                                                                                                                               900030     IL00000000                   Sr. Systems Engineer                               John                               Kuchel                                   13634 SANTA FE TRL                                          ORLAND PARK         IL60467    USA                                        323702429  1M19701103          0 0    147966.7  0.0       20210307SL0.0       0.0       60.0       0                                                                                                                                                                                                                                                                                                                                                                                                                                                                                                                                                                                                                                                                                                                                                                                                                                 10   20040216  A        0.0   0.0       0.0      0.0                                                                        STD  STD01A20050215000999LTD  LTD01A20040216000060LEAVEFMLA A20040216000000                   0  0                     0  0                     0  0                     0  0                     0  0       H1792.0     M012M213                  8.0      8.0      8.0      8.0      8.0      0.0      0.0              20040216N Y           20211130                                                                                                                                                                                                                                                                                                                                                                                                                                                                                                                              
D00000000000009-LF0719                                                                                                                                                                                                                                                                                                                                          0000                                                                                          BVivian                             Ayala                                                                                                                                 vayala@alliantcreditunion.com                                                                                                                                                                               900035     IL00000000                   Consumer Loan Underwriter                          Ryan                               Merritt                                  5929 Madison St                                             Morton Grove        IL60053    USA                                        051665806  1M19801220          0 0    81466.4   0.0       20210307SL0.0       0.0       60.0       0                                                                                                                                                                                                                                                                                                                                                                                                                                                                                                                                                                                                                                                                                                                                                                                                                                 10   20040202  A        0.0   0.0       0.0      0.0                                                                        STD  STD01A20050201000999LTD  LTD01A20040202000060LEAVEFMLA A20040202000000                   0  0                     0  0                     0  0                     0  0                     0  0       H1764.0     M012M213                  8.0      8.0      8.0      8.0      8.0      0.0      0.0              20040202N Y           20211130                                                                                                                                                                                                                                                                                                                                                                                                                                                                                                                              
