100RBH213-43-1625Dibilio, Ryan C                 000000000000000000000000000000000000000000000000000000000000000000000000000000000000000000000000000000000000000000000000000000000000000000000000000000000000000000000000000000000000000000568182000000568182000000568182            0087000000000000000000000000000000000000000000000000000000000000000000000000000000000000000000000000000000000000000000000000000000882855000000882855000000882855            0000136363680135S419 W 8th Street, Unit 50                                                       Charlotte                                                                       NC28202     USA                            082219940506201906012020                                09082020               A                                                         704-377-8390   rdibilio@robinsonbradshaw.com                     EMS 0F                                                                                                                           
100RBH242-35-2604Horton, Sebrina                 000000010000000000000000000000000000000000000000000000000000000000000000000000000000000000000000000000000000000000000000000000013886000000000000000000000000000000000000000000000000000000346589000000346589000000346589            0087000000180000000000000000000000000000000000000000000000000000000000000000000000000000000000000000000000000000000000000000000006177138000006177138000006177138            0000083181361560S149 Westview Lane                                                               Statesville                                                                     NC28625     USA                            122119680906201110012012                                                       A                                                         704-377-2536   shorton@robinsonbradshaw.com                      EFM 0F                                                                                                                           
100RBH408-13-3446Bryant, Patrick S.              000000162500000000054167000000000000000000000000000000000000000000000000000000000000000000000000000000000000000000000000000000000000000000000000000000000000000000000000000000000000000002208334000002208334000002208334            0173000001462500000000487503000000000000000000000000000000000000000000000000000000000000000000000000000000000000000000000000000019625006000019625006000019625006            0000265000081560M2323 Laburnum Avenue                                                            Charlotte                                                                       NC28205     USA                            103019620415199105011992                                                       A                                                         704-377-2536   pbryant@robinsonbradshaw.com                      EMM 0F                                                                                                                           
100RBH098-64-7699Markman, Clifford B.            000000000000000000000000000000025000000000000000000000000000000000000000000000000000000000000000000000000000000000000000000000000000000000000000000000000000000000000000000000000000000000454568000000454568000000454568            0087000000000000000000000000000000450000000000000000000000000000000000000000000000000000000000000000000000000000000000000000000008101608000008101608000008101608            0000109096261560S15513 Oleander Drive                                                            Charlotte                                                                       NC28278     USA                            090319760311201304012014                                                       A                                                         704-377-2536   cmarkman@robinsonbradshaw.com                     EMM 0F                                                                                                                           
100RBH244-75-8653Sarrimanolis, Adrianna G.       000000080000000000000000000000000000000000000000000000000000000000000000000000000000000000000000000000000000000000000000000000000000000000000000000000000000000000000000000000000000000000587121000000587121000000587121            0087000001440000000000000000000000000000000000000000000000000000000000000000000000000000000000000000000000000000000000000000000010568178000010568178000010568178            0000140909041560S1310 Iris Dr                            Apt. 1403                               Charlotte                                                                       NC28205     USA                            041719930904201810012019                                                       A                                                         704-377-2536   asarrimanolis@robinsonbradshaw.com                EFS 0F                                                                                                                           
100RBH240-80-5582Wright, David C.                000000162500000000054167000000000000000000000000000000000000000000000000000000000000000000000000000000000000000000000000000000000000000000000000000000000000000000000000000000000000000004416667000004416667000004416667            0173000001462500000000487503000000000000000000000000000000000000000000000000000000000000000000000000000000000000000000000000000039583337000039583337000039583337            0000530000001560M1505 Maryland Avenue                                                            Charlotte                                                                       NC28209     USA                            100819580917198410011985                                                       A                                                         704-377-8322   dwright@robinsonbradshaw.com                      EMM20F                                                                                                                           
100RBH186-54-3798Doerr, Adam K.                  000000162500000000000000000000000000000000000000000000000000000000000000000000000000000000000000000000000000000000000000000000078357000000000000000000000000000000000000000000000000000001916667000001916667000001916667            0173000001462500000000000000000000000000000000000000000000000000000000000000000000000000000000000000000000000000000000000000000016916669000016916669000016916669            0000230000001560M1926 Truman Road                                                                Charlotte                                                                       NC28205     USA                            061719751015200711012018                                                       A                                                         704-377-2536   adoerr@robinsonbradshaw.com                       EMM 7F                                                                                                                           
100RBH246-33-7079Jordan, Jon R.                  000000040000000000000000000000000000000000000000000000000000000000000000000000000000000000000000000000000000000000000000000000000000000000000000000000000000000000000000000000000000000002275000000002275000000002275000            0173000000360000000000000000000000000000000000000000000000000000000000000000000000000000000000000000000000000000000000000000000020141668000020141668000020141668            0000273000001560M433 Bertonley Avenue                                                            Charlotte                                                                       NC28211     USA                            120819780920200410012005                                                       A                                                         704-377-2536   jjordan@robinsonbradshaw.com                      EMM 0F                                                                                                                           
100RBH343-66-9521Carusone, Jennifer              000000000000000000000000000000000000000000000000000000000000000000000000000000000000000000000000000000000000000000000000000000000000000000000000000000000000000000000000000000000000000000366669000000366669000000366669            0083000000000000000000000000000000000000000000000000000000000000000000000000000000000000000000000000000000000000000000000000000006553865000006553865000006553865            0000086145241522S123 Alexandria Drive                                                            Mooresville                                                                     NC28115     USA                            110519740601201307012014                                                       A                                                         704-377-2536   jcarusone@robinsonbradshaw.com                    EFM 3F                                                                                                                           
100RBH247-19-1839Ellis, Dana R.                  000000082000000000028000000000000000000000000000000000000000000000000000000000000000000000000000000000000000000000000000000000000000000000000000000000000000000000000000000000000000000001104167000001104167000001104167            0087000001476000000000504000000000000000000000000000000000000000000000000000000000000000000000000000000000000000000000000000000019875006000019875006000019875006            0000265000081560S6206 Fair Valley Drive                                                          Charlotte                                                                       NC28226     USA                            071119570917201810012019                                                       A                                                         704-377-2536   dellis@robinsonbradshaw.com                       EMM 2F                                                                                                                           
100RBH248-89-4818Evans, Chelsea N.               000000000000000000000000000000000000000000000000000000000000000000000000000000000000000000000000000000000000000000000000000000000000000000000000000000000000000000000000000000000000000000568182000000568182000000568182            0087000000000000000000000000000000000000000000000000000000000000000000000000000000000000000000000000000000000000000000000000000010227276000010227276000010227276            0000136363681560S905 Kenilworth Avenue                   Apt 523                                 Charlotte                                                                       NC28204     USA                            033019920619201707012018                                08122019               A                                                         704-377-2536   cevans@robinsonbradshaw.com                       EFS 0F                                                                                                                           
100RBH243-02-0685Starling, Richard S.            000000000000000000000000000000162500000000000000000000000000000000000000000000000000000000000000000000000000000000000000000000000000000000000000000000000000000000000000000000000000000003208334000003208334000003208334            0173000000000000000000000000000001462500000000000000000000000000000000000000000000000000000000000000000000000000000000000000000028375006000028375006000028375006            0000385000081560M3210 Foxcroft Road                                                              Charlotte                                                                       NC28211     USA                            120219711006199711011998                                                       A                                                         704-377-2536   rstarling@robinsonbradshaw.com                    EMM 2F                                                                                                                           
100RBH175-62-2937Wehler, Adam                    000000000000000000000000000000000000000000000000000000000000000000000000000000000000000000000000000000000000000000000000000000021294000000034935000000000000000000000000000000000000000000612500000000612500000000612500            0087000000000000000000000000000000000000000000000000000000000000000000000000000000000000000000000000000000000000000000000000000011025000000011025000000011025000            0000147000001560S6610 Walton Hall Court                                                          Waxhaw                                                                          NC28173     USA                            102719810615201507012016                                                       A                                                         704-377-2536   awehler@robinsonbradshaw.com                      EMM 1F                                                                                                                           
100RBH254-41-4129Davis, Cary B.                  000000162500000000054167000000000000000000000000000000000000000000000000000000000000000000000000000000000000000000000000000000000000000000000000000000000000000000000000000000000000000001875000000001875000000001875000            0173000001462500000000487503000000000000000000000000000000000000000000000000000000000000000000000000000000000000000000000000000016541668000016541668000016541668            0000225000001560M1245 Townes Road                                                                Charlotte                                                                       NC28209     USA                            021719700609200807012009                                                       A                                                         704-377-2536   cdavis@robinsonbradshaw.com                       EMM 1F                                                                                                                           
100RBH438-04-6839Gosey, Sally L.                 000000010000000000002500000000000000000000000000000000000000000000000000000000000000000000000000000000000000000000000000000000000000000000000000000000000000000000000000000000000000000000301069000000301069000000301069            0083000000180000000000045000000000000000000000000000000000000000000000000000000000000000000000000000000000000000000000000000000005409007000005515107000005515107            0000070750081521S8618 Canter Post Drive                                                          Charlotte                                                                       NC28216     USA                            120519630805199209011993                                                       A                                                         704-350-7125   sgosey@robinsonbradshaw.com                       EFM 0F                                                                                                                           
100RBH570-65-8414Webber, Jonathan M.             000000007500000000002500000000000000000000000000000000000000000000000000000000000000000000000000000000000000000000000000000000002804000000000000000000000000000000000000000000000000000000223580000000223580000000223580            0082000000135000000000045000000000000000000000000000000000000000000000000000000000000000000000000000000000000000000000000000000004053788000004053788000004053788            0000053317951534S4416 Carriage Drive Circle                                                      Charlotte                                                                       NC28205     USA                            070719670801200609012007                                                       A                                                         704-377-2536   jwebber@robinsonbradshaw.com                      EMS 1F                                                                                                                           
100RBH237-31-6340Smiley, Brenton R.              000000000000000000000000000000000000000000000000000000000000000000000000000000000000000000000000000000000000000000000000000000000000000000000000000000000000000000000000000000000000000000000000000000000000000000000000            0000000000000000000000000000000000000000000000000000000000000000000000000000000000000000000000000000000000000000000000000000000000775063000000775063000000775063            0000035000160503S749 Sam Brown Road                                                              Gastonia                                                                        NC28056     USA                            0731197908122019                                03182020                       T                                                         704-377-2536   bsmiley@robinsonbradshaw.com                       MS 0F                                                                                                                           
100RBH263-83-4304Gomez, David A.                 000000000000000000000000000000000000000000000000000000000000000000000000000000000000000000000000000000000000000000000000000000000000000000000000000000000000000000000000000000000000000000507500000000507500000000507500            0087000000000000000000000000000000000000000000000000000000000000000000000000000000000000000000000000000000000000000000000000000009045000000009045000000009045000            0000121800001560S6326 Shining Rock Court                                                         Charotte                                                                        NC28277     USA                            082419641118201912012020                                                       A                                                         704-377-2536   dgomez@robinsonbradshaw.com                       EMM 2F                                                                                                                           
100RBH293-64-8620Henry, Mark O.                  000000162500000000000000000000000000000000000000000000000000000000000000000000000000000000000000000000000000000000000000000000000000000000000000000000000000000000000000000000000000000002958334000002958334000002958334            0173000001462500000000000000000000000000000000000000000000000000000000000000000000000000000000000000000000000000000000000000000026375006000026375006000026375006            0000355000081560M2022 Norton Road                                                                Charlotte                                                                       NC28207     USA                            051119730129200202012003                                                       A                                                         704-377-2536   mhenry@robinsonbradshaw.com                       EMM 9F                                                                                                                           
100RBH239-60-5043Vinroot, Richard A.             000000000000000000000000000000000000000000000000000000000000000000000000000000000000000000000000000000000000000000000000000000000000000000000000000000000000000000000000000000000000000000416667000000416667000000416667            0085000000000000000000000000000000000000000000000000000000000000000000000000000000000000000000000000000000000000000000000000000003750003000003750003000003750003            0000050000000765M325 Cherokee Place                                                              Charlotte                                                                       NC28207     USA                            041419410601196907011970                                                       A                                                         704-377-2536   rvinroot@robinsonbradshaw.com                     EMM 0F                                                                                                                           
100RBH106-74-5819Burks, Monica                   000000000000000000000000000000000000000000000000000000000000000000000000000000000000000000000000000000000000000000000000000000000000000000000000000000000000000000000000000000000000000000568182000000568182000000568182            0087000000000000000000000000000000000000000000000000000000000000000000000000000000000000000000000000000000000000000000000000000010227276000010227276000010227276            0000136363681560S102 Laurel Mist Way                                                             Durham                                                                          NC27703     USA                            061219870619201707012018                                11182019               A                                                         704-377-2536   mburks@robinsonbradshaw.com                       EFM 3F                                                                                                                           
100RBH241-75-2312Rogers, Carson                  000000005000000000000000000000000000000000000000000000000000000000000000000000000000000000000000000000000000000000000000000000000000000000000000000000000000000000000000000000000000000000192468000000192468000000192468            0082000000090000000000000000000000000000000000000000000000000000000000000000000000000000000000000000000000000000000000000000000003466529000003466529000003466529            0000045675001523S1449-A Ashcraft Lane                                                            Charlotte                                                                       NC28209     USA                            120119920706201508012016                                                       A                                                         704-377-8167   cpeacock@robinsonbradshaw.com                     EFS 1F                                                                                                                           
100RBH593-58-5920Sherlock, Emily S.              000000162500000000000000000000000000000000000000000000000000000000000000000000000000000000000000000000000000000000000000000000000000000000000000000000000000000000000000000000000000000001708334000001708334000001708334            0173000001462500000000000000000000000000000000000000000000000000000000000000000000000000000000000000000000000000000000000000000015158338000015158338000015158338            0000205000081560M320 Glen Arbor Dr                                                               Belmont                                                                         NC28012     USA                            010119820929200810012009                                                       A                                                         704-377-2536   esherlock@robinsonbradshaw.com                    EFM 1F                                                                                                                           
100RBH208-70-9277Cadwalader, Stephanie           000000075000000000000000000000000000000000000000000000000000000000000000000000000000000000000000000000000000000000000000000000000000000000000000000000000000000000000000000000000000000000297518000000297518000000297518            0082000001350000000000000000000000000000000000000000000000000000000000000000000000000000000000000000000000000000000000000000000005628480000005628480000005628480            0000070725361605S1314 Ashbrook Place                                                             Charlotte                                                                       NC28209     USA                            030219890515201706012018                                                       A                                                         704-377-8363   sprzezdecki@robinsonbradshaw.com                  EFM 0F                                                                                                                           
100RBH239-57-7642O'Rourke, Allen T.              000000000000000000000000000000000000000000000000000000000000000000000000000000000000000000000000000000000000000000000000000000000000000000000000000000000000000000000000000000000000000000833334000000833334000000833334            0087000000000000000000000000000000000000000000000000000000000000000000000000000000000000000000000000000000000000000000000000000015000012000015000012000015000012            0000200000161560S3206 Pinehurst Place                                                            Charlotte                                                                       NC28209     USA                            120119810930201910012020                                                       A                                                         704-377-8316   aorourke@robinsonbradshaw.com                     EMM 0F                                                                                                                           
100RBH472-08-7450Berkland, Adam A.               000000000000000000000000000000000000000000000000000000000000000000000000000000000000000000000000000000000000000000000000000000000000000000000000000000000000000000000000000000000000000000662879000000662879000000662879            0087000000000000000000000000000000000000000000000000000000000000000000000000000000000000000000000000000000000000000000000000000011931822000011931822000011931822            0000159090961560S305 Spring Garden Drive                                                         Durham                                                                          NC27713     USA                            081819860928201510012016                                                       A                                                         919-328-8823   aberkland@robinsonbradshaw.com                    EMM 4F                                                                                                                           
100RBH275-70-6717Stephenson, Linda               000000000000000000000000000000005000000000000000000000000000000000000000000000000000000000000000000000000000000000000000000000000000000000000000000000000000000000000000000000000000000000331345000000331345000000331345            0090000000000000000000000000000000090000000000000000000000000000000000000000000000000000000000000000000000000000000000000000000005631744000005738944000005738944            0000071450161561S704 Lake Stone Drive                                                            Monroe                                                                          NC28112     USA                            051619610713201508012016                                                       A                                                         704-377-2536   lstephenson@robinsonbradshaw.com                  EFM 0F                                                                                                                           
100RBH239-27-0837Higdon, Penny H.                000000022500000000000000000000015000000000000000000000000000000000000000000000000000000000000000000000000000000000000000000000000000000000000000000000000000000000000000000000000000000000247424000000247424000000247424            0065000000405000000000000000000000270000000000000000000000000000000000000000000000000000000000000000000000000000000000000000000004409748000004409748000004409748            0000059381641215S1100 Ashley Creek Dr                                                            Matthews                                                                        NC28105     USA                            042419630119199402011995                                                       A                                                         704-377-2536   phigdon@robinsonbradshaw.com                      EFM 0F                                                                                                                           
100RBH245-76-6225Baldwin, Benjamin W.            000000000000000000000000000000000000000000000000000000000000000000000000000000000000000000000000000000000000000000000000000000059625000000000000000000000000000000000000000000000000000002583334000002583334000002583334            0173000000000000000000000000000000000000000000000000000000000000000000000000000000000000000000000000000000000000000000000000000023166672000023166672000023166672            0000310000081560M1018 Queens Road West                                                           Charlotte                                                                       NC28207     USA                            011019620906198810011989                                                       A                                                         704-377-2536   bbaldwin@robinsonbradshaw.com                     EMM13F                                                                                                                           
100RBH040-74-7295Churchill, Matthew S.           000000162500000000054167000000000000000000000000000000000000000000000000000000000000000000000000000000000000000000000000000000000000000000000000000000000000000000000000000000000000000003625000000003625000000003625000            0173000001462500000000487503000000000000000000000000000000000000000000000000000000000000000000000000000000000000000000000000000032125000000032125000000032125000            0000435000001560MPo Box 2143 230 South Street                                                    Davidson                                                                        NC28036     USA                            013019661021199611011997                                                       A                                                         704-377-2536   mchurchill@robinsonbradshaw.com                   EMM 4F                                                                                                                           
100RBH220-02-9504Hardin, Jessica M.              000000000000000000000000000000162500000000000000000000000000000000000000000000000000000000000000000000000000000000000000000000000000000000000000000000000000000000000000000000000000000001875000000001875000000001875000            0173000000000000000000000000000001462500000000000000000000000000000000000000000000000000000000000000000000000000000000000000000016541668000016541668000016541668            0000225000001560M5309 Camilla Drive                                                              Charlotte                                                                       NC28226     USA                            072219810917200710012008                                                       A                                                         704-377-2536   jhardin@robinsonbradshaw.com                      EFM 0F                                                                                                                           
100RBH176-74-6772Hendrickson, Kristin L.         000000081250000000000000000000000000000000000000000000000000000000000000000000000000000000000000000000000000000000000000000000000000000000000000000000000000000000000000000000000000000000587121000000587121000000587121            0087000001462500000000000000000000000000000000000000000000000000000000000000000000000000000000000000000000000000000000000000000010568178000010568178000010568178            0000140909041560S2142 Commonwealth Avenue                #318                                    Charlotte                                                                       NC28205     USA                            122419920917201810012019                                                       A                                                         704-377-2536   klhendrickson@robinsonbradshaw.com                EFS 0F                                                                                                                           
100RBH129-68-5312Bermudez, Yanira                000000000000000000000000000000000000000000000000000000000000000000000000000000000000000000000000000000000000000000000000000000000000000000000000000000000000000000000000000000000000000000000000000000000000000000000000            0000000000020000000000000000000000000000000000000000000000000000000000000000000000000000000000000000000000000000000000000000000002007861000002334853000002334853            0000059758080700S6043 Shamrock Green Drive                                                       Clover                                                                          SC29710     USA                            0807197907012008                                02192020                       T                                                         704-377-2536   ybermudez@robinsonbradshaw.com                     FM 2F                                                                                                                           
100RBH228-96-2258Woronoff, Adair T.              000000025000000000000000000000000000000000000000000000000000000000000000000000000000000000000000000000000000000000000000000000000000000000000000000000000000000000000000000000000000000000416940000000416940000000416940            0088000000450000000000000000000000000000000000000000000000000000000000000000000000000000000000000000000000000000000000000000000007014145000007014145000007014145            0000090588751544S120 Brookline Drive                                                             Pinehurst                                                                       NC28374     USA                            012919670620201607012017                                                       A                                                         704-377-2536   aworonoff@robinsonbradshaw.com                    EFM 3F                                                                                                                           
100RBH134-68-5455Dukarm, Tammy Jo                000000005000000000000000000000000000000000000000000000000000000000000000000000000000000000000000000000000000000000000000000000000000000000000000000000000000000000000000000000000000000000359196000000359196000000359196            0085000000090000000000000000000000000000000000000000000000000000000000000000000000000000000000000000000000000000000000000000000006207498000006257498000006257498            0000081940951538S3020 Graceland Circle                                                           Pineville                                                                       NC28134     USA                            022819731016201711012018                                                       A                                                         704-377-8372   tdukarm@robinsonbradshaw.com                      EFS 0F                                                                                                                           
100RBH238-23-8212Evans, Tenley Farrell           000000000000000000000000000000000000000000000000000000000000000000000000000000000000000000000000000000000000000000000000000000000000000000000000000000000000000000000000000000000000000000562500000000562500000000562500            0087000000000000000000000000000000000000000000000000000000000000000000000000000000000000000000000000000000000000000000000000000009718263000009718263000009718263            0000135000001497S416 Greenfield Drive                                                            Lexington                                                                       NC27295     USA                            121019650624201907012020                                                       A                                                         704-377-2536   tfevans@robinsonbradshaw.com                      EFM 0F                                                                                                                           
100RBH198-58-6384Shaffer, Ty E.                  000000162500000000000000000000000000000000000000000000000000000000000000000000000000000000000000000000000000000000000000000000000000000000000000000000000000000000000000000000000000000001708334000001708334000001708334            0173000001462500000000000000000000000000000000000000000000000000000000000000000000000000000000000000000000000000000000000000000015158338000015158338000015158338            0000205000081560M522 Ellsworth Road                                                              Charlotte                                                                       NC28211     USA                            060719780902200810012009                                                       A                                                         704-377-2536   tshaffer@robinsonbradshaw.com                     EMM 1F                                                                                                                           
100RBH430-45-8344Riffe, Henry E.                 000000162500000000000000000000000000000000000000000000000000000000000000000000000000000000000000000000000000000000000000000000000000000000000000000000000000000000000000000000000000000002225000000002225000000002225000            0173000001462500000000000000000000000000000000000000000000000000000000000000000000000000000000000000000000000000000000000000000019775000000019775000000019775000            0000267000001560M502 Shallow Branch Court                                                        FortMill                                                                        SC29715     USA                            102419800705200608012007                                                       A                                                         704-377-2536   hriffe@robinsonbradshaw.com                       EMM 7F                                                                                                                           
100RBH327-60-0270Heusing, Tina                   000000000000000000000000000000000000000000000000000000000000000000000000000000000000000000000000000000000000000000000000000000000000000000000000000000000000000000000000000000000000000000000000000000000000000000000000            0000000000000000000000000000000000000000000000000000000000000000000000000000000000000000000000000000000000000000000000000000000000542359000000542359000000542359            0000041000160241S11810 Elevation Point Drive             Apt. 5102                               Charlotte                                                                       NC28277     USA                            0614196805142018                                02202020                       T                                                         704-377-2536   theusing@robinsonbradshaw.com                      FM 2F                                                                                                                           
100RBH047-48-9580Morrison, Marianne E.           000000060000000000000000000000000000000000000000000000000000000000000000000000000000000000000000000000000000000000000000000000000000000000000000000000000000000000000000000000000000000000310174000000310174000000310174            0082000001040000000000000000000000000000000000000000000000000000000000000000000000000000000000000000000000000000000000000000000005590543000005590543000005590543            0000073536751527S1133 Market Street                                                              FortMill                                                                        SC29708     USA                            121619540730201808012019                                                       A                                                         704-377-2536   mmorrison@robinsonbradshaw.com                    EFS 0F                                                                                                                           
100RBH367-74-3553Campbell, Elizabeth M.          000000002500000000000000000000000000000000000000000000000000000000000000000000000000000000000000000000000000000000000000000000000000000000000000000000000000000000000000000000000000000000421223000000421223000000421223            0091000000045000000000000000000000000000000000000000000000000000000000000000000000000000000000000000000000000000000000000000000006691622000006691622000006691622            0000087034381582S4433 Mountain Cove Drive                                                        Charlotte                                                                       NC28216     USA                            051919740301200504012006                                                       A                                                         704-377-2536   ecampbell@robinsonbradshaw.com                    EFM 0F                                                                                                                           
100RBH245-69-6945Martin, J.  Adam                000000060000000000000000000000000000000000000000000000000000000000000000000000000000000000000000000000000000000000000000000000000000000000000000000000000000000000000000000000000000000001583334000001583334000001583334            0173000000540000000000000000000000000000000000000000000000000000000000000000000000000000000000000000000000000000000000000000000014016672000014016672000014016672            0000190000081560M502 Highgrove Drive                                                             ChapelHill                                                                      NC27516     USA                            030619780507201206012013                                                       A                                                         704-377-2536   amartin@robinsonbradshaw.com                      EMM 2F                                                                                                                           
100RBH591-44-9688Hutchens, Jennifer C.           000000162500000000000000000000000000000000000000000000000000000000000000000000000000000000000000000000000000000000000000000000000000000000000000000000000000000000000000000000000000000001875000000001875000000001875000            0173000001462500000000000000000000000000000000000000000000000000000000000000000000000000000000000000000000000000000000000000000016541668000016541668000016541668            0000225000001560M3028 Brandon Manor Lane                                                         Charlotte                                                                       NC28211     USA                            090219810820200709012008                                                       A                                                         704-377-2536   jhutchens@robinsonbradshaw.com                    EFM 0F                                                                                                                           
100RBH242-48-0158Holding, Graham D.              000000162500000000054167000000000000000000000000000000000000000000000000000000000000000000000000000000000000000000000000000000000000000000000000000000000000000000000000000000000000000000416667000000416667000000416667            0087000001462500000000487503000000000000000000000000000000000000000000000000000000000000000000000000000000000000000000000000000003750003000003750003000003750003            0000050000000780M827 Museum Dr                                                                   Charlotte                                                                       NC28207     USA                            121519360508198906011990                                                       A                                                         704-377-2536   gholding@robinsonbradshaw.com                     EMM 3F                                                                                                                           
100RBH046-68-0852Hennessey, Edward F.            000000092500000000050000000000000000000000000000000000000000000000000000000000000000000000000000000000000000000000000000000000060700000000000000000000000000000000000000000000000000000002583334000002583334000002583334            0173000000832500000000450000000000210000000000000000000000000000000000000000000000000000000000000000000000000000000000000000000023083338000023083338000023083338            0000310000081560M5607 Laurium Road                                                               Charlotte                                                                       NC28226     USA                            082219621002198911011990                                                       A                                                         704-377-2536   thennessey@robinsonbradshaw.com                   EMM20F                                                                                                                           
100RBH250-27-4525Smith, Harry L                  000000000000000000000000000000000000000000000000000000000000000000000000000000000000000000000000000000000000000000000000000000000000000000000000000000000000000000000000000000000000000000212170000000212170000000212170            0085000000000000000000000000000000000000000000000000000000000000000000000000000000000000000000000000000000000000000000000000000003449418000003449418000003449418            0000048720001590S8915 Mcadam Way                                                                 Charlotte                                                                       NC28269     USA                            112419670102201902012020                                                       A                                                         704-377-2536   hsmith@robinsonbradshaw.com                       EMM 6F                                                                                                                           
100RBH239-51-7989Ariail, Laurin C.               000000000000000000000000000000030000000000000000000000000000000000000000000000000000000000000000000000000000000000000000000000000000000000000000000000000000000000000000000000000000000001477275000001477275000001477275            0173000000000000000000000000000000270000000000000000000000000000000000000000000000000000000000000000000000000000000000000000000013295474000013295474000013295474            0000177272951560M1216 Wyndcrofte Place                                                           Charlotte                                                                       NC28209     USA                            060419830518201506012016                                                       A                                                         704-377-2536   lariail@robinsonbradshaw.com                      EFS 2F                                                                                                                           
100RBH055-56-1344Swaringen, Victoria L.          000000010000000000000000000000000000000000000000000000000000000000000000000000000000000000000000000000000000000000000000000000005740000000038956000000038383000000000000000000000000000000237404000000237404000000237404            0081000000180000000000000000000000000000000000000000000000000000000000000000000000000000000000000000000000000000000000000000000004231176000004231176000004231176            0000056977071506SPO Box 2533                                                                     Huntersville                                                                    NC28070     USA                            081119570324200804012009                                                       A                                                         704-377-2536   vswaringen@robinsonbradshaw.com                   EFS 0F                                                                                                                           
100RBH576-55-1427Wagner, Andrew R.               000000000000000000000000000000000000000000000000000000000000000000000000000000000000000000000000000000000000000000000000000000000000000000000000000000000000000000000000000000000000000000587121000000587121000000587121            0087000000000000000000000000000000000000000000000000000000000000000000000000000000000000000000000000000000000000000000000000000010568178000010568178000010568178            0000140909041560S3211 Lassiter Street                                                            Durham                                                                          NC27707     USA                            123019900806201809012019                                                       A                                                         704-377-2536   awagner@robinsonbradshaw.com                      EMM 3F                                                                                                                           
100RBH247-83-3003Steadman, Garrett               000000000000000000000000000000000000000000000000000000000000000000000000000000000000000000000000000000000000000000000000000000000000000000000000000000000000000000000000000000000000000002673073000002673073000002673073            0103000000000000000000000000000000000000000000000000000000000000000000000000000000000000000000000000000000000000000000000000000000673073000002673073000002673073            0000136363680103S26 Olde Farm Road                                                               Pittsboro                                                                       NC27312     USA                            091219890507201806012019                                09082020               A                                                         704-377-8179   gsteadman@robinsonbradshaw.com                    EMM 0F                                                                                                                           
100RBH098-56-3659Rush, Meshauna                  000000000000000000000000000000000000000000000000000000000000000000000000000000000000000000000000000000000000000000000000000000000000000000000000000000000000000000000000000000000000000000327761000000327761000000327761            0087000000007500000000000000000000000000000000000000000000000000000000000000000000000000000000000000000000000000000000000000000005841570000005841570000005841570            0000078662581560S1251 New River Drive                                                            Concord                                                                         NC28025     USA                            061219660102201802012019                                                       A                                                         704-377-8119   srush@robinsonbradshaw.com                        EFM 2F                                                                                                                           
100RBH241-47-5745Barringer, Fitz E.              000000062500000000000000000000100000000000000000000000000000000000000000000000000000000000000000000000000000000000000000000000000000000000000000000000000000000000000000000000000000000001477275000001477275000001477275            0173000000562500000000000000000000900000000000000000000000000000000000000000000000000000000000000000000000000000000000000000000013295474000013295474000013295474            0000177272951560M3917 Bramwyck Drive                                                             Charlotte                                                                       NC28210     USA                            050219850517201006012011                                                       A                                                         704-377-2536   fbarringer@robinsonbradshaw.com                   EMM 5F                                                                                                                           
100RBH241-67-5925Mobley, Veronica R.             000000000000000000000000000000000000000000000000000000000000000000000000000000000000000000000000000000000000000000000000000000000000000000000000000000000000000000000000000000000000000000219800000000219800000000219800            0084000000000000000000000000000000000000000000000000000000000000000000000000000000000000000000000000000000000000000000000000000003874234000003874234000003874234            0000050750161534S7915 Philadelphia Court                 Apt 205                                 Charlotte                                                                       NC28216     USA                            041019900528201906012020                                                       A                                                         704-377-2536   vmobley@robinsonbradshaw.com                      EFM 0F                                                                                                                           
100RBH239-47-3293Jarrell, Douglas M.             000000000000000000000000000000000000000000000000000000000000000000000000000000000000000000000000000000000000000000000000000000000000000000000000000000000000000000000000000000000000000002400000000002400000000002400000            0173000000000000000000000000000000000000000000000000000000000000000000000000000000000000000000000000000000000000000000000000000021266668000021266668000021266668            0000288000001560M2432 Danbury St                                                                 Charlotte                                                                       NC28211     USA                            063019691030199511011996                                                       A                                                         704-377-2536   djarrell@robinsonbradshaw.com                     EMM 2F                                                                                                                           
100RBH244-23-3543Floyd, Susan K.                 000000020000000000000000000000000000000000000000000000000000000000000000000000000000000000000000000000000000000000000000000000011049000000000000000000021232000000037901000000000000000000404167000000404167000000404167            0065000000360000000000000000000000000000000000000000000000000000000000000000000000000000000000000000000000000000000000000000000007275006000007275006000007275006            0000097000001170S4110 Quail View Road                                                            Charlotte                                                                       NC28226     USA                            021519610128199702011998                                                       A                                                         704-377-2536   sfloyd@robinsonbradshaw.com                       EFM 1P                                                                                                                           
100RBH240-78-8484Lucas, Edwin F.                 000000000000000000000000000000162500000000054100000000000000000000000000000000000000000000000000000000000000000000000000000000000000000000000000000000000000000000000000000000000000000002416667000002416667000002416667            0173000000000000000000000000000001462500000000486900000000000000000000000000000000000000000000000000000000000000000000000000000021750003000021750003000021750003            0000290000041560M1871 Cassamia Place                                                             Charlotte                                                                       NC28211     USA                            122819490901197810011979                                                       A                                                         704-377-2536   elucas@robinsonbradshaw.com                       EMM 0F                                                                                                                           
100RBH221-44-9560McCready, Kent J.               000000162500000000054167000000000000000000000000000000000000000000000000000000000000000000000000000000000000000000000000000000000000000000000000000000000000000000000000000000000000000004416667000004416667000004416667            0173000001462500000000487503000000000000000000000000000000000000000000000000000000000000000000000000000000000000000000000000000039583337000039583337000039583337            0000530000001560M4106 Columbine Cir                                                              Charlotte                                                                       NC28211     USA                            100119580815198409011985                                                       A                                                         704-377-8312   kmccready@robinsonbradshaw.com                    EMM 6F                                                                                                                           
100RBH401-37-6908Koeninger, Kelly A.             000000079100000000000000000000000000000000000000000000000000000000000000000000000000000000000000000000000000000000000000000000000000000000000000000000000000000000000000000000000000000000687500000000687500000000687500            0087000001423800000000000000000000000000000000000000000000000000000000000000000000000000000000000000000000000000000000000000000012375000000012375000000012375000            0000165000001560S3117 Linkside Court                                                             FortMill                                                                        SC29715     USA                            022219840821201709012018                                                       A                                                         704-377-2536   kkoeninger@robinsonbradshaw.com                   EFM 1F                                                                                                                           
100RBH244-27-9433Carmichael, John H.             000000162500000000054167000000000000000000000000000000000000000000000000000000000000000000000000000000000000000000000000000000000000000000000000000000000000000000000000000000000000000002583334000002583334000002583334            0173000001462500000000487503000000000000000000000000000000000000000000000000000000000000000000000000000000000000000000000000000023000006000023000006000023000006            0000310000081560M4910 Hardwick Road                                                              Charlotte                                                                       NC28211     USA                            052219620620201107012012                                                       A                                                         704-377-2536   jcarmichael@robinsonbradshaw.com                  EMM 0F                                                                                                                           
100RBH264-81-6709Redi, Tamara C                  000000005000000000000000000000000000000000000000000000000000000000000000000000000000000000000000000000000000000000000000000000000000000000000000000000000000000000000000000000000000000000295571000000295571000000295571            0084000000050000000000000000000000000000000000000000000000000000000000000000000000000000000000000000000000000000000000000000000005133391000005133391000005133391            0000068512501512S1225 S. Church Street, #324                                                     Charlotte                                                                       NC28280     USA                            041319640401201905012020                                                       A                                                         704-377-8109   tredi@robinsonbradshaw.com                        EFS 4F                                                                                                                           
100RBH099-66-2201Loving, Kelly L.                000000080000000000000000000000075000000000000000000000000000000000000000000000000000000000000000000000000000000000000000000000000000000000000000000000000000000000000000000000000000000002958334000002958334000002958334            0173000000720000000000000000000000675000000000000000000000000000000000000000000000000000000000000000000000000000000000000000000026291672000026291672000026291672            0000355000081560M2617 Millwood Circle                                                            Charlotte                                                                       NC28214     USA                            060819710927199910012000                                                       A                                                         704-377-8397   kloving@robinsonbradshaw.com                      EFM 1F                                                                                                                           
100RBH245-04-2498Ralston, Henry H.               000000162500000000054167000000000000000000000000000000000000000000000000000000000000000000000000000000000000000000000000000000000000000000000000000000000000000000000000000000000000000002916667000002916667000002916667            0173000001462500000000487503000000000000000000000000000000000000000000000000000000000000000000000000000000000000000000000000000026500003000026500003000026500003            0000350000001560M626 Moravian Lane                                                               Charlotte                                                                       NC28207     USA                            090319580928198310011984                                                       A                                                         704-377-2536   hralston@robinsonbradshaw.com                     EMM 0F                                                                                                                           
100RBH602-05-2750Kerr, Jason S                   000000000000000000000000000000000000000000000000000000000000000000000000000000000000000000000000000000000000000000000000000000000000000000000000000000000000000000000000000000000000000000937500000000937500000000937500            0087000000000000000000000000000000000000000000000000000000000000000000000000000000000000000000000000000000000000000000000000000016875000000016875000000016875000            0000225000001560S215 N Pine Street                       Unit 3409                               Charlotte                                                                       NC28202     USA                            092819771009201911012020                                                       A                                                         704-377-2536   jkerr@robinsonbradshaw.com                        EMM 2F                                                                                                                           
100RBH564-99-1696Seery, Ryan                     000000005000000000000000000000000000000000000000000000000000000000000000000000000000000000000000000000000000000000000000000000000000000000000000000000000000000000000000000000000000000000170329000000170329000000170329            0087000000090000000000000000000000000000000000000000000000000000000000000000000000000000000000000000000000000000000000000000000003034968000003034968000003034968            0000040600001615S2225 Dundeen St                                                                 Charlotte                                                                       NC28216     USA                            090319871128201612012017                                                       A                                                         704-377-2536   rseery@robinsonbradshaw.com                       EMS 1F                                                                                                                           
100RBH242-67-8065Wright, Gabriel                 000000000000000000000000000000000000000000000000000000000000000000000000000000000000000000000000000000000000000000000000000000000000000000000000000000000000000000000000000000000000000000606061000000606061000000606061            0087000000000000000000000000000000000000000000000000000000000000000000000000000000000000000000000000000000000000000000000000000010909098000010909098000010909098            0000145454641560S2922 S Devon Street                                                             Charlotte                                                                       NC28213     USA                            071919850911201710012018                                                       A                                                         704-377-2536   gwright@robinsonbradshaw.com                      EMM 0F                                                                                                                           
100RBH302-86-8279Sunnycalb, Jamie                000000005000000000000000000000005000000000000000000000000000000000000000000000000000000000000000000000000000000000000000000000000000000000000000000000000000000000000000000000000000000000191328000000191328000000191328            0087000000090000000000000000000000090000000000000000000000000000000000000000000000000000000000000000000000000000000000000000000003410620000003410620000003410620            0000045918601610S3822 Woodleaf Rd                                                                Charlotte                                                                       NC28205     USA                            061219820817201509012016                                                       A                                                         704-377-2536   jsunnycalb@robinsonbradshaw.com                   EFS 1F                                                                                                                           
100RBH515-54-3426Taylor, Maryon L.               000000000000000000000000000000000000000000000000000000000000000000000000000000000000000000000000000000000000000000000000000000000000000000000000000000000000000000000000000000000000000000000000000000000000000000000000            0000000000000000000000000000000000000000000000000000000000000000000000000000000000000000000000000000000000000000000000000000000001194174000001445831000001445831            0000070108080362S8360 Old Beatty Ford Road                                                       Rockwell                                                                        NC28138     USA                            0809195001172000                                02282020                       T                                                         704-377-2536   mtaylor@robinsonbradshaw.com                       FM 0F                                                                                                                           
100RBH401-19-8758Maynard, Kate G.                000000120000000000000000000000000000000000000000000000000000000000000000000000000000000000000000000000000000000000000000000000000000000000000000000000000000000000000000000000000000000001416667000001416667000001416667            0087000001080000000000000000000000000000000000000000000000000000000000000000000000000000000000000000000000000000000000000000000012500003000012500003000012500003            0000170000000780M425 Ashworth Road                                                               Charlotte                                                                       NC28211     USA                            112019730925200010012001                                                       A                                                         704-377-2536   kmaynard@robinsonbradshaw.com                     EFM 0F                                                                                                                           
100RBH225-65-5563Haynes, Megan C.                000000040000000000000000000000000000000000000000000000000000000000000000000000000000000000000000000000000000000000000000000000000000000000000000000000000000000000000000000000000000000000606061000000606061000000606061            0087000000720000000000000000000000000000000000000000000000000000000000000000000000000000000000000000000000000000000000000000000010909098000010909098000010909098            0000145454641560S2551 Barry Street                                                               Charlotte                                                                       NC28205     USA                            040619920911201710012018                                                       A                                                         704-377-2536   mhaynes@robinsonbradshaw.com                      EFS 0F                                                                                                                           
100RBH224-15-2989Wilburn, Sandra K.              000000081250000000000000000000000000000000000000000000000000000000000000000000000000000000000000000000000000000000000000000000000000000000000000000000000000000000000000000000000000000000700758000000700758000000700758            0087000001462500000000000000000000000000000000000000000000000000000000000000000000000000000000000000000000000000000000000000000012613644000012613644000012613644            0000168181921560S3529 Tree Farm Road                                                             Hillsborough                                                                    NC27278     USA                            070719770815201609012017                                                       A                                                         919-328-8810   swilburn@robinsonbradshaw.com                     EFM 0F                                                                                                                           
100RBH225-23-4838Vintinner, M.  Scott            000000081250000000000000000000000000000000000000000000000000000000000000000000000000000000000000000000000000000000000000000000000000000000000000000000000000000000000000000000000000000000668209000000668209000000668209            0087000001462500000000000000000000000000000000000000000000000000000000000000000000000000000000000000000000000000000000000000000011909262000011909262000011909262            0000160370161560S5725 Mctaggart Lane                                                             Charlotte                                                                       NC28269     USA                            122719710830199309011994                                                       A                                                         704-377-2536   scottv@robinsonbradshaw.com                       EMM 1F                                                                                                                           
100RBH237-08-9580Gibson, Richard W.              000000162500000000054167000000000000000000000000000000000000000000000000000000000000000000000000000000000000000000000000000000000000000000000000000000000000000000000000000000000000000003083334000003083334000003083334            0173000001462500000000487503000000000000000000000000000000000000000000000000000000000000000000000000000000000000000000000000000027750006000027750006000027750006            0000370000081560M4841 Montclair Ave                                                              Charlotte                                                                       NC28211     USA                            052919580119198902011990                                                       A                                                         704-377-2536   rgibson@robinsonbradshaw.com                      EMM 4F                                                                                                                           
100RBH137-74-3153Willen, Stephan J.              000000000000000000000000000000000000000000000000000000000000000000000000000000000000000000000000000000000000000000000000000000014648000000065983000000014635000000018527000000000000000003208334000003208334000003208334            0173000000000000000000000000000000000000000000000000000000000000000000000000000000000000000000000000000000000000000000000000000028625006000028625006000028625006            0000385000081560M2114 Cumberland Ave                                                             Charlotte                                                                       NC28203     USA                            101319650923199610011997                                                       A                                                         704-377-2536   swillen@robinsonbradshaw.com                      EMM 0F                                                                                                                           
100RBH172-60-5098Lofton, Brandon                 000000000000000000000000000000000000000000000000000000000000000000000000000000000000000000000000000000000000000000000000000000025402000000000000000000000000000000000000000000000000000001916667000001916667000001916667            0173000000000000000000000000000000000000000000000000000000000000000000000000000000000000000000000000000000000000000000000000000017083337000017083337000017083337            0000230000001560M921 Dacavin Drive                                                               Charlotte                                                                       NC28226     USA                            110519780514200706012008                                                       A                                                         704-377-2536   blofton@robinsonbradshaw.com                      EMM 0F                                                                                                                           
100RBH005-60-3464Roy, Lori A.                    000000050000000000000000000000000000000000000000000000000000000000000000000000000000000000000000000000000000000000000000000000000000000000000000000000000000000000000000000000000000000000472822000000472822000000472822            0087000000900000000000000000000000000000000000000000000000000000000000000000000000000000000000000000000000000000000000000000000008426940000008426940000008426940            0000113477161560S8008 Pawleys Court                                                              FortMill                                                                        SC29707     USA                            011119630922198810011989                                                       A                                                         704-377-2536   lroy@robinsonbradshaw.com                         EFS 1F                                                                                                                           
100RBH454-65-9216Skidmore, Gregory L.            000000000000000000000000000000162500000000000000000000000000000000000000000000000000000000000000000000000000000000000000000000000000000000000000000000000000000000000000000000000000000002141667000002141667000002141667            0173000000000000000000000000000001462500000000000000000000000000000000000000000000000000000000000000000000000000000000000000000019075003000019075003000019075003            0000257000001560M721 McDonald Ave                                                                Charlotte                                                                       NC28203     USA                            052919800627201607012017                                                       A                                                         704-377-8144   gskidmore@robinsonbradshaw.com                    EMM 2F                                                                                                                           
100RBH247-27-9968Estes, Victoria D.              000000000000000000000000000000000000000000000000000000000000000000000000000000000000000000000000000000000000000000000000000000000000000000000000000000000000000000000000000000000000000000200935000000200935000000200935            0081000000000000000000000000000000000000000000000000000000000000000000000000000000000000000000000000000000000000000000000000000003599849000003599849000003599849            0000048212581515S460 Fred Nims Road                                                              Fort Mill                                                                       SC29715     USA                            090419741128200512012006                                                       A                                                         704-377-2536   vestes@robinsonbradshaw.com                       EFM 3F                                                                                                                           
100RBH248-57-0465Church, Brian L.                000000160000000000000000000000000000000000000000000000000000000000000000000000000000000000000000000000000000000000000000000000000000000000000000000000000000000000000000000000000000000001583334000001583334000001583334            0173000001440000000000000000000000000000000000000000000000000000000000000000000000000000000000000000000000000000000000000000000014016672000014016672000014016672            0000190000081560M5457 Addison Drive                                                              Charlotte                                                                       NC28211     USA                            071819830830201009012011                                                       A                                                         704-377-2536   bchurch@robinsonbradshaw.com                      EMM 2F                                                                                                                           
100RBH246-69-1451Hinman, Travis S.               000000000000000000000000000000025000000000000000000000000000000000000000000000000000000000000000000000000000000000000000000000000000000000000000000000000000000000000000000000000000000000606061000000606061000000606061            0087000000000000000000000000000000450000000000000000000000000000000000000000000000000000000000000000000000000000000000000000000010909098000010909098000010909098            0000145454641560S2025 Charlotte Drive                                                            Charlotte                                                                       NC28203     USA                            020619910925201710012018                                                       A                                                         704-377-2536   thinman@robinsonbradshaw.com                      EFM 0F                                                                                                                           
100RBH474-17-4335Funk, Bernard C.                000000050000000000000000000000000000000000000000000000000000000000000000000000000000000000000000000000000000000000000000000000000000000000000000000000000000000000000000000000000000000000634470000000634470000000634470            0087000000900000000000000000000000000000000000000000000000000000000000000000000000000000000000000000000000000000000000000000000011420460000011420460000011420460            0000152272801560S301 W 10Th Street                       #201                                    Charlotte                                                                       NC28202     USA                            082319860912201610012017                                                       A                                                         704-377-2536   bfunk@robinsonbradshaw.com                        EMM 0F                                                                                                                           
100RBH239-74-5282Brackett, Martin L.             000000000000000000000000000000000000000000000000000000000000000000000000000000000000000000000000000000000000000000000000000000000000000000000000000000000000000000000000000000000000000002083334000002083334000002083334            0130000000000000000000000000000000000000000000000000000000000000000000000000000000000000000000000000000000000000000000000000000018750006000018750006000018750006            0000250000081170M2040 Hastings Drive                                                             Charlotte                                                                       NC28207     USA                            022319471216198501011987                                                       A                                                         704-377-2536   mbrackett@robinsonbradshaw.com                    EMM13F                                                                                                                           
100RBH490-72-5798Schilli, David M.               000000000000000000000000000000162500000000054167000000000000000000000000000000000000000000000000000000000000000000000000000000000000000000000000000000000000000000000000000000000000000002916667000002916667000002916667            0173000000000000000000000000000001462500000000487503000000000000000000000000000000000000000000000000000000000000000000000000000026083337000026083337000026083337            0000350000001560M2110 Dilworth Rd W                                                              Charlotte                                                                       NC28203     USA                            082619630916199110011992                                                       A                                                         704-377-2536   dschilli@robinsonbradshaw.com                     EMM 0F                                                                                                                           
100RBH486-92-1384Hart, Jeffrey C.                000000000000000000000000000000000000000000000000000000000000000000000000000000000000000000000000000000000000000000000000000000000000000000000000000000000000000000000000000000000000000000000000000000000000000000000000            0000000000000000000000000000000000000000000000000000000000000000000000000000000000000000000000000000000000000000000000000000000000000000000003090286000003090286            0000360000000000M212 Telluride Trail                                                             ChapelHill                                                                      NC27514     USA                            0226197209221997                                08142019                       T                                                         704-377-2536   jhart@robinsonbradshaw.com                         MM 0F                                                                                                                           
100RBH127-60-8592Amadori, Justin                 000000000000000000000000000000000000000000000000000000000000000000000000000000000000000000000000000000000000000000000000000000005233000000000000000000000000000000000000000000000000000000315073000000315073000000315073            0087000000157500000000000000000000000000000000000000000000000000000000000000000000000000000000000000000000000000000000000000000005615442000005615442000005615442            0000075617581560S5669 Berry Ridge Dr                                                             Harrisburg                                                                      NC28075     USA                            032019770501201206012013                                                       A                                                         704-377-2536   jamadori@robinsonbradshaw.com                     EMM 0F                                                                                                                           
100RBH244-65-0713Graham, Kristin M.              000000000000000000000000000000000000000000000000000000000000000000000000000000000000000000000000000000000000000000000000000000000000000000000000000000000000000000000000000000000000000000000000000000000000000000000000            0000000000075000000000000000000000000000000000000000000000000000000000000000000000000000000000000000000000000000000000000000000001981251000002187342000002187342            0000084000000493S2900 Woodrow Drive                                                              Mebane                                                                          NC27302     USA                            1025197911122008                                03182020                       T                                                         704-377-2536   kgraham@robinsonbradshaw.com                       FM 0F                                                                                                                           
100RBH036-62-8786Athanas, Adrienne               000000000000000000000000000000004375000000000000000000000000000000000000000000000000000000000000000000000000000000000000000000002026000000000000000000000000000000000000000000000000000000148142000000148142000000148142            0087000000000000000000000000000000078750000000000000000000000000000000000000000000000000000000000000000000000000000000000000000002677970000002677970000002677970            0000035525161641S5800 Avelon Valley Drive                Apt 1628                                Charlotte                                                                       NC28277     USA                            051119910924201810012019                                                       A                                                         704-377-2536   adriennemary@gmail.com                            EFS 0F                                                                                                                           
100RBH242-43-6907Dove, W.  Scott                 000000000000000000000000000000162500000000054167000000000000000000000000000000000000000000000000000000000000000000000000000000000000000000000000000000000000000000000000000000000000000002958334000002958334000002958334            0173000000000000000000000000000001462500000000487503000000000000000000000000000000000000000000000000000000000000000000000000000026291672000026291672000026291672            0000355000081560M1425 N Cove Court                                                               Belmont                                                                         NC28012     USA                            052719680410200005012001                                                       A                                                         704-377-2536   sdove@robinsonbradshaw.com                        EMM 1F                                                                                                                           
100RBH239-29-4695Robinson, S.  Graham            000000162500000000054167000000000000000000000000000000000000000000000000000000000000000000000000000000000000000000000000000000000000000000000000000000000000000000000000000000000000000003625000000003625000000003625000            0173000001462500000000487503000000000000000000000000000000000000000000000000000000000000000000000000000000000000000000000000000032125000000032125000000032125000            0000435000001560M2313 Lathrop Lane                                                               Charlotte                                                                       NC28211     USA                            080419670907199310011994                                                       A                                                         704-377-2536   grobinson@robinsonbradshaw.com                    EMM 5F                                                                                                                           
100RBH243-53-8806Hall, Tonya D.                  000000000000000000000000000000006500000000000000000000000000000000000000000000000000000000000000000000000000000000000000000000003907000000013084000000000000000000005693000000006636000000156258000000156258000000156258            0082000000000000000000000000000000117000000000000000000000000000000000000000000000000000000000000000000000000000000000000000000002788514000002788514000002788514            0000037113681542S4818 Mcclure Road                                                               Charlotte                                                                       NC28216     USA                            050419820501201206012013                                                       A                                                         704-377-2536   thall@robinsonbradshaw.com                        EFM 1F                                                                                                                           
100RBH064-44-1441Lynch, Stephen M.               000000162500000000054167000000000000000000000000000000000000000000000000000000000000000000000000000000000000000000000000000000000000000000000000000000000000000000000000000000000000000004291667000004291667000004291667            0173000001462500000000487503000000000000000000000000000000000000000000000000000000000000000000000000000000000000000000000000000038458337000038458337000038458337            0000515000001560M2131 Malvern Road                                                               Charlotte                                                                       NC28207     USA                            010219600531198606011987                                                       A                                                         704-377-2536   slynch@robinsonbradshaw.com                       EMM 0F                                                                                                                           
100RBH240-41-3876Bare, April H.                  000000005000000000000000000000000000000000000000000000000000000000000000000000000000000000000000000000000000000000000000000000009283000000000000000000000000000000000000000000000000000000226447000000226447000000226447            0067000000090000000000000000000000000000000000000000000000000000000000000000000000000000000000000000000000000000000000000000000004202838000004202838000004202838            0000052780081294S6111 Bost Cutoff Rd                                                             Concord                                                                         NC28025     USA                            111519720808199609011997                                01092008               A                                                         704-377-2536   abare@robinsonbradshaw.com                        EFM 0F                                                                                                                           
100RBH246-86-7409Griffin, Robert G.              000000000000000000000000000000000000000000000000000000000000000000000000000000000000000000000000000000000000000000000000000000000000000000000000000000000000000000000000000000000000000000416667000000416667000000416667            0173000000000000000000000000000000000000000000000000000000000000000000000000000000000000000000000000000000000000000000000000000003750003000003750003000003750003            0000050000001560M620 Cherokee Rd                                                                 Charlotte                                                                       NC28207     USA                            020519530901197810011979                                                       A                                                         704-377-2536   rgriffin@robinsonbradshaw.com                     EMM13F                                                                                                                           
100RBH227-65-3242Evangelisto, Matthew R.         000000000000000000000000000000000000000000000000000000000000000000000000000000000000000000000000000000000000000000000000000000000000000000000000000000000000000000000000000000000000000000587121000000587121000000587121            0087000000000000000000000000000000000000000000000000000000000000000000000000000000000000000000000000000000000000000000000000000010568178000010568178000010568178            0000140909041560S1518 Mainline Blvd                      Apt. 16303                              Charlotte                                                                       NC28203     USA                            041219920917201810012019                                                       A                                                         704-377-2536   mevangelisto@robinsonbradshaw.com                 EMS 2F                                                                                                                           
100RBH251-77-6116Nitto, Amanda Pickens           000000000000000000000000000000162500000000000000000000000000000000000000000000000000000000000000000000000000000000000000000000000000000000000000000000000000000000000000000000000000000001477275000001477275000001477275            0173000000000000000000000000000001462500000000000000000000000000000000000000000000000000000000000000000000000000000000000000000013295474000013295474000013295474            0000177272951560M4618 Charlestowne Manor Drive                                                   Charlotte                                                                       NC28211     USA                            121919860509201106012012                                                       A                                                         704-377-2536   anitto@robinsonbradshaw.com                       EFM 0F                                                                                                                           
100RBH071-46-0985Garver, John B.                 000000162500000000054167000000000000000000000000000000000000000000000000000000000000000000000000000000000000000000000000000000000000000000000000000000000000000000000000000000000000000002875000000002875000000002875000            0173000001462500000000487503000000000000000000000000000000000000000000000000000000000000000000000000000000000000000000000000000025708334000025708334000025708334            0000345000001560M3410 Fawn Hill Road                                                             Matthews                                                                        NC28105     USA                            040419530710198908011990                                                       A                                                         704-377-2536   jgarver@robinsonbradshaw.com                      EMM 0F                                                                                                                           
100RBH239-82-6857Deal, J.  Elise                 000000010000000000000000000000000000000000000000000000000000000000000000000000000000000000000000000000000000000000000000000000003316000000012146000000007654000000000000000000000000000000356265000000356265000000356265            0081000000180000000000000000000000000000000000000000000000000000000000000000000000000000000000000000000000000000000000000000000006460479000006460479000006460479            0000085503601520S1701 Dilworth Rd West                   #4                                      Charlotte                                                                       NC28203     USA                            060219650601201107012012                                                       A                                                         704-377-2536   edeal@robinsonbradshaw.com                        EFS 2F                                                                                                                           
100RBH107-48-4376Brown, Annette L.               000000000000000000000000000000000000000000000000000000000000000000000000000000000000000000000000000000000000000000000000000000014387000000027435000000031746000000000000000000000000000000301108000000301108000000301108            0084000000000000000000000000000000000000000000000000000000000000000000000000000000000000000000000000000000000000000000000000000005443614000005548614000005548614            0000070000081555S932 Clover Gap Dr                                                               Charlotte                                                                       NC28214     USA                            050719570617200207012003                                                       A                                                         704-377-2536   abrown@robinsonbradshaw.com                       EFS 2F                                                                                                                           
100RBH100-70-7498Fannin, Amanda M                000000000000000000000000000000000000000000000000000000000000000000000000000000000000000000000000000000000000000000000000000000000000000000000000000000000000000000000000000000000000000000587121000000587121000000587121            0087000000000000000000000000000000000000000000000000000000000000000000000000000000000000000000000000000000000000000000000000000010568178000010568178000010568178            0000140909041560S2331 Crockett Park Pl                                                           Charlotte                                                                       NC28203     USA                            021919860729201908012020                                                       A                                                         704-377-8117   afannin@robinsonbradshaw.com                      EFM 2F                                                                                                                           
100RBH526-97-4359Beattie, Carl S.                000000140000000000000000000000000000000000000000000000000000000000000000000000000000000000000000000000000000000000000000000000000000000000000000000000000000000000000000000000000000000002000000000002000000000002000000            0173000001260000000000000000000000000000000000000000000000000000000000000000000000000000000000000000000000000000000000000000000017666668000017666668000017666668            0000240000001560M4018 Bridgewood Lane                                                            Charlotte                                                                       NC28226     USA                            080119770808200509012006                                                       A                                                         704-377-2536   cbeattie@robinsonbradshaw.com                     EMM 2F                                                                                                                           
