100RBH213-43-1625Dibilio, Ryan C                 000000000000000000000000000000000000000000000000000000000000000000000000000000000000000000000000000000000000000000000000000000000000000000000000000000000000000000000000000000000000000000000000000000000000000000000000            0000000000000000000000000000000000000000000000000000000000000000000000000000000000000000000000000000000000000000000000000000000000000000000000000000000000000000            0000136363684800S419 W 8th Street, Unit 50                                                       Charlotte                                                                       NC28202     USA                            0822199405062019                                        09082020               A                                                         704-377-8390   rdibilio@robinsonbradshaw.com                     EMS 0F                                                                                                                           
100RBH343-66-9521Carusone, Jennifer              000000000000000000000000000000000000000000000000000000000000000000000000000000000000000000000000000000000000000000000000000000000000000000000000000000000000000000000000000000000000000000358938000000358938000000358938            0081000000000000000000000000000000000000000000000000000000000000000000000000000000000000000000000000000000000000000000000000000005813901000005813901000005813901            0000086145243932S123 Alexandria Drive                                                            Mooresville                                                                     NC28115     USA                            1105197406012013                                                               A                                                         704-377-2536   jcarusone@robinsonbradshaw.com                    EFM 3F                                                                                                                           
100RBH248-89-4818Evans, Chelsea N.               000000000000000000000000000000000000000000000000000000000000000000000000000000000000000000000000000000000000000000000000000000000000000000000000000000000000000000000000000000000000000000568182000000568182000000568182            0087000000000000000000000000000000000000000000000000000000000000000000000000000000000000000000000000000000000000000000000000000009090912000009090912000009090912            0000136363687339S905 Kenilworth Avenue                   Apt 523                                 Charlotte                                                                       NC28204     USA                            0330199206192017                                        08122019               A                                                         704-377-2536   cevans@robinsonbradshaw.com                       EFS 0F                                                                                                                           
100RBH239-60-5043Vinroot, Richard A.             000000000000000000000000000000000000000000000000000000000000000000000000000000000000000000000000000000000000000000000000000000000000000000000000000000000000000000000000000000000000000000416667000000416667000000416667            0085000000000000000000000000000000000000000000000000000000000000000000000000000000000000000000000000000000000000000000000000000003333336000003333336000003333336            0000050000008000M325 Cherokee Place                                                              Charlotte                                                                       NC28207     USA                            0414194106011969                                                               A                                                         704-377-2536   rvinroot@robinsonbradshaw.com                     EMM 0F                                                                                                                           
100RBH106-74-5819Burks, Monica                   000000000000000000000000000000000000000000000000000000000000000000000000000000000000000000000000000000000000000000000000000000000000000000000000000000000000000000000000000000000000000000568182000000568182000000568182            0087000000000000000000000000000000000000000000000000000000000000000000000000000000000000000000000000000000000000000000000000000009090912000009090912000009090912            0000136363687339S102 Laurel Mist Way                                                             Durham                                                                          NC27703     USA                            0612198706192017                                        11182019               A                                                         704-377-2536   mburks@robinsonbradshaw.com                       EFM 3F                                                                                                                           
100RBH237-31-6340Smiley, Brenton R.              000000000000000000000000000000000000000000000000000000000000000000000000000000000000000000000000000000000000000000000000000000000000000000000000000000000000000000000000000000000000000000000000000000000000000000000000            0000000000000000000000000000000000000000000000000000000000000000000000000000000000000000000000000000000000000000000000000000000000775063000000775063000000775063            0000035000160344S749 Sam Brown Road                                                              Gastonia                                                                        NC28056     USA                            0731197908122019                                03182020                       T                                                         704-377-2536   bsmiley@robinsonbradshaw.com                       MS 0F                                                                                                                           
100RBH263-83-4304Gomez, David A.                 000000000000000000000000000000000000000000000000000000000000000000000000000000000000000000000000000000000000000000000000000000000000000000000000000000000000000000000000000000000000000000507500000000507500000000507500            0087000000000000000000000000000000000000000000000000000000000000000000000000000000000000000000000000000000000000000000000000000008030000000008030000000008030000            0000121800007339S6326 Shining Rock Court                                                         Charotte                                                                        NC28277     USA                            0824196411182019                                                               A                                                         704-377-2536   dgomez@robinsonbradshaw.com                       EMM 2F                                                                                                                           
100RBH239-57-7642O'Rourke, Allen T.              000000000000000000000000000000000000000000000000000000000000000000000000000000000000000000000000000000000000000000000000000000000000000000000000000000000000000000000000000000000000000000833334000000833334000000833334            0087000000000000000000000000000000000000000000000000000000000000000000000000000000000000000000000000000000000000000000000000000013333344000013333344000013333344            0000200000167339S3206 Pinehurst Place                                                            Charlotte                                                                       NC28209     USA                            1201198109302019                                                               A                                                         704-377-8316   aorourke@robinsonbradshaw.com                     EMM 0F                                                                                                                           
100RBH472-08-7450Berkland, Adam A.               000000000000000000000000000000000000000000000000000000000000000000000000000000000000000000000000000000000000000000000000000000000000000000000000000000000000000000000000000000000000000000662879000000662879000000662879            0087000000000000000000000000000000000000000000000000000000000000000000000000000000000000000000000000000000000000000000000000000010606064000010606064000010606064            0000159090967339S305 Spring Garden Drive                                                         Durham                                                                          NC27713     USA                            0818198609282015                                                               A                                                         919-328-8823   aberkland@robinsonbradshaw.com                    EMM 4F                                                                                                                           
100RBH245-76-6225Baldwin, Benjamin W.            000000000000000000000000000000000000000000000000000000000000000000000000000000000000000000000000000000000000000000000000000000000000000000000000000000000000000000000000000000000000000002583334000002583334000002583334            0173000000000000000000000000000000000000000000000000000000000000000000000000000000000000000000000000000000000000000000000000000020583338000020583338000020583338            0000310000088672M1018 Queens Road West                                                           Charlotte                                                                       NC28207     USA                            0110196209061988                                                               A                                                         704-377-2536   bbaldwin@robinsonbradshaw.com                     EMM13F                                                                                                                           
100RBH129-68-5312Bermudez, Yanira                000000000000000000000000000000005000000000000000000000000000000000000000000000000000000000000000000000000000000000000000000000000000000000000000000000000000000000000000000000000000000000000000000000000000000000000000            0000000000020000000000000000000000000000000000000000000000000000000000000000000000000000000000000000000000000000000000000000000002007861000002334853000002334853            0000059758080020S6043 Shamrock Green Drive                                                       Clover                                                                          SC29710     USA                            0807197907012008                                02192020                       T                                                         704-377-2536   ybermudez@robinsonbradshaw.com                     FM 2F                                                                                                                           
100RBH327-60-0270Heusing, Tina                   000000000000000000000000000000000000000000000000000000000000000000000000000000000000000000000000000000000000000000000000000000000000000000000000000000000000000000000000000000000000000000000000000000000000000000000000            0000000000000000000000000000000000000000000000000000000000000000000000000000000000000000000000000000000000000000000000000000000000542359000000542359000000542359            0000041000164112S11810 Elevation Point Drive             Apt. 5102                               Charlotte                                                                       NC28277     USA                            0614196805142018                                02202020                       T                                                         704-377-2536   theusing@robinsonbradshaw.com                      FZ 2F                                                                                                                           
100RBH238-23-8212Evans, Tenley Farrell           000000000000000000000000000000000000000000000000000000000000000000000000000000000000000000000000000000000000000000000000000000000000000000000000000000000000000000000000000000000000000000562500000000562500000000562500            0087000000000000000000000000000000000000000000000000000000000000000000000000000000000000000000000000000000000000000000000000000008593263000008593263000008593263            0000135000001072S416 Greenfield Drive                                                            Lexington                                                                       NC27295     USA                            1210196506242019                                                               A                                                         704-377-2536   tfevans@robinsonbradshaw.com                      EFM 0F                                                                                                                           
100RBH250-27-4525Smith, Harry L                  000000000000000000000000000000000000000000000000000000000000000000000000000000000000000000000000000000000000000000000000000000000000000000000000000000000000000000000000000000000000000000208746000000208746000000208746            0084000000000000000000000000000000000000000000000000000000000000000000000000000000000000000000000000000000000000000000000000000003034248000003034248000003034248            0000048720000520S8915 Mcadam Way                                                                 Charlotte                                                                       NC28269     USA                            1124196701022019                                                               A                                                         704-377-2536   hsmith@robinsonbradshaw.com                       EMM 6F                                                                                                                           
100RBH576-55-1427Wagner, Andrew R.               000000000000000000000000000000000000000000000000000000000000000000000000000000000000000000000000000000000000000000000000000000000000000000000000000000000000000000000000000000000000000000587121000000587121000000587121            0087000000000000000000000000000000000000000000000000000000000000000000000000000000000000000000000000000000000000000000000000000009393936000009393936000009393936            0000140909047339S3211 Lassiter Street                                                            Durham                                                                          NC27707     USA                            1230199008062018                                                               A                                                         704-377-2536   awagner@robinsonbradshaw.com                      EMM 3F                                                                                                                           
100RBH247-83-3003Steadman, Garrett               000000000000000000000000000000000000000000000000000000000000000000000000000000000000000000000000000000000000000000000000000000000000000000000000000000000000000000000000000000000000000000000000000000000000000000000000            0000000000000000000000000000000000000000000000000000000000000000000000000000000000000000000000000000000000000000000000000000000000000000000000000000000000000000            0000136363680000S26 Olde Farm Road                                                               Pittsboro                                                                       NC27312     USA                            0912198905072018                                        09082020               A                                                         704-377-8179   gsteadman@robinsonbradshaw.com                    EMM 0F                                                                                                                           
100RBH098-56-3659Rush, Meshauna                  000000000000000000000000000000000000000000000000000000000000000000000000000000000000000000000000000000000000000000000000000000000000000000000000000000000000000000000000000000000000000000327761000000327761000000327761            0087000000007500000000000000000000000000000000000000000000000000000000000000000000000000000000000000000000000000000000000000000005186048000005186048000005186048            0000078662587339S1251 New River Drive                                                            Concord                                                                         NC28025     USA                            0612196601022018                                                               A                                                         704-377-8119   srush@robinsonbradshaw.com                        EFM 2F                                                                                                                           
100RBH241-67-5925Mobley, Veronica R.             000000000000000000000000000000000000000000000000000000000000000000000000000000000000000000000000000000000000000000000000000000000000000000000000000000000000000000000000000000000000000000224862000000224862000000224862            0086000000000000000000000000000000000000000000000000000000000000000000000000000000000000000000000000000000000000000000000000000003433944000003433944000003433944            0000050750164960S7915 Philadelphia Court                 Apt 205                                 Charlotte                                                                       NC28216     USA                            0410199005282019                                                               A                                                         704-377-2536   vmobley@robinsonbradshaw.com                      EFM 0F                                                                                                                           
100RBH239-47-3293Jarrell, Douglas M.             000000000000000000000000000000000000000000000000000000000000000000000000000000000000000000000000000000000000000000000000000000000000000000000000000000000000000000000000000000000000000002400000000002400000000002400000            0173000000000000000000000000000000000000000000000000000000000000000000000000000000000000000000000000000000000000000000000000000018866668000018866668000018866668            0000288000008672M2432 Danbury St                                                                 Charlotte                                                                       NC28211     USA                            0630196910301995                                                               A                                                         704-377-2536   djarrell@robinsonbradshaw.com                     EMM 2F                                                                                                                           
100RBH602-05-2750Kerr, Jason S                   000000000000000000000000000000000000000000000000000000000000000000000000000000000000000000000000000000000000000000000000000000000000000000000000000000000000000000000000000000000000000000937500000000937500000000937500            0087000000000000000000000000000000000000000000000000000000000000000000000000000000000000000000000000000000000000000000000000000015000000000015000000000015000000            0000225000007339S215 N Pine Street                       Unit 3409                               Charlotte                                                                       NC28202     USA                            0928197710092019                                                               A                                                         704-377-2536   jkerr@robinsonbradshaw.com                        EMM 2F                                                                                                                           
100RBH515-54-3426Taylor, Maryon L.               000000000000000000000000000000000000000000000000000000000000000000000000000000000000000000000000000000000000000000000000000000000000000000000000000000000000000000000000000000000000000000000000000000000000000000000000            0000000000000000000000000000000000000000000000000000000000000000000000000000000000000000000000000000000000000000000000000000000001194174000001445831000001445831            0000070108086215S8360 Old Beatty Ford Road                                                       Rockwell                                                                        NC28138     USA                            0809195001172000                                02282020                       T                                                         704-377-2536   mtaylor@robinsonbradshaw.com                       FZ 0F                                                                                                                           
100RBH242-67-8065Wright, Gabriel                 000000000000000000000000000000000000000000000000000000000000000000000000000000000000000000000000000000000000000000000000000000000000000000000000000000000000000000000000000000000000000000606061000000606061000000606061            0087000000000000000000000000000000000000000000000000000000000000000000000000000000000000000000000000000000000000000000000000000009696976000009696976000009696976            0000145454647339S2922 S Devon Street                                                             Charlotte                                                                       NC28213     USA                            0719198509112017                                                               A                                                         704-377-2536   gwright@robinsonbradshaw.com                      EMM 0F                                                                                                                           
100RBH172-60-5098Lofton, Brandon                 000000000000000000000000000000000000000000000000000000000000000000000000000000000000000000000000000000000000000000000000000000000000000000000000000000000000000000000000000000000000000001916667000001916667000001916667            0173000000000000000000000000000000000000000000000000000000000000000000000000000000000000000000000000000000000000000000000000000015166670000015166670000015166670            0000230000008672M921 Dacavin Drive                                                               Charlotte                                                                       NC28226     USA                            1105197805142007                                                               A                                                         704-377-2536   blofton@robinsonbradshaw.com                      EMM 0F                                                                                                                           
100RBH247-27-9968Estes, Victoria D.              000000000000000000000000000000000000000000000000000000000000000000000000000000000000000000000000000000000000000000000000000000000000000000000000000000000000000000000000000000000000000000202246000000202246000000202246            0082000000000000000000000000000000000000000000000000000000000000000000000000000000000000000000000000000000000000000000000000000003195308000003195308000003195308            0000048212583422S460 Fred Nims Road                                                              Fort Mill                                                                       SC29715     USA                            0904197411282005                                                               A                                                         704-377-2536   vestes@robinsonbradshaw.com                       EFM 3F                                                                                                                           
100RBH127-60-8592Amadori, Justin                 000000000000000000000000000000000000000000000000000000000000000000000000000000000000000000000000000000000000000000000000000000000000000000000000000000000000000000000000000000000000000000315073000000315073000000315073            0087000000157500000000000000000000000000000000000000000000000000000000000000000000000000000000000000000000000000000000000000000004985296000004985296000004985296            0000075617587339S5669 Berry Ridge Dr                                                             Harrisburg                                                                      NC28075     USA                            0320197705012012                                                               A                                                         704-377-2536   jamadori@robinsonbradshaw.com                     EMM 0F                                                                                                                           
100RBH244-65-0713Graham, Kristin M.              000000000000000000000000000000000000000000000000000000000000000000000000000000000000000000000000000000000000000000000000000000000000000000000000000000000000000000000000000000000000000000000000000000000000000000000000            0000000000075000000000000000000000000000000000000000000000000000000000000000000000000000000000000000000000000000000000000000000001981251000002187342000002187342            0000084000009294S2900 Woodrow Drive                                                              Mebane                                                                          NC27302     USA                            1025197911122008                                03182020                       T                                                         704-377-2536   kgraham@robinsonbradshaw.com                       FM 0F                                                                                                                           
100RBH239-74-5282Brackett, Martin L.             000000000000000000000000000000000000000000000000000000000000000000000000000000000000000000000000000000000000000000000000000000000000000000000000000000000000000000000000000000000000000002083334000002083334000002083334            0130000000000000000000000000000000000000000000000000000000000000000000000000000000000000000000000000000000000000000000000000000016666672000016666672000016666672            0000250000084000M2040 Hastings Drive                                                             Charlotte                                                                       NC28207     USA                            0223194712161985                                                               A                                                         704-377-2536   mbrackett@robinsonbradshaw.com                    EMM13F                                                                                                                           
100RBH246-86-7409Griffin, Robert G.              000000000000000000000000000000000000000000000000000000000000000000000000000000000000000000000000000000000000000000000000000000000000000000000000000000000000000000000000000000000000000000416667000000416667000000416667            0173000000000000000000000000000000000000000000000000000000000000000000000000000000000000000000000000000000000000000000000000000003333336000003333336000003333336            0000050000008672M620 Cherokee Rd                                                                 Charlotte                                                                       NC28207     USA                            0205195309011978                                                               A                                                         704-377-2536   rgriffin@robinsonbradshaw.com                     EMM13F                                                                                                                           
100RBH227-65-3242Evangelisto, Matthew R.         000000000000000000000000000000000000000000000000000000000000000000000000000000000000000000000000000000000000000000000000000000000000000000000000000000000000000000000000000000000000000000587121000000587121000000587121            0087000000000000000000000000000000000000000000000000000000000000000000000000000000000000000000000000000000000000000000000000000009393936000009393936000009393936            0000140909047339S1518 Mainline Blvd                      Apt. 16303                              Charlotte                                                                       NC28203     USA                            0412199209172018                                                               A                                                         704-377-2536   mevangelisto@robinsonbradshaw.com                 EMS 2F                                                                                                                           
100RBH100-70-7498Fannin, Amanda M                000000000000000000000000000000000000000000000000000000000000000000000000000000000000000000000000000000000000000000000000000000000000000000000000000000000000000000000000000000000000000000587121000000587121000000587121            0087000000000000000000000000000000000000000000000000000000000000000000000000000000000000000000000000000000000000000000000000000009393936000009393936000009393936            0000140909047339S2331 Crockett Park Pl                                                           Charlotte                                                                       NC28203     USA                            0219198607292019                                                               A                                                         704-377-8117   afannin@robinsonbradshaw.com                      EFM 2F                                                                                                                           
100RBH213-41-5358LaRose, Brandon                 000000000000000000000000000000000000000000000000000000000000000000000000000000000000000000000000000000000000000000000000000000000000000000000000000000000000000000000000000000000000000000000000000000000000000000000000            0000000000000000000000000000000000000000000000000000000000000000000000000000000000000000000000000000000000000000000000000000000000000000000000000000000000000000            0000136363684800S225 S. Poplar St                        Apt 2509                                Charlotte                                                                       NC28202     USA                            0203199405132019                                        09082020               A                                                         704-377-8124   blarose@robinsonbradshaw.com                      EMS 0F                                                                                                                           
100RBH251-80-3464Sink, Caroline W.               000000000000000000000000000000000000000000000000000000000000000000000000000000000000000000000000000000000000000000000000000000000000000000000000000000000000000000000000000000000000000001333334000001333334000001333334            0140000000000000000000000000000000000000000000000000000000000000000000000000000000000000000000000000000000000000000000000000000010666672000010666672000010666672            0000160000082000M1142 Scotland Avenue                                                            Charlotte                                                                       NC28207     USA                            1231195710011982                                                               A                                                         704-377-2536   csink@robinsonbradshaw.com                        EFM 9F                                                                                                                           
100RBH242-41-8219Mims, Latoya B.                 000000000000000000000000000000000000000000000000000000000000000000000000000000000000000000000000000000000000000000000000000000000000000000000000000000000000000000000000000000000000000000212298000000212298000000212298            0088000000000000000000000000000000000000000000000000000000000000000000000000000000000000000000000000000000000000000000000000000003426964000003426964000003426964            0000050250003377S909 Sandy Lane                                                                  Gastonia                                                                        NC28056     USA                            0906198311042013                                                               A                                                         704-377-2536   lmims@robinsonbradshaw.com                        EFM 0F                                                                                                                           
100RBH342-88-2991Biffany, Brendan                000000000000000000000000000000000000000000000000000000000000000000000000000000000000000000000000000000000000000000000000000000000000000000000000000000000000000000000000000000000000000000568182000000568182000000568182            0087000000000000000000000000000000000000000000000000000000000000000000000000000000000000000000000000000000000000000000000000000009090912000009090912000009090912            0000136363687339S3405 Dairy Farm Lane                                                            Charlotte                                                                       NC28209     USA                            0318199305072018                                        08052019               A                                                         704-377-8125   bbiffany@robinsonbradshaw.com                     EMM 2F                                                                                                                           
100RBH136-88-4295Bruynell, Bret                  000000000000000000000000000000000000000000000000000000000000000000000000000000000000000000000000000000000000000000000000000000000000000000000000000000000000000000000000000000000000000000237826000000237826000000237826            0084000000000000000000000000000000000000000000000000000000000000000000000000000000000000000000000000000000000000000000000000000001182501000001182501000001182501            0000060000000245S1010 Glen Lake Blvd                                                             Pitman                                                                          NJ08071     USA                            0527198706152020                                                               A                                                         704-943-7707   bbruynell@robinsonbradshaw.com                    EMS 0F                                                                                                                           
100RBH239-72-6358Lilien, Robert S                000000000000000000000000000000000000000000000000000000000000000000000000000000000000000000000000000000000000000000000000000000000000000000000000000000000000000000000000000000000000000000000000000000000000000000000000            0000000000000000000000000000000000000000000000000000000000000000000000000000000000000000000000000000000000000000000000000000000000000000000000000000000000000000            0000027775190000M1533 Queens Rd West                                                             Charlotte                                                                       NC28207     USA                            1029194705062002                                                               A                                                         704-377-2536   rlilien@robinsonbradshaw.com                      EMM99F                                                                                                                           
100RBH313-11-6612Taff, Ellen A.                  000000000000000000000000000000030000000000000000000000000000000000000000000000000000000000000000000000000000000000000000000000000000000000000000000000000000000000000000000000000000000000000000000000000000000000000000            0000000000000000000000000000000000000000000000000000000000000000000000000000000000000000000000000000000000000000000000000000000002317783000002436233000002436233            0000051450001860S522 North Pine Street                                                           Charlotte                                                                       NC28202     USA                            1112199103132017                                05292020                       T                                                         704-377-2536   etaff@robinsonbradshaw.com                        EFZ 0F                                                                                                                           
100RBH194-64-6273Kelly, Anne I.                  000000000000000000000000000000000000000000000000000000000000000000000000000000000000000000000000000000000000000000000000000000000000000000000000000000000000000000000000000000000000000000360319000000360319000000360319            0082000000000000000000000000000000000000000000000000000000000000000000000000000000000000000000000000000000000000000000000000000005774638000005903638000005903638            0000086000162493S1530 Queens Rd                          Apt 404                                 Charlotte                                                                       NC28207     USA                            0312196712191996                                                               A                                                         704-377-2536   akelly@robinsonbradshaw.com                       EFM 0F                                                                                                                           
100RBH245-56-0013Sink, Robert C.                 000000000000000000000000000000000000000000000000000000000000000000000000000000000000000000000000000000000000000000000000000000000000000000000000000000000000000000000000000000000000000000583334000000583334000000583334            0085000000000000000000000000000000000000000000000000000000000000000000000000000000000000000000000000000000000000000000000000000004666672000004666672000004666672            0000070000088000M1142 Scotland Avenue                                                            Charlotte                                                                       NC28207     USA                            0724193809011965                                                               A                                                         704-377-2536   rsink@robinsonbradshaw.com                        EMM 2F                                                                                                                           
100RBH056-80-4165White, Ethan R.                 000000000000000000000000000000000000000000000000000000000000000000000000000000000000000000000000000000000000000000000000000000000000000000000000000000000000000000000000000000000000000000568182000000568182000000568182            0087000000000000000000000000000000000000000000000000000000000000000000000000000000000000000000000000000000000000000000000000000009090912000009090912000009090912            0000136363687339S1209 S College Street                   #2204                                   Charlotte                                                                       NC28203     USA                            1003199109162019                                                               A                                                         704-377-8395   ewhite@robinsonbradshaw.com                       EMS 2F                                                                                                                           
100RBH251-69-4307LeCompte, Jonathan D.           000000000000000000000000000000047000000000000000000000000000000000000000000000000000000000000000000000000000000000000000000000000000000000000000000000000000000000000000000000000000000000000000000000000000000000000000            0000000000000000000000000000000000000000000000000000000000000000000000000000000000000000000000000000000000000000000000000000000003982513000003982513000003982513            0000152272804402S3819 Annlin Avenue                                                              Charlotte                                                                       NC28209     USA                            0320198409122016                                04032020                       T                                                         704-377-2536   jlecompte@robinsonbradshaw.com                     MM 0F                                                                                                                           
100RBH238-13-3116Hendrix, J.  Robert             000000000000000000000000000000000000000000000000000000000000000000000000000000000000000000000000000000000000000000000000000000000000000000000000000000000000000000000000000000000000000000336666000000336666000000336666            0088000000000000000000000000000000000000000000000000000000000000000000000000000000000000000000000000000000000000000000000000000004687671000004810171000004810171            0000070568008039S3915 Pomfret Lane                                                               Charlotte                                                                       NC28211     USA                            1030196802162009                                                               A                                                         704-377-2536   bhendrix@robinsonbradshaw.com                     EMS 0F                                                                                                                           
100RBH354-90-7851Misner, Timothy P               000000000000000000000000000000000000000000000000000000000000000000000000000000000000000000000000000000000000000000000000000000000000000000000000000000000000000000000000000000000000000000000000000000000000000000000000            0000000000000000000000000000000000000000000000000000000000000000000000000000000000000000000000000000000000000000000000000000000000000000000000000000000000000000            0000136363684800S525 S. Church Street                    Apt 1908                                Charlotte                                                                       NC28202     USA                            0323199505132019                                        09082020               A                                                         704-377-8315   tmisner@robinsonbradshaw.com                      EMS 0F                                                                                                                           
100RBH237-43-5100Woolard, Deborah D.             000000000000000000000000000000000000000000000000000000000000000000000000000000000000000000000000000000000000000000000000000000000000000000000000000000000000000000000000000000000000000000000000000000000000000000000000            0000000000053900000000000000000000000000000000000000000000000000000000000000000000000000000000000000000000000000000000000000000001800579000001853079000001853079            0000061200006548S7137 Founders Club Court                                                        Charlotte                                                                       NC28269     USA                            1206197307102017                                04152020                       T                                                         704-377-2536   dwoolard@robinsonbradshaw.com                      FS 6F                                                                                                                           
100RBH239-77-2135Lindsay, Megan                  000000000000000000000000000000000000000000000000000000000000000000000000000000000000000000000000000000000000000000000000000000000000000000000000000000000000000000000000000000000000000000251311000000251311000000251311            0092000000000000000000000000000000000000000000000000000000000000000000000000000000000000000000000000000000000000000000000000000003765399000003765399000003765399            0000052272663791S709 Stratford Woods Road                                                        Matthews                                                                        NC28105     USA                            0810199311262018                                                               A                                                         704-377-2536   mlindsay@robinsonbradshaw.com                     EFS 0F                                                                                                                           
100RBH238-55-0924Smith, Tracy M                  000000000000000000000000000000000000000000000000000000000000000000000000000000000000000000000000000000000000000000000000000000000000000000000000000000000000000000000000000000000000000000281663000000281663000000281663            0083000000000000000000000000000000000000000000000000000000000000000000000000000000000000000000000000000000000000000000000000000004403220000004403220000004403220            0000065975164801S804 W Morgan Street                     Apt. K1A                                Raleigh                                                                         NC27603     USA                            0328197305132019                                09032020                       T                                                         919-328-8836   tsmith@robinsonbradshaw.com                       EFZ 1F                                                                                                                           
100RBH537-23-6091Solodyankin, Anatoliy           000000000000000000000000000000000000000000000000000000000000000000000000000000000000000000000000000000000000000000000000000000000000000000000000000000000000000000000000000000000000000000738636000000738636000000738636            0087000000000000000000000000000000000000000000000000000000000000000000000000000000000000000000000000000000000000000000000000000011818176000011818176000011818176            0000177272647339S3100 Fairington Drive                                                           IndianTrail                                                                     NC28079     USA                            0827198805142012                                                               A                                                         704-377-2536   asolo@robinsonbradshaw.com                        EMM 4F                                                                                                                           
100RBH245-43-6911Brooks, Jill                    000000000000000000000000000000000000000000000000000000000000000000000000000000000000000000000000000000000000000000000000000000000000000000000000000000000000000000000000000000000000000000199006000000199006000000199006            0052000000000000000000000000000000000000000000000000000000000000000000000000000000000000000000000000000000000000000000000000000001820287000001820287000001820287            0000079043041493S8704 Great Bear Ct                                                              Charlotte                                                                       NC28269     USA                            1007196810072016                                                               A                                                         704-377-2536   jbrooks@robinsonbradshaw.com                      EFM 0P                                                                                                                           
100RBH242-54-7635McKeithen, A.  Ward             000000000000000000000000000000000000000000000000000000000000000000000000000000000000000000000000000000000000000000000000000000000000000000000000000000000000000000000000000000000000000000000000000000000000000000000000            0000000000000000000000000000000000000000000000000000000000000000000000000000000000000000000000000000000000000000000000000000000000000000000000000000000000000000            0000080004650000M1029 Coddington Dr                                                              Charlotte                                                                       NC28211     USA                            0121193809011965                                                               A                                                         704-377-8331   wmckeithen@robinsonbradshaw.com                   EMM 0F                                                                                                                           
100RBH243-86-2408Ratteree, Jane S.               000000000000000000000000000000000000000000000000000000000000000000000000000000000000000000000000000000000000000000000000000000000000000000000000000000000000000000000000000000000000000000000000000000000000000000000000            0000000000000000000000000000000000000000000000000000000000000000000000000000000000000000000000000000000000000000000000000000000000720000000000720000000000720000            0000415992003600M264 Crownsgate Court                                                            Charlotte                                                                       NC28207     USA                            0517195910261987                                                               A                                                         704-377-2536   jratteree@robinsonbradshaw.com                    EFM 0F                                                                                                                           
100RBH591-43-5713Fleming, Alexa Mendes           000000000000000000000000000000000000000000000000000000000000000000000000000000000000000000000000000000000000000000000000000000000000000000000000000000000000000000000000000000000000000000568182000000568182000000568182            0087000000000000000000000000000000000000000000000000000000000000000000000000000000000000000000000000000000000000000000000000000009090912000009090912000009090912            0000136363687339S205 New Castle Place                                                            ChapelHill                                                                      NC27517     USA                            0615199406192017                                        09162019               A                                                         704-377-2536   lfleming@robinsonbradshaw.com                     EFM 4F                                                                                                                           
100RBH255-81-2118Cogar, Scott                    000000000000000000000000000000000000000000000000000000000000000000000000000000000000000000000000000000000000000000000000000000000000000000000000000000000000000000000000000000000000000000634470000000634470000000634470            0087000000000000000000000000000000000000000000000000000000000000000000000000000000000000000000000000000000000000000000000000000010151520000010151520000010151520            0000152272807339S2547 Country Club Lane                                                          Charlotte                                                                       NC28205     USA                            0831199105212018                                                               A                                                         704-377-8333   scogar@robinsonbradshaw.com                       EMM 0F                                                                                                                           
100RBH244-57-6209Cauble, Rayford                 000000000000000000000000000000000000000000000000000000000000000000000000000000000000000000000000000000000000000000000000000000000000000000000000000000000000000000000000000000000000000000417842000000417842000000417842            0087000000000000000000000000000000000000000000000000000000000000000000000000000000000000000000000000000000000000000000000000000006611372000006611372000006611372            0000100282087339S670 Wilmar St Nw                                                                Concord                                                                         NC28025     USA                            1013197604022018                                                               A                                                         704-377-2536   icauble@robinsonbradshaw.com                      EMM 0F                                                                                                                           
100RBH011-42-2075Conley, John M                  000000000000000000000000000000000000000000000000000000000000000000000000000000000000000000000000000000000000000000000000000000000000000000000000000000000000000000000000000000000000000000000000000000000000000000000000            0000000000000000000000000000000000000000000000000000000000000000000000000000000000000000000000000000000000000000000000000000000000000000000000000000000000000000            0000079999920000M121 Summerlin Drive                                                             ChapelHill                                                                      NC27514     USA                            1213194901241989                                                               A                                                         704-377-2536   jconley@robinsonbradshaw.com                      EMM 0F                                                                                                                           
100RBH245-69-0923Soubouti, Fara                  000000000000000000000000000000000000000000000000000000000000000000000000000000000000000000000000000000000000000000000000000000000000000000000000000000000000000000000000000000000000000000000000000000000000000000000000            0000000000000000000000000000000000000000000000000000000000000000000000000000000000000000000000000000000000000000000000000000000000000000000000000000000000000000            0000136363680000S2006 Dugan Drive                                                                Charlotte                                                                       NC28270     USA                            0108199105142018                                        09082020               A                                                         704-377-8113   fsoubouti@robinsonbradshaw.com                    EFS 0F                                                                                                                           
100RBH506-33-5860Goot, Miranda E                 000000000000000000000000000000000000000000000000000000000000000000000000000000000000000000000000000000000000000000000000000000000000000000000000000000000000000000000000000000000000000000000000000000000000000000000000            0000000000000000000000000000000000000000000000000000000000000000000000000000000000000000000000000000000000000000000000000000000000000000000000000000000000000000            0000136363684800S425 W. Trade Street #719                                                        Charlotte                                                                       NC28202     USA                            0228199405132019                                        09082020               A                                                         704-377-8111   mgoot@robinsonbradshaw.com                        EFS 0F                                                                                                                           
100RBH249-80-2079McGuire, Lisa W                 000000000000000000000000000000000000000000000000000000000000000000000000000000000000000000000000000000000000000000000000000000000000000000000000000000000000000000000000000000000000000000000000000000000000000000000000            0000000000000000000000000000000000000000000000000000000000000000000000000000000000000000000000000000000000000000000000000000000000937500000000937500000000937500            0000075000006001S12523 Abbotsbury Court                                                          Charlotte                                                                       NC28277     USA                            0130195910142019                                02122020                       T                                                         704-377-2536   lmcguire@robinsonbradshaw.com                      FD 0F                                                                                                                           
100RBH166-76-2725Romero, Jazzmin                 000000000000000000000000000000000000000000000000000000000000000000000000000000000000000000000000000000000000000000000000000000000000000000000000000000000000000000000000000000000000000000000000000000000000000000000000            0000000000000000000000000000000000000000000000000000000000000000000000000000000000000000000000000000000000000000000000000000000000000000000000000000000000000000            0000136363684800S1009 N Caldwell Street                  Apt. 1319                               Charlotte                                                                       NC28206     USA                            0205199505132019                                        09082020               A                                                         704-377-8163   jromero@robinsonbradshaw.com                      EFS 0F                                                                                                                           
100RBH238-94-4652Causey, Mary H.                 000000000000000000000000000000000000000000000000000000000000000000000000000000000000000000000000000000000000000000000000000000000000000000000000000000000000000000000000000000000000000000000000000000000000000000000000            0000000000000000000000000000000000000000000000000000000000000000000000000000000000000000000000000000000000000000000000000000000000233502000000244371000000244371            0000056000162539S3625 Full Moon Avenue                   Apt. 2418                               Charlotte                                                                       NC28262     USA                            0811195412052011                                01152020                       T                                                         704-377-2536   mcausey@robinsonbradshaw.com                       FM 0F                                                                                                                           
100RBH243-57-5138Major, Sharon                   000000000000000000000000000000000000000000000000000000000000000000000000000000000000000000000000000000000000000000000000000000000000000000000000000000000000000000000000000000000000000000000000000000000000000000000000            0000000000000000000000000000000000000000000000000000000000000000000000000000000000000000000000000000000000000000000000000000000000066609000000066609000000066609            0000056375045359S2944 Little Stream Court                                                        Matthews                                                                        NC28105     USA                            1031197709242018                                01032020                       T                                                         704-377-2536   smajor@robinsonbradshaw.com                        FZ 3F                                                                                                                           
100RBH243-83-7243Little, Ronika                  000000000000000000000000000000000000000000000000000000000000000000000000000000000000000000000000000000000000000000000000000000000000000000000000000000000000000000000000000000000000000000151993000000151993000000151993            0088000000000000000000000000000000000000000000000000000000000000000000000000000000000000000000000000000000000000000000000000000002362426000002362426000002362426            0000035525162242S4125 Double Creek Crossing Dr           Apt 214                                 Charlotte                                                                       NC28269     USA                            0707199605012019                                                               A                                                         704-377-2536   rlittle@robinsonbradshaw.com                      EFS 1F                                                                                                                           
100RBH241-61-0958Moore, Jennifer D.              000000000000000000000000000000000000000000000000000000000000000000000000000000000000000000000000000000000000000000000000000000000000000000000000000000000000000000000000000000000000000000265870000000265870000000265870            0091000000000000000000000000000000000000000000000000000000000000000000000000000000000000000000000000000000000000000000000000000003869008000003869008000003869008            0000055825083624S141 Autumn Woods Blvd                                                           Mt. Holly                                                                       NC28120     USA                            0806197401132020                                                               A                                                         704-350-7113   jmoore@robinsonbradshaw.com                       EFS 0F                                                                                                                           
100RBH313-76-9400Ericksen, Sarah                 000000000000000000000000000000000000000000000000000000000000000000000000000000000000000000000000000000000000000000000000000000000000000000000000000000000000000000000000000000000000000000211459000000211459000000211459            0081000000000000000000000000000000000000000000000000000000000000000000000000000000000000000000000000000000000000000000000000000003317166000003317166000003317166            0000050750166999S205 Torrey Pines Dr                                                             Cary                                                                            NC27513     USA                            0905197501062020                                                               A                                                         919-328-8811   sericksen@robinsonbradshaw.com                    EFM 0F                                                                                                                           
100RBH245-59-6378Sullivan, Sean M.               000000000000000000000000000000000000000000000000000000000000000000000000000000000000000000000000000000000000000000000000000000000000000000000000000000000000000000000000000000000000000002000000000002000000000002000000            0173000000000000000000000000000000000000000000000000000000000000000000000000000000000000000000000000000000000000000000000000000016634562000016634562000016634562            0000240000006004M1212 Cliffside Circle                                                           Raleigh                                                                         NC27615     USA                            0628197602102020                                                               A                                                         919-328-8815   ssullivan@robinsonbradshaw.com                    EMM 0F                                                                                                                           
100RBH240-33-3852Hunsucker, Ashley T             000000000000000000000000000000000000000000000000000000000000000000000000000000000000000000000000000000000000000000000000000000000000000000000000000000000000000000000000000000000000000000000000000000000000000000000000            0000000000000000000000000000000000000000000000000000000000000000000000000000000000000000000000000000000000000000000000000000000000129808000000129808000000129808            0000067500003750S165 Aurora Mill Road                                                            Stanfield                                                                       NC28163     USA                            0812197602102020                                02122020                       T                                                         704-350-7133   ahunsucker@robinsonbradshaw.com                   EF  0F                                                                                                                           
100RBH355-54-0556Feldman, Stephen D              000000000000000000000000000000000000000000000000000000000000000000000000000000000000000000000000000000000000000000000000000000000000000000000000000000000000000000000000000000000000000002125000000002125000000002125000            0173000000000000000000000000000000000000000000000000000000000000000000000000000000000000000000000000000000000000000000000000000012750000000012750000000012750000            0000255000004004M1820 Stannard Trail                                                             Raleigh                                                                         NC27612     USA                            0412197703022020                                                               A                                                         919-328-8816   sfeldman@robinsonbradshaw.com                     EMM 0F                                                                                                                           
100RBH369-82-6581Haupt, Sherrill B               000000000000000000000000000000000000000000000000000000000000000000000000000000000000000000000000000000000000000000000000000000000000000000000000000000000000000000000000000000000000000000322231000000322231000000322231            0084000000000000000000000000000000000000000000000000000000000000000000000000000000000000000000000000000000000000000000000000000003535777000003535777000003535777            0000075000003109S10115 Newtonmore Drive                                                          Charlotte                                                                       NC28278     USA                            0625196403092020                                                               A                                                         704-350-7123   shaupt@robinsonbradshaw.com                       EFM 0F                                                                                                                           
100RBH262-97-0246Furlong, Sharon                 000000000000000000000000000000000000000000000000000000000000000000000000000000000000000000000000000000000000000000000000000000000000000000000000000000000000000000000000000000000000000000232459000000232459000000232459            0082000000000000000000000000000000000000000000000000000000000000000000000000000000000000000000000000000000000000000000000000000002895683000002895683000002895683            0000055619000537S6330 Pumpernickel Lane                                                          Monroe                                                                          NC28110     USA                            0907196402242020                                                               A                                                         704-377-8187   sfurlong@robinsonbradshaw.com                     EFM 0F                                                                                                                           
100RBH577-80-6978Sawchak, Matthew                000000000000000000000000000000000000000000000000000000000000000000000000000000000000000000000000000000000000000000000000000000000000000000000000000000000000000000000000000000000000000003541667000003541667000003541667            0173000000000000000000000000000000000000000000000000000000000000000000000000000000000000000000000000000000000000000000000000000017708335000017708335000017708335            0000425000006670M204 Chiselhurst Way                                                             Cary                                                                            NC27513     USA                            0603196204012020                                                               A                                                         919-328-8801   msawchak@robinsonbradshaw.com                     EMM 0F                                                                                                                           
100RBH222-46-9513Wolfe, Tricia                   000000000000000000000000000000000000000000000000000000000000000000000000000000000000000000000000000000000000000000000000000000000000000000000000000000000000000000000000000000000000000000250567000000250567000000250567            0084000000000000000000000000000000000000000000000000000000000000000000000000000000000000000000000000000000000000000000000000000002819913000002819913000002819913            0000060000003530S152 Wesleyan Dr                                                                 McAdenville                                                                     NC28101     USA                            0801196403092020                                                               A                                                         704-350-7110   twolfe@robinsonbradshaw.com                       EFS 0F                                                                                                                           
100RBH589-63-9009Sharp, Ava                      000000000000000000000000000000000000000000000000000000000000000000000000000000000000000000000000000000000000000000000000000000000000000000000000000000000000000000000000000000000000000000242050000000242050000000242050            0090000000000000000000000000000000000000000000000000000000000000000000000000000000000000000000000000000000000000000000000000000002642326000002642326000002642326            0000052079507950S2520 South Blvd., Apt 349                                                       Charlotte                                                                       NC28203     USA                            0810199603092020                                                               A                                                         704-943-7705   asharp@robinsonbradshaw.com                       EFS 0F                                                                                                                           
100RBH688-20-1088Martinez, Erick                 000000000000000000000000000000000000000000000000000000000000000000000000000000000000000000000000000000000000000000000000000000000000000000000000000000000000000000000000000000000000000000000000000000000000000000000000            0000000000000000000000000000000000000000000000000000000000000000000000000000000000000000000000000000000000000000000000000000000001359149000001464918000001464918            0000055000008188S2110 Kumara Road APT 200                                                        Charlotte                                                                       NC28262     USA                            0927199303092020                                06042020                       T                                                         704-350-7117   emartinez@robinsonbradshaw.com                    EMS 0F                                                                                                                           
100RBH244-06-5366Collins, Grace S.               000000000000000000000000000000000000000000000000000000000000000000000000000000000000000000000000000000000000000000000000000000000000000000000000000000000000000000000000000000000000000000400288000000400288000000400288            0081000000000000000000000000000000000000000000000000000000000000000000000000000000000000000000000000000000000000000000000000000003994447000003994447000003994447            0000096069009503S415 Bickett Blvd                                                                Raleigh                                                                         NC27608     USA                            0425196604062020                                                               A                                                         919-328-8850   gcollins@robinsonbradshaw.com                     EFM 0F                                                                                                                           
100RBH242-87-4378Ainolhayat, Aryana              000000000000000000000000000000000000000000000000000000000000000000000000000000000000000000000000000000000000000000000000000000000000000000000000000000000000000000000000000000000000000000000000000000000000000000000000            0000000000000000000000000000000000000000000000000000000000000000000000000000000000000000000000000000000000000000000000000000000001710000000001710000000001710000            0000000000004000S3014 Braehead Street                                                            Fayetteville                                                                    NC28306     USA                            0112199806012020                                07102020                       T                                                         704-377-7711   aainolhayat@robinsonbradshaw.com                  EF  0F                                                                                                                           
100RBH246-73-9977Carberry, Caitlan               000000000000000000000000000000000000000000000000000000000000000000000000000000000000000000000000000000000000000000000000000000000000000000000000000000000000000000000000000000000000000000000000000000000000000000000000            0000000000000000000000000000000000000000000000000000000000000000000000000000000000000000000000000000000000000000000000000000000001653000000001653000000001653000            0000000000003200S3611 University Drive, Apt 9R                                                   Durham                                                                          NC27707     USA                            0808199205262020                                07102020                       T                                                         704-943-7710   ccarberry@robinsonbradshaw.com                    EF  0F                                                                                                                           
100RBH242-83-4067DeJaco, Jordan T.               000000000000000000000000000000000000000000000000000000000000000000000000000000000000000000000000000000000000000000000000000000000000000000000000000000000000000000000000000000000000000000000000000000000000000000000000            0000000000000000000000000000000000000000000000000000000000000000000000000000000000000000000000000000000000000000000000000000000001710000000001710000000001710000            0000000000004000S1671 Southpoint Lane                                                            New London                                                                      NC28127     USA                            0523199606012020                                07032020                       T                                                         704-943-7717   jdejaco@robinsonbradshaw.com                      EF  0F                                                                                                                           
100RBH408-81-3481Jones, Lauren N.                000000000000000000000000000000000000000000000000000000000000000000000000000000000000000000000000000000000000000000000000000000000000000000000000000000000000000000000000000000000000000000000000000000000000000000000000            0000000000000000000000000000000000000000000000000000000000000000000000000000000000000000000000000000000000000000000000000000000001710000000001710000000001710000            0000000000004000S510 Althea Lane                                                                 Collierville                                                                    TN38017     USA                            0624199606222020                                07312020                       T                                                         704-943-7716   ljones@robinsonbradshaw.com                       EF  0F                                                                                                                           
100RBH542-41-6211Kutteh, Emma T.                 000000000000000000000000000000000000000000000000000000000000000000000000000000000000000000000000000000000000000000000000000000000000000000000000000000000000000000000000000000000000000000000000000000000000000000000000            0000000000000000000000000000000000000000000000000000000000000000000000000000000000000000000000000000000000000000000000000000000001995000000001995000000001995000            0000000000008000S1113 Kudzu Street                                                               Durham                                                                          NC27713     USA                            0215199306012020                                07172020                       T                                                         704-943-7722   ekutteh@robinsonbradshaw.com                      EF  0F                                                                                                                           
100RBH243-83-0415Mariencheck, Marisa             000000000000000000000000000000000000000000000000000000000000000000000000000000000000000000000000000000000000000000000000000000000000000000000000000000000000000000000000000000000000000000000000000000000000000000000000            0000000000000000000000000000000000000000000000000000000000000000000000000000000000000000000000000000000000000000000000000000000001710000000001710000000001710000            0000000000004000S5419 Palmerston Lane                                                            Winston-Salem                                                                   NC27104     USA                            0615199606012020                                07032020                       T                                                         704-943-7726   mmariencheck@robinsonbradshaw.com                 EF  0F                                                                                                                           
100RBH281-94-9657Martin, Alyson                  000000000000000000000000000000000000000000000000000000000000000000000000000000000000000000000000000000000000000000000000000000000000000000000000000000000000000000000000000000000000000000000000000000000000000000000000            0000000000000000000000000000000000000000000000000000000000000000000000000000000000000000000000000000000000000000000000000000000001995000000001995000000001995000            0000000000008000S6649 Willow Lake Drive                                                          North Royaltin                                                                  OH28204     USA                            1010199106082020                                07242020                       T                                                         704-943-7715   ammartin@robinsonbradshaw.com                     EF  0F                                                                                                                           
100RBH147-11-2277Rambarat, Cecilia               000000000000000000000000000000000000000000000000000000000000000000000000000000000000000000000000000000000000000000000000000000000000000000000000000000000000000000000000000000000000000000000000000000000000000000000000            0000000000000000000000000000000000000000000000000000000000000000000000000000000000000000000000000000000000000000000000000000000001653000000001653000000001653000            0000000000003200S1229 Pinehurst Dr                                                               Chapel Hill                                                                     NC27517     USA                            0627199405262020                                07102020                       T                                                         704-943-7724   crambarat@robinsonbradshaw.com                    EF  0F                                                                                                                           
100RBH422-39-5104Reinwald, Caroline              000000000000000000000000000000000000000000000000000000000000000000000000000000000000000000000000000000000000000000000000000000000000000000000000000000000000000000000000000000000000000000000000000000000000000000000000            0000000000000000000000000000000000000000000000000000000000000000000000000000000000000000000000000000000000000000000000000000000001653000000001653000000001653000            0000000000003200S471 Summerwalk Cir                                                              Chapel Hill                                                                     NC27517     USA                            0824199206012020                                07102020                       T                                                         704-943-7720   creinwald@robinsonbradshaw.com                    EF  0F                                                                                                                           
100RBH597-44-0991Rohena-Maldonado, Camila        000000000000000000000000000000000000000000000000000000000000000000000000000000000000000000000000000000000000000000000000000000000000000000000000000000000000000000000000000000000000000000000000000000000000000000000000            0000000000000000000000000000000000000000000000000000000000000000000000000000000000000000000000000000000000000000000000000000000001710000000001710000000001710000            0000000000004000S825 Ferry Landing Ln                                                            Orlando                                                                         FL32828     USA                            0728199406152020                                07242020                       T                                                         704-943-7725   CRohena-Maldonado@robinsonbradshaw.com            EF  0F                                                                                                                           
100RBH618-45-7641Simon, Thain                    000000000000000000000000000000000000000000000000000000000000000000000000000000000000000000000000000000000000000000000000000000000000000000000000000000000000000000000000000000000000000000000000000000000000000000000000            0000000000000000000000000000000000000000000000000000000000000000000000000000000000000000000000000000000000000000000000000000000002565000000002565000000002565000            0000000000006000S926 Dacian Ave., Apt 105                                                        Durham                                                                          NC27701     USA                            0512198906012020                                07312020                       T                                                         704-943-7713   tsimon@robinsonbradshaw.com                       EM  0F                                                                                                                           
100RBH188-76-3218Smith, Elizabeth                000000000000000000000000000000000000000000000000000000000000000000000000000000000000000000000000000000000000000000000000000000000000000000000000000000000000000000000000000000000000000000000000000000000000000000000000            0000000000000000000000000000000000000000000000000000000000000000000000000000000000000000000000000000000000000000000000000000000002451000000002451000000002451000            0000000000004400S913 Lorien Drive                                                                Lower Gwynedd                                                                   PA19002     USA                            0426199606012020                                07292020                       T                                                         704-943-7723   esmith@robinsonbradshaw.com                       EF  0F                                                                                                                           
100RBH249-93-9703Wolfe, William                  000000000000000000000000000000000000000000000000000000000000000000000000000000000000000000000000000000000000000000000000000000000000000000000000000000000000000000000000000000000000000000000000000000000000000000000000            0000000000000000000000000000000000000000000000000000000000000000000000000000000000000000000000000000000000000000000000000000000002565000000002565000000002565000            0000000000006000S2416 Orangewood Drive                                                           Durham                                                                          NC27705     USA                            1021199306012020                                07312020                       T                                                         704-943-7714   jwolfe@robinsonbradshaw.com                       EM  0F                                                                                                                           
100RBH241-79-6638Wright, Matthew                 000000000000000000000000000000000000000000000000000000000000000000000000000000000000000000000000000000000000000000000000000000000000000000000000000000000000000000000000000000000000000000000000000000000000000000000000            0000000000000000000000000000000000000000000000000000000000000000000000000000000000000000000000000000000000000000000000000000000001710000000001710000000001710000            0000000000004000S1315 Morreene Road, Apt 4J                                                      Durham                                                                          NC27705     USA                            0927199406012020                                07032020                       T                                                         704-943-7721   bwright@robinsonbradshaw.com                      EM  0F                                                                                                                           
100RBH246-45-5656Osso, Jade N.                   000000000000000000000000000000000000000000000000000000000000000000000000000000000000000000000000000000000000000000000000000000000000000000000000000000000000000000000000000000000000000000277234000000277234000000277234            0083000000000000000000000000000000000000000000000000000000000000000000000000000000000000000000000000000000000000000000000000000000999302000000999302000000999302            0000065000168151S17318 Cambridge Grove Dr                                                        Huntersville                                                                    NC28078     USA                            0516198407072020                                                               A                                                         704-350-7150   josso@robinsonbradshaw.com                        EFM 0F                                                                                                                           
100RBH240-49-2641Kirby-Smith, Ethan              000000000000000000000000000000000000000000000000000000000000000000000000000000000000000000000000000000000000000000000000000000000000000000000000000000000000000000000000000000000000000000416667000000416667000000416667            0087000000000000000000000000000000000000000000000000000000000000000000000000000000000000000000000000000000000000000000000000000001217935000001217935000001217935            0000100000004001S401 N. Church Street                    Apt. 302                                Charlotte                                                                       NC28202     USA                            1204198107202020                                                               A                                                         704-943-7709   EKirby-Smith@robinsonbradshaw.com                 EMS 0F                                                                                                                           
100RBH246-59-8130Phillips, Paul Andrew           000000000000000000000000000000000000000000000000000000000000000000000000000000000000000000000000000000000000000000000000000000000000000000000000000000000000000000000000000000000000000000274442000000274442000000274442            0087000000000000000000000000000000000000000000000000000000000000000000000000000000000000000000000000000000000000000000000000000000800187000000800187000000800187            0000065000004273S12949 Plaza Road Ext.                                                           Charlotte                                                                       NC28215     USA                            0906197807202020                                                               A                                                         704-943-7702   aphillips@robinsonbradshaw.com                    EMS 0F                                                                                                                           
100RBH123-45-6789Davis, Wiline Justilien         000000000000000000000000000000000000000000000000000000000000000000000000000000000000000000000000000000000000000000000000000000000000000000000000000000000000000000000000000000000000000000000000000000000000000000000000            0000000000000000000000000000000000000000000000000000000000000000000000000000000000000000000000000000000000000000000000000000000000000000000000000000000000000000            0000000000000000M503 Crescent Drive                                                              Forsyth                                                                         GA31029     USA                            0729198001022020                                                               A                                                         704-377-8327   WDavis@robinsonbradshaw.com                       EFM 0P                                                                                                                           
100RBH245-59-3009Bode, Mary Wills                000000000000000000000000000000000000000000000000000000000000000000000000000000000000000000000000000000000000000000000000000000000000000000000000000000000000000000000000000000000000000000000000000000000000000000000000            0000000000000000000000000000000000000000000000000000000000000000000000000000000000000000000000000000000000000000000000000000000000000000000000000000000000000000            0000152272731867S2518 White Oak Road                                                             Raleigh                                                                         NC27609     USA                            0908198708262020                                                               A                                                         704-377-8159   mbode@robinsonbradshaw.com                        EFS 0F                                                                                                                           
100RBH250-29-3424Short, Walter                   000000000000000000000000000000000000000000000000000000000000000000000000000000000000000000000000000000000000000000000000000000000000000000000000000000000000000000000000000000000000000000111538000000111538000000111538            0030000000000000000000000000000000000000000000000000000000000000000000000000000000000000000000000000000000000000000000000000000000111538000000111538000000111538            0000072500001470S6741 Brookmeade Dr                                                              Charlotte                                                                       NC28226     USA                            0828197508262020                                                               A                                                         704-943-7710   wshort@robinsonbradshaw.com                       EMM 0F                                                                                                                           
100RBH226-81-4840Richeson, Kevin                 000000000000000000000000000000000000000000000000000000000000000000000000000000000000000000000000000000000000000000000000000000000000000000000000000000000000000000000000000000000000000000000000000000000000000000000000            0000000000000000000000000000000000000000000000000000000000000000000000000000000000000000000000000000000000000000000000000000000000000000000000000000000000000000            0000047000000000S505 SE Maynard Road                                                             Cary                                                                            NC27511     USA                            0314199809172020                                                               A                                                         919-328-8861   kricheson@robinsonbradshaw.com                    EMS 0F                                                                                                                           
100RBH415-47-0443Allmon, Nicholas G.             000000000000000000000000000000162500000000000000000000000000000000000000000000000000000000000000000000000000000000000000000000000000000000000000000000000000000000000000000000000000000002325000000002325000000002325000            0173000000000000000000000000000000000000000000000000000000000000000000000000000000000000000000000000000000000000000000000000000018350000000018350000000018350000            0000279000008672M2221 E 8Th Street                                                               Charlotte                                                                       NC28204     USA                            0704198008072006                                                               A                                                         704-377-2536   nallmon@robinsonbradshaw.com                      EMM 1F                                                                                                                           
100RBH328-02-5112Kilpinen, Andrew J.             000000000000000000000000000000000000000000000000000000000000000000000000000000000000000000000000000000000000000000000000000000000000000000000000000000000000000000000000000000000000000000606061000000606061000000606061            0087000000000000000000000000000000000000000000000000000000000000000000000000000000000000000000000000000000000000000000000000000009696976000009696976000009696976            0000145454647339S6008 Springhouse Lane                                                           Charlotte                                                                       NC28211     USA                            0615198209042018                                                               A                                                         704-377-8157   akilpinen@robinsonbradshaw.com                    EMM 2F                                                                                                                           
100RBH212-37-1131Foote, Dwight E                 000000000000000000000000000000000000000000000000000000000000000000000000000000000000000000000000000000000000000000000000000000000000000000000000000000000000000000000000000000000000000000267967000000267967000000267967            0087000000000000000000000000000000000000000000000000000000000000000000000000000000000000000000000000000000000000000000000000000004305350000004522850000004522850            0000063437582907S5440 Jessica Blvd                       Unit 11                                 Raleigh                                                                         NC27607     USA                            0628199205012019                                                               A                                                         704-377-2536   dfoote@robinsonbradshaw.com                       EMS 2F                                                                                                                           
100RBH242-78-0231Bess, Phyllis A.                000000000000000000000000000000000000000000000000000000000000000000000000000000000000000000000000000000000000000000000000000000000000000000000000000000000000000000000000000000000000000000000000000000000000000000000000            0000000000000000000000000000000000000000000000000000000000000000000000000000000000000000000000000000000000000000000000000000000002341304000002765764000002765764            0000070000080472S7151 Streator Court                                                             Charlotte                                                                       NC28216     USA                            0812194809042007                                02202020                       T                                                         704-377-2536   pbess@robinsonbradshaw.com                         FS 0F                                                                                                                           
100RBH237-79-0685Raynor, Jake L.                 000000000000000000000000000000000000000000000000000000000000000000000000000000000000000000000000000000000000000000000000000000000000000000000000000000000000000000000000000000000000000000234808000000234808000000234808            0082000000000000000000000000000000000000000000000000000000000000000000000000000000000000000000000000000000000000000000000000000003832570000003832570000003832570            0000055825089398S2126 East 7Th Street                                                            Charlotte                                                                       NC28204     USA                            0413199408122019                                                               A                                                         704-377-2536   jraynor@robinsonbradshaw.com                      EMS 2F                                                                                                                           
