100RBH005-60-3464Roy, Lori A.                          200000           0           0           0                                                                                   0           0           0           0           0     1877312     1877312     1877312             347        401F        401C        ROTH       ROTHC                                                                             6535652     6535652     6535652                113477160005S8008 Pawleys Court                                                              FortMill                                                                        SC29707     USA                            011119630922198801012019                                09221988               A                                                         740-377-2536   lroy@robinsonbradshaw.com                         EFS1 F                                                                                                                           
100RBH011-42-2075Conley, John M                                                                                                                                                                                                                                                                  401F        401C        ROTH       ROTHC                                                                                                                             7999992   0M121 Summerlin Drive                                                             ChapelHill                                                                      NC27514     USA                            1213194901241989                                        01241989               A                                                         740-377-2536   jconley@robinsonbradshaw.com                      EMZ0 F                                                                                                                           
100RBH011-54-3593Murphy, Robert F                      200000           0           0           0                                                                                   0           0           0           0           0     2000000     2000000     2000000             347        401F        401C        ROTH       ROTHC                                                                             7000000     7000000     7000000                120000000005S246 Iverson Way                                                                 Charlotte                                                                       NC28203     USA                            102619630122201902012020                                01222019               A                                                         740-377-2536   rmurphy@robinsonbradshaw.com                      EMM0 F                                                                                                                           
100RBH032-70-5487Bhagwandass, Amit                     300000           0           0           0                                                                                   0           0           0           0           0     2954544     2954544     2954544             347        401F        401C        ROTH       ROTHC                                                                            10340904    10340904    10340904                177272640005S14442 Beatties Ford Road                                                        Huntersville                                                                    NC28078     USA                            021319860625201201012019                                06252012               A                                                         740-377-2536   abhagwandass@robinsonbradshaw.com                 EMS3 F                                                                                                                           
100RBH036-62-8786Athanas, Adrienne                                                                                                                                                                                                         605629      605629      605629             354        401F        401C        ROTH       ROTHC                                                                             2075942     2075942     2075942                 35525167877S5800 Avelon Valley Drive                Apt 1628                                Charlotte                                                                       NC28173     USA                            0511199109242018                                        09242018               A                                                         740-377-2536   aathanas@robinsonbradshaw.com                     EFZ0 F                                                                                                                           
100RBH040-74-7295Churchill, Matthew S.                 325000      108334           0           0                                                                                   0           0           0           0           0     7250000     7250000     7250000             347        401F        401C        ROTH       ROTHC                                                                            24875000    24875000    24875000                435000001338MPo Box 2143 230 South Street                                                    Davidson                                                                        NC28036     USA                            013019661021199601012019                                10211996               A                                                         740-377-2536   mchurchill@robinsonbradshaw.com                   EMM4 F                                                                                                                           
100RBH040-74-7295Churchill, Matthew S.                 325000      108334           0           0                                                                                   0           0           0           0           0     7250000     7250000     7250000             347        401F        401C        ROTH       ROTHC                                                                            24875000    24875000    24875000                435000001338MPo Box 2143 230 South Street                                                    Davidson                                                                        NC28036     USA                            013019661021199601012020                                10211996               A                                                         740-377-2536   mchurchill@robinsonbradshaw.com                   EMM4 F                                                                                                                           
100RBH044-84-2285Cass, James R.                        200000           0           0           0                                                                                   0           0           0           0           0     3666668     3666668     3666668             347        401F        401C        ROTH       ROTHC                                                                            12500004    12500004    12500004                220000081338M820 Woodruff Place                                                              Charlotte                                                                       NC28208     USA                            100419830119201001192010                                01192010               A                                                         740-377-2536   jcass@robinsonbradshaw.com                        EMM0 F                                                                                                                           
100RBH046-68-0852Hennessey, Edward F.                  185000      100000           0           0                                                                                   0           0           0           0           0     5166668     5166668     5166668             347        401F        401C        ROTH       ROTHC                                                                            17916670    17916670    17916670                310000081338M5607 Laurium Road                                                               Charlotte                                                                       NC28226     USA                            082219621002198910021989                                10021989               A                                                         740-377-2536   thennessey@robinsonbradshaw.com                   EMM20F                                                                                                                           
100RBH046-68-0852Hennessey, Edward F.                  185000      100000           0           0                                                                                   0           0           0           0           0     5166668     5166668     5166668             347        401F        401C        ROTH       ROTHC                                                                            17916670    17916670    17916670                310000081338M5607 Laurium Road                                                               Charlotte                                                                       NC28226     USA                            082219621002198901012019                                10021989               A                                                         740-377-2536   thennessey@robinsonbradshaw.com                   EMM20F                                                                                                                           
100RBH046-68-0852Hennessey, Edward F.                  185000      100000           0           0                                                                                   0           0           0           0           0     5166668     5166668     5166668             347        401F        401C        ROTH       ROTHC                                                                            17916670    17916670    17916670                310000081338M5607 Laurium Road                                                               Charlotte                                                                       NC28226     USA                            082219621002198901012020                                10021989               A                                                         740-377-2536   thennessey@robinsonbradshaw.com                   EMM20F                                                                                                                           
100RBH047-48-9580Morrison, Marianne E.                 240000           0           0           0                                                                                   0           0           0           0           0     1241068     1241068     1241068             332        401F        401C        ROTH       ROTHC                                                                             4354560     4354560     4354560                 73536758075S1133 Market Street                                                              FortMill                                                                        SC29708     USA                            121619540730201809242019                                07302018               A                                                         740-377-2536   mmorrison@robinsonbradshaw.com                    EFZ0 F                                                                                                                           
100RBH050-68-7372Hiller, Mark A.                                                                                                                                                                                                          3066668     3066668     3066668             347        401F        401C        ROTH       ROTHC                                                                            10500004    10500004    10500004                184000081338M111 Glade Street                                                                ChapelHill                                                                      NC27516     USA                            0401198309142015                                        09142015               A                                                         740-377-2536   mhiller@robinsonbradshaw.com                      EMZ5 F                                                                                                                           
100RBH055-56-1344Swaringen, Victoria L.                 40000           0           0           0                                                                                   0       77912       76766           0           0      942600      942600      942600             325        401F        401C        ROTH       ROTHC                                                                             3281560     3281560     3281560                 56977076175SPO Box 2533                                                                     Huntersville                                                                    NC28070     USA                            081119570324200803242008                                03242008               A                                                         740-377-2536   vswaringen@robinsonbradshaw.com                   EFS0 F                                                                                                                           
100RBH055-56-1344Swaringen, Victoria L.                 40000           0           0           0                                                                                   0       77912       76766           0           0      942600      942600      942600             325        401F        401C        ROTH       ROTHC                                                                             3281560     3281560     3281560                 56977076175SPO Box 2533                                                                     Huntersville                                                                    NC28070     USA                            081119570324200801012019                                03242008               A                                                         740-377-2536   vswaringen@robinsonbradshaw.com                   EFS0 F                                                                                                                           
100RBH056-80-4165White, Ethan R.                                                                                                                                                                                                          2272728     2272728     2272728             347        401F        401C        ROTH       ROTHC                                                                             7954548     7954548     7954548                136363680005S1209 S College Street                   #2204                                   Charlotte                                                                       NC28203     USA                            1003199109162019                                        09162019               A                                                         740-377-2536   ewhite@robinsonbradshaw.com                       EMZ2 F                                                                                                                           
100RBH064-44-1441Lynch, Stephen M.                     325000      108334           0           0                                                                                   0           0           0           0           0     8583334     8583334     8583334             347        401F        401C        ROTH       ROTHC                                                                            29875003    29875003    29875003                515000001338M2131 Malvern Road                                                               Charlotte                                                                       NC28207     USA                            010219600531198601012019                                05311986               A                                                         740-377-2536   slynch@robinsonbradshaw.com                       EMZ0 F                                                                                                                           
100RBH064-44-1441Lynch, Stephen M.                     325000      108334           0           0                                                                                   0           0           0           0           0     8583334     8583334     8583334             347        401F        401C        ROTH       ROTHC                                                                            29875003    29875003    29875003                515000001338M2131 Malvern Road                                                               Charlotte                                                                       NC28207     USA                            010219600531198601012020                                05311986               A                                                         740-377-2536   slynch@robinsonbradshaw.com                       EMZ0 F                                                                                                                           
100RBH071-46-0985Garver, John B.                       325000      108334           0           0                                                                                   0           0           0           0           0     5750000     5750000     5750000             347        401F        401C        ROTH       ROTHC                                                                            19958334    19958334    19958334                345000001338M3410 Fawn Hill Road                                                             Matthews                                                                        NC28105     USA                            040419530710198901012019                                07101989               A                                                         740-377-2536   jgarver@robinsonbradshaw.com                      EMM0 F                                                                                                                           
100RBH071-46-0985Garver, John B.                       325000      108334           0           0                                                                                   0           0           0           0           0     5750000     5750000     5750000             347        401F        401C        ROTH       ROTHC                                                                            19958334    19958334    19958334                345000001338M3410 Fawn Hill Road                                                             Matthews                                                                        NC28105     USA                            040419530710198901012020                                07101989               A                                                         740-377-2536   jgarver@robinsonbradshaw.com                      EMM0 F                                                                                                                           
100RBH078-54-5188Tomlinson, Gregory R.                      0           0           0           0                                                                                   0       24114       18480       40166       23700     1299210     1299210     1299210             356        401F        401C        ROTH       ROTHC                                                                             4526874     4526874     4526874                 75586160054S5880 Heartwood Court                                                            Harrisburg                                                                      NC28075     USA                            080819620730201207302012                                07302012               A                                                         740-377-2536   gtomlinson@robinsonbradshaw.com                   EMM25F                                                                                                                           
100RBH078-54-5188Tomlinson, Gregory R.                      0           0           0           0                                                                                   0       24114       18480       40166       23700     1299210     1299210     1299210             356        401F        401C        ROTH       ROTHC                                                                             4526874     4526874     4526874                 75586160054S5880 Heartwood Court                                                            Harrisburg                                                                      NC28075     USA                            080819620730201201102020                                07302012               A                                                         740-377-2536   gtomlinson@robinsonbradshaw.com                   EMM25F                                                                                                                           
100RBH087-40-9214Morgan, Robert G                       50000           0           0           0                                                                                   0           0           0           0           0     4166668     4166668     4166668             347        401F        401C        ROTH       ROTHC                                                                            14583338    14583338    14583338                250000080005S3607 Mountain Cove Drive                                                        Charlotte                                                                       NC28216     USA                            092619640501201905012020                                05012019               A                                                         740-377-2536   bmorgan@robinsonbradshaw.com                      EMZ0 F                                                                                                                           
100RBH092-72-0916Miyawaki, Mikio                                                                                                                                                                                                                                                                 401F        401C        ROTH       ROTHC                                                                                                                              207996   0M51 Kickemuit Court                                                              Swansea                                                                         MA02777     USA                            0305197008302019                                        08302019               A                                                         740-377-2536   mmiyawaki@robinsonbradshaw.com                    EMZ0 F                                                                                                                           
100RBH095-50-3521Grannum, Gayle S.                      20000           0           0           0                                                                                   0           0           0           0           0     1485049     1485049     1485049             330        401F        401C        ROTH       ROTHC                                                                             4816293     4937093     4937093                 80500080298S3518 Cross Winds Road                                                           Charlotte                                                                       NC28227     USA                            032619580822198801012019                                08221988               A                                                         740-377-2536   ggrannum@robinsonbradshaw.com                     EFS0 F                                                                                                                           
100RBH098-56-3659Rush, Meshauna                                                                                                                                                                                                           1301356     1301356     1301356             347        401F        401C        ROTH       ROTHC                                                                             4530526     4530526     4530526                 78662580005S1251 New River Drive                                                            Concord                                                                         NC28025     USA                            061219660102201802122019                                01022018               A                                                         740-377-2536   srush@robinsonbradshaw.com                        EFM2 F                                                                                                                           
100RBH098-64-7699Markman, Clifford B.                                                                                                                                                                                                     1804836     1804836     1804836             347        401F        401C        ROTH       ROTHC                                                                             6283336     6283336     6283336                109096260005S15513 Oleander Drive                                                            Charlotte                                                                       NC28278     USA                            0903197603112013                                        03112013               A                                                         740-377-2536   cmarkman@robinsonbradshaw.com                     EMM0 F                                                                                                                           
100RBH099-66-2201Loving, Kelly L.                      160000           0           0           0                                                                                   0           0           0           0           0     5916668     5916668     5916668             347        401F        401C        ROTH       ROTHC                                                                            20375004    20375004    20375004                355000081338M2617 Millwood Circle                                                            Charlotte                                                                       NC28214     USA                            060819710927199901012019                                09271999               A                                                         740-377-2536   kloving@robinsonbradshaw.com                      EFZ1 F                                                                                                                           
100RBH100-70-7498Fannin, Amanda M                                                                                                                                                                                                         2348484     2348484     2348484             347        401F        401C        ROTH       ROTHC                                                                             8219694     8219694     8219694                140909040005S2331 Crockett Park Pl                                                           Charlotte                                                                       NC28203     USA                            0219198607292019                                        07292019               A                                                         740-377-2536   afannin@robinsonbradshaw.com                      EFM2 F                                                                                                                           
100RBH105-60-7863Caplan, Glen E.                       325000           0           0           0                                                                                   0           0           0           0           0     5333334     5333334     5333334             347        401F        401C        ROTH       ROTHC                                                                            18250003    18250003    18250003                320000001338M5320 Indigo Moon Way                                                            Raleigh                                                                         NC27613     USA                            082119770216201102162011                                02162011               A                                                         740-377-2536   gcaplan@robinsonbradshaw.com                      EMM0 F                                                                                                                           
100RBH106-74-5819Burks, Monica                                                                                                                                                                                                            2272728     2272728     2272728             347        401F        401C        ROTH       ROTHC                                                                             7954548     7954548     7954548                136363680005S102 Laurel Mist Way                                                             Durham                                                                          NC27703     USA                            0612198706192017                                        11182019               A                                                         740-377-2536   mburks@robinsonbradshaw.com                       EFM3 F                                                                                                                           
100RBH107-48-4376Brown, Annette L.                          0           0           0           0                                                                                   0       54870       63492           0           0     1340305     1340305     1340305             343        401F        401C        ROTH       ROTHC                                                                             4238356     4343356     4343356                 70000080197S932 Clover Gap Dr                                                               Charlotte                                                                       NC28214     USA                            050719570617200206172002                                06172002               A                                                         740-377-2536   abrown@robinsonbradshaw.com                       EFS2 F                                                                                                                           
100RBH114-72-6138Forneris, John W.                                                                                                                                                                                                        2954544     2954544     2954544             347        401F        401C        ROTH       ROTHC                                                                            10340904    10340904    10340904                177272640005S6500 Ciscayne Place                                                             Charlotte                                                                       NC28211     USA                            1102198707022012                                        07022012               A                                                         740-377-2536   jforneris@robinsonbradshaw.com                    EMM5 F                                                                                                                           
100RBH120-76-9629Everett, Porcia                        20000           0           0           0                                                                                   0           0           0           0           0      798982      798982      798982             334        401F        401C        ROTH       ROTHC                                                                             2730553     2730553     2730553                 46817007114S334 Northcreek Drive                                                            Durham                                                                          NC27707     USA                            030319880716201807162018                                07162018               A                                                         740-377-2536   peverett@robinsonbradshaw.com                     EFS0 F                                                                                                                           
100RBH123-45-6789Davis, Wiline Justilien                                                                                                                                                                                                                                                         401F        401C        ROTH       ROTHC                                                                                                                                   0   0M503 Crescent Drive                                                              Forsyth                                                                         GA31029     USA                            0729198001022020                                        01022020               A                                                         740-377-2536   WDavis@robinsonbradshaw.com                       EF 0 P                                                                                                                           
100RBH127-60-8592Amadori, Justin                                                                                                                                                                                                          1250980     1250980     1250980             347        401F        401C        ROTH       ROTHC                                                                             4355150     4355150     4355150                 75617580005S5669 Berry Ridge Dr                                                             Harrisburg                                                                      NC28075     USA                            032019770501201206072019                                05012012               A                                                         740-377-2536   jamadori@robinsonbradshaw.com                     EMM0 F                                                                                                                           
100RBH129-68-5312Bermudez, Yanira                                                                                                                                                                                                               0           0           0               0        401F        401C        ROTH       ROTHC                                                                             2007861     2334853     2334853                 59758080020S6043 Shamrock Green Drive                                                       Clover                                                                          SC29710     USA                            080719790701200807012008                        0219202007012008               T                                                         740-377-2536   ybermudez@robinsonbradshaw.com                     FM2 F                                                                                                                           
100RBH134-68-5455Dukarm, Tammy Jo                       20000           0           0           0                                                                                   0           0           0           0           0     1374140     1374140     1374140             329        401F        401C        ROTH       ROTHC                                                                             4822443     4872443     4872443                 81940958934S3020 Graceland Circle                                                           Pineville                                                                       NC28134     USA                            022819731016201701012019                                10162017               A                                                         740-377-2536   tdukarm@robinsonbradshaw.com                      EFS0 F                                                                                                                           
100RBH136-88-4295Bruynell, Bret                                                                                                                                                                                                            713477      713477      713477             253        401F        401C        ROTH       ROTHC                                                                              713477      713477      713477                 55000003493S1010 Glen Lake Blvd                                                             Pitman                                                                          NJ08071     USA                            0527198706152020                                        06152020               A                                                         740-377-2536   bbruynell@robinsonbradshaw.com                    EMS0 F                                                                                                                           
100RBH137-74-3153Willen, Stephan J.                         0           0           0           0                                                                                   0      131966       29270       37054           0     6416668     6416668     6416668             347        401F        401C        ROTH       ROTHC                                                                            22208338    22208338    22208338                385000081338M2114 Cumberland Ave                                                             Charlotte                                                                       NC28203     USA                            101319650923199609231996                                09231996               A                                                         740-377-2536   swillen@robinsonbradshaw.com                      EMZ0 F                                                                                                                           
100RBH147-11-2277Rambarat, Cecilia                                                                                                                                                                                                        1653000     1653000     1653000             232        401F        401C        ROTH       ROTHC                                                                             1653000     1653000     1653000                       03200S1229 Pinehurst Dr                                                               Chapel Hill                                                                     NC27517     USA                            0627199405262020                                0710202005262020               T                                                         740-377-2536   crambarat@robinsonbradshaw.com                    EF 0 F                                                                                                                           
100RBH147-78-5530Williams, Serita R.                        0           0           0           0                                                                                   0           0       64794           0           0     1477668     1477668     1477668             347        401F        401C        ROTH       ROTHC                                                                             5144338     5144338     5144338                 89320080005S7030 Thorncrown Street                                                          Charlotte                                                                       NC28214     USA                            071019760623200806232008                                06232008               A                                                         740-377-2536   swilliams@robinsonbradshaw.com                    EFZ0 F                                                                                                                           
100RBH147-78-5530Williams, Serita R.                        0           0           0           0                                                                                   0           0       64794           0           0     1477668     1477668     1477668             347        401F        401C        ROTH       ROTHC                                                                             5144338     5144338     5144338                 89320080005S7030 Thorncrown Street                                                          Charlotte                                                                       NC28214     USA                            071019760623200801012019                                06232008               A                                                         740-377-2536   swilliams@robinsonbradshaw.com                    EFZ0 F                                                                                                                           
100RBH159-58-1166Pigeon, Jill J.                            0           0           0           0                                                                                   0           0       47092           0           0     1446843     1446843     1446843             353        401F        401C        ROTH       ROTHC                                                                             4498659     4608159     4608159                 73000082626S12336 Henderson Hill Road                                                       Huntersville                                                                    NC28078     USA                            070419731127200611272006                                11272006               A                                                         740-377-2536   jokerlund@robinsonbradshaw.com                    EFD1 F                                                                                                                           
100RBH172-60-5098Lofton, Brandon                                                                                                                                                                                                          3833334     3833334     3833334             347        401F        401C        ROTH       ROTHC                                                                            13250003    13250003    13250003                230000001338M921 Dacavin Drive                                                               Charlotte                                                                       NC28226     USA                            1105197805142007                                        05142007               A                                                         740-377-2536   blofton@robinsonbradshaw.com                      EMZ0 F                                                                                                                           
100RBH175-62-2937Wehler, Adam                               0           0           0           0                                                                                   0       69870           0           0           0     2450000     2450000     2450000             347        401F        401C        ROTH       ROTHC                                                                             8575000     8575000     8575000                147000000005S6610 Walton Hall Court                                                          Waxhaw                                                                          NC28173     USA                            102719810615201506152015                                06152015               A                                                         740-377-2536   awehler@robinsonbradshaw.com                      EMM1 F                                                                                                                           
100RBH176-74-6772Hendrickson, Kristin L.               325000           0           0           0                                                                                   0           0           0           0           0     2348484     2348484     2348484             347        401F        401C        ROTH       ROTHC                                                                             8219694     8219694     8219694                140909040005S2142 Commonwealth Avenue                #318                                    Charlotte                                                                       NC28205     USA                            122419920917201809172018                                09172018               A                                                         740-377-2536   klhendrickson@robinsonbradshaw.com                EFZ0 F                                                                                                                           
100RBH178-72-6699Hendrickson, Kelsey H.                162500           0           0           0                                                                                   0           0           0           0           0     2651516     2651516     2651516             347        401F        401C        ROTH       ROTHC                                                                             9280306     9280306     9280306                159090960005S1510 Hamorton Place                                                             Charlotte                                                                       NC28205     USA                            090919900921201501012019                                09212015               A                                                         740-377-2536   kbutler@robinsonbradshaw.com                      EFM0 F                                                                                                                           
100RBH186-54-3798Doerr, Adam K.                        325000           0           0           0                                                                                   0           0           0           0           0     3833334     3833334     3833334             347        401F        401C        ROTH       ROTHC                                                                            13083335    13083335    13083335                230000001338M1926 Truman Road                                                                Charlotte                                                                       NC28205     USA                            061719751015200701012019                                10152007               A                                                         740-377-2536   adoerr@robinsonbradshaw.com                       EMM7 F                                                                                                                           
100RBH188-76-3218Smith, Elizabeth                                                                                                                                                                                                         2451000     2451000     2451000             344        401F        401C        ROTH       ROTHC                                                                             2451000     2451000     2451000                       04400S913 Lorien Drive                                                                Lower Gwynedd                                                                   PA19002     USA                            0426199606012020                                0729202006012020               T                                                         740-377-2536   esmith@robinsonbradshaw.com                       EF 0 F                                                                                                                           
100RBH190-62-5308Ekwuruibe, Beverly R.                  10000           0           0           0                                                                                   0           0           0           0           0     1274109     1274109     1274109             326        401F        401C        ROTH       ROTHC                                                                             4118182     4223182     4223182                 70000086657S13208 Great Laurel Road                                                         Charlotte                                                                       NC28227     USA                            091119681017201110172011                                10172011               A                                                         740-377-2536   bekwuruibe@robinsonbradshaw.com                   EFM9 F                                                                                                                           
100RBH190-62-5308Ekwuruibe, Beverly R.                  10000           0           0           0                                                                                   0           0           0           0           0     1274109     1274109     1274109             326        401F        401C        ROTH       ROTHC                                                                             4118182     4223182     4223182                 70000086657S13208 Great Laurel Road                                                         Charlotte                                                                       NC28227     USA                            091119681017201101012019                                10172011               A                                                         740-377-2536   bekwuruibe@robinsonbradshaw.com                   EFM9 F                                                                                                                           
100RBH193-58-8172Dunn, Richard C.                      325000           0           0           0                                                                                   0           0           0           0           0     4800000     4800000     4800000             347        401F        401C        ROTH       ROTHC                                                                            16433334    16433334    16433334                288000001338M623 North Oak Drive                                                             Huntersville                                                                    NC28078     USA                            052019730916200201012019                                09162002               A                                                         740-377-2536   rdunn@robinsonbradshaw.com                        EMM0 F                                                                                                                           
100RBH194-64-6273Kelly, Anne I.                                                                                                                                                                                                           1567717     1567717     1567717             326        401F        401C        ROTH       ROTHC                                                                             5054089     5183089     5183089                 86000166160S1530 Queens Rd                          Apt 404                                 Charlotte                                                                       NC28207     USA                            0312196712191996                                        12191996               A                                                         740-377-2536   akelly@robinsonbradshaw.com                       EFM0 F                                                                                                                           
100RBH198-58-6384Shaffer, Ty E.                        325000           0           0           0                                                                                   0           0           0           0           0     3416668     3416668     3416668             347        401F        401C        ROTH       ROTHC                                                                            11741670    11741670    11741670                205000081338M522 Ellsworth Road                                                              Charlotte                                                                       NC28211     USA                            060719780902200801012019                                09022008               A                                                         740-377-2536   tshaffer@robinsonbradshaw.com                     EMZ1 F                                                                                                                           
100RBH208-70-9277Cadwalader, Stephanie                 300000           0           0           0                                                                                   0           0           0           0           0     1170046     1170046     1170046             325        401F        401C        ROTH       ROTHC                                                                             4205721     4205721     4205721                 70725361285S1314 Ashbrook Place                                                             Charlotte                                                                       NC28209     USA                            030219890515201702042019                                05152017               A                                                         740-377-2536   sprzezdecki@robinsonbradshaw.com                  EFM0 F                                                                                                                           
100RBH212-37-1131Foote, Dwight E                                                                                                                                                                                                          1123958     1123958     1123958             357        401F        401C        ROTH       ROTHC                                                                             3769538     3952038     3952038                 63437585273S5440 Jessica Blvd                       Unit 11                                 Raleigh                                                                         NC27607     USA                            0628199205012019                                        05012019               A                                                         740-377-2536   dfoote@robinsonbradshaw.com                       EMS2 F                                                                                                                           
100RBH212-88-3778Tongue, Romonia R.                     40000           0           0           0                                                                                   0           0           0           0           0     1267389     1267389     1267389             366        401F        401C        ROTH       ROTHC                                                                             4265123     4265123     4265123                 67030687435S724 Enzo Court                          #301                                    RockHill                                                                        SC29730     USA                            060419641201201712012017                                12012017               A                                                         740-377-2536   rtongue@robinsonbradshaw.com                      EFM4 F                                                                                                                           
100RBH220-02-9504Hardin, Jessica M.                                                                                                                                                                                                       3750000     3750000     3750000             347        401F        401C        ROTH       ROTHC                                                                            12791668    12791668    12791668                225000001338M5309 Camilla Drive                                                              Charlotte                                                                       NC28226     USA                            0722198109172007                                        09172007               A                                                         740-377-2536   jhardin@robinsonbradshaw.com                      EFM0 F                                                                                                                           
100RBH221-44-9560McCready, Kent J.                     325000      108334           0           0                                                                                   0           0           0           0           0     8833334     8833334     8833334             347        401F        401C        ROTH       ROTHC                                                                            30750003    30750003    30750003                530000001338M4106 Columbine Cir                                                              Charlotte                                                                       NC28211     USA                            100119580815198401012019                                08151984               A                                                         740-377-2536   kmccready@robinsonbradshaw.com                    EMM6 F                                                                                                                           
100RBH221-44-9560McCready, Kent J.                     325000      108334           0           0                                                                                   0           0           0           0           0     8833334     8833334     8833334             347        401F        401C        ROTH       ROTHC                                                                            30750003    30750003    30750003                530000001338M4106 Columbine Cir                                                              Charlotte                                                                       NC28211     USA                            100119580815198401012020                                08151984               A                                                         740-377-2536   kmccready@robinsonbradshaw.com                    EMM6 F                                                                                                                           
100RBH222-46-9513Wolfe, Tricia                                                                                                                                                                                                             983637      983637      983637             332        401F        401C        ROTH       ROTHC                                                                             2319316     2319316     2319316                 58146506855S152 Wesleyan Dr                                                                 McAdenville                                                                     NC28101     USA                            0801196403092020                                        03092020               A                                                         740-377-2536   twolfe@robinsonbradshaw.com                       EF 0 F                                                                                                                           
100RBH223-69-0544Moles, Katherine                      140000           0           0           0                                                                                   0           0           0           0           0     2348484     2348484     2348484             347        401F        401C        ROTH       ROTHC                                                                             8219694     8219694     8219694                140909040005S515 E Tremont Ave                                                               Charlotte                                                                       NC28203     USA                            042419930917201810032019                                09172018               A                                                         740-377-2536   kmoles@robinsonbradshaw.com                       EFZ0 F                                                                                                                           
100RBH223-84-9955Caldwell, Stokely G.                  316000           0           0           0                                                                                   0           0           0           0           0     6416668     6416668     6416668             347        401F        401C        ROTH       ROTHC                                                                            22958338    22958338    22958338                385000081338M2041 Sharon Road                                                                Charlotte                                                                       NC28207     USA                            050719560531198601012019                                05311986               A                                                         740-377-2536   scaldwell@robinsonbradshaw.com                    EMM0 F                                                                                                                           
100RBH224-15-2989Wilburn, Sandra K.                    325000           0           0           0                                                                                   0           0           0           0           0     2803032     2803032     2803032             347        401F        401C        ROTH       ROTHC                                                                             9810612     9810612     9810612                168181920005S3529 Tree Farm Road                                                             Hillsborough                                                                    NC27278     USA                            070719770815201601012019                                08152016               A                                                         740-377-2536   swilburn@robinsonbradshaw.com                     EFM0 F                                                                                                                           
100RBH225-15-8842Griggs, Julie Z.                           0           0           0           0                                                                                   0       72708       71336           0           0     5500000     5500000     5500000             347        401F        401C        ROTH       ROTHC                                                                            19250000    19250000    19250000                330000001338M1966 Overhill Road                                                              Charlotte                                                                       NC28211     USA                            012519620426200404262004                                04262004               A                                                         740-377-2536   jgriggs@robinsonbradshaw.com                      EFM3 F                                                                                                                           
100RBH225-23-4838Vintinner, M.  Scott                  325000           0           0           0                                                                                   0           0           0           0           0     2653086     2653086     2653086             347        401F        401C        ROTH       ROTHC                                                                             9236426     9236426     9236426                160370160005S5725 Mctaggart Lane                                                             Charlotte                                                                       NC28269     USA                            122719710830199301012019                                08301993               A                                                         740-377-2536   scottv@robinsonbradshaw.com                       EMM1 F                                                                                                                           
100RBH225-65-5563Haynes, Megan C.                      160000           0           0           0                                                                                   0           0           0           0           0     2424244     2424244     2424244             347        401F        401C        ROTH       ROTHC                                                                             8484854     8484854     8484854                145454640005S3310 N Davidson St                      Apt 466                                 Charlotte                                                                       NC28205     USA                            040619920911201701012019                                09112017               A                                                         740-377-2536   mhaynes@robinsonbradshaw.com                      EFS0 F                                                                                                                           
100RBH227-65-3242Evangelisto, Matthew R.                                                                                                                                                                                                  2348484     2348484     2348484             347        401F        401C        ROTH       ROTHC                                                                             8219694     8219694     8219694                140909040005S1518 Mainline Blvd                      Apt. 16303                              Charlotte                                                                       NC28203     USA                            0412199209172018                                        09172018               A                                                         740-377-2536   mevangelisto@robinsonbradshaw.com                 EMZ2 F                                                                                                                           
100RBH228-86-0247Cassada, Garland S.                   325000      108400           0           0                                                                                   0           0           0           0           0     9333334     9333334     9333334             347        401F        401C        ROTH       ROTHC                                                                            32416669    32416669    32416669                560000001338M2956 Saint Andrews Lane                                                         Charlotte                                                                       NC28205     USA                            112219570820198401012019                                08201984               A                                                         740-377-2536   gcassada@robinsonbradshaw.com                     EMM8 F                                                                                                                           
100RBH228-86-0247Cassada, Garland S.                   325000      108400           0           0                                                                                   0           0           0           0           0     9333334     9333334     9333334             347        401F        401C        ROTH       ROTHC                                                                            32416669    32416669    32416669                560000001338M2956 Saint Andrews Lane                                                         Charlotte                                                                       NC28205     USA                            112219570820198401012020                                08201984               A                                                         740-377-2536   gcassada@robinsonbradshaw.com                     EMM8 F                                                                                                                           
100RBH228-96-2258Woronoff, Adair T.                    100000           0           0           0                                                                                   0           0           0           0           0     1584407     1584407     1584407             341        401F        401C        ROTH       ROTHC                                                                             5402131     5402131     5402131                 90588758300S120 Brookline Drive                                                             Pinehurst                                                                       NC28374     USA                            012919670620201601012019                                06202016               A                                                         740-377-2536   aworonoff@robinsonbradshaw.com                    EFZ3 F                                                                                                                           
100RBH229-06-7938Speed, Nina                                                                                                                                                                                                               999899      999899      999899             340        401F        401C        ROTH       ROTHC                                                                             3476087     3476087     3476087                 57855000120S8065 Bristle Toe Lane                                                           Charlotte                                                                       NC28277     USA                            1206196808262019                                        08262019               A                                                         740-377-2536   nspeed@robinsonbradshaw.com                       EFZ2 F                                                                                                                           
100RBH231-84-7699Torstrick, Brent A.                   325000      108334           0           0                                                                                   0           0           0           0           0     6666668     6666668     6666668             347        401F        401C        ROTH       ROTHC                                                                            23250004    23250004    23250004                400000081338M2645 Beverwyck Rd                                                               Charlotte                                                                       NC28211     USA                            111619600829198301012019                                08291983               A                                                         740-377-2536   btorstrick@robinsonbradshaw.com                   EMZ5 F                                                                                                                           
100RBH231-84-7699Torstrick, Brent A.                   325000      108334           0           0                                                                                   0           0           0           0           0     6666668     6666668     6666668             347        401F        401C        ROTH       ROTHC                                                                            23250004    23250004    23250004                400000081338M2645 Beverwyck Rd                                                               Charlotte                                                                       NC28211     USA                            111619600829198301012020                                08291983               A                                                         740-377-2536   btorstrick@robinsonbradshaw.com                   EMZ5 F                                                                                                                           
100RBH237-08-9580Gibson, Richard W.                    325000      108334           0           0                                                                                   0           0           0           0           0     6166668     6166668     6166668             347        401F        401C        ROTH       ROTHC                                                                            21583338    21583338    21583338                370000081338M4841 Montclair Ave                                                              Charlotte                                                                       NC28211     USA                            052919580119198901012019                                01191989               A                                                         740-377-2536   rgibson@robinsonbradshaw.com                      EMM4 F                                                                                                                           
100RBH237-08-9580Gibson, Richard W.                    325000      108334           0           0                                                                                   0           0           0           0           0     6166668     6166668     6166668             347        401F        401C        ROTH       ROTHC                                                                            21583338    21583338    21583338                370000081338M4841 Montclair Ave                                                              Charlotte                                                                       NC28211     USA                            052919580119198901012020                                01191989               A                                                         740-377-2536   rgibson@robinsonbradshaw.com                      EMM4 F                                                                                                                           
100RBH237-19-9846Wright, Julian H.                     325000      100000           0           0                                                                                   0           0           0           0           0     5000000     5000000     5000000             347        401F        401C        ROTH       ROTHC                                                                            17383334    17383334    17383334                300000001338M2035 Greenway Avenue                                                            Charlotte                                                                       NC28204     USA                            092419650830199301012019                                08301993               A                                                         740-377-2536   jwright@robinsonbradshaw.com                      EMZ10F                                                                                                                           
100RBH237-19-9846Wright, Julian H.                     325000      100000           0           0                                                                                   0           0           0           0           0     5000000     5000000     5000000             347        401F        401C        ROTH       ROTHC                                                                            17383334    17383334    17383334                300000001338M2035 Greenway Avenue                                                            Charlotte                                                                       NC28204     USA                            092419650830199301012020                                08301993               A                                                         740-377-2536   jwright@robinsonbradshaw.com                      EMZ10F                                                                                                                           
100RBH237-31-6340Smiley, Brenton R.                                                                                                                                                                                                             0           0           0               0        401F        401C        ROTH       ROTHC                                                                              775063      775063      775063                 35000160344S749 Sam Brown Road                                                              Gastonia                                                                        NC28056     USA                            0731197908122019                                0318202008122019               T                                                         740-377-2536   bsmiley@robinsonbradshaw.com                       MS0 F                                                                                                                           
100RBH237-43-5100Woolard, Deborah D.                                                                                                                                                                                                            0           0           0               0        401F        401C        ROTH       ROTHC                                                                             1800579     1853079     1853079                 61200006548S7137 Founders Club Court                                                        Charlotte                                                                       NC28269     USA                            120619730710201707102017                        0415202007102017               T                                                         740-377-2536   dwoolard@robinsonbradshaw.com                      FS6 F                                                                                                                           
100RBH237-43-5100Woolard, Deborah D.                                                                                                                                                                                                            0           0           0               0        401F        401C        ROTH       ROTHC                                                                             1800579     1853079     1853079                 61200006548S7137 Founders Club Court                                                        Charlotte                                                                       NC28269     USA                            120619730710201701012019                        0415202007102017               T                                                         740-377-2536   dwoolard@robinsonbradshaw.com                      FS6 F                                                                                                                           
100RBH237-43-8437Huffstetler, Seth M.                  325000           0           0           0                                                                                   0           0           0           0           0     5083334     5083334     5083334             347        401F        401C        ROTH       ROTHC                                                                            17541669    17541669    17541669                305000001338M3142 Pinehurst Place                                                            Charlotte                                                                       NC28209     USA                            080119770326200801012019                                03262008               A                                                         740-377-2536   shuffstetler@robinsonbradshaw.com                 EMM0 F                                                                                                                           
100RBH237-79-0685Raynor, Jake L.                                                                                                                                                                                                           944751      944751      944751             332        401F        401C        ROTH       ROTHC                                                                             3358287     3358287     3358287                 55825082766S2126 East 7Th Street                                                            Charlotte                                                                       NC28204     USA                            0413199408122019                                        08122019               A                                                         740-377-2536   jraynor@robinsonbradshaw.com                      EMZ2 F                                                                                                                           
100RBH237-88-9068Phillips, James                       280000       80000           0           0                                                                                   0           0           0           0           0     3750000     3750000     3750000             347        401F        401C        ROTH       ROTHC                                                                            12958334    12958334    12958334                225000001338M126 Creekview Circle                                                            Carrboro                                                                        NC27510     USA                            091719540517201101012019                                05172011               A                                                         740-377-2536   dphillips@robinsonbradshaw.com                    EMZ5 F                                                                                                                           
100RBH237-88-9068Phillips, James                       280000       80000           0           0                                                                                   0           0           0           0           0     3750000     3750000     3750000             347        401F        401C        ROTH       ROTHC                                                                            12958334    12958334    12958334                225000001338M126 Creekview Circle                                                            Carrboro                                                                        NC27510     USA                            091719540517201101012020                                05172011               A                                                         740-377-2536   dphillips@robinsonbradshaw.com                    EMZ5 F                                                                                                                           
100RBH238-11-1382Allen, Robert W.                      325000      108332           0           0                                                                                   0           0           0           0           0     3216668     3216668     3216668             347        401F        401C        ROTH       ROTHC                                                                            11258338    11258338    11258338                193000080005S7603 Compton Court                                                              Charlotte                                                                       NC28270     USA                            071519590701199601012019                                07011996               A                                                         740-377-2536   rallen@robinsonbradshaw.com                       EMM8 F                                                                                                                           
100RBH238-11-1382Allen, Robert W.                      325000      108332           0           0                                                                                   0           0           0           0           0     3216668     3216668     3216668             347        401F        401C        ROTH       ROTHC                                                                            11258338    11258338    11258338                193000080005S7603 Compton Court                                                              Charlotte                                                                       NC28270     USA                            071519590701199601012020                                07011996               A                                                         740-377-2536   rallen@robinsonbradshaw.com                       EMM8 F                                                                                                                           
100RBH238-13-3116Hendrix, J.  Robert                                                                                                                                                                                                      1255065     1255065     1255065             350        401F        401C        ROTH       ROTHC                                                                             4091972     4179472     4179472                 70568000555S3915 Pomfret Lane                                                               Charlotte                                                                       NC28211     USA                            1030196802162009                                        02162009               A                                                         740-377-2536   bhendrix@robinsonbradshaw.com                     EMS0 F                                                                                                                           
100RBH238-23-8212Evans, Tenley Farrell                                                                                                                                                                                                    2250000     2250000     2250000             347        401F        401C        ROTH       ROTHC                                                                             7468263     7468263     7468263                135000003738S416 Greenfield Drive                                                            Lexington                                                                       NC27295     USA                            1210196506242019                                        06242019               A                                                         740-377-2536   tfevans@robinsonbradshaw.com                      EFZ0 F                                                                                                                           
100RBH238-31-4504Huber, Susan M.                       325000           0           0           0                                                                                   0           0           0           0           0     2583334     2583334     2583334             260        401F        401C        ROTH       ROTHC                                                                             8791669     8791669     8791669                155000001000M3821 Silver Bell Dr                                                             Charlotte                                                                       NC28211     USA                            042719790119201001012019                                01192010               A                                                         740-377-2536   shuber@robinsonbradshaw.com                       EFM0 F                                                                                                                           
100RBH238-35-7800Moore, Lawrence C.                    325000      108334           0           0                                                                                   0           0           0           0           0     4416668     4416668     4416668             347        401F        401C        ROTH       ROTHC                                                                            15375004    15375004    15375004                265000081338M2105 East 8Th Street                                                            Charlotte                                                                       NC28204     USA                            081819680306199501012019                                03061995               A                                                         740-377-2536   lmoore@robinsonbradshaw.com                       EMZ7 F                                                                                                                           
100RBH238-35-7800Moore, Lawrence C.                    325000      108334           0           0                                                                                   0           0           0           0           0     4416668     4416668     4416668             347        401F        401C        ROTH       ROTHC                                                                            15375004    15375004    15375004                265000081338M2105 East 8Th Street                                                            Charlotte                                                                       NC28204     USA                            081819680306199501012020                                03061995               A                                                         740-377-2536   lmoore@robinsonbradshaw.com                       EMZ7 F                                                                                                                           
100RBH238-45-5613Smith, Laurie C.                      325000      108334           0           0                                                                                   0           0           0           0           0     3333334     3333334     3333334             347        401F        401C        ROTH       ROTHC                                                                            11333335    11333335    11333335                200000001338M2017 Springdale Avenue                                                          Charlotte                                                                       NC28203     USA                            092219700101201601012019                                01012017               A                                                         740-377-2536   lsmith@robinsonbradshaw.com                       EFZ2 F                                                                                                                           
100RBH238-45-5613Smith, Laurie C.                      325000      108334           0           0                                                                                   0           0           0           0           0     3333334     3333334     3333334             347        401F        401C        ROTH       ROTHC                                                                            11333335    11333335    11333335                200000001338M2017 Springdale Avenue                                                          Charlotte                                                                       NC28203     USA                            092219700101201601012020                                01012017               A                                                         740-377-2536   lsmith@robinsonbradshaw.com                       EFZ2 F                                                                                                                           
100RBH238-47-5928Sigmon, Christine N.                       0           0           0           0                                                                                   0       30800       35180       33340        9772     1116081     1116081     1116081             327        401F        401C        ROTH       ROTHC                                                                             3870791     3870791     3870791                 67104746550S3101 Sunnybrook Drive                                                           Charlotte                                                                       NC28210     USA                            030619721103199711031997                                11031997               A                                                         740-377-2536   csigmon@robinsonbradshaw.com                      EFZ1 F                                                                                                                           
100RBH238-47-5928Sigmon, Christine N.                       0           0           0           0                                                                                   0       30800       35180       33340        9772     1116081     1116081     1116081             327        401F        401C        ROTH       ROTHC                                                                             3870791     3870791     3870791                 67104746550S3101 Sunnybrook Drive                                                           Charlotte                                                                       NC28210     USA                            030619721103199701012019                                11031997               A                                                         740-377-2536   csigmon@robinsonbradshaw.com                      EFZ1 F                                                                                                                           
100RBH238-55-0924Smith, Tracy M                                                                                                                                                                                                           1112090     1112090     1112090             331        401F        401C        ROTH       ROTHC                                                                             3845308     3845308     3845308                 65975166456S704 Catawba Street                                                              Raleigh                                                                         NC27609     USA                            0328197305132019                                        05132019               A                                                         740-377-2536   tsmith@robinsonbradshaw.com                       EFZ1 F                                                                                                                           
100RBH238-55-1461Ciampanella, April S.                  12000           0           0           0                                                                                   0      115952           0           0           0     1292622     1292622     1292622             328        401F        401C        ROTH       ROTHC                                                                             4132830     4238630     4238630                 70500006505S155 Stone Ridge Lane                                                            Mooresville                                                                     NC28117     USA                            071719780623199706231997                                06231997               A                                                         740-377-2536   aciampanella@robinsonbradshaw.com                 EFS1 F                                                                                                                           
