01F026358   0134528970000000000000100000000020210401            Olvera              Clemente          5236 S Padre Island Hwy Lot 94                                                                                          Brownsville                  TX78521     M19861123N2021012500000042021040100003744000A2021020100000       0000000 00        000000000      00000000000000000000                                                                                                                                                                                                                                                                                                                                                                                                                                                                                                                                                                                                                                         * 
05F026358   0134528970000000000000100000000 04012021                                                                                                                                                                                                                    00000000 000000000000000000000000000000000  0000000000000LIFE           00 00010020000015002     00000000000000000000                                                                                                                                                                                                                                                                                                                                                                                                                                                                                                                                                                                                                                         * 
05F026358   0134528970000000000000100000000 04012021                                                                                                                                                                                                                                                                             ADD            00 00020010000015002     00000000000000000000                                                                                                                                                                                                                                                                                                                                                                                                                                                                                                                                                                                                                                         * 
01F026358   0157920640000000000000100000000020210101            Pastrana            Cristian          6006 S State Hwy 349                                                                                                    Midland                      TX79706     M19900815N2021010100000062021010100003952000A2021020100000       0000000 00        000000000      00000000000000000000                                                                                                                                                                                                                                                                                                                                                                                                                                                                                                                                                                                                                                         * 
05F026358   0157920640000000000000100000000 01012021                                                                                                                                                                                                                    00000000 000000000000000000000000000000000  0000000000000ACCIV          00E00082010000001001     00000000000000000000                                                                                                                                                                                                                                                                                                                                                                                                                                                                                                                                                                                                                                         * 
05F026358   0157920640000000000000100000000 01012021                                                                                                                                                                                                                    00000000 000000000000000000000000000000000  0000000000000LIFE           00 00010010000014001     00000000000000000000                                                                                                                                                                                                                                                                                                                                                                                                                                                                                                                                                                                                                                         * 
05F026358   0157920640000000000000100000000 01012021                                                                                                                                                                                                                    00000000 000000000000000000000000000000000  0000000000000LIFSUP1        00 00011010000008001    200000000000000000000                                                                                                                                                                                                                                                                                                                                                                                                                                                                                                                                                                                                                                         * 
05F026358   0157920640000000000000100000000 01012021                                                                                                                                                                                                                    00000000 000000000000000000000000000000000  0000000000000CRITVE         00 00015010000008001     00000000000000000000                                                                                                                                                                                                                                                                                                                                                                                                                                                                                                                                                                                                                                         * 
05F026358   0157920640000000000000100000000 01012021                                                                                                                                                                                                                    00000000 000000000000000000000000000000000  0000000000000VISB           00E00091080000001001     00000000000000000000                                                                                                                                                                                                                                                                                                                                                                                                                                                                                                                                                                                                                                         * 
05F026358   0157920640000000000000100000000 01012021                                                                                                                                                                                                                                                                             ADD            00 00020010000014001     00000000000000000000                                                                                                                                                                                                                                                                                                                                                                                                                                                                                                                                                                                                                                         * 
05F026358   0157920640000000000000100000000 01012021                                                                                                                                                                                                                                                                             ADDSUP1        00 00021010000008001    200000000000000000000                                                                                                                                                                                                                                                                                                                                                                                                                                                                                                                                                                                                                                         * 
01F026358   7017860610000000000000100000000020210101            suarez              sandra            6006 S State Hwy 349                                                                                                    Midland                      TX79706     F19950603N2021010100000062021010100003952000A2021020100000       0000000 00        000000000      00000000000000000000                                                                                                                                                                                                                                                                                                                                                                                                                                                                                                                                                                                                                                         * 
05F026358   7017860610000000000000100000000 01012021                                                                                                                                                                                                                    00000000 000000000000000000000000000000000  0000000000000DEPSUPS           00012010000001003    200000000000000000000                                                                                                                                                                                                                                                                                                                                                                                                                                                                                                                                                                                                                                         * 
05F026358   7017860610000000000000100000000 01012021                                                                                                                                                                                                                    00000000 000000000000000000000000000000000  0000000000000CRITVS            00015020000001003     00000000000000000000                                                                                                                                                                                                                                                                                                                                                                                                                                                                                                                                                                                                                                         * 
05F026358   7017860610000000000000100000000 01012021                                                                                                                                                                                                                                                                             ADDSUPS           00022010000001003    200000000000000000000                                                                                                                                                                                                                                                                                                                                                                                                                                                                                                                                                                                                                                         * 
01F026358   0226978340000000000000100000000020210501            Morales             Amilcar          A607 Richey                              Apt 104                                                                         Pasadena                     TX77506     M19820906N2021030200000042021050100003952000A2021040100000       0000000 00        000000000      00000000000000000000                                                                                                                                                                                                                                                                                                                                                                                                                                                                                                                                                                                                                                         * 
05F026358   0226978340000000000000100000000 05012021                                                                                                                                                                                                                    00000000 000000000000000000000000000000000  0000000000000LIFE           00 00010020000015002     00000000000000000000                                                                                                                                                                                                                                                                                                                                                                                                                                                                                                                                                                                                                                         * 
05F026358   0226978340000000000000100000000 05012021                                                                                                                                                                                                                                                                             ADD            00 00020010000015002     00000000000000000000                                                                                                                                                                                                                                                                                                                                                                                                                                                                                                                                                                                                                                         * 
01F026358   0274375660000000000000100000000020210101            Santos Chavez       Matilde Adaly     3034 Applewood Way SW                                                                                                   Gainesville                  GA30504     M19910207N2021010100000022021010100003432000A2021020100000       0000000 00        000000000      00000000000000000000                                                                                                                                                                                                                                                                                                                                                                                                                                                                                                                                                                                                                                         * 
05F026358   0274375660000000000000100000000 01012021                                                                                                                                                                                                                    00000000 000000000000000000000000000000000  0000000000000LIFE           00 00010020000014002     00000000000000000000                                                                                                                                                                                                                                                                                                                                                                                                                                                                                                                                                                                                                                         * 
05F026358   0274375660000000000000100000000 01012021                                                                                                                                                                                                                                                                             ADD            00 00020010000014002     00000000000000000000                                                                                                                                                                                                                                                                                                                                                                                                                                                                                                                                                                                                                                         * 
01F026358   0319371890000000000000100000000020210101            Moran Ramos         Roberto           518 Elizabeth Ave                                                                                                       Monroe                       NC28112     M19730228N2021010100000052021010100003536000A2021020100000       0000000 00        000000000      00000000000000000000                                                                                                                                                                                                                                                                                                                                                                                                                                                                                                                                                                                                                                         * 
02F026358   0319371890000000000000168601473720210101            Moran-Hernandez     Rosalinda                                                                                                                                                                         CF20030121 0000000000000000000000000000000000 0000000000000       0000000000        000000000      00000000000000000000                                                                                                                                                                                                                                                                                                                                                                                                                                                                                                                                                                                                                                         * 
02F026358   0319371890000000000000162862098320210101            Moran Hernandez     Yulissa                                                                                                                                                                           CF19980326 0000000000000000000000000000000000 0000000000000       0000000000        000000000      00000000000000000000                                                                                                                                                                                                                                                                                                                                                                                                                                                                                                                                                                                                                                         * 
02F026358   0319371890000000000000168409057320210101            Moran-Hernandez     Juliette                                                                                                                                                                          CF20050907 0000000000000000000000000000000000 0000000000000       0000000000        000000000      00000000000000000000                                                                                                                                                                                                                                                                                                                                                                                                                                                                                                                                                                                                                                         * 
05F026358   0319371890000000000000100000000 01012021                                                                                                                                                                                                                    00000000 000000000000000000000000000000000  0000000000000LIFE           00 00010020000014002     00000000000000000000                                                                                                                                                                                                                                                                                                                                                                                                                                                                                                                                                                                                                                         * 
05F026358   0319371890000000000000100000000 01012021                                                                                                                                                                                                                    00000000 000000000000000000000000000000000  0000000000000LIFSUP1        00 00011010000002002    200000000000000000000                                                                                                                                                                                                                                                                                                                                                                                                                                                                                                                                                                                                                                         * 
05F026358   0319371890000000000000100000000 01012021                                                                                                                                                                                                                    00000000 000000000000000000000000000000000  0000000000000VISB           00C00091080000001002     00000000000000000000                                                                                                                                                                                                                                                                                                                                                                                                                                                                                                                                                                                                                                         * 
05F026358   0319371890000000000000100000000 01012021                                                                                                                                                                                                                                                                             ADD            00 00020010000014002     00000000000000000000                                                                                                                                                                                                                                                                                                                                                                                                                                                                                                                                                                                                                                         * 
05F026358   0319371890000000000000100000000 01012021                                                                                                                                                                                                                                                                             ADDSUP1        00 00021010000002002    200000000000000000000                                                                                                                                                                                                                                                                                                                                                                                                                                                                                                                                                                                                                                         * 
01F026358   0489149360000000000000100000000020210101            Velasquez Garcia    Selmer            2699 Buena Vista Cir                                                                                                    Gainesville                  GA30504     M19980320N2021010100000052021010100003640000A2021020100000       0000000 00        000000000      00000000000000000000                                                                                                                                                                                                                                                                                                                                                                                                                                                                                                                                                                                                                                         * 
05F026358   0489149360000000000000100000000 01012021                                                                                                                                                                                                                    00000000 000000000000000000000000000000000  0000000000000LIFE           00 00010020000015002     00000000000000000000                                                                                                                                                                                                                                                                                                                                                                                                                                                                                                                                                                                                                                         * 
05F026358   0489149360000000000000100000000 01012021                                                                                                                                                                                                                    00000000 000000000000000000000000000000000  0000000000000VISB           00E00091080000001002     00000000000000000000                                                                                                                                                                                                                                                                                                                                                                                                                                                                                                                                                                                                                                         * 
05F026358   0489149360000000000000100000000 01012021                                                                                                                                                                                                                                                                             ADD            00 00020010000015002     00000000000000000000                                                                                                                                                                                                                                                                                                                                                                                                                                                                                                                                                                                                                                         * 
01F026358   0798860740000000000000100000000020210101            Fernandez           Walter            1302 N 1st St                                                                                                           Lufkin                       TX75901     M19780602N2021010100000022021010100003640000A2021020100000       0000000 00        000000000      00000000000000000000                                                                                                                                                                                                                                                                                                                                                                                                                                                                                                                                                                                                                                         * 
02F026358   0798860740000000000000163676284920210101            Moran               Santos                                                                                                                                                                            SF19770415 0000000000000000000000000000000000 0000000000000       0000000000        000000000      00000000000000000000                                                                                                                                                                                                                                                                                                                                                                                                                                                                                                                                                                                                                                         * 
05F026358   0798860740000000000000100000000 01012021                                                                                                                                                                                                                    00000000 000000000000000000000000000000000  0000000000000LIFE           00 00010020000014002     00000000000000000000                                                                                                                                                                                                                                                                                                                                                                                                                                                                                                                                                                                                                                         * 
05F026358   0798860740000000000000100000000 01012021                                                                                                                                                                                                                    00000000 000000000000000000000000000000000  0000000000000VISB           00S00091080000001002     00000000000000000000                                                                                                                                                                                                                                                                                                                                                                                                                                                                                                                                                                                                                                         * 
05F026358   0798860740000000000000100000000 01012021                                                                                                                                                                                                                                                                             ADD            00 00020010000014002     00000000000000000000                                                                                                                                                                                                                                                                                                                                                                                                                                                                                                                                                                                                                                         * 
01F026358   0847885360000000000000100000000020210101            Bonilla             Basilio           1922 Hall Ridge Trace Ln                                                                                                Houston                      TX77067     M19720520N2021010100000052021010100009715000A2021050100000       0000000 00        000000000      00000000000000000000                                                                                                                                                                                                                                                                                                                                                                                                                                                                                                                                                                                                                                         * 
02F026358   0847885360000000000000164019451720210101            BONILLA             MATTHEW                                                                                                                                                                           CM20090319 0000000000000000000000000000000000 0000000000000       0000000000        000000000      00000000000000000000                                                                                                                                                                                                                                                                                                                                                                                                                                                                                                                                                                                                                                         * 
02F026358   0847885360000000000000127721392620210101            BONILLA             ISAAC                                                                                                                                                                             CM20150407 0000000000000000000000000000000000 0000000000000       0000000000        000000000      00000000000000000000                                                                                                                                                                                                                                                                                                                                                                                                                                                                                                                                                                                                                                         * 
02F026358   0847885360000000000000164590418920210101            BONILLA             ASHLEY                                                                                                                                                                            CF20040426 0000000000000000000000000000000000 0000000000000       0000000000        000000000      00000000000000000000                                                                                                                                                                                                                                                                                                                                                                                                                                                                                                                                                                                                                                         * 
02F026358   0847885360000000000000117480972720210101            BONILLA             DAYSI                                                                                                                                                                             SF19811008 0000000000000000000000000000000000 0000000000000       0000000000        000000000      00000000000000000000                                                                                                                                                                                                                                                                                                                                                                                                                                                                                                                                                                                                                                         * 
05F026358   0847885360000000000000100000000 01012021                                                                                                                                                                                                                    00000000 000000000000000000000000000000000  0000000000000LIFE           00 00010010000009001     00000000000000000000                                                                                                                                                                                                                                                                                                                                                                                                                                                                                                                                                                                                                                         * 
05F026358   0847885360000000000000100000000 01012021                                                                                                                                                                                                                    00000000 000000000000000000000000000000000  0000000000000VISB           00F00091080000001001     00000000000000000000                                                                                                                                                                                                                                                                                                                                                                                                                                                                                                                                                                                                                                         * 
05F026358   0847885360000000000000100000000 01012021                                                                                                                                                                                                                                                                             ADD            00 00020010000009001     00000000000000000000                                                                                                                                                                                                                                                                                                                                                                                                                                                                                                                                                                                                                                         * 
01F026358   0928018690000000000000100000000020210101            Brunkhorst          Jaime             225 SPRINGFIELD MEADOW DR                                                                                               ETOWAH                       NC28729     F19790205N2021010100000032021010100006300000A2021020100000       0000000 00        000000000      00000000000000000000                                                                                                                                                                                                                                                                                                                                                                                                                                                                                                                                                                                                                                         * 
05F026358   0928018690000000000000100000000 01012021                                                                                                                                                                                                                    00000000 000000000000000000000000000000000  0000000000000LIFE           00 00010010000009001     00000000000000000000                                                                                                                                                                                                                                                                                                                                                                                                                                                                                                                                                                                                                                         * 
05F026358   0928018690000000000000100000000 01012021                                                                                                                                                                                                                                                                             ADD            00 00020010000009001     00000000000000000000                                                                                                                                                                                                                                                                                                                                                                                                                                                                                                                                                                                                                                         * 
01F026358   0950222390000000000000100000000020210101            Garcia              Kevis             246 Shallowford Dr                                                                                                      Gainesville                  GA30504     M19961112N2021010100000022021010100003120000A2021020100000       0000000 00        000000000      00000000000000000000                                                                                                                                                                                                                                                                                                                                                                                                                                                                                                                                                                                                                                         * 
05F026358   0950222390000000000000100000000 01012021                                                                                                                                                                                                                    00000000 000000000000000000000000000000000  0000000000000LIFE           00 00010020000014002     00000000000000000000                                                                                                                                                                                                                                                                                                                                                                                                                                                                                                                                                                                                                                         * 
05F026358   0950222390000000000000100000000 01012021                                                                                                                                                                                                                                                                             ADD            00 00020010000014002     00000000000000000000                                                                                                                                                                                                                                                                                                                                                                                                                                                                                                                                                                                                                                         * 
01F026358   1058090490000000000000100000000020210101            Vanegas             Oscar             3628 Swan Ct                                                                                                            Haltom City                  TX76117     M19761231N2021010100000052021010100004368000A2021020100000       0000000 00        000000000      00000000000000000000                                                                                                                                                                                                                                                                                                                                                                                                                                                                                                                                                                                                                                         * 
05F026358   1058090490000000000000100000000 01012021                                                                                                                                                                                                                    00000000 000000000000000000000000000000000  0000000000000LIFE           00 00010020000015002     00000000000000000000                                                                                                                                                                                                                                                                                                                                                                                                                                                                                                                                                                                                                                         * 
05F026358   1058090490000000000000100000000 01012021                                                                                                                                                                                                                    00000000 000000000000000000000000000000000  0000000000000VISB           00E00091080000001002     00000000000000000000                                                                                                                                                                                                                                                                                                                                                                                                                                                                                                                                                                                                                                         * 
05F026358   1058090490000000000000100000000 01012021                                                                                                                                                                                                                                                                             ADD            00 00020010000015002     00000000000000000000                                                                                                                                                                                                                                                                                                                                                                                                                                                                                                                                                                                                                                         * 
01F026358   1168630640000000000000100000000020210101            Galvez Bonilla      Reinaldo          34 Camp Rd                                                                                                              Massapequa                   NY11758     M19770908N2021010100000022021010100003120000A2021020100000       0000000 00        000000000      00000000000000000000                                                                                                                                                                                                                                                                                                                                                                                                                                                                                                                                                                                                                                         * 
05F026358   1168630640000000000000100000000 01012021                                                                                                                                                                                                                    00000000 000000000000000000000000000000000  0000000000000LIFE           00 00010020000014002     00000000000000000000                                                                                                                                                                                                                                                                                                                                                                                                                                                                                                                                                                                                                                         * 
05F026358   1168630640000000000000100000000 01012021                                                                                                                                                                                                                                                                             ADD            00 00020010000014002     00000000000000000000                                                                                                                                                                                                                                                                                                                                                                                                                                                                                                                                                                                                                                         * 
01F026358   1338231620000000000000100000000020210101            Bonilla             Roman             106 Bougainville Ct                                                                                                     Lufkin                       TX75901     M19780410N2021010100000052021010100004368000A2021020100000       0000000 00        000000000      00000000000000000000                                                                                                                                                                                                                                                                                                                                                                                                                                                                                                                                                                                                                                         * 
05F026358   1338231620000000000000100000000 01012021                                                                                                                                                                                                                    00000000 000000000000000000000000000000000  0000000000000LIFE           00 00010020000014002     00000000000000000000                                                                                                                                                                                                                                                                                                                                                                                                                                                                                                                                                                                                                                         * 
05F026358   1338231620000000000000100000000 01012021                                                                                                                                                                                                                    00000000 000000000000000000000000000000000  0000000000000LIFSUP1        00 00011010000000002    200000000000000000000                                                                                                                                                                                                                                                                                                                                                                                                                                                                                                                                                                                                                                         * 
05F026358   1338231620000000000000100000000 01012021                                                                                                                                                                                                                    00000000 000000000000000000000000000000000  0000000000000VISB           00E00091080000001002     00000000000000000000                                                                                                                                                                                                                                                                                                                                                                                                                                                                                                                                                                                                                                         * 
05F026358   1338231620000000000000100000000 01012021                                                                                                                                                                                                                                                                             ADD            00 00020010000014002     00000000000000000000                                                                                                                                                                                                                                                                                                                                                                                                                                                                                                                                                                                                                                         * 
05F026358   1338231620000000000000100000000 01012021                                                                                                                                                                                                                                                                             ADDSUP1        00 00021010000000002    200000000000000000000                                                                                                                                                                                                                                                                                                                                                                                                                                                                                                                                                                                                                                         * 
01F026358   1498819480000000000000100000000020210101            Tineo               Christian        J93 Westgate Dr. APT A                                                                                                   Wheeling                     WV26003     M19900423N2021010100000022021010100009000000A2021020100000       0000000 00        000000000      00000000000000000000                                                                                                                                                                                                                                                                                                                                                                                                                                                                                                                                                                                                                                         * 
05F026358   1498819480000000000000100000000 01012021                                                                                                                                                                                                                    00000000 000000000000000000000000000000000  0000000000000LIFE           00 00010010000014001     00000000000000000000                                                                                                                                                                                                                                                                                                                                                                                                                                                                                                                                                                                                                                         * 
05F026358   1498819480000000000000100000000 01012021                                                                                                                                                                                                                    00000000 000000000000000000000000000000000  0000000000000VISB           00E00091080000001001     00000000000000000000                                                                                                                                                                                                                                                                                                                                                                                                                                                                                                                                                                                                                                         * 
05F026358   1498819480000000000000100000000 01012021                                                                                                                                                                                                                                                                             ADD            00 00020010000014001     00000000000000000000                                                                                                                                                                                                                                                                                                                                                                                                                                                                                                                                                                                                                                         * 
01F026358   1597040700000000000000100000000020210101            Abendroth           Edward           S325 Rockylane Dr                                                                                                        Midland                      TX79703     M19730925N2021010100000072021010100005408000A2021020100000       0000000 00        000000000      00000000000000000000                                                                                                                                                                                                                                                                                                                                                                                                                                                                                                                                                                                                                                         * 
02F026358   1597040700000000000000145189783320210101            Abendroth           Linda                                                                                                                                                                             SF19830626 0000000000000000000000000000000000 0000000000000       0000000000        000000000      00000000000000000000                                                                                                                                                                                                                                                                                                                                                                                                                                                                                                                                                                                                                                         * 
02F026358   1597040700000000000000163380789720210101            Abendroth           Evelyn                                                                                                                                                                            CF20020122 0000000000000000000000000000000000 0000000000000       0000000000        000000000      00000000000000000000                                                                                                                                                                                                                                                                                                                                                                                                                                                                                                                                                                                                                                         * 
02F026358   1597040700000000000000117882747820210101            Abendroth           Alexa                                                                                                                                                                             CF20040805 0000000000000000000000000000000000 0000000000000       0000000000        000000000      00000000000000000000                                                                                                                                                                                                                                                                                                                                                                                                                                                                                                                                                                                                                                         * 
02F026358   1597040700000000000000163306310520210101            Abendroth           Jordan                                                                                                                                                                            CM20061107 0000000000000000000000000000000000 0000000000000       0000000000        000000000      00000000000000000000                                                                                                                                                                                                                                                                                                                                                                                                                                                                                                                                                                                                                                         * 
05F026358   1597040700000000000000100000000 01012021                                                                                                                                                                                                                    00000000 000000000000000000000000000000000  0000000000000ACCIV          00F00082010000001002     00000000000000000000                                                                                                                                                                                                                                                                                                                                                                                                                                                                                                                                                                                                                                         * 
05F026358   1597040700000000000000100000000 01012021                                                                                                                                                                                                                    00000000 000000000000000000000000000000000  0000000000000LIFE           00 00010020000014002     00000000000000000000                                                                                                                                                                                                                                                                                                                                                                                                                                                                                                                                                                                                                                         * 
05F026358   1597040700000000000000100000000 01012021                                                                                                                                                                                                                    00000000 000000000000000000000000000000000  0000000000000LIFSUP1        00 00011010000014002    200000000000000000000                                                                                                                                                                                                                                                                                                                                                                                                                                                                                                                                                                                                                                         * 
05F026358   1597040700000000000000100000000 01012021                                                                                                                                                                                                                    00000000 000000000000000000000000000000000  0000000000000DEPSUPC        00 00013010000014002     00000000000000000000                                                                                                                                                                                                                                                                                                                                                                                                                                                                                                                                                                                                                                         * 
05F026358   1597040700000000000000100000000 01012021                                                                                                                                                                                                                    00000000 000000000000000000000000000000000  0000000000000CRITVE         00 00015010000014002     00000000000000000000                                                                                                                                                                                                                                                                                                                                                                                                                                                                                                                                                                                                                                         * 
05F026358   1597040700000000000000100000000 01012021                                                                                                                                                                                                                    00000000 000000000000000000000000000000000  0000000000000CRITVC         00 00015030000014002     00000000000000000000                                                                                                                                                                                                                                                                                                                                                                                                                                                                                                                                                                                                                                         * 
05F026358   1597040700000000000000100000000 01012021                                                                                                                                                                                                                    00000000 000000000000000000000000000000000  0000000000000VISB           00F00091080000001002     00000000000000000000                                                                                                                                                                                                                                                                                                                                                                                                                                                                                                                                                                                                                                         * 
05F026358   1597040700000000000000100000000 01012021                                                                                                                                                                                                                                                                             ADD            00 00020010000014002     00000000000000000000                                                                                                                                                                                                                                                                                                                                                                                                                                                                                                                                                                                                                                         * 
05F026358   1597040700000000000000100000000 01012021                                                                                                                                                                                                                                                                             ADDSUP1        00 00021010000014002    200000000000000000000                                                                                                                                                                                                                                                                                                                                                                                                                                                                                                                                                                                                                                         * 
05F026358   1597040700000000000000100000000 01012021                                                                                                                                                                                                                                                                             ADDSUPC        00 00023010000014002     00000000000000000000                                                                                                                                                                                                                                                                                                                                                                                                                                                                                                                                                                                                                                         * 
01F026358   4518978330000000000000100000000020210101            Abendroth           Linda             325 Rockylane Dr                                                                                                        Midland                      TX79703     F19830626 2021010100000072021010100005408000A2021020100000       0000000 00        000000000      00000000000000000000                                                                                                                                                                                                                                                                                                                                                                                                                                                                                                                                                                                                                                         * 
05F026358   4518978330000000000000100000000 01012021                                                                                                                                                                                                                    00000000 000000000000000000000000000000000  0000000000000DEPSUPS           00012010000002003    200000000000000000000                                                                                                                                                                                                                                                                                                                                                                                                                                                                                                                                                                                                                                         * 
05F026358   4518978330000000000000100000000 01012021                                                                                                                                                                                                                    00000000 000000000000000000000000000000000  0000000000000CRITVS            00015020000002003     00000000000000000000                                                                                                                                                                                                                                                                                                                                                                                                                                                                                                                                                                                                                                         * 
05F026358   4518978330000000000000100000000 01012021                                                                                                                                                                                                                                                                             ADDSUPS           00022010000002003    200000000000000000000                                                                                                                                                                                                                                                                                                                                                                                                                                                                                                                                                                                                                                         * 
01F026358   1597453350000000000000100000000020210101            Billig              Abram             51 estate dr                                                                                                            Morgantown                   WV26508     M19920315N2021010100000022021010100003702400A2021020100000       2021042932        000000000      00000000000000000000                                                                                                                                                                                                                                                                                                                                                                                                                                                                                                                                                                                                                                         * 
05F026358   1597453350000000000000100000000 01012021                                                                                                                                                                                                                    00000000 000000000000000000000000000000000  0000000000000LIFE   0429202132 00010010000015001     00000000000000000000                                                                                                                                                                                                                                                                                                                                                                                                                                                                                                                                                                                                                                         * 
05F026358   1597453350000000000000100000000 01012021                                                                                                                                                                                                                    00000000 000000000000000000000000000000000  0000000000000VISB   0429202132E00091080000001001     00000000000000000000                                                                                                                                                                                                                                                                                                                                                                                                                                                                                                                                                                                                                                         * 
05F026358   1597453350000000000000100000000 01012021                                                                                                                                                                                                                                                                             ADD    0429202132 00020010000015001     00000000000000000000                                                                                                                                                                                                                                                                                                                                                                                                                                                                                                                                                                                                                                         * 
01F026358   1625460720000000000000100000000020210101            Gardner             William           310 North 3rd Street                                                                                                    Denison                      OH44621     M19630628N2021010100000022021010100003744000A2021020100000       0000000 00        000000000      00000000000000000000                                                                                                                                                                                                                                                                                                                                                                                                                                                                                                                                                                                                                                         * 
05F026358   1625460720000000000000100000000 01012021                                                                                                                                                                                                                    00000000 000000000000000000000000000000000  0000000000000LIFE           00 00010020000014002     00000000000000000000                                                                                                                                                                                                                                                                                                                                                                                                                                                                                                                                                                                                                                         * 
05F026358   1625460720000000000000100000000 01012021                                                                                                                                                                                                                    00000000 000000000000000000000000000000000  0000000000000VISB           00E00091080000001002     00000000000000000000                                                                                                                                                                                                                                                                                                                                                                                                                                                                                                                                                                                                                                         * 
05F026358   1625460720000000000000100000000 01012021                                                                                                                                                                                                                                                                             ADD            00 00020010000014002     00000000000000000000                                                                                                                                                                                                                                                                                                                                                                                                                                                                                                                                                                                                                                         * 
01F026358   1696291530000000000000100000000020210101            Kammaneephan        Seethorn          1604 Travelers Rest CT                                                                                                  La Vergne                    TN37086     M19600601N2021010100000022021010100004160000A2021020100000       0000000 00        000000000      00000000000000000000                                                                                                                                                                                                                                                                                                                                                                                                                                                                                                                                                                                                                                         * 
05F026358   1696291530000000000000100000000 01012021                                                                                                                                                                                                                    00000000 000000000000000000000000000000000  0000000000000ACCIV          00E00082010000001002     00000000000000000000                                                                                                                                                                                                                                                                                                                                                                                                                                                                                                                                                                                                                                         * 
