01F026358   0134528970000000000000100000000004012021            Olvera              Clemente          5236 S Padre Island Hwy Lot 94                                                                                          Brownsville                  TX78521     M11231986N0125202100000040401202100003744000A0125202100000               00        00000000       0000000 000000000 00                                                                                                                                                                                                                                                                                                                                                                                                                                                                                                                                                                                                                                          * 
05F026358   01345289700000000 0000100000000 04012021                                                                                                                                                                                                                    00000000 000000000000000000000000000000000  0000000000000LIFE           00 00010020000015002     00000000000000000000                                                                                                                                                                                                                                                                                                                                                                                                                                                                                                                                                                                                                                          * 
05F026358   01345289700000000 0000100000000 04012021                                                                                                                                                                                                                                                                             ADD            00 00020010000015002     00000000000000000000                                                                                                                                                                                                                                                                                                                                                                                                                                                                                                                                                                                                                                          * 
01F026358   0157920640000000000000100000000001012021            Pastrana            Cristian          6006 S State Hwy 349                                                                                                    Midland                      TX79706     M08151990N0101202100000060101202100003952000A0101202100000               00        00000000       0000000 000000000 00                                                                                                                                                                                                                                                                                                                                                                                                                                                                                                                                                                                                                                          * 
05F026358   01579206400000000 0000100000000 01012021                                                                                                                                                                                                                    00000000 000000000000000000000000000000000  0000000000000ACCIV          00E00082010000001001     00000000000000000000                                                                                                                                                                                                                                                                                                                                                                                                                                                                                                                                                                                                                                          * 
05F026358   01579206400000000 0000100000000 01012021                                                                                                                                                                                                                    00000000 000000000000000000000000000000000  0000000000000LIFE           00 00010010000014001     00000000000000000000                                                                                                                                                                                                                                                                                                                                                                                                                                                                                                                                                                                                                                          * 
05F026358   01579206400000000 0000100000000 01012021                                                                                                                                                                                                                    00000000 000000000000000000000000000000000  0000000000000LIFSUP1        00 00011010000008001    200000000000000000000                                                                                                                                                                                                                                                                                                                                                                                                                                                                                                                                                                                                                                          * 
05F026358   01579206400000000 0000100000000 01012021                                                                                                                                                                                                                    00000000 000000000000000000000000000000000  0000000000000CRITVE         00 00015010000008001     00000000000000000000                                                                                                                                                                                                                                                                                                                                                                                                                                                                                                                                                                                                                                          * 
05F026358   01579206400000000 0000100000000 01012021                                                                                                                                                                                                                    00000000 000000000000000000000000000000000  0000000000000VISB           00E00091080000001001     00000000000000000000                                                                                                                                                                                                                                                                                                                                                                                                                                                                                                                                                                                                                                          * 
05F026358   01579206400000000 0000100000000 01012021                                                                                                                                                                                                                                                                             ADD            00 00020010000014001     00000000000000000000                                                                                                                                                                                                                                                                                                                                                                                                                                                                                                                                                                                                                                          * 
05F026358   01579206400000000 0000100000000 01012021                                                                                                                                                                                                                                                                             ADDSUP1        00 00021010000008001    200000000000000000000                                                                                                                                                                                                                                                                                                                                                                                                                                                                                                                                                                                                                                          * 
01F026358   7017860610000000000000100000000001012021            suarez              sandra            6006 S State Hwy 349                                                                                                    Midland                      TX79706     F06031995N0101202100000060101202100003952000A0101202100000                         00000000       0000000 000000000 00                                                                                                                                                                                                                                                                                                                                                                                                                                                                                                                                                                                                                                          * 
05F026358   70178606100000000 0000100000000 01012021                                                                                                                                                                                                                    00000000 000000000000000000000000000000000  0000000000000DEPSUPS           00012010000001003    200000000000000000000                                                                                                                                                                                                                                                                                                                                                                                                                                                                                                                                                                                                                                          * 
05F026358   70178606100000000 0000100000000 01012021                                                                                                                                                                                                                    00000000 000000000000000000000000000000000  0000000000000CRITVS            00015020000001003     00000000000000000000                                                                                                                                                                                                                                                                                                                                                                                                                                                                                                                                                                                                                                          * 
05F026358   70178606100000000 0000100000000 01012021                                                                                                                                                                                                                                                                             ADDSUPS           00022010000001003    200000000000000000000                                                                                                                                                                                                                                                                                                                                                                                                                                                                                                                                                                                                                                          * 
01F026358   0226978340000000000000100000000005012021            Morales             Amilcar          A607 Richey                              Apt 104                                                                         Pasadena                     TX77506     M09061982N0302202100000040501202100003952000A0302202100000               00        00000000       0000000 000000000 00                                                                                                                                                                                                                                                                                                                                                                                                                                                                                                                                                                                                                                          * 
05F026358   02269783400000000 0000100000000 05012021                                                                                                                                                                                                                    00000000 000000000000000000000000000000000  0000000000000LIFE           00 00010020000015002     00000000000000000000                                                                                                                                                                                                                                                                                                                                                                                                                                                                                                                                                                                                                                          * 
05F026358   02269783400000000 0000100000000 05012021                                                                                                                                                                                                                                                                             ADD            00 00020010000015002     00000000000000000000                                                                                                                                                                                                                                                                                                                                                                                                                                                                                                                                                                                                                                          * 
01F026358   0274375660000000000000100000000001012021            Santos Chavez       Matilde Adaly     3034 Applewood Way SW                                                                                                   Gainesville                  GA30504     M02071991N0101202100000020101202100003432000A0101202100000               00        00000000       0000000 000000000 00                                                                                                                                                                                                                                                                                                                                                                                                                                                                                                                                                                                                                                          * 
05F026358   02743756600000000 0000100000000 01012021                                                                                                                                                                                                                    00000000 000000000000000000000000000000000  0000000000000LIFE           00 00010020000014002     00000000000000000000                                                                                                                                                                                                                                                                                                                                                                                                                                                                                                                                                                                                                                          * 
05F026358   02743756600000000 0000100000000 01012021                                                                                                                                                                                                                                                                             ADD            00 00020010000014002     00000000000000000000                                                                                                                                                                                                                                                                                                                                                                                                                                                                                                                                                                                                                                          * 
01F026358   0319371890000000000000100000000001012021            Moran Ramos         Roberto           518 Elizabeth Ave                                                                                                       Monroe                       NC28112     M02281973N0101202100000050101202100003536000A0101202100000               00        00000000       0000000 000000000 00                                                                                                                                                                                                                                                                                                                                                                                                                                                                                                                                                                                                                                          * 
02F026358   68601473700000000000001686014737Jan  1 2            Moran-Hernandez     Rosalinda                                                                                                                                                                         CF01212003 000000000000000000000000000000000  0000000000000       0000000013        00000000       00000000000000000000                                                                                                                                                                                                                                                                                                                                                                                                                                                                                                                                                                                                                                          * 
02F026358   62862098300000000000001628620983Jan  1 2            Moran Hernandez     Yulissa                                                                                                                                                                           CF03261998 000000000000000000000000000000000  0000000000000       0000000013        00000000       00000000000000000000                                                                                                                                                                                                                                                                                                                                                                                                                                                                                                                                                                                                                                          * 
02F026358   68409057300000000000001684090573Jan  1 2            Moran-Hernandez     Juliette                                                                                                                                                                          CF09072005 000000000000000000000000000000000  0000000000000       0000000013        00000000       00000000000000000000                                                                                                                                                                                                                                                                                                                                                                                                                                                                                                                                                                                                                                          * 
05F026358   03193718900000000 0000100000000 01012021                                                                                                                                                                                                                    00000000 000000000000000000000000000000000  0000000000000LIFE           00 00010020000014002     00000000000000000000                                                                                                                                                                                                                                                                                                                                                                                                                                                                                                                                                                                                                                          * 
05F026358   03193718900000000 0000100000000 01012021                                                                                                                                                                                                                    00000000 000000000000000000000000000000000  0000000000000LIFSUP1        00 00011010000002002    200000000000000000000                                                                                                                                                                                                                                                                                                                                                                                                                                                                                                                                                                                                                                          * 
05F026358   03193718900000000 0000100000000 01012021                                                                                                                                                                                                                    00000000 000000000000000000000000000000000  0000000000000VISB           00C00091080000001002     00000000000000000000                                                                                                                                                                                                                                                                                                                                                                                                                                                                                                                                                                                                                                          * 
05F026358   03193718900000000 0000100000000 01012021                                                                                                                                                                                                                                                                             ADD            00 00020010000014002     00000000000000000000                                                                                                                                                                                                                                                                                                                                                                                                                                                                                                                                                                                                                                          * 
05F026358   03193718900000000 0000100000000 01012021                                                                                                                                                                                                                                                                             ADDSUP1        00 00021010000002002    200000000000000000000                                                                                                                                                                                                                                                                                                                                                                                                                                                                                                                                                                                                                                          * 
01F026358   0489149360000000000000100000000001012021            Velasquez Garcia    Selmer            2699 Buena Vista Cir                                                                                                    Gainesville                  GA30504     M03201998N0101202100000050101202100003640000A0101202100000               00        00000000       0000000 000000000 00                                                                                                                                                                                                                                                                                                                                                                                                                                                                                                                                                                                                                                          * 
05F026358   04891493600000000 0000100000000 01012021                                                                                                                                                                                                                    00000000 000000000000000000000000000000000  0000000000000LIFE           00 00010020000015002     00000000000000000000                                                                                                                                                                                                                                                                                                                                                                                                                                                                                                                                                                                                                                          * 
05F026358   04891493600000000 0000100000000 01012021                                                                                                                                                                                                                    00000000 000000000000000000000000000000000  0000000000000VISB           00E00091080000001002     00000000000000000000                                                                                                                                                                                                                                                                                                                                                                                                                                                                                                                                                                                                                                          * 
05F026358   04891493600000000 0000100000000 01012021                                                                                                                                                                                                                                                                             ADD            00 00020010000015002     00000000000000000000                                                                                                                                                                                                                                                                                                                                                                                                                                                                                                                                                                                                                                          * 
01F026358   0798860740000000000000100000000001012021            Fernandez           Walter            1302 N 1st St                                                                                                           Lufkin                       TX75901     M06021978N0101202100000020101202100003640000A0101202100000               00        00000000       0000000 000000000 00                                                                                                                                                                                                                                                                                                                                                                                                                                                                                                                                                                                                                                          * 
02F026358   63676284900000000000001636762849Jan  1 2            Moran               Santos                                                                                                                                                                            SF04151977 000000000000000000000000000000000  0000000000000       0000000013        00000000       00000000000000000000                                                                                                                                                                                                                                                                                                                                                                                                                                                                                                                                                                                                                                          * 
05F026358   07988607400000000 0000100000000 01012021                                                                                                                                                                                                                    00000000 000000000000000000000000000000000  0000000000000LIFE           00 00010020000014002     00000000000000000000                                                                                                                                                                                                                                                                                                                                                                                                                                                                                                                                                                                                                                          * 
05F026358   07988607400000000 0000100000000 01012021                                                                                                                                                                                                                    00000000 000000000000000000000000000000000  0000000000000VISB           00S00091080000001002     00000000000000000000                                                                                                                                                                                                                                                                                                                                                                                                                                                                                                                                                                                                                                          * 
05F026358   07988607400000000 0000100000000 01012021                                                                                                                                                                                                                                                                             ADD            00 00020010000014002     00000000000000000000                                                                                                                                                                                                                                                                                                                                                                                                                                                                                                                                                                                                                                          * 
01F026358   0847885360000000000000100000000001012021            Bonilla             Basilio           1922 Hall Ridge Trace Ln                                                                                                Houston                      TX77067     M05201972N0101202100000050101202100009715000A0401202100000               00        00000000       0000000 000000000 00                                                                                                                                                                                                                                                                                                                                                                                                                                                                                                                                                                                                                                          * 
02F026358   64590418900000000000001645904189Jan  1 2            BONILLA             ASHLEY                                                                                                                                                                            CF04262004 000000000000000000000000000000000  0000000000000       0000000013        00000000       00000000000000000000                                                                                                                                                                                                                                                                                                                                                                                                                                                                                                                                                                                                                                          * 
02F026358   17480972700000000000001174809727Jan  1 2            BONILLA             DAYSI                                                                                                                                                                             SF10081981 000000000000000000000000000000000  0000000000000       0000000013        00000000       00000000000000000000                                                                                                                                                                                                                                                                                                                                                                                                                                                                                                                                                                                                                                          * 
02F026358   64019451700000000000001640194517Jan  1 2            BONILLA             MATTHEW                                                                                                                                                                           CM03192009 000000000000000000000000000000000  0000000000000       0000000013        00000000       00000000000000000000                                                                                                                                                                                                                                                                                                                                                                                                                                                                                                                                                                                                                                          * 
02F026358   27721392600000000000001277213926Jan  1 2            BONILLA             ISAAC                                                                                                                                                                             CM04072015 000000000000000000000000000000000  0000000000000       0000000013        00000000       00000000000000000000                                                                                                                                                                                                                                                                                                                                                                                                                                                                                                                                                                                                                                          * 
05F026358   08478853600000000 0000100000000 01012021                                                                                                                                                                                                                    00000000 000000000000000000000000000000000  0000000000000LIFE           00 00010010000009001     00000000000000000000                                                                                                                                                                                                                                                                                                                                                                                                                                                                                                                                                                                                                                          * 
05F026358   08478853600000000 0000100000000 01012021                                                                                                                                                                                                                    00000000 000000000000000000000000000000000  0000000000000VISB           00F00091080000001001     00000000000000000000                                                                                                                                                                                                                                                                                                                                                                                                                                                                                                                                                                                                                                          * 
05F026358   08478853600000000 0000100000000 01012021                                                                                                                                                                                                                                                                             ADD            00 00020010000009001     00000000000000000000                                                                                                                                                                                                                                                                                                                                                                                                                                                                                                                                                                                                                                          * 
01F026358   0928018690000000000000100000000001012021            Brunkhorst          Jaime             225 SPRINGFIELD MEADOW DR                                                                                               ETOWAH                       NC28729     F02051979N0101202100000030101202100006300000A0101202100000               00        00000000       0000000 000000000 00                                                                                                                                                                                                                                                                                                                                                                                                                                                                                                                                                                                                                                          * 
05F026358   09280186900000000 0000100000000 01012021                                                                                                                                                                                                                    00000000 000000000000000000000000000000000  0000000000000LIFE           00 00010010000009001     00000000000000000000                                                                                                                                                                                                                                                                                                                                                                                                                                                                                                                                                                                                                                          * 
05F026358   09280186900000000 0000100000000 01012021                                                                                                                                                                                                                                                                             ADD            00 00020010000009001     00000000000000000000                                                                                                                                                                                                                                                                                                                                                                                                                                                                                                                                                                                                                                          * 
01F026358   0950222390000000000000100000000001012021            Garcia              Kevis             246 Shallowford Dr                                                                                                      Gainesville                  GA30504     M11121996N0101202100000020101202100003120000A0101202100000               00        00000000       0000000 000000000 00                                                                                                                                                                                                                                                                                                                                                                                                                                                                                                                                                                                                                                          * 
05F026358   09502223900000000 0000100000000 01012021                                                                                                                                                                                                                    00000000 000000000000000000000000000000000  0000000000000LIFE           00 00010020000014002     00000000000000000000                                                                                                                                                                                                                                                                                                                                                                                                                                                                                                                                                                                                                                          * 
05F026358   09502223900000000 0000100000000 01012021                                                                                                                                                                                                                                                                             ADD            00 00020010000014002     00000000000000000000                                                                                                                                                                                                                                                                                                                                                                                                                                                                                                                                                                                                                                          * 
01F026358   1058090490000000000000100000000001012021            Vanegas             Oscar             3628 Swan Ct                                                                                                            Haltom City                  TX76117     M12311976N0101202100000050101202100004368000A0101202100000               00        00000000       0000000 000000000 00                                                                                                                                                                                                                                                                                                                                                                                                                                                                                                                                                                                                                                          * 
05F026358   10580904900000000 0000100000000 01012021                                                                                                                                                                                                                    00000000 000000000000000000000000000000000  0000000000000LIFE           00 00010020000015002     00000000000000000000                                                                                                                                                                                                                                                                                                                                                                                                                                                                                                                                                                                                                                          * 
05F026358   10580904900000000 0000100000000 01012021                                                                                                                                                                                                                    00000000 000000000000000000000000000000000  0000000000000VISB           00E00091080000001002     00000000000000000000                                                                                                                                                                                                                                                                                                                                                                                                                                                                                                                                                                                                                                          * 
05F026358   10580904900000000 0000100000000 01012021                                                                                                                                                                                                                                                                             ADD            00 00020010000015002     00000000000000000000                                                                                                                                                                                                                                                                                                                                                                                                                                                                                                                                                                                                                                          * 
01F026358   1168630640000000000000100000000001012021            Galvez Bonilla      Reinaldo          34 Camp Rd                                                                                                              Massapequa                   NY11758     M09081977N0101202100000020101202100003120000A0101202100000               00        00000000       0000000 000000000 00                                                                                                                                                                                                                                                                                                                                                                                                                                                                                                                                                                                                                                          * 
05F026358   11686306400000000 0000100000000 01012021                                                                                                                                                                                                                    00000000 000000000000000000000000000000000  0000000000000LIFE           00 00010020000014002     00000000000000000000                                                                                                                                                                                                                                                                                                                                                                                                                                                                                                                                                                                                                                          * 
05F026358   11686306400000000 0000100000000 01012021                                                                                                                                                                                                                                                                             ADD            00 00020010000014002     00000000000000000000                                                                                                                                                                                                                                                                                                                                                                                                                                                                                                                                                                                                                                          * 
01F026358   1338231620000000000000100000000001012021            Bonilla             Roman             106 Bougainville Ct                                                                                                     Lufkin                       TX75901     M04101978N0101202100000050101202100004368000A0101202100000               00        00000000       0000000 000000000 00                                                                                                                                                                                                                                                                                                                                                                                                                                                                                                                                                                                                                                          * 
05F026358   13382316200000000 0000100000000 01012021                                                                                                                                                                                                                    00000000 000000000000000000000000000000000  0000000000000LIFE           00 00010020000014002     00000000000000000000                                                                                                                                                                                                                                                                                                                                                                                                                                                                                                                                                                                                                                          * 
05F026358   13382316200000000 0000100000000 01012021                                                                                                                                                                                                                    00000000 000000000000000000000000000000000  0000000000000LIFSUP1        00 00011010000000002    200000000000000000000                                                                                                                                                                                                                                                                                                                                                                                                                                                                                                                                                                                                                                          * 
05F026358   13382316200000000 0000100000000 01012021                                                                                                                                                                                                                    00000000 000000000000000000000000000000000  0000000000000VISB           00E00091080000001002     00000000000000000000                                                                                                                                                                                                                                                                                                                                                                                                                                                                                                                                                                                                                                          * 
05F026358   13382316200000000 0000100000000 01012021                                                                                                                                                                                                                                                                             ADD            00 00020010000014002     00000000000000000000                                                                                                                                                                                                                                                                                                                                                                                                                                                                                                                                                                                                                                          * 
05F026358   13382316200000000 0000100000000 01012021                                                                                                                                                                                                                                                                             ADDSUP1        00 00021010000000002    200000000000000000000                                                                                                                                                                                                                                                                                                                                                                                                                                                                                                                                                                                                                                          * 
01F026358   1498819480000000000000100000000001012021            Tineo               Christian        J93 Westgate Dr. APT A                                                                                                   Wheeling                     WV26003     M04231990N0101202100000020101202100009000000A0101202100000               00        00000000       0000000 000000000 00                                                                                                                                                                                                                                                                                                                                                                                                                                                                                                                                                                                                                                          * 
05F026358   14988194800000000 0000100000000 01012021                                                                                                                                                                                                                    00000000 000000000000000000000000000000000  0000000000000LIFE           00 00010010000014001     00000000000000000000                                                                                                                                                                                                                                                                                                                                                                                                                                                                                                                                                                                                                                          * 
05F026358   14988194800000000 0000100000000 01012021                                                                                                                                                                                                                    00000000 000000000000000000000000000000000  0000000000000VISB           00E00091080000001001     00000000000000000000                                                                                                                                                                                                                                                                                                                                                                                                                                                                                                                                                                                                                                          * 
05F026358   14988194800000000 0000100000000 01012021                                                                                                                                                                                                                                                                             ADD            00 00020010000014001     00000000000000000000                                                                                                                                                                                                                                                                                                                                                                                                                                                                                                                                                                                                                                          * 
01F026358   1597040700000000000000100000000001012021            Abendroth           Edward           S325 Rockylane Dr                                                                                                        Midland                      TX79703     M09251973N0101202100000070101202100005408000A0101202100000               00        00000000       0000000 000000000 00                                                                                                                                                                                                                                                                                                                                                                                                                                                                                                                                                                                                                                          * 
02F026358   45189783300000000000001451897833Jan  1 2            Abendroth           Linda                                                                                                                                                                             SF06261983 000000000000000000000000000000000  0000000000000       0000000013        00000000       00000000000000000000                                                                                                                                                                                                                                                                                                                                                                                                                                                                                                                                                                                                                                          * 
02F026358   63380789700000000000001633807897Jan  1 2            Abendroth           Evelyn                                                                                                                                                                            CF01222002 000000000000000000000000000000000  0000000000000       0000000013        00000000       00000000000000000000                                                                                                                                                                                                                                                                                                                                                                                                                                                                                                                                                                                                                                          * 
02F026358   17882747800000000000001178827478Jan  1 2            Abendroth           Alexa                                                                                                                                                                             CF08052004 000000000000000000000000000000000  0000000000000       0000000013        00000000       00000000000000000000                                                                                                                                                                                                                                                                                                                                                                                                                                                                                                                                                                                                                                          * 
02F026358   63306310500000000000001633063105Jan  1 2            Abendroth           Jordan                                                                                                                                                                            CM11072006 000000000000000000000000000000000  0000000000000       0000000013        00000000       00000000000000000000                                                                                                                                                                                                                                                                                                                                                                                                                                                                                                                                                                                                                                          * 
05F026358   15970407000000000 0000100000000 01012021                                                                                                                                                                                                                    00000000 000000000000000000000000000000000  0000000000000ACCIV          00F00082010000001002     00000000000000000000                                                                                                                                                                                                                                                                                                                                                                                                                                                                                                                                                                                                                                          * 
05F026358   15970407000000000 0000100000000 01012021                                                                                                                                                                                                                    00000000 000000000000000000000000000000000  0000000000000LIFE           00 00010020000014002     00000000000000000000                                                                                                                                                                                                                                                                                                                                                                                                                                                                                                                                                                                                                                          * 
05F026358   15970407000000000 0000100000000 01012021                                                                                                                                                                                                                    00000000 000000000000000000000000000000000  0000000000000LIFSUP1        00 00011010000014002    200000000000000000000                                                                                                                                                                                                                                                                                                                                                                                                                                                                                                                                                                                                                                          * 
05F026358   15970407000000000 0000100000000 01012021                                                                                                                                                                                                                    00000000 000000000000000000000000000000000  0000000000000DEPSUPC        00 00013010000014002     00000000000000000000                                                                                                                                                                                                                                                                                                                                                                                                                                                                                                                                                                                                                                          * 
05F026358   15970407000000000 0000100000000 01012021                                                                                                                                                                                                                    00000000 000000000000000000000000000000000  0000000000000CRITVE         00 00015010000014002     00000000000000000000                                                                                                                                                                                                                                                                                                                                                                                                                                                                                                                                                                                                                                          * 
05F026358   15970407000000000 0000100000000 01012021                                                                                                                                                                                                                    00000000 000000000000000000000000000000000  0000000000000CRITVC         00 00015030000014002     00000000000000000000                                                                                                                                                                                                                                                                                                                                                                                                                                                                                                                                                                                                                                          * 
05F026358   15970407000000000 0000100000000 01012021                                                                                                                                                                                                                    00000000 000000000000000000000000000000000  0000000000000VISB           00F00091080000001002     00000000000000000000                                                                                                                                                                                                                                                                                                                                                                                                                                                                                                                                                                                                                                          * 
05F026358   15970407000000000 0000100000000 01012021                                                                                                                                                                                                                                                                             ADD            00 00020010000014002     00000000000000000000                                                                                                                                                                                                                                                                                                                                                                                                                                                                                                                                                                                                                                          * 
05F026358   15970407000000000 0000100000000 01012021                                                                                                                                                                                                                                                                             ADDSUP1        00 00021010000014002    200000000000000000000                                                                                                                                                                                                                                                                                                                                                                                                                                                                                                                                                                                                                                          * 
05F026358   15970407000000000 0000100000000 01012021                                                                                                                                                                                                                                                                             ADDSUPC        00 00023010000014002     00000000000000000000                                                                                                                                                                                                                                                                                                                                                                                                                                                                                                                                                                                                                                          * 
01F026358   4518978330000000000000100000000001012021            Abendroth           Linda             325 Rockylane Dr                                                                                                        Midland                      TX79703     F06261983 0101202100000070101202100005408000A0101202100000                         00000000       0000000 000000000 00                                                                                                                                                                                                                                                                                                                                                                                                                                                                                                                                                                                                                                          * 
05F026358   45189783300000000 0000100000000 01012021                                                                                                                                                                                                                    00000000 000000000000000000000000000000000  0000000000000DEPSUPS           00012010000002003    200000000000000000000                                                                                                                                                                                                                                                                                                                                                                                                                                                                                                                                                                                                                                          * 
05F026358   45189783300000000 0000100000000 01012021                                                                                                                                                                                                                    00000000 000000000000000000000000000000000  0000000000000CRITVS            00015020000002003     00000000000000000000                                                                                                                                                                                                                                                                                                                                                                                                                                                                                                                                                                                                                                          * 
05F026358   45189783300000000 0000100000000 01012021                                                                                                                                                                                                                                                                             ADDSUPS           00022010000002003    200000000000000000000                                                                                                                                                                                                                                                                                                                                                                                                                                                                                                                                                                                                                                          * 
01F026358   1597453350000000000000100000000001012021            Billig              Abram             51 estate dr                                                                                                            Morgantown                   WV26508     M03151992N0101202100000020101202100003702400A0101202100000               32        00000000       0000000 000000000 00                                                                                                                                                                                                                                                                                                                                                                                                                                                                                                                                                                                                                                          * 
05F026358   15974533500000000 0000100000000 01012021                                                                                                                                                                                                                    00000000 000000000000000000000000000000000  0000000000000LIFE   0429202132 00010010000015001     00000000000000000000                                                                                                                                                                                                                                                                                                                                                                                                                                                                                                                                                                                                                                          * 
05F026358   15974533500000000 0000100000000 01012021                                                                                                                                                                                                                    00000000 000000000000000000000000000000000  0000000000000VISB   0429202132E00091080000001001     00000000000000000000                                                                                                                                                                                                                                                                                                                                                                                                                                                                                                                                                                                                                                          * 
05F026358   15974533500000000 0000100000000 01012021                                                                                                                                                                                                                                                                             ADD    0429202132 00020010000015001     00000000000000000000                                                                                                                                                                                                                                                                                                                                                                                                                                                                                                                                                                                                                                          * 
01F026358   1625460720000000000000100000000001012021            Gardner             William           310 North 3rd Street                                                                                                    Denison                      OH44621     M06281963N0101202100000020101202100003744000A0101202100000               00        00000000       0000000 000000000 00                                                                                                                                                                                                                                                                                                                                                                                                                                                                                                                                                                                                                                          * 
05F026358   16254607200000000 0000100000000 01012021                                                                                                                                                                                                                    00000000 000000000000000000000000000000000  0000000000000LIFE           00 00010020000014002     00000000000000000000                                                                                                                                                                                                                                                                                                                                                                                                                                                                                                                                                                                                                                          * 
05F026358   16254607200000000 0000100000000 01012021                                                                                                                                                                                                                    00000000 000000000000000000000000000000000  0000000000000VISB           00E00091080000001002     00000000000000000000                                                                                                                                                                                                                                                                                                                                                                                                                                                                                                                                                                                                                                          * 
05F026358   16254607200000000 0000100000000 01012021                                                                                                                                                                                                                                                                             ADD            00 00020010000014002     00000000000000000000                                                                                                                                                                                                                                                                                                                                                                                                                                                                                                                                                                                                                                          * 
01F026358   1696291530000000000000100000000001012021            Kammaneephan        Seethorn          1604 Travelers Rest CT                                                                                                  La Vergne                    TN37086     M06011960N0101202100000020101202100004160000A0101202100000               00        00000000       0000000 000000000 00                                                                                                                                                                                                                                                                                                                                                                                                                                                                                                                                                                                                                                          * 
05F026358   16962915300000000 0000100000000 01012021                                                                                                                                                                                                                    00000000 000000000000000000000000000000000  0000000000000ACCIV          00E00082010000001002     00000000000000000000                                                                                                                                                                                                                                                                                                                                                                                                                                                                                                                                                                                                                                          * 
