SCSC                                                                                                                                                                                                
SCSC      206642597OFR0000002                                        2                                     04/15/2021000000000020000L                                                               
SCSC      348669562OFR0000002                                        2                                     04/15/2021000000000050000L                                                               
SCSC      247356049OFR0000002                                        2                                     04/15/2021000000000002000L                                                               
SCSC      412557317OFR0000002                                        2                                     04/15/2021000000000004000L                                                               
SCSC      248835653OFR0000002                                        2                                     04/15/2021000000000010000L                                                               
SCSC      003604649OFR0000002                                        2                                     04/15/2021000000000030000L                                                               
SCSC      196560039OFR0000002                                        2                                     04/15/2021000000000004000L                                                               
SCSC      390866956OFR0000002                                        2                                     04/15/2021000000000006000L                                                               
SCSC      189643995OFR0000002                                        2                                     04/15/2021000000000004000L                                                               
SCSC      272841467OFR0000002                                        2                                     04/15/2021000000000050000L                                                               
SCSC      625090328OFR0000002                                        2                                     04/15/2021000000000050000L                                                               
SCSC      202520969OFR0000002                                        2                                     04/15/2021000000000015000L                                                               
SCSC      205706556OFR0000002                                        2                                     04/15/2021000000000002000L                                                               
SCSC      189543075OFR0000002                                        2                                     04/15/2021000000000006000L                                                               
SCSC      202624655OFR0000002                                        2                                     04/15/2021000000000004000L                                                               
SCSC      543479957OFR0000002                                        2                                     04/15/2021000000000020000L                                                               
SCSC      199607666OFR0000002                                        2                                     04/15/2021000000000020000L                                                               
SCSC      250806029OFR0000002                                        2                                     04/15/2021000000000005000L                                                               
SCSC      248270522OFR0000002                                        2                                     04/15/2021000000000004000L                                                               
SCSC      250679003OFR0000002                                        2                                     04/15/2021000000000020000L                                                               
SCSC      510944387OFR0000002                                        2                                     04/15/2021000000000005000L                                                               
SCSC      515905833OFR0000002                                        2                                     04/15/2021000000000005000L                                                               
SCSC      511907431OFR0000002                                        2                                     04/15/2021000000000025000L                                                               
SCSC      179684697OFR0000002                                        2                                     04/15/2021000000000050000L                                                               
SCSC      083665743OFR0000002                                        2                                     04/15/2021000000000002000L                                                               
SCSC      493801363OFR0000002                                        2                                     04/15/2021000000000008000L                                                               
SCSC      509887748OFR0000002                                        2                                     04/15/2021000000000030000L                                                               
SCSC      251699899OFR0000002                                        2                                     04/15/2021000000000004000L                                                               
SCSC      510218737OFR0000002                                        2                                     04/15/2021000000000010000L                                                               
SCSC      249639404OFR0000002                                        2                                     04/15/2021000000000005000L                                                               
SCSC      251834831OFR0000002                                        2                                     04/15/2021000000000005000L                                                               
SCSC      249853347OFR0000002                                        2                                     04/15/2021000000000050000L                                                               
SCSC      251832057OFR0000002                                        2                                     04/15/2021000000000010000L                                                               
SCSC      250982153OFR0000002                                        2                                     04/15/2021000000000010000L                                                               
SCSC      107588177OFR0000002                                        2                                     04/15/2021000000000008000L                                                               
SCSC      248532884OFR0000002                                        2                                     04/15/2021000000000004000L                                                               
SCSC      250755991OFR0000002                                        2                                     04/15/2021000000000004000L                                                               
SCSC      493928084OFR0000002                                        2                                     04/15/2021000000000017000L                                                               
SCSC      415089250OFR0000002                                        2                                     04/15/2021000000000008000L                                                               
SCSC      412374654OFR0000002                                        2                                     04/15/2021000000000004000L                                                               
SCSC      411067061OFR0000002                                        2                                     04/15/2021000000000002000L                                                               
SCSC      330549355OFR0000002                                        2                                     04/15/2021000000000002000L                                                               
SCSC      415255861OFR0000002                                        2                                     04/15/2021000000000005000L                                                               
SCSC      411411736OFR0000002                                        2                                     04/15/2021000000000008000L                                                               
SCSC      412371334OFR0000002                                        2                                     04/15/2021000000000010000L                                                               
SCSC      239537680OFR0000002                                        2                                     04/15/2021000000000002000L                                                               
SCSC      414573777OFR0000002                                        2                                     04/15/2021000000000002000L                                                               
SCSC      415170270OFR0000002                                        2                                     04/15/2021000000000005000L                                                               
SCSC      533116861OFR0000002                                        2                                     04/15/2021000000000005000L                                                               
SCSC      410276576OFR0000002                                        2                                     04/15/2021000000000007000L                                                               
SCSC      415493867OFR0000002                                        2                                     04/15/2021000000000003000L                                                               
SCSC      425797387OFR0000002                                        2                                     04/15/2021000000000004000L                                                               
SCSC      345804798OFR0000002                                        2                                     04/15/2021000000000004000L                                                               
SCSC      290604792OFR0000002                                        2                                     04/15/2021000000000010000L                                                               
SCSC      409553358OFR0000002                                        2                                     04/15/2021000000000002000L                                                               
SCSC      144803640OFR0000002                                        2                                     04/15/2021000000000005000L                                                               
SCSC      530316428OFR0000002                                        2                                     04/15/2021000000000010000L                                                               
SCSC      242291244OFR0000002                                        2                                     04/15/2021000000000025000L                                                               
SCSC      412510975OFR0000002                                        2                                     04/15/2021000000000005000L                                                               
SCSC      548319109OFR0000002                                        2                                     04/15/2021000000000010000L                                                               
SCSC      410354874OFR0000002                                        2                                     04/15/2021000000000002000L                                                               
SCSC      163409805OFR0000002                                        2                                     04/15/2021000000000050000L                                                               
SCSC      204384456OFR0000002                                        2                                     04/15/2021000000000050000L                                                               
SCSC      072404575OFR0000002                                        2                                     04/15/2021000000000002000L                                                               
SCSC      144766947OFR0000002                                        2                                     04/15/2021000000000010000L                                                               
SCSC      180523736OFR0000002                                        2                                     04/15/2021000000000008000L                                                               
SCSC      256909784OFR0000002                                        2                                     04/15/2021000000000004000L                                                               
SCSC      155883034OFR0000002                                        2                                     04/15/2021000000000010000L                                                               
SCSC      350620677OFR0000002                                        2                                     04/15/2021000000000005000L                                                               
SCSC      550457104OFR0000002                                        2                                     04/15/2021000000000004000L                                                               
SCSC      601059096OFR0000002                                        2                                     04/15/2021000000000010000L                                                               
SCSC      248639667OFR0000002                                        2                                     04/15/2021000000000002000L                                                               
SCSC      248257194OFR0000002                                        2                                     04/15/2021000000000002000L                                                               
SCSC      248673527OFR0000002                                        2                                     04/15/2021000000000002000L                                                               
SCSC      146545377OFR0000002                                        2                                     04/15/2021000000000030000L                                                               
SCSC      251136005OFR0000002                                        2                                     04/15/2021000000000010000L                                                               
SCSC      224332549OFR0000002                                        2                                     04/15/2021000000000002000L                                                               
SCSC      600371109OFR0000002                                        2                                     04/15/2021000000000050000L                                                               
SCSC      251413480OFR0000002                                        2                                     04/15/2021000000000002000L                                                               
SCSC      250833494OFR0000002                                        2                                     04/15/2021000000000015000L                                                               
SCSC      249692205OFR0000002                                        2                                     04/15/2021000000000010000L                                                               
SCSC      256777854OFR0000002                                        2                                     04/15/2021000000000005000L                                                               
SCSC      033702532OFR0000002                                        2                                     04/15/2021000000000010000L                                                               
SCSC      248770762OFR0000002                                        2                                     04/15/2021000000000003000L                                                               
SCSC      154580550OFR0000002                                        2                                     04/15/2021000000000011000L                                                               
SCSC      554950595OFR0000002                                        2                                     04/15/2021000000000015000L                                                               
SCSC      248751382OFR0000002                                        2                                     04/15/2021000000000020000L                                                               
SCSC      456837785OFR0000002                                        2                                     04/15/2021000000000008000L                                                               
SCSC      247912401OFR0000002                                        2                                     04/15/2021000000000025000L                                                               
SCSC      247473193OFR0000002                                        2                                     04/15/2021000000000004000L                                                               
SCSC      155923417OFR0000002                                        2                                     04/15/2021000000000010000L                                                               
SCSC      611568203OFR0000002                                        2                                     04/15/2021000000000003000L                                                               
SCSC      134526102OFR0000002                                        2                                     04/15/2021000000000005000L                                                               
SCSC      251858857OFR0000002                                        2                                     04/15/2021000000000010000L                                                               
SCSC      250935512OFR0000002                                        2                                     04/15/2021000000000003000L                                                               
SCSC      568723989OFR0000002                                        2                                     04/15/2021000000000050000L                                                               
SCSC      561610510OFR0000002                                        2                                     04/15/2021000000000040000L                                                               
SCSC      559554117OFR0000002                                        2                                     04/15/2021000000000020000L                                                               
SCSC      525352832OFR0000002                                        2                                     04/15/2021000000000020000L                                                               
SCSC      550493287OFR0000002                                        2                                     04/15/2021000000000010000L                                                               
SCSC      251084817OFR0000002                                        2                                     04/15/2021000000000010000L                                                               
SCSC      610142405OFR0000002                                        2                                     04/15/2021000000000020000L                                                               
SCSC      040687211OFR0000002                                        2                                     04/15/2021000000000020000L                                                               
SCSC      219155810OFR0000002                                        2                                     04/15/2021000000000020000L                                                               
SCSC      464852322OFR0000002                                        2                                     04/15/2021000000000006000L                                                               
SCSC      354765439OFR0000002                                        2                                     04/15/2021000000000050000L                                                               
SCSC      606485354OFR0000002                                        2                                     04/15/2021000000000050000L                                                               
SCSC      263916608OFR0000002                                        2                                     04/15/2021000000000010000L                                                               
SCSC      621460098OFR0000002                                        2                                     04/15/2021000000000002000L                                                               
SCSC      518681856OFR0000002                                        2                                     04/15/2021000000000050000L                                                               
SCSC      391666780OFR0000002                                        2                                     04/15/2021000000000022000L                                                               
SCSC      522154885OFR0000002                                        2                                     04/15/2021000000000010000L                                                               
SCSC      552413185OFR0000002                                        2                                     04/15/2021000000000008000L                                                               
SCSC      043929362OFR0000002                                        2                                     04/15/2021000000000002000L                                                               
SCSC      445725889OFR0000002                                        2                                     04/15/2021000000000002000L                                                               
SCSC      573172952OFR0000002                                        2                                     04/15/2021000000000004000L                                                               
SCSC      551397829OFR0000002                                        2                                     04/15/2021000000000010000L                                                               
SCSC      003864026OFR0000002                                        2                                     04/15/2021000000000003000L                                                               
SCSC      620542722OFR0000002                                        2                                     04/15/2021000000000020000L                                                               
SCSC      621704419OFR0000002                                        2                                     04/15/2021000000000005000L                                                               
SCSC      247255756OFR0000002                                        2                                     04/15/2021000000000008000L                                                               
SCSC      328524115OFR0000002                                        2                                     04/15/2021000000000010000L                                                               
SCSC      250735088OFR0000002                                        2                                     04/15/2021000000000010000L                                                               
SCSC      309769331OFR0000002                                        2                                     04/15/2021000000000004000L                                                               
SCSC      484727401OFR0000002                                        2                                     04/15/2021000000000048000L                                                               
SCSC      248312535OFR0000002                                        2                                     04/15/2021000000000003000L                                                               
SCSC      249376700OFR0000002                                        2                                     04/15/2021000000000020000L                                                               
SCSC      248215128OFR0000002                                        2                                     04/15/2021000000000040000L                                                               
SCSC      076549818OFR0000002                                        2                                     04/15/2021000000000050000L                                                               
SCSC      247214725OFR0000002                                        2                                     04/15/2021000000000015000L                                                               
SCSC      247530081OFR0000002                                        2                                     04/15/2021000000000050000L                                                               
SCSC      248358203OFR0000002                                        2                                     04/15/2021000000000010000L                                                               
SCSC      248594816OFR0000002                                        2                                     04/15/2021000000000005000L                                                               
SCSC      516044791OFR0000002                                        2                                     04/15/2021000000000010000L                                                               
SCSC      235338312OFR0000002                                        2                                     04/15/2021000000000030000L                                                               
SCSC      258452487OFR0000002                                        2                                     04/15/2021000000000010000L                                                               
SCSC      250556836OFR0000002                                        2                                     04/15/2021000000000004000L                                                               
SCSC      249433525OFR0000002                                        2                                     04/15/2021000000000002000L                                                               
SCSC      251630445OFR0000002                                        2                                     04/15/2021000000000002000L                                                               
SCSC      501807485OFR0000002                                        2                                     04/15/2021000000000005000L                                                               
SCSC      251212689OFR0000002                                        2                                     04/15/2021000000000008000L                                                               
SCSC      253654728OFR0000002                                        2                                     04/15/2021000000000050000L                                                               
SCSC      251210314OFR0000002                                        2                                     04/15/2021000000000008000L                                                               
SCSC      528439281OFR0000002                                        2                                     04/15/2021000000000005000L                                                               
SCSC      414299238OFR0000002                                        2                                     04/15/2021000000000010000L                                                               
SCSC      249023929OFR0000002                                        2                                     04/15/2021000000000005000L                                                               
SCSC      595120268OFR0000002                                        2                                     04/15/2021000000000010000L                                                               
SCSC      505849190OFR0000002                                        2                                     04/15/2021000000000005000L                                                               
SCSC      534666889OFR0000002                                        2                                     04/15/2021000000000012000L                                                               
SCSC      260375016OFR0000002                                        2                                     04/15/2021000000000050000L                                                               
SCSC      248085341OFR0000002                                        2                                     04/15/2021000000000002000L                                                               
SCSC      282689269OFR0000002                                        2                                     04/15/2021000000000020000L                                                               
SCSC      451776148OFR0000002                                        2                                     04/15/2021000000000050000L                                                               
SCSC      042643733OFR0000002                                        2                                     04/15/2021000000000040000L                                                               
SCSC      409297988OFR0000002                                        2                                     04/15/2021000000000004000L                                                               
SCSC      218664720OFR0000002                                        2                                     04/15/2021000000000006000L                                                               
SCSC      247599983OFR0000002                                        2                                     04/15/2021000000000010000L                                                               
SCSC      122687205OFR0000002                                        2                                     04/15/2021000000000005000L                                                               
SCSC      254395865OFR0000002                                        2                                     04/15/2021000000000008000L                                                               
SCSC      247599483OFR0000002                                        2                                     04/15/2021000000000020000L                                                               
SCSC      250852826OFR0000002                                        2                                     04/15/2021000000000007000L                                                               
SCSC      249556509OFR0000002                                        2                                     04/15/2021000000000010000L                                                               
SCSC      315824283OFR0000002                                        2                                     04/15/2021000000000004000L                                                               
SCSC      468021439OFR0000002                                        2                                     04/15/2021000000000010000L                                                               
SCSC      120548996OFR0000002                                        2                                     04/15/2021000000000010000L                                                               
SCSC      255450466OFR0000002                                        2                                     04/15/2021000000000006000L                                                               
SCSC      249699302OFR0000002                                        2                                     04/15/2021000000000008000L                                                               
SCSC      251659439OFR0000002                                        2                                     04/15/2021000000000020000L                                                               
SCSC      601508580OFR0000002                                        2                                     04/15/2021000000000050000L                                                               
SCSC      250771914OFR0000002                                        2                                     04/15/2021000000000010000L                                                               
SCSC      478749767OFR0000002                                        2                                     04/15/2021000000000050000L                                                               
SCSC      241834924OFR0000002                                        2                                     04/15/2021000000000010000L                                                               
SCSC      250698636OFR0000002                                        2                                     04/15/2021000000000015000L                                                               
SCSC      594343557OFR0000002                                        2                                     04/15/2021000000000050000L                                                               
SCSC      136725699OFR0000002                                        2                                     04/15/2021000000000008000L                                                               
SCSC      240132178OFR0000002                                        2                                     04/15/2021000000000002000L                                                               
SCSC      249614800OFR0000002                                        2                                     04/15/2021000000000020000L                                                               
SCSC      251676952OFR0000002                                        2                                     04/15/2021000000000050000L                                                               
SCSC      247699662OFR0000002                                        2                                     04/15/2021000000000006000L                                                               
SCSC      255599860OFR0000002                                        2                                     04/15/2021000000000003000L                                                               
SCSC      249654502OFR0000002                                        2                                     04/15/2021000000000010000L                                                               
SCSC      248679980OFR0000002                                        2                                     04/15/2021000000000016000L                                                               
SCSC      390849051OFR0000002                                        2                                     04/15/2021000000000020000L                                                               
SCSC      249675086OFR0000002                                        2                                     04/15/2021000000000010000L                                                               
SCSC      047826509OFR0000002                                        2                                     04/15/2021000000000030000L                                                               
SCSC      615014111OFR0000002                                        2                                     04/15/2021000000000050000L                                                               
SCSC      247811240OFR0000002                                        2                                     04/15/2021000000000007000L                                                               
SCSC      363901251OFR0000002                                        2                                     04/15/2021000000000050000L                                                               
SCSC      371115876OFR0000002                                        2                                     04/15/2021000000000008000L                                                               
SCSC      251712320OFR0000002                                        2                                     04/15/2021000000000050000L                                                               
SCSC      298666531OFR0000002                                        2                                     04/15/2021000000000060000L                                                               
SCSC      255815010OFR0000002                                        2                                     04/15/2021000000000016000L                                                               
SCSC      250597876OFR0000002                                        2                                     04/15/2021000000000020000L                                                               
SCSC      253570966OFR0000002                                        2                                     04/15/2021000000000040000L                                                               
SCSC      248497819OFR0000002                                        2                                     04/15/2021000000000002000L                                                               
SCSC      147881419OFR0000002                                        2                                     04/15/2021000000000050000L                                                               
SCSC      427433576OFR0000002                                        2                                     04/15/2021000000000005000L                                                               
SCSC      250597862OFR0000002                                        2                                     04/15/2021000000000003000L                                                               
SCSC      248776682OFR0000002                                        2                                     04/15/2021000000000002000L                                                               
SCSC      249639048OFR0000002                                        2                                     04/15/2021000000000002000L                                                               
SCSC      470152661OFR0000002                                        2                                     04/15/2021000000000030000L                                                               
SCSC      416962809OFR0000002                                        2                                     04/15/2021000000000008000L                                                               
SCSC      255658069OFR0000002                                        2                                     04/15/2021000000000006000L                                                               
SCSC      644017688OFR0000002                                        2                                     04/15/2021000000000010000L                                                               
SCSC      248611851OFR0000002                                        2                                     04/15/2021000000000002000L                                                               
SCSC      258179058OFR0000002                                        2                                     04/15/2021000000000010000L                                                               
SCSC      239692588OFR0000002                                        2                                     04/15/2021000000000002000L                                                               
SCSC      230530614OFR0000002                                        2                                     04/15/2021000000000005000L                                                               
SCSC      250775314OFR0000002                                        2                                     04/15/2021000000000020000L                                                               
SCSC      216392362OFR0000002                                        2                                     04/15/2021000000000010000L                                                               
SCSC      135527036OFR0000002                                        2                                     04/15/2021000000000010000L                                                               
SCSC      241233456OFR0000002                                        2                                     04/15/2021000000000002000L                                                               
SCSC      619585914OFR0000002                                        2                                     04/15/2021000000000050000L                                                               
SCSC      251894248OFR0000002                                        2                                     04/15/2021000000000003000L                                                               
SCSC      249699933OFR0000002                                        2                                     04/15/2021000000000020000L                                                               
SCSC      247352057OFR0000002                                        2                                     04/15/2021000000000015000L                                                               
SCSC      376980004OFR0000002                                        2                                     04/15/2021000000000003000L                                                               
SCSC      366088897OFR0000002                                        2                                     04/15/2021000000000020000L                                                               
SCSC      251791771OFR0000002                                        2                                     04/15/2021000000000005000L                                                               
SCSC      527083680OFR0000002                                        2                                     04/15/2021000000000010000L                                                               
SCSC      249679134OFR0000002                                        2                                     04/15/2021000000000004000L                                                               
SCSC      305960390OFR0000002                                        2                                     04/15/2021000000000003000L                                                               
SCSC      247977956OFR0000002                                        2                                     04/15/2021000000000005000L                                                               
SCSC      248112284OFR0000002                                        2                                     04/15/2021000000000004000L                                                               
SCSC      247674690OFR0000002                                        2                                     04/15/2021000000000009000L                                                               
SCSC      251710901OFR0000002                                        2                                     04/15/2021000000000040000L                                                               
SCSC      614014467OFR0000002                                        2                                     04/15/2021000000000006000L                                                               
SCSC      250952710OFR0000002                                        2                                     04/15/2021000000000005000L                                                               
SCSC      249977355OFR0000002                                        2                                     04/15/2021000000000004000L                                                               
SCSC      249834009OFR0000002                                        2                                     04/15/2021000000000006000L                                                               
SCSC      052566556OFR0000002                                        2                                     04/15/2021000000000002000L                                                               
SCSC      249916743OFR0000002                                        2                                     04/15/2021000000000005000L                                                               
SCSC      294844672OFR0000002                                        2                                     04/15/2021000000000010000L                                                               
SCSC      379982444OFR0000002                                        2                                     04/15/2021000000000002000L                                                               
SCSC      224217585OFR0000002                                        2                                     04/15/2021000000000004000L                                                               
SCSC      377724643OFR0000002                                        2                                     04/15/2021000000000050000L                                                               
SCSC      215371607OFR0000002                                        2                                     04/15/2021000000000002000L                                                               
SCSC      247977287OFR0000002                                        2                                     04/15/2021000000000010000L                                                               
SCSC      099822615OFR0000002                                        2                                     04/15/2021000000000003000L                                                               
SCSC      603303145OFR0000002                                        2                                     04/15/2021000000000002000L                                                               
SCSC      228275749OFR0000002                                        2                                     04/15/2021000000000005000L                                                               
SCSC      397040675OFR0000002                                        2                                     04/15/2021000000000005000L                                                               
SCSC      425594149OFR0000002                                        2                                     04/15/2021000000000005000L                                                               
SCSC      045666624OFR0000002                                        2                                     04/15/2021000000000002000L                                                               
SCSC      401867329OFR0000002                                        2                                     04/15/2021000000000020000L                                                               
SCSC      400089056OFR0000002                                        2                                     04/15/2021000000000020000L                                                               
SCSC      524681341OFR0000002                                        2                                     04/15/2021000000000020000L                                                               
SCSC      226310127OFR0000002                                        2                                     04/15/2021000000000020000L                                                               
SCSC      547291507OFR0000002                                        2                                     04/15/2021000000000020000L                                                               
SCSC      556510261OFR0000002                                        2                                     04/15/2021000000000004000L                                                               
SCSC      556772712OFR0000002                                        2                                     04/15/2021000000000002000L                                                               
SCSC      570817758OFR0000002                                        2                                     04/15/2021000000000002000L                                                               
SCSC      622803138OFR0000002                                        2                                     04/15/2021000000000010000L                                                               
SCSC      403925693OFR0000002                                        2                                     04/15/2021000000000008000L                                                               
SCSC      556610919OFR0000002                                        2                                     04/15/2021000000000030000L                                                               
SCSC      623549553OFR0000002                                        2                                     04/15/2021000000000006000L                                                               
SCSC      438474817OFR0000002                                        2                                     04/15/2021000000000004000L                                                               
SCSC      507900412OFR0000002                                        2                                     04/15/2021000000000003000L                                                               
SCSC      622365435OFR0000002                                        2                                     04/15/2021000000000004000L                                                               
SCSC      453539115OFR0000002                                        2                                     04/15/2021000000000025000L                                                               
SCSC      247973928OFR0000002                                        2                                     04/15/2021000000000005000L                                                               
SCSC      488164401OFR0000002                                        2                                     04/15/2021000000000005000L                                                               
SCSC      722709144OFR0000002                                        2                                     04/15/2021000000000015000L                                                               
SCSC      251751700OFR0000002                                        2                                     04/15/2021000000000008000L                                                               
SCSC      625406280OFR0000002                                        2                                     04/15/2021000000000002000L                                                               
SCSC      647579929OFR0000002                                        2                                     04/15/2021000000000050000L                                                               
SCSC      533156691OFR0000002                                        2                                     04/15/2021000000000005000L                                                               
SCSC      662025949OFR0000002                                        2                                     04/15/2021000000000050000L                                                               
SCSC      644056285OFR0000002                                        2                                     04/15/2021000000000050000L                                                               
SCSC      461952430OFR0000002                                        2                                     04/15/2021000000000002000L                                                               
SCSC      251029005OFR0000002                                        2                                     04/15/2021000000000020000L                                                               
SCSC      251930328OFR0000002                                        2                                     04/15/2021000000000005000L                                                               
SCSC      465856830OFR0000002                                        2                                     04/15/2021000000000050000L                                                               
SCSC      288803415OFR0000002                                        2                                     04/15/2021000000000008000L                                                               
SCSC      007488499OFR0000002                                        2                                     04/15/2021000000000008000L                                                               
SCSC      653324269OFR0000002                                        2                                     04/15/2021000000000050000L                                                               
SCSC      613488910OFR0000002                                        2                                     04/15/2021000000000004000L                                                               
SCSC      044724507OFR0000002                                        2                                     04/15/2021000000000050000L                                                               
SCSC      511599417OFR0000002                                        2                                     04/15/2021000000000020000L                                                               
SCSC      245858865OFR0000002                                        2                                     04/15/2021000000000005000L                                                               
SCSC      250975654OFR0000002                                        2                                     04/15/2021000000000002000L                                                               
SCSC      544761448OFR0000002                                        2                                     04/15/2021000000000050000L                                                               
SCSC      154666213OFR0000002                                        2                                     04/15/2021000000000010000L                                                               
SCSC      685784563OFR0000002                                        2                                     04/15/2021000000000010000L                                                               
SCSC      431591331OFR0000002                                        2                                     04/15/2021000000000003000L                                                               
SCSC      615706816OFR0000002                                        2                                     04/15/2021000000000004000L                                                               
SCSC      593965503OFR0000002                                        2                                     04/15/2021000000000004000L                                                               
SCSC      642056074OFR0000002                                        2                                     04/15/2021000000000050000L                                                               
SCSC      611602214OFR0000002                                        2                                     04/15/2021000000000025000L                                                               
SCSC      486800591OFR0000002                                        2                                     04/15/2021000000000005000L                                                               
SCSC      609985132OFR0000002                                        2                                     04/15/2021000000000002000L                                                               
SCSC      341749130OFR0000002                                        2                                     04/15/2021000000000005000L                                                               
SCSC      415430278OFR0000002                                        2                                     04/15/2021000000000050000L                                                               
SCSC      343921994OFR0000002                                        2                                     04/15/2021000000000004000L                                                               
SCSC      242570330OFR0000002                                        2                                     04/15/2021000000000005000L                                                               
SCSC      553318365OFR0000002                                        2                                     04/15/2021000000000010000L                                                               
SCSC      251673130OFR0000002                                        2                                     04/15/2021000000000030000L                                                               
SCSC      413438945OFR0000002                                        2                                     04/15/2021000000000002000L                                                               
SCSC      247230879OFR0000002                                        2                                     04/15/2021000000000008000L                                                               
SCSC      043988063OFR0000002                                        2                                     04/15/2021000000000002000L                                                               
                                                                                                                                                                                                    
