20200210G000BGY2M002621388 Michaud                            Donald                    M19651104                                                                                                                                                                                                                   2019121120191211                                                                    20191211001                                                                       20191211A0000000000031200                                                                                                            20191211A003                                                                                                                                                                                                                                                                                                                                                                                                                                                                                                                                                                                                                                                                                                                                                                                                                                                                                                                                                                                                                                                                                                                                                                                                                                                                                                         
20200210G000BGY2M003522226 Marden                             James                     M19610826                                                                                                                                                                                                                   2011071120190901                                                                    20190901001                                                                       20110711A0000000000028600                                                                                                            20190901A003                                                                                                                                                                                              120190101ENLTL0NCFLATC                                 A20110711ENATA0NCFLATC                                 S20110711ENSTS00NCSALC                                                                                                                                                                                                                                                                                                                                                                                                                                                                                                                                                                                                                                                                                                                                                                                                                                                                                                                                                 h20190101TM6AS000VACCC
20200210G000BGY2M046767362 Bloom                              Joshua                    M19810110                                                                                                                                                                                                                   2018050120190901                                                                    20190901001                                                                       20180501A0000000000028600                                                                                                            20190901A003                                                                                                                                                                                              120200101ENLTL0NCFLATC                                 A20180501ENATA0NCFLATC                                 S20180501ENSTS00NCSALC                                                                                                                                                                                                                                                                                                                                                                                                                                                                                                                                                                                                                                                                                                                                                                                                                                                                                                                                                                       
20200210G000BGY2M051645869 Gittelman                          Adam                      M19640127                                                                                                                                                                                                                   2016062820190901                                                                    20190901001                                                                       20160628A0000000000031043                                                                                                            20190901A003                                                                                                                                                                                              120190101ENLTL0NCFLATC                                 A20160628ENATA0NCFLATC                                 S20160628ENSTS00NCSALC                                                                                        320190101ENETL0CEEVALC    201901010000125000                                                                                                                                                                                                                                                                                                                                                                                                                                                                                                                                                                                                                                                                                                                                                                                                                                   
20200210G000BGY2M061880047 Webb                               Michael                   M19740301                                                                                                                                                                                                                   2016012120190901                                                                    20190901001                                                                       20160121A0000000000069351                                                                                                            20190901A002                                                                                                                                                                                              120200101ENLTL0NCFLATC                                 A20160201ENATA0NCFLATC                                 S20160201ENSTS00NCSALC                                 T20160201ENTTT00NCSALC                                 320200101ENETL0CEEVALC    202001010000150000                                                                                                                         C20200101ENBTA0CEEVALC    202001010000500000                                                                                                                                                                                                                                                                                                                                                                                                                                                                                                                                                                                                                                                              
20200210G000BGY2M064549756 Dillon                             Bruce                     M19590301                                                                                                                                                                                                                   2019041620190901                                                                    20190901001                                                                       20190416A0000000000110000                                                                                                            20190901A003                                                                                                                                                                                                                                                                                                                                                                                                                                                                                                                                                                                                                                                                                                                                                                                                                                                                                                                                                                                                                                                                                                                                                                                                                                                                                                         
20200210G000BGY2M065682285 Swanson                            Angel                     F19770222                                                                                                                                                                                                                   2016082320190901                                                                    20190901001                                                                       20160823A0000000000028600                                                                                                            20190901A003                                                                                                                                                                                              120200101ENLTL0NCFLATC                                 A20160901ENATA0NCFLATC                                 S20160901ENSTS00NCSALC                                                                                        320200101ENETL0CEEVALC    202001010000150000                                                                  520200101ENETL0CDPVALC    202001010000010000           C20200101ENBTA0CEEVALC    202001010000010000                                                                  d20200101ENBTA0CDPVALC    202001010000010000                                                                                                                                                                                                                                                                                                                                                                                                                                                                                                                                                
20200210G000BGY2S065682285 fogle                              matthew                   M20060909                                                                                                                                                                                                                   2016082320190901                                                                    20190901001                                                                       20160823A0000000000028600                                                                                                            20190901A003                                                                                                                                                                                                                                                                                                                                                                                                                                                                                                                                        520200101ENETL0CDPVALC    202001010000000000                                                                                                                         d20200101ENBTA0CDPVALC    202001010000000000                                                                                                                                                                                                                                                                                                                                                                                                                                                                                                                                                
20200210G000BGY2S065682285 FOGLE                              RAYMOND                   M20031026                                                                                                                                                                                                                   2016082320190901                                                                    20190901001                                                                       20160823A0000000000028600                                                                                                            20190901A003                                                                                                                                                                                                                                                                                                                                                                                                                                                                                                                                        520200101ENETL0CDPVALC    202001010000000000                                                                                                                         d20200101ENBTA0CDPVALC    202001010000000000                                                                                                                                                                                                                                                                                                                                                                                                                                                                                                                                                
20200210G000BGY2D069721679 Kunaschk                           Olivia                    F20021227                                                                                                                                                                                                                   2004101920190901                                                                    20190901001                                                                       20041019A0000000000088803                                                                                                            20190901A003                                                                                                                                                                                                                                                                                                                                                                                                                                                                                                                                                                                                                                                                                                             d20190101ENBTA0CDPVALC    201901010000000000                                                                                                                                                                                                                                                                                                                                                                                                                                                                                                                                                
20200210G000BGY2M069721679 Kunaschk                           Dusti                     F19750120                                                                                                                                                                                                                   2004101920190901                                                                    20190901001                                                                       20041019A0000000000088803                                                                                                            20190901A002                                                                                                                                                                                              120190101ENLTL0NCFLATC                                 A20041101ENATA0NCFLATC                                 S20041101ENSTS00NCSALC                                 T20041101ENTTT00NCSALC                                 320200101ENETL0CEEVALC    202001010000010000                                                                  520200101ENETL0CDPVALC    202001010000002000           C20190101ENBTA0CEEVALC    201901010000150000                                                                  d20190101ENBTA0CDPVALC    201901010000010000                                                                                                                                                                                                                                                                                                                                                                                                                                                                                                                          h20190101TM6AS000VACCD
20200210G000BGY2S069721679 Abrahamson                         Joshua                    M19980108                                                                                                                                                                                                                   2004101920190901                                                                    20190901001                                                                       20041019A0000000000088803                                                                                                            20190901A003                                                                                                                                                                                                                                                                                                                                                                                                                                                                                                                                                                                                                                                                                                             d20190101ENBTA0CDPVALC    201901010000000000                                                                                                                                                                                                                                                                                                                                                                                                                                                                                                                                                
20200210G000BGY2M070728467 O'Brien                            Michael                   M19730311                                                                                                                                                                                                                   2019071620190901                                                                    20190901001                                                                       20190716A0000000000031200                                                                                                            20190901A003                                                                                                                                                                                              120190801ENLTL0NCFLATC                                 A20190801ENATA0NCFLATC                                 S20190801ENSTS00NCSALC                                                                                                                                                                                                                                                                                                                                                                                                                                                                                                                                                                                                                                                                                                                                                                                                                                                                                                                                                                       
20200210G000BGY2M071763588 Kim                                Andrew                    M19571225                                                                                                                                                                                                                   2019101620191016                                                                    20191016001                                                                       20191016A0000000000032240                                                                                                            20191016A003                                                                                                                                                                                              120191101ENLTL0NCFLATC                                 A20191101ENATA0NCFLATC                                 S20191101ENSTS00NCSALC                                                                                                                                                                                                                                                                                                                                                                                                                                                                                                                                                                                                                                                                                                                                                                                                                                                                                                                                                                       
20200210G000BGY2M076378279 Tran                               Phuoc                     M19981222                                                                                                                                                                                                                   2019071720190901                                                                    20190901001                                                                       20190717A0000000000031200                                                                                                            20190901A003                                                                                                                                                                                              120200101ENLTL0NCFLATC                                 A20190801ENATA0NCFLATC                                 S20190801ENSTS00NCSALC                                                                                                                                                                                                                                                                                                                                                                                                                                                                                                                                                                                                                                                                                                                                                                                                                                                                                                                                                                       
20200210G000BGY2M077214210 Mella                              Celerina                  F19530924                                                                                                                                                                                                                   2012020720190901                                                                    20190901001                                                                       20120207A0000000000032760                                                                                                            20190901A003                                                                                                                                                                                              120200101ENLTL0NCFLATC                                 A20120301ENATA0NCFLATC                                 S20120301ENSTS00NCSALC                                                                                        320200101ENETL0CEEVALC    202001010000020000                                                                                                                         C20200101ENBTA0CEEVALC    202001010000020000                                                                                                                                                                                                                                                                                                                                                                                                                                                                                                                                                                                                                                        h20190101TM6AS000VACCC
20200210G000BGY2M093829466 Phillips                           Ivan                      M19931120                                                                                                                                                                                                                   2018090420190901                                                                    20190901001                                                                       20180904A0000000000037856                                                                                                            20190901A003                                                                                                                                                                                              120200101ENLTL0NCFLATC                                 A20181001ENATA0NCFLATC                                 S20181001ENSTS00NCSALC                                                                                                                                                                                                                                                                                                                                                                                                                                                                                                                                                                                                                                                                                                                                                                                                                                                                                                                                                                       
20200210G000BGY2M096524987 Hendry                             Donne                     F19590511                                                                                                                                                                                                                   2020010320200103                                                                    20200103001                                                                       20200103A0000000000033280                                                                                                            20200103A003                                                                                                                                                                                              120200201ENLTL0NCFLATC                                 A20200201ENATA0NCFLATC                                 S20200201ENSTS00NCSALC                                                                                                                                                                                                                                                                                                                                                                                                                                                                                                                                                                                                                                                                                                                                                                                                                                                                                                                                                                       
20200210G000BGY2M117967919 Zhang                              Na                        F19630111                                                                                                                                                                                                                   2015041320190901                                                                    20190901001                                                                       20150413A0000000000029120                                                                                                            20190901A003                                                                                                                                                                                              120190101ENLTL0NCFLATC                                 A20150413ENATA0NCFLATC                                 S20150413ENSTS00NCSALC                                                                                                                                                                                                                                                                                                                                                                                                                                                                                                                                                                                                                                                                                                                                                                                                                                                                                                                                                                       
20200210G000BGY2M128112499 Villejo                            Loly                      F19610314                                                                                                                                                                                                                   2017061320190901                                                                    20190901001                                                                       20170613A0000000000032448                                                                                                            20190901A003                                                                                                                                                                                              120190101ENLTL0NCFLATC                                 A20170613ENATA0NCFLATC                                 S20170613ENSTS00NCSALC                                                                                                                                                                                                                                                                                                                                                                                                                                                                                                                                                                                                                                                                                                                                                                                                                                                                                                                                                                       
20200210G000BGY2M129111586 Ponio                              Racquel                   F19860630                                                                                                                                                                                                                   2017040520190901                                                                    20190901001                                                                       20170405A0000000000031200                                                                                                            20190901A003                                                                                                                                                                                                                                                                                                                                                                                                                                                                                                                                                                                                                                                                                                                                                                                                                                                                                                                                                                                                                                                                                                                                                                                                                                                                                                         
20200210G000BGY2M130621652 Dawkins                            Neville                   M19750413                                                                                                                                                                                                                   2018031920190901                                                                    20190901001                                                                       20180319A0000000000042598                                                                                                            20190901A003                                                                                                                                                                                              120200101ENLTL0NCFLATC                                 A20180401ENATA0NCFLATC                                 S20180401ENSTS00NCSALC                                                                                        320200101ENETL0CEEVALC    202001010000120000                                                                                                                         C20200101ENBTA0CEEVALC    202001010000120000                                                                                                                                                                                                                                                                                                                                                                                                                                                                                                                                                                                                                                                              
20200210G000BGY2H136943170 SWOGGER                            GALEN                     M19670315                                                                                                                                                                                                                   2008120120190901                                                                    20190901001                                                                       20081201A0000000000037170                                                                                                            20190901A003                                                                                                                                                                                                                                                                                                                                                                                                                                                                                                                                                                                                                                                      e20200101ENBTA0CSPVALC    202001010000000000                                                                                                                                                                                                                                                                                                                                                                                                                                                                                                                                                                                                       
20200210G000BGY2M136943170 Swogger                            Regina                    F19660105                                                                                                                                                                                                                   2008120120190901                                                                    20190901001                                                                       20081201A0000000000037170                                                                                                            20190901A003                                                                                                                                                                                              120200101ENLTL0NCFLATC                                 A20090101ENATA0NCFLATC                                 S20090101ENSTS00NCSALC                                                                                        320200101ENETL0CEEVALC    202001010000150000           420200101ENETL0CSPVALC    202001010000025000                                                                  C20200101ENBTA0CEEVALC    202001010000100000           e20200101ENBTA0CSPVALC    202001010000050000                                                                                                                                                                                                                                                                                                                                                                                                                                                                                                                                                                                 h20190101TM6AS000VACCA
20200210G000BGY2M137767383 Peete                              Robyn                     F19800228                                                                                                                                                                                                                   2008092920190901                                                                    20190901001                                                                       20080929A0000000000038480                                                                                                            20190901A003                                                                                                                                                                                              120200101ENLTL0NCFLATC                                 A20081001ENATA0NCFLATC                                 S20081001ENSTS00NCSALC                                                                                        320200101ENETL0CEEVALC    202001010000050000                                                                                                                         C20200101ENBTA0CEEVALC    202001010000010000                                                                                                                                                                                                                                                                                                                                                                                                                                                                                                                                                                                                                                        h20190101TM6AS000VACCC
20200210G000BGY2M143805246 Tell                               Michael                   M19700601                                                                                                                                                                                                                   2018050920190901                                                                    20190901001                                                                       20180509A0000000000028600                                                                                                            20190901A003                                                                                                                                                                                              120190101ENLTL0NCFLATC                                 A20180601ENATA0NCFLATC                                 S20180601ENSTS00NCSALC                                                                                                                                                                                                                                                                                                                                                                                                                                                                                                                                                                                                                                                                                                                                                                                                                                                                                                                                                                       
20200210G000BGY2M148504593 DeAngelis                          Patrick                   M19560929                                                                                                                                                                                                                   2017090520190901                                                                    20190901001                                                                       20170905A0000000000061360                                                                                                            20190901A003                                                                                                                                                                                              120190101ENLTL0NCFLATC                                 A20170905ENATA0NCFLATC                                 S20170905ENSTS00NCSALC                                                                                                                                                                                                                                                                                                                                                                                                                                                                                                                                                                                                                                                                                                                                                                                                                                                                                                                                                                       
20200210G000BGY2M164984906 Nguyen                             Thom                      F19671206                                                                                                                                                                                                                   2019112720191127                                                                    20191127001                                                                       20191127A0000000000031200                                                                                                            20191127A003                                                                                                                                                                                              120191201ENLTL0NCFLATC                                 A20191201ENATA0NCFLATC                                 S20191201ENSTS00NCSALC                                                                                                                                                                                                                                                                                                                                                                                                                                                                                                                                                                                                                                                                                                                                                                                                                                                                                                                                                                       
20200210G000BGY2M168627538 Beck                               Patricia                  F19650929                                                                                                                                                                                                                   2016110120190901                                                                    20190901001                                                                       20161101A0000000000028080                                                                                                            20190901A003                                                                                                                                                                                              120200101ENLTL0NCFLATC                                 A20161101ENATA0NCFLATC                                 S20161101ENSTS00NCSALC                                                                                        320200101ENETL0CEEVALC    202001010000050000                                                                                                                         C20200101ENBTA0CEEVALC    202001010000100000                                                                                                                                                                                                                                                                                                                                                                                                                                                                                                                                                                                                                                                              
20200210G000BGY2M168643496 Gardner                            Sheena                    F19820314                                                                                                                                                                                                                   2018011620190901                                                                    20190901001                                                                       20180116A0000000000028080                                                                                                            20190901A003                                                                                                                                                                                              120190101ENLTL0NCFLATC                                 A20180116ENATA0NCFLATC                                 S20180116ENSTS00NCSALC                                                                                                                                                                                                                                                                                                                                                                                                                                                                                                                                                                                                                                                                                                                                                                                                                                                                                                                                                                       
20200210G000BGY2M168850245 Boleaga-Rodriguez                  Maria                     F19970207                                                                                                                                                                                                                   2018071020190901                                                                    20190901001                                                                       20180710A0000000000059580                                                                                                            20190901A003                                                                                                                                                                                              120200101ENLTL0NCFLATC                                 A20180801ENATA0NCFLATC                                 S20180801ENSTS00NCSALC                                                                                                                                                                                                                                                                                                                                                                                                                                                                                                                                                                                                                                                                                                                                                                                                                                                                                                                                                                       
20200210G000BGY2M178681358 Stephenson                         Natalie                   F19810918                                                                                                                                                                                                                   2005042820190901                                                                    20190901001                                                                       20050428A0000000000088181                                                                                                            20190901A002                                                                                                                                                                                              120200101ENLTL0NCFLATC                                 A20050501ENATA0NCFLATC                                 S20050501ENSTS00NCSALC                                 T20050501ENTTT00NCSALC                                 320200101ENETL0CEEVALC    202001010000100000                                                                                                                         C20200101ENBTA0CEEVALC    202001010000200000                                                                                                                                                                                                                                                                                                                                                                                                                                                                                                                                                                                                                                        h20190101TM6AS000VACCC
20200210G000BGY2M178767054 Skeete                             Sharon                    F19750415                                                                                                                                                                                                                   2016032920190901                                                                    20190901001                                                                       20160329A0000000000061360                                                                                                            20190901A003                                                                                                                                                                                              120190101ENLTL0NCFLATC                                 A20160329ENATA0NCFLATC                                 S20160329ENSTS00NCSALC                                                                                        320190101ENETL0CEEVALC    201901010000150000                                                                                                                         C20190101ENBTA0CEEVALC    201901010000150000                                                                                                                                                                                                                                                                                                                                                                                                                                                                                                                                                                                                                                                              
20200210G000BGY2M179950060 Baluyut                            May                       F19710512                                                                                                                                                                                                                   2017100320190901                                                                    20190901001                                                                       20171003A0000000000031200                                                                                                            20190901A003                                                                                                                                                                                              120190101ENLTL0NCFLATC                                 A20171003ENATA0NCFLATC                                 S20171003ENSTS00NCSALC                                                                                                                                                                                                                                                                                                                                                                                                                                                                                                                                                                                                                                                                                                                                                                                                                                                                                                                                                                       
20200210G000BGY2M194422026 Bridgewater                        Linda                     F19510303                                                                                                                                                                                                                   2016030420190901                                                                    20190901001                                                                       20160304A0000000000030066                                                                                                            20190901A003                                                                                                                                                                                              120190101ENLTL0NCFLATC                                 A20160401ENATA0NCFLATC                                 S20160401ENSTS00NCSALC                                                                                        320190101ENETL0CEEVALC    201901010000030000                                                                                                                                                                                                                                                                                                                                                                                                                                                                                                                                                                                                                                                                                                                                                                                                                                   
20200210G000BGY2M211276518 Laibwij                            Mimi                      F19870518                                                                                                                                                                                                                   2018092120190901                                                                    20190901001                                                                       20180921A0000000000032448                                                                                                            20190901A003                                                                                                                                                                                              120190101ENLTL0NCFLATC                                 A20181001ENATA0NCFLATC                                 S20181001ENSTS00NCSALC                                                                                        320190101ENETL0CEEVALC    201901010000010000                                                                                                                         C20190101ENBTA0CEEVALC    201901010000010000                                                                                                                                                                                                                                                                                                                                                                                                                                                                                                                                                                                                                                                              
20200210G000BGY2M216233479 Teo                                Sheena                    F19610617                                                                                                                                                                                                                   2019100220191002                                                                    20191002001                                                                       20191002A0000000000028080                                                                                                            20191002A003                                                                                                                                                                                              120200201ENLTL0NCFLATC                                 A20200201ENATA0NCFLATC                                 S20200202ENSTS00NCSALC                                                                                                                                                                                                                                                                                                                                                                                                                                                                                                                                                                                                                                                                                                                                                                                                                                                                                                                                                                       
20200210G000BGY2M228943993 Heist                              Gregory                   M19570624                                                                                                                                                                                                                   2014121520190901                                                                    20190901001                                                                       20141215A0000000000037856                                                                                                            20190901A003                                                                                                                                                                                              120190101ENLTL0NCFLATC                                 A20150101ENATA0NCFLATC                                 S20150101ENSTS00NCSALC                                                                                        320190101ENETL0CEEVALC    201901010000010000                                                                                                                         C20190101ENBTA0CEEVALC    201901010000010000                                                                                                                                                                                                                                                                                                                                                                                                                                                                                                                                                                                                                                                              
20200210G000BGY2M239716869 Coulman                            Alison                    F19910515                                                                                                                                                                                                                   2015090120190901                                                                    20190901001                                                                       20180103A0000000000058844                                                                                                            20190901A003                                                                                                                                                                                              120190101ENLTL0NCFLATC                                 A20180901ENATA0NCFLATC                                 S20180901ENSTS00NCSALC                                                                                        320190101ENETL0CEEVALC    201901010000030000                                                                                                                                                                                                                                                                                                                                                                                                                                                                                                                                                                                                                                                                                                                                                                                                                                   
20200210G000BGY2M242690499 Wilson                             Ryan                      M19901126                                                                                                                                                                                                                   2019071620190901                                                                    20190901001                                                                       20190716A0000000000034320                                                                                                            20190901A003                                                                                                                                                                                              120190801ENLTL0NCFLATC                                 A20190801ENATA0NCFLATC                                 S20190801ENSTS00NCSALC                                                                                                                                                                                                                                                                                                                                                                                                                                                                                                                                                                                                                                                                                                                                                                                                                                                                                                                                                                       
20200210G000BGY2M250557749 Paul                               Margaret  Angela          F19770922                                                                                                                                                                                                                   2005032520191211                                                                    20191211001                                                                       20191211A0000000000028080                                                                                                            20191211A003                                                                                                                                                                                              120200101ENLTL0NCFLATC                                 A20200101ENATA0NCFLATC                                 S20200101ENSTS00NCSALC                                                                                                                                                                                                                                                                                                                                                                                                                                                                                                                                                                                                                                                                                                                                                                                                                                                                                                                                                                       
20200210G000BGY2M255873830 Bates                              Dennis                    M19930530                                                                                                                                                                                                                   2019092520190925                                                                    20190925001                                                                       20190925A0000000000038480                                                                                                            20190925A003                                                                                                                                                                                              120191001ENLTL0NCFLATC                                 A20191001ENATA0NCFLATC                                 S20191001ENSTS00NCSALC                                                                                                                                                                                                                                                                                                                                                                                                                                                                                                                                                                                                                                                                                                                                                                                                                                                                                                                                                                       
20200210G000BGY2H260693895 Wenz                               Jeremy                    M19880601                                                                                                                                                                                                                   2019052120190901                                                                    20190901001                                                                       20190521A0000000000040560                                                                                                            20190901A003                                                                                                                                                                                                                                                                                                                                                                                                                                                                                                                                                                                                                                                      e20200101ENBTA0CSPVALC    202001010000200000                                                                                                                                                                                                                                                                                                                                                                                                                                                                                                                                                                                                       
20200210G000BGY2M260693895 Wenz                               Krystalyn                 F19890512                                                                                                                                                                                                                   2019052120190901                                                                    20190901001                                                                       20190521A0000000000040560                                                                                                            20190901A003                                                                                                                                                                                              120200101ENLTL0NCFLATC                                 A20190601ENATA0NCFLATC                                 S20190601ENSTS00NCSALC                                                                                        320200101ENETL0CEEVALC    202001010000100000           420200101ENETL0CSPVALC    202001010000025000                                                                  C20200101ENBTA0CEEVALC    202001010000100000           e20200101ENBTA0CSPVALC    202001010000025000                                                                                                                                                                                                                                                                                                                                                                                                                                                                                                                                                                                                       
20200210G000BGY2M264535199 Lund                               Denise                    F19601208                                                                                                                                                                                                                   2012102220190901                                                                    20190901001                                                                       20121022A0000000000028600                                                                                                            20190901A003                                                                                                                                                                                              120190101ENLTL0NCFLATC                                 A20121101ENATA0NCFLATC                                 S20121101ENSTS00NCSALC                                                                                        320200101ENETL0CEEVALC    202001010000010000                                                                                                                         C20190101ENBTA0CEEVALC    201901010000100000                                                                                                                                                                                                                                                                                                                                                                                                                                                                                                                                                                                                                                                              
20200210G000BGY2M268684822 Buchanan                           Ricky                     M19580624                                                                                                                                                                                                                   2018010920190901                                                                    20190901001                                                                       20180109A0000000000034840                                                                                                            20190901A003                                                                                                                                                                                              120190101ENLTL0NCFLATC                                 A20180109ENATA0NCFLATC                                 S20180109ENSTS00NCSALC                                                                                        320190101ENETL0CEEVALC    201901010000020000                                                                                                                         C20190101ENBTA0CEEVALC    201901010000050000                                                                                                                                                                                                                                                                                                                                                                                                                                                                                                                                                                                                                                                              
20200210G000BGY2M269515628 Mucuepere                          Valdo                     M19961116                                                                                                                                                                                                                   2015031820190901                                                                    20190901001                                                                       20150318A0000000000035971                                                                                                            20190901A003                                                                                                                                                                                              120190101ENLTL0NCFLATC                                 A20150318ENATA0NCFLATC                                 S20150318ENSTS00NCSALC                                                                                        320190101ENETL0CEEVALC    201901010000010000                                                                                                                         C20190101ENBTA0CEEVALC    201901010000010000                                                                                                                                                                                                                                                                                                                                                                                                                                                                                                                                                                                                                                                              
20200210G000BGY2M274042344 Kendall                            Alexis                    F19990108                                                                                                                                                                                                                   2017102320190901                                                                    20190901001                                                                       20171023A0000000000048339                                                                                                            20190901A003                                                                                                                                                                                              120200101ENLTL0NCFLATC                                 A20171101ENATA0NCFLATC                                 S20171101ENSTS00NCSALC                                                                                                                                                                                                                                                                                                                                                                                                                                                                                                                                                                                                                                                                                                                                                                                                                                                                                                                                                                       
20200210G000BGY2M287900005 Grohoske                           Jason                     M19870914                                                                                                                                                                                                                   2019072320190901                                                                    20190901001                                                                       20190723A0000000000055000                                                                                                            20190901A003                                                                                                                                                                                              120200101ENLTL0NCFLATC                                 A20190801ENATA0NCFLATC                                 S20190801ENSTS00NCSALC                                                                                                                                                                                                                                                                                                                                                                                                                                                                                                                                                                                                                                                                                                                                                                                                                                                                                                                                                                       
20200210G000BGY2M290822773 Russell                            Dustin                    M19811022                                                                                                                                                                                                                   2019032620190901                                                                    20190901001                                                                       20190326A0000000000060000                                                                                                            20190901A003                                                                                                                                                                                              120190401ENLTL0NCFLATC                                 A20190401ENATA0NCFLATC                                 S20190401ENSTS00NCSALC                                                                                        320190401ENETL0CEEVALC    201904010000100000                                                                                                                         C20190401ENBTA0CEEVALC    201904010000150000                                                                                                                                                                                                                                                                                                                                                                                                                                                                                                                                                                                                                                                              
20200210G000BGY2D293912913 Orden                              Yvonne Mayclare           F20040703                                                                                                                                                                                                                   2017091220190901                                                                    20190901001                                                                       20170912A0000000000053414                                                                                                            20190901A003                                                                                                                                                                                                                                                                                                                                                                                                                                                                                                                                        520190101ENETL0CDPVALC    201901010000000000                                                                                                                         d20190101ENBTA0CDPVALC    201901010000000000                                                                                                                                                                                                                                                                                                                                                                                                                                                                                                                                                
20200210G000BGY2M293912913 Orden                              Ernesto                   M19740508                                                                                                                                                                                                                   2017091220190901                                                                    20190901001                                                                       20170912A0000000000053414                                                                                                            20190901A003                                                                                                                                                                                              120190101ENLTL0NCFLATC                                 A20171001ENATA0NCFLATC                                 S20171001ENSTS00NCSALC                                                                                        320190101ENETL0CEEVALC    201901010000100000                                                                  520190101ENETL0CDPVALC    201901010000004000           C20190101ENBTA0CEEVALC    201901010000200000                                                                  d20190101ENBTA0CDPVALC    201901010000010000                                                                                                                                                                                                                                                                                                                                                                                                                                                                                                                                                
20200210G000BGY2M294866596 Lago                               Ryan                      M19820413                                                                                                                                                                                                                   2019022620190901                                                                    20190901001                                                                       20190226A0000000000056650                                                                                                            20190901A003                                                                                                                                                                                              120190301ENLTL0NCFLATC                                 A20190301ENATA0NCFLATC                                 S20190301ENSTS00NCSALC                                                                                                                                                                                                                                                                                                                                                                                                                                                                                                                                                                                                                                                                                                                                                                                                                                                                                                                                                                       
