20201106G000BRNCM149047607 Peer                               Anthony                   M19980903           2381 Oxmoor Dr.                                                                                                         Deland             FL32724                                                      2018031220201001                                                                    202010010001                                                                      20201001A0000000007000000                                                                                                            20201001A001                                                                                                                                       D20201001ENDTP0000300C                                                                                                                                                                                                                                                                                                                                                                                                                                                                                                                                                                                                                                                                                                                                                                                                                                                                                                                                                                                                        V20201001ENVTV0NCVIS1C                                                                                                                                                                                                                                          
20201106G000BRNCM589572072 Jones                              Daniel                    M19951001           4003 S. Westshore Blvd                  Apt 2504                                                                        Tampa              FL33611                                                      2018060420201001                                                                    202010010001                                                                      20201001A0000000007500000                                                                                                            20201001A001                                                                                                                                       D20201001ENDTP0000300C                                                                                                                                                                                                                                                                                                                                                                                                                                                                                                                                                                                                                                                                                                                                                                                                                                                                                                                                                                                                        V20201001ENVTV0NCVIS1C                                                                                                                                                                                                                                          
20201106G000BRNCM223757760 Callahan                           Abigail                   F19950819           1349 81st Avenue North                                                                                                  Saint Petersburg   FL33702                                                      2018070920201001                                                                    202010010001                                                                      20201001A0000000005650000                                                                                                            20201001A001                                                                                                                                       D20201001ENDTP0000300C                                                                                                                                                                                                                                                                                                                                                                                                                                                                                                                                                                                                                                                                                                                                                                                                                                                                                                                                                                                                        V20201001ENVTV0NCVIS1C                                                                                                                                                                                                                                          
20201106G000BRNCM590336727 Mortti                             Taylor                    F19930518           812 W Woodlawn Avenue                                                                                                   Tampa              FL33603                                                      2015102620201001                                                                    202010010001                                                                      20201001A0000000016000000                                                                                                            20201001A001                                                                                                                                       D20201001ENDTP0000300C                                                                                                                                                                                                                                                                                                                                                                                                                                                                                                                                                                                                                                                                                                                                                                                                                                                                                                                                                                                                        V20201001ENVTV0NCVIS1C                                                                                                                                                                                                                                          
20201106G000BRNCM461738577 Thompson                           Brandon                   M19850619           1517 Armiger Lane                                                                                                       Knoxville          TN37932                                                      2016103120201001                                                                    202010010001                                                                      20201001A0000000018400000                                                                                                            20201001A001                                                                                                                                       D20201001ENDTP0000300A                                                                                                                                                                                                                                                                                                                                                                                                                                                                                                                                                                                                                                                                                                                                                                                                                                                                                                                                                                                                        V20201001ENVTV0NCVIS1A                                                                                                                                                                                                                                          
20201106G000BRNC 461738577 Thompson                           Atticus                   M20150311           1517 Armiger Lane                                                                                                       Knoxville          TN37932                                                      2016103120201001                                                                    202010010001                                                                      20201001A0000000018400000                                                                                                            20201001A001                                                                                                                                       D20201001ENDTP0000300A                                                                                                                                                                                                                                                                                                                                                                                                                                                                                                                                                                                                                                                                                                                                                                                                                                                                                                                                                                                                        V20201001ENVTV0NCVIS1A                                                                                                                                                                                                                                          
20201106G000BRNC 461738577 Thompson                           Malcolm                   M20101113           1517 Armiger Lane                                                                                                       Knoxville          TN37932                                                      2016103120201001                                                                    202010010001                                                                      20201001A0000000018400000                                                                                                            20201001A001                                                                                                                                       D20201001ENDTP0000300A                                                                                                                                                                                                                                                                                                                                                                                                                                                                                                                                                                                                                                                                                                                                                                                                                                                                                                                                                                                                        V20201001ENVTV0NCVIS1A                                                                                                                                                                                                                                          
20201106G000BRNCD461738577 Thompson                           Katherine                 F20200827           1517 Armiger Lane                                                                                                       Knoxville          TN37932                                                      2016103120201001                                                                    202010010001                                                                      20201001A0000000018400000                                                                                                            20201001A001                                                                                                                                       D20201001ENDTP0000300A                                                                                                                                                                                                                                                                                                                                                                                                                                                                                                                                                                                                                                                                                                                                                                                                                                                                                                                                                                                                        V20201001ENVTV0NCVIS1A                                                                                                                                                                                                                                          
20201106G000BRNCW461738577 Thompson                           Jessica                   F19860504           1517 Armiger Lane                                                                                                       Knoxville          TN37932                                                      2016103120201001                                                                    202010010001                                                                      20201001A0000000018400000                                                                                                            20201001A001                                                                                                                                       D20201001ENDTP0000300A                                                                                                                                                                                                                                                                                                                                                                                                                                                                                                                                                                                                                                                                                                                                                                                                                                                                                                                                                                                                        V20201001ENVTV0NCVIS1A                                                                                                                                                                                                                                          
20201106G000BRNCM638285564 Thomas                             Arthur                    M19890216           2703 Pecan Creek Ln                                                                                                     Manvel             TX77578                                                      2017010920201001                                                                    202010010001                                                                      20201001A0000000010750000                                                                                                            20201001A001                                                                                                                                       D20201001ENDTP0000300C                                                                                                                                                                                                                                                                                                                                                                                                                                                                                                                                                                                                                                                                                                                                                                                                                                                                                                                                                                                                        V20201001ENVTV0NCVIS1C                                                                                                                                                                                                                                          
20201106G000BRNCM392024692 Cunningham                         Kimberlyann               F19790818           2521 East Van Norman Ave                                                                                                Saint Francis      WI53235                                                      2017072420201001                                                                    202010010001                                                                      20201001A0000000009600000                                                                                                            20201001A001                                                                                                                                       D20201001ENDTP0000300C                                                                                                                                                                                                                                                                                                                                                                                                                                                                                                                                                                                                                                                                                                                                                                                                                                                                                                                                                                                                        V20201001ENVTV0NCVIS1C                                                                                                                                                                                                                                          
20201106G000BRNCM590459443 Welsh                              Alexandria                F19940825           388 NW 42nd street                                                                                                      boca raton         FL33431                                                      2016050920201001                                                                    202010010001                                                                      20201001A0000000009250000                                                                                                            20201001A001                                                                                                                                       D20201001ENDTP0000300C                                                                                                                                                                                                                                                                                                                                                                                                                                                                                                                                                                                                                                                                                                                                                                                                                                                                                                                                                                                                        V20201001ENVTV0NCVIS1C                                                                                                                                                                                                                                          
20201106G000BRNCM605424427 Kelly                              Kendra                    F19871209           7401 Aripeka Drive                                                                                                      Tampa              FL33619                                                      2017062620201001                                                                    202010010001                                                                      20201001A0000000010000000                                                                                                            20201001A001                                                                                                                                       D20201001ENDTP0000300C                                                                                                                                                                                                                                                                                                                                                                                                                                                                                                                                                                                                                                                                                                                                                                                                                                                                                                                                                                                                        V20201001ENVTV0NCVIS1C                                                                                                                                                                                                                                          
20201106G000BRNCM315535746 Sharma                             Shipra                    F19900107           6556 Tuxedo Park Road                                                                                                   Timnath            CO80547                                                      2017072420201001                                                                    202010010001                                                                      20201001A0000000009200000                                                                                                            20201001A002                                                                                                                                       D20201001ENDTP0000400C                                                                                                                                                                                                                                                                                                                                                                                                                                                                                                                                                                                                                                                                                                                                                                                                                                                                                                                                                                                                        V20201001ENVTV0NCVIS1C                                                                                                                                                                                                                                          
20201106G000BRNCM034524385 Torgler                            Jason                     M19710614           26226 Sweetbriar Trail                                                                                                  Evergreen          CO80439                                                      2018031220201001                                                                    202010010001                                                                      20201001A0000000037500000                                                                                                            20201001A001                                                                                                                                       D20201001ENDTP0000300A                                                                                                                                                                                                                                                                                                                                                                                                                                                                                                                                                                                                                                                                                                                                                                                                                                                                                                                                                                                                        V20201001ENVTV0NCVIS1A                                                                                                                                                                                                                                          
20201106G000BRNC 034524385 Hernandez                          Harrison                  M19950404           26226 Sweetbriar Trail                                                                                                  Evergreen          CO80439                                                      2018031220201001                                                                    202010010001                                                                      20201001A0000000037500000                                                                                                            20201001A001                                                                                                                                       D20201001ENDTP0000300A                                                                                                                                                                                                                                                                                                                                                                                                                                                                                                                                                                                                                                                                                                                                                                                                                                                                                                                                                                                                        V20201001ENVTV0NCVIS1A                                                                                                                                                                                                                                          
20201106G000BRNC 034524385 Torgler                            Alexander                 M19971103           26226 Sweetbriar Trail                                                                                                  Evergreen          CO80439                                                      2018031220201001                                                                    202010010001                                                                      20201001A0000000037500000                                                                                                            20201001A001                                                                                                                                       D20201001ENDTP0000300A                                                                                                                                                                                                                                                                                                                                                                                                                                                                                                                                                                                                                                                                                                                                                                                                                                                                                                                                                                                                        V20201001ENVTV0NCVIS1A                                                                                                                                                                                                                                          
20201106G000BRNC 034524385 Torgler                            Jack                      M20000403           26226 Sweetbriar Trail                                                                                                  Evergreen          CO80439                                                      2018031220201001                                                                    202010010001                                                                      20201001A0000000037500000                                                                                                            20201001A001                                                                                                                                       D20201001ENDTP0000300A                                                                                                                                                                                                                                                                                                                                                                                                                                                                                                                                                                                                                                                                                                                                                                                                                                                                                                                                                                                                        V20201001ENVTV0NCVIS1A                                                                                                                                                                                                                                          
20201106G000BRNCD034524385 Torgler                            Sophie                    F20040901           26226 Sweetbriar Trail                                                                                                  Evergreen          CO80439                                                      2018031220201001                                                                    202010010001                                                                      20201001A0000000037500000                                                                                                            20201001A001                                                                                                                                       D20201001ENDTP0000300A                                                                                                                                                                                                                                                                                                                                                                                                                                                                                                                                                                                                                                                                                                                                                                                                                                                                                                                                                                                                        V20201001ENVTV0NCVIS1A                                                                                                                                                                                                                                          
20201106G000BRNCW034524385 Stewart                            Natasha                   F19690428           26226 Sweetbriar Trail                                                                                                  Evergreen          CO80439                                                      2018031220201001                                                                    202010010001                                                                      20201001A0000000037500000                                                                                                            20201001A001                                                                                                                                       D20201001ENDTP0000300A                                                                                                                                                                                                                                                                                                                                                                                                                                                                                                                                                                                                                                                                                                                                                                                                                                                                                                                                                                                                        V20201001ENVTV0NCVIS1A                                                                                                                                                                                                                                          
20201106G000BRNCM631902827 Mathew                             Ann                       F19960330           3613 Shady Bay Ln                                                                                                       Missouri City      TX77459                                                      2018060420201001                                                                    202010010001                                                                      20201001A0000000007500000                                                                                                            20201001A002                                                                                                                                       D20201001ENDTP0000400C                                                                                                                                                                                                                                                                                                                                                                                                                                                                                                                                                                                                                                                                                                                                                                                                                                                                                                                                                                                                        V20201001ENVTV0NCVIS1C                                                                                                                                                                                                                                          
20201106G000BRNCM223771072 Perkinson                          Kristin                   F19960601           8414 Boulder Pl                                                                                                         Tampa              FL33615                                                      2017051520201001                                                                    202010010001                                                                      20201001A0000000007500000                                                                                                            20201001A001                                                                                                                                       D20201001ENDTP0000300C                                                                                                                                                                                                                                                                                                                                                                                                                                                                                                                                                                                                                                                                                                                                                                                                                                                                                                                                                                                                        V20201001ENVTV0NCVIS1C                                                                                                                                                                                                                                          
20201106G000BRNCM529555484 Glade                              Matthew                   M19710901           1479 E Tuscan Oak Way                                                                                                   Sandy              UT84092                                                      2017100220201001                                                                    202010010001                                                                      20201001A0000000014600000                                                                                                            20201001A001                                                                                                                                       D20201001ENDTP0000300D                                                                                                                                                                                                                                                                                                                                                                                                                                                                                                                                                                                                                                                                                                                                                                                                                                                                                                                                                                                                        V20201001ENVTV0NCVIS1D                                                                                                                                                                                                                                          
20201106G000BRNC 529555484 Glade                              Benjamin                  M19990921           1479 E Tuscan Oak Way                                                                                                   Sandy              UT84092                                                      2017100220201001                                                                    202010010001                                                                      20201001A0000000014600000                                                                                                            20201001A001                                                                                                                                       D20201001ENDTP0000300D                                                                                                                                                                                                                                                                                                                                                                                                                                                                                                                                                                                                                                                                                                                                                                                                                                                                                                                                                                                                        V20201001ENVTV0NCVIS1D                                                                                                                                                                                                                                          
20201106G000BRNC 529555484 Glade                              Preston                   M19970613           1479 E Tuscan Oak Way                                                                                                   Sandy              UT84092                                                      2017100220201001                                                                    202010010001                                                                      20201001A0000000014600000                                                                                                            20201001A001                                                                                                                                       D20201001ENDTP0000300D                                                                                                                                                                                                                                                                                                                                                                                                                                                                                                                                                                                                                                                                                                                                                                                                                                                                                                                                                                                                        V20201001ENVTV0NCVIS1D                                                                                                                                                                                                                                          
20201106G000BRNCM486900963 Petre                              Andrew                    M19720325           11 Seeley St #3                                                                                                         Brooklyn           NY11218                                                      2018080720201001                                                                    202010010001                                                                      20201001A0000000014000000                                                                                                            20201001A001                                                                                                                                       D20201001ENDTP0000300C                                                                                                                                                                                                                                                                                                                                                                                                                                                                                                                                                                                                                                                                                                                                                                                                                                                                                                                                                                                                        V20201001ENVTV0NCVIS1C                                                                                                                                                                                                                                          
20201106G000BRNCM593334201 Landman                            Corey                     M19930619           122 West Trinity Place                  Apt 4222                                                                        Decatur            GA30030                                                      2018082020201001                                                                    202010010001                                                                      20201001A0000000007500000                                                                                                            20201001A001                                                                                                                                       D20201001ENDTP0000300C                                                                                                                                                                                                                                                                                                                                                                                                                                                                                                                                                                                                                                                                                                                                                                                                                                                                                                                                                                                                        V20201001ENVTV0NCVIS1C                                                                                                                                                                                                                                          
20201106G000BRNCM357848200 Oyler                              Stephanie                 F19900212           350 Ventura Drive                                                                                                       Forsyth            IL62535                                                      2014082920201001                                                                    202010010001                                                                      20201001A0000000018500000                                                                                                            20201001A001                                                                                                                                       D20201001ENDTP0000300D                                                                                                                                                                                                                                                                                                                                                                                                                                                                                                                                                                                                                                                                                                                                                                                                                                                                                                                                                                                                        V20201001ENVTV0NCVIS1A                                                                                                                                                                                                                                          
20201106G000BRNC 357848200 Rankin                             Jaxson                    M20131220           350 Ventura Drive                                                                                                       Forsyth            IL62535                                                      2014082920201001                                                                    202010010001                                                                      20201001A0000000018500000                                                                                                            20201001A001                                                                                                                                       D20201001ENDTP0000300D                                                                                                                                                                                                                                                                                                                                                                                                                                                                                                                                                                                                                                                                                                                                                                                                                                                                                                                                                                                                        V20201001ENVTV0NCVIS1A                                                                                                                                                                                                                                          
20201106G000BRNCD357848200 Rankin                             Reese                     F20170511           350 Ventura Drive                                                                                                       Forsyth            IL62535                                                      2014082920201001                                                                    202010010001                                                                      20201001A0000000018500000                                                                                                            20201001A001                                                                                                                                       D20201001ENDTP0000300D                                                                                                                                                                                                                                                                                                                                                                                                                                                                                                                                                                                                                                                                                                                                                                                                                                                                                                                                                                                                        V20201001ENVTV0NCVIS1A                                                                                                                                                                                                                                          
20201106G000BRNCH357848200 Rankin                             Casey                     M19830207           350 Ventura Drive                                                                                                       Forsyth            IL62535                                                      2014082920201001                                                                    202010010001                                                                      20201001A0000000018500000                                                                                                            20201001                                                                                                                                                                                                                                                                                                                                                                                                                                                                                                                                                                                                                                                                                                                                                                                                                                                                                                                                                                                                                                                                                                                                                                         V20201001ENVTV0NCVIS1A                                                                                                                                                                                                                                          
20201106G000BRNCM591884048 Thrower                            Scot                      M19890918           4505 Chimney Creek Dr                                                                                                   Sarasota           FL34235                                                      2015120720201001                                                                    202010010001                                                                      20201001A0000000010000000                                                                                                            20201001A001                                                                                                                                       D20201001ENDTP0000300A                                                                                                                                                                                                                                                                                                                                                                                                                                                                                                                                                                                                                                                                                                                                                                                                                                                                                                                                                                                                        V20201001ENVTV0NCVIS1A                                                                                                                                                                                                                                          
20201106G000BRNCD591884048 Thrower                            Isla                      F20200824           4505 Chimney Creek Dr                                                                                                   Sarasota           FL34235                                                      2015120720201001                                                                    202010010001                                                                      20201001A0000000010000000                                                                                                            20201001A001                                                                                                                                       D20201001ENDTP0000300A                                                                                                                                                                                                                                                                                                                                                                                                                                                                                                                                                                                                                                                                                                                                                                                                                                                                                                                                                                                                        V20201001ENVTV0NCVIS1A                                                                                                                                                                                                                                          
20201106G000BRNCW591884048 Thrower                            Dana                      F19890402           4505 Chimney Creek Dr                                                                                                   Sarasota           FL34235                                                      2015120720201001                                                                    202010010001                                                                      20201001A0000000010000000                                                                                                            20201001A001                                                                                                                                       D20201001ENDTP0000300A                                                                                                                                                                                                                                                                                                                                                                                                                                                                                                                                                                                                                                                                                                                                                                                                                                                                                                                                                                                                        V20201001ENVTV0NCVIS1A                                                                                                                                                                                                                                          
20201106G000BRNCM357845108 Tarchinski                         Mary                      F19901016           1224 E 14th Ave                                                                                                         Denver             CO80218                                                      2017013020201001                                                                    202010010001                                                                      20201001A0000000014800000                                                                                                            20201001A001                                                                                                                                       D20201001ENDTP0000300C                                                                                                                                                                                                                                                                                                                                                                                                                                                                                                                                                                                                                                                                                                                                                                                                                                                                                                                                                                                                        V20201001ENVTV0NCVIS1C                                                                                                                                                                                                                                          
20201106G000BRNCM256955438 Covey                              Devon                     M19960222           203 Cole Street                                                                                                         Marietta           GA30060                                                      2018060420201001                                                                    202010010001                                                                      20201001A0000000007200000                                                                                                            20201001A001                                                                                                                                       D20201001ENDTP0000300C                                                                                                                                                                                                                                                                                                                                                                                                                                                                                                                                                                                                                                                                                                                                                                                                                                                                                                                                                                                                        V20201001ENVTV0NCVIS1C                                                                                                                                                                                                                                          
20201106G000BRNCM510942538 Furman                             Austin                    M19800815           210 S Holman Way                                                                                                        Golden             CO80401                                                      2018052920201001                                                                    202010010001                                                                      20201001A0000000012000000                                                                                                            20201001A001                                                                                                                                       D20201001ENDTP0000300C                                                                                                                                                                                                                                                                                                                                                                                                                                                                                                                                                                                                                                                                                                                                                                                                                                                                                                                                                                                                        V20201001ENVTV0NCVIS1C                                                                                                                                                                                                                                          
20201106G000BRNCM592087699 Neumayer                           Jonathan                  M19910114           311 W Palm Ave Apt 304                                                                                                  Tampa              FL33602                                                      2015010520201001                                                                    202010010001                                                                      20201001A0000000011000000                                                                                                            20201001A001                                                                                                                                       D20201001ENDTP0000300C                                                                                                                                                                                                                                                                                                                                                                                                                                                                                                                                                                                                                                                                                                                                                                                                                                                                                                                                                                                                        V20201001ENVTV0NCVIS1C                                                                                                                                                                                                                                          
20201106G000BRNCM569938620 Powers                             Daniel                    M19870224           14973 Beartree Street                                                                                                   Fontana            CA92336                                                      2016081520201001                                                                    202010010001                                                                      20201001A0000000015800000                                                                                                            20201001A002                                                                                                                                       D20201001ENDTP0000400A                                                                                                                                                                                                                                                                                                                                                                                                                                                                                                                                                                                                                                                                                                                                                                                                                                                                                                                                                                                                        V20201001ENVTV0NCVIS1C                                                                                                                                                                                                                                          
20201106G000BRNCD569938620 Powers                             Amelia                    F20170703           14973 Beartree Street                                                                                                   Fontana            CA92336                                                      2016081520201001                                                                    202010010001                                                                      20201001A0000000015800000                                                                                                            20201001A002                                                                                                                                       D20201001ENDTP0000400A                                                                                                                                                                                                                                                                                                                                                                                                                                                                                                                                                                                                                                                                                                                                                                                                                                                                                                                                                                                                                                                                                                                                                                                                                                                                        
20201106G000BRNCW569938620 Powers                             Vanessa                   F19860418           14973 Beartree Street                                                                                                   Fontana            CA92336                                                      2016081520201001                                                                    202010010001                                                                      20201001A0000000015800000                                                                                                            20201001A002                                                                                                                                       D20201001ENDTP0000400A                                                                                                                                                                                                                                                                                                                                                                                                                                                                                                                                                                                                                                                                                                                                                                                                                                                                                                                                                                                                                                                                                                                                                                                                                                                                        
20201106G000BRNCM282113001 Bhattarai                          Shreesh                   M19870627           1639 Adriel Drive                                                                                                       Fort Collins       CO80524                                                      2017011620201001                                                                    202010010001                                                                      20201001A0000000010500000                                                                                                            20201001A001                                                                                                                                       D20201001ENDTP0000300C                                                                                                                                                                                                                                                                                                                                                                                                                                                                                                                                                                                                                                                                                                                                                                                                                                                                                                                                                                                                        V20201001ENVTV0NCVIS1C                                                                                                                                                                                                                                          
20201106G000BRNCM554178490 Bowman                             John                      M19720505           12852 S. Kale Lane                                                                                                      Riverton           UT84065                                                      2017103020201001                                                                    202010010001                                                                      20201001A0000000015000000                                                                                                            20201001A001                                                                                                                                       D20201001ENDTP0000300A                                                                                                                                                                                                                                                                                                                                                                                                                                                                                                                                                                                                                                                                                                                                                                                                                                                                                                                                                                                                        V20201001ENVTV0NCVIS1A                                                                                                                                                                                                                                          
20201106G000BRNCD554178490 Bowman                             Alexis                    F20060519           12852 S. Kale Lane                                                                                                      Riverton           UT84065                                                      2017103020201001                                                                    202010010001                                                                      20201001A0000000015000000                                                                                                            20201001A001                                                                                                                                       D20201001ENDTP0000300A                                                                                                                                                                                                                                                                                                                                                                                                                                                                                                                                                                                                                                                                                                                                                                                                                                                                                                                                                                                                        V20201001ENVTV0NCVIS1A                                                                                                                                                                                                                                          
20201106G000BRNCW554178490 Bowman                             Debra                     F19710404           12852 S. Kale Lane                                                                                                      Riverton           UT84065                                                      2017103020201001                                                                    202010010001                                                                      20201001A0000000015000000                                                                                                            20201001A001                                                                                                                                       D20201001ENDTP0000300A                                                                                                                                                                                                                                                                                                                                                                                                                                                                                                                                                                                                                                                                                                                                                                                                                                                                                                                                                                                                        V20201001ENVTV0NCVIS1A                                                                                                                                                                                                                                          
20201106G000BRNCM592611082 Broyles                            Michael                   M19960620           204 Myrtle Ridge Rd                                                                                                     Lutz               FL33549                                                      2018060420201001                                                                    202010010001                                                                      20201001A0000000007500000                                                                                                            20201001A002                                                                                                                                       D20201001ENDTP0000400C                                                                                                                                                                                                                                                                                                                                                                                                                                                                                                                                                                                                                                                                                                                                                                                                                                                                                                                                                                                                        V20201001ENVTV0NCVIS1C                                                                                                                                                                                                                                          
20201106G000BRNCM205689027 Geiger                             Gene                      M19720721           2520 Cone Lake Drive                                                                                                    New Smyrna Beach   FL32168                                                      2012012320201001                                                                    202010010001                                                                      20201001A0000000025000000                                                                                                            20201001A001                                                                                                                                       D20201101TMDTP0000300B                                                                                                                                                                                                                                                                                                                                                                                                                                                                                                                                                                                                                                                                                                                                                                                                                                                                                                                                                                                                        V20201101TMVTV0NCVIS1B                                                                                                                                                                                                                                          
20201106G000BRNCW205689027 Geiger                             Tara                      F19720919           2520 Cone Lake Drive                                                                                                    New Smyrna Beach   FL32168                                                      2012012320201001                                                                    202010010001                                                                      20201001A0000000025000000                                                                                                            20201001A001                                                                                                                                       D20201101TMDTP0000300B                                                                                                                                                                                                                                                                                                                                                                                                                                                                                                                                                                                                                                                                                                                                                                                                                                                                                                                                                                                                        V20201101TMVTV0NCVIS1B                                                                                                                                                                                                                                          
20201106G000BRNCM454953354 Radtke                             Jana                      F19870924           6242 Warner Ave Apt 7D                                                                                                  Huntington Beach   CA92647                                                      2016080320201001                                                                    202010010001                                                                      20201001A0000000012050000                                                                                                            20201001A001                                                                                                                                       D20201001ENDTP0000300C                                                                                                                                                                                                                                                                                                                                                                                                                                                                                                                                                                                                                                                                                                                                                                                                                                                                                                                                                                                                        V20201001ENVTV0NCVIS1C                                                                                                                                                                                                                                          
