HDR 0001083308SimVentions Contrib File      2019071220190712153701
CONT0001083308PLAN1   541992646   007589397201907112019061720190630SFMAT-00000000000
CONT0001083308PLAN1   541992646   007589397201907112019061720190630DS   000000056741
CONT0001083308PLAN1   541992646   007589397201907112019061720190630ROTH 000000045393
CONT0001083308PLAN1   541992646   024609803201907112019061720190630DS   000000084535
CONT0001083308PLAN1   541992646   024609803201907112019061720190630SFMAT-00000000000
CONT0001083308PLAN1   541992646   025488399201907112019061720190630SFMAT-00000000000
CONT0001083308PLAN1   541992646   025488399201907112019061720190630DS   000000089776
CONT0001083308PLAN1   541992646   032660193201907112019061720190630DS   000000033848
CONT0001083308PLAN1   541992646   032660193201907112019061720190630SFMAT-00000000000
CONT0001083308PLAN1   541992646   039569679201907112019061720190630SFMAT-00000000000
CONT0001083308PLAN1   541992646   039569679201907112019061720190630DS   000000017374
CONT0001083308PLAN1   541992646   048444439201907112019061720190630SFMAT-00000000000
CONT0001083308PLAN1   541992646   048444439201907112019061720190630DS   000000068844
CONT0001083308PLAN1   541992646   049828995201907112019061720190630DS   000000023248
CONT0001083308PLAN1   541992646   049828995201907112019061720190630SFMAT-00000000000
CONT0001083308PLAN1   541992646   058560615201907112019061720190630SFMAT-00000000000
CONT0001083308PLAN1   541992646   058560615201907112019061720190630DS   000000017854
CONT0001083308PLAN1   541992646   068541010201907112019061720190630ROTH 000000073991
CONT0001083308PLAN1   541992646   068541010201907112019061720190630SFMAT-00000000000
CONT0001083308PLAN1   541992646   074649102201907112019061720190630SFMAT-00000000000
CONT0001083308PLAN1   541992646   074649102201907112019061720190630DS   000000051044
CONT0001083308PLAN1   541992646   080584586201907112019061720190630DS   000000054002
CONT0001083308PLAN1   541992646   080584586201907112019061720190630SFMAT-00000000000
CONT0001083308PLAN1   541992646   083542864201907112019061720190630DS   000000059018
CONT0001083308PLAN1   541992646   083542864201907112019061720190630SFMAT-00000000000
CONT0001083308PLAN1   541992646   088526824201907112019061720190630SFMAT-00000000000
CONT0001083308PLAN1   541992646   088526824201907112019061720190630DS   000000100864
CONT0001083308PLAN1   541992646   088526824201907112019061720190630ROTH 000000011866
CONT0001083308PLAN1   541992646   093501381201907112019061720190630DS   000000022433
CONT0001083308PLAN1   541992646   093501381201907112019061720190630SFMAT-00000000000
CONT0001083308PLAN1   541992646   093701289201907112019061720190630SFMAT-00000000000
CONT0001083308PLAN1   541992646   093701289201907112019061720190630DS   000000035903
CONT0001083308PLAN1   541992646   096801185201907112019061720190630DS   000000008938
CONT0001083308PLAN1   541992646   096801185201907112019061720190630SFMAT-00000000000
CONT0001083308PLAN1   541992646   102742852201907112019061720190630SFMAT-00000000000
CONT0001083308PLAN1   541992646   102742852201907112019061720190630DS   000000053835
CONT0001083308PLAN1   541992646   104583938201907112019061720190630DS   000000076444
CONT0001083308PLAN1   541992646   104583938201907112019061720190630SFMAT-00000000000
CONT0001083308PLAN1   541992646   104820761201907112019061720190630SFMAT-00000000000
CONT0001083308PLAN1   541992646   104820761201907112019061720190630DS   000000010424
CONT0001083308PLAN1   541992646   112727663201907112019061720190630DS   000000041269
CONT0001083308PLAN1   541992646   112727663201907112019061720190630SFMAT-00000000000
CONT0001083308PLAN1   541992646   113665968201907112019061720190630SFMAT-00000000000
CONT0001083308PLAN1   541992646   113665968201907112019061720190630DS   000000038618
CONT0001083308PLAN1   541992646   127588036201907112019061720190630DS   000000016083
CONT0001083308PLAN1   541992646   127588036201907112019061720190630SFMAT-00000000000
CONT0001083308PLAN1   541992646   131601539201907112019061720190630SFMAT-00000000000
CONT0001083308PLAN1   541992646   131601539201907112019061720190630DS   000000033318
CONT0001083308PLAN1   541992646   132501260201907112019061720190630DS   000000052351
CONT0001083308PLAN1   541992646   132501260201907112019061720190630SFMAT-00000000000
CONT0001083308PLAN1   541992646   133728676201907112019061720190630SFMAT-00000000000
CONT0001083308PLAN1   541992646   133728676201907112019061720190630DS   000000019116
CONT0001083308PLAN1   541992646   137587105201907112019061720190630DS   000000053421
CONT0001083308PLAN1   541992646   137587105201907112019061720190630ROTH 000000011871
CONT0001083308PLAN1   541992646   137587105201907112019061720190630SFMAT-00000000000
CONT0001083308PLAN1   541992646   138589979201907112019061720190630SFMAT-00000000000
CONT0001083308PLAN1   541992646   138589979201907112019061720190630DS   000000069175
CONT0001083308PLAN1   541992646   139762339201907112019061720190630DS   000000069295
CONT0001083308PLAN1   541992646   139762339201907112019061720190630SFMAT-00000000000
CONT0001083308PLAN1   541992646   142721814201907112019061720190630SFMAT-00000000000
CONT0001083308PLAN1   541992646   142721814201907112019061720190630DS   000000056793
CONT0001083308PLAN1   541992646   142721814201907112019061720190630ROTH 000000016227
CONT0001083308PLAN1   541992646   143903092201907112019061720190630DS   000000005291
CONT0001083308PLAN1   541992646   143903092201907112019061720190630SFMAT-00000000000
CONT0001083308PLAN1   541992646   147742312201907112019061720190630SFMAT-00000000000
CONT0001083308PLAN1   541992646   147742312201907112019061720190630DS   000000058632
CONT0001083308PLAN1   541992646   157683223201907112019061720190630DS   000000053112
CONT0001083308PLAN1   541992646   157683223201907112019061720190630SFMAT-00000000000
CONT0001083308PLAN1   541992646   159461577201907112019061720190630SFMAT-00000000000
CONT0001083308PLAN1   541992646   159461577201907112019061720190630DS   000000127230
CONT0001083308PLAN1   541992646   160544430201907112019061720190630DS   000000038632
CONT0001083308PLAN1   541992646   160544430201907112019061720190630SFMAT-00000000000
CONT0001083308PLAN1   541992646   168642879201907112019061720190630SFMAT-00000000000
CONT0001083308PLAN1   541992646   168642879201907112019061720190630DS   000000065965
CONT0001083308PLAN1   541992646   169382048201907112019061720190630DS   000000097487
CONT0001083308PLAN1   541992646   169382048201907112019061720190630SFMAT-00000000000
CONT0001083308PLAN1   541992646   169464607201907112019061720190630DS   000000087986
CONT0001083308PLAN1   541992646   169464607201907112019061720190630SFMAT-00000000000
CONT0001083308PLAN1   541992646   175583993201907112019061720190630ROTH 000000021136
CONT0001083308PLAN1   541992646   175583993201907112019061720190630SFMAT-00000000000
CONT0001083308PLAN1   541992646   186441007201907112019061720190630SFMAT-00000000000
CONT0001083308PLAN1   541992646   186441007201907112019061720190630DS   000000004200
CONT0001083308PLAN1   541992646   198684674201907112019061720190630DS   000000030152
CONT0001083308PLAN1   541992646   198684674201907112019061720190630SFMAT-00000000000
CONT0001083308PLAN1   541992646   200623583201907112019061720190630SFMAT-00000000000
CONT0001083308PLAN1   541992646   200623583201907112019061720190630DS   000000014706
CONT0001083308PLAN1   541992646   202720891201907112019061720190630ROTH 000000038461
CONT0001083308PLAN1   541992646   202720891201907112019061720190630SFMAT-00000000000
CONT0001083308PLAN1   541992646   207385074201907112019061720190630SFMAT-00000000000
CONT0001083308PLAN1   541992646   207385074201907112019061720190630DS   000000035419
CONT0001083308PLAN1   541992646   211522298201907112019061720190630DS   000000038156
CONT0001083308PLAN1   541992646   211522298201907112019061720190630SFMAT-00000000000
CONT0001083308PLAN1   541992646   214047912201907112019061720190630SFMAT-00000000000
CONT0001083308PLAN1   541992646   214047912201907112019061720190630DS   000000044921
CONT0001083308PLAN1   541992646   214275200201907112019061720190630DS   000000015644
CONT0001083308PLAN1   541992646   214275200201907112019061720190630SFMAT-00000000000
CONT0001083308PLAN1   541992646   214351466201907112019061720190630SFMAT-00000000000
CONT0001083308PLAN1   541992646   214351466201907112019061720190630DS   000000012863
CONT0001083308PLAN1   541992646   214921108201907112019061720190630DS   000000025420
CONT0001083308PLAN1   541992646   214921108201907112019061720190630SFMAT-00000000000
CONT0001083308PLAN1   541992646   216191147201907112019061720190630SFMAT-00000000000
CONT0001083308PLAN1   541992646   216191147201907112019061720190630DS   000000020077
CONT0001083308PLAN1   541992646   217357962201907112019061720190630DS   000000012020
CONT0001083308PLAN1   541992646   217357962201907112019061720190630SFMAT-00000000000
CONT0001083308PLAN1   541992646   217589165201907112019061720190630SFMAT-00000000000
CONT0001083308PLAN1   541992646   217589165201907112019061720190630DS   000000000822
CONT0001083308PLAN1   541992646   217622281201907112019061720190630ROTH 000000030409
CONT0001083308PLAN1   541992646   217622281201907112019061720190630SFMAT-00000000000
CONT0001083308PLAN1   541992646   218477573201907112019061720190630DS   000000017913
CONT0001083308PLAN1   541992646   218477573201907112019061720190630SFMAT-00000000000
CONT0001083308PLAN1   541992646   219861567201907112019061720190630SFMAT-00000000000
CONT0001083308PLAN1   541992646   219861567201907112019061720190630DS   000000009671
CONT0001083308PLAN1   541992646   220155093201907112019061720190630DS   000000019105
CONT0001083308PLAN1   541992646   220155093201907112019061720190630SFMAT-00000000000
CONT0001083308PLAN1   541992646   220568934201907112019061720190630SFMAT-00000000000
CONT0001083308PLAN1   541992646   220568934201907112019061720190630DS   000000140478
CONT0001083308PLAN1   541992646   220924270201907112019061720190630SFMAT-00000000000
CONT0001083308PLAN1   541992646   220924270201907112019061720190630DS   000000025102
CONT0001083308PLAN1   541992646   221763638201907112019061720190630DS   000000023274
CONT0001083308PLAN1   541992646   221763638201907112019061720190630SFMAT-00000000000
CONT0001083308PLAN1   541992646   223025579201907112019061720190630SFMAT-00000000000
CONT0001083308PLAN1   541992646   223025579201907112019061720190630DS   000000044646
CONT0001083308PLAN1   541992646   223047305201907112019061720190630DS   000000074048
CONT0001083308PLAN1   541992646   223047305201907112019061720190630SFMAT-00000000000
CONT0001083308PLAN1   541992646   223336159201907112019061720190630DS   000000065404
CONT0001083308PLAN1   541992646   223336159201907112019061720190630SFMAT-00000000000
CONT0001083308PLAN1   541992646   223456058201907112019061720190630DS   000000024005
CONT0001083308PLAN1   541992646   223456058201907112019061720190630SFMAT-00000000000
CONT0001083308PLAN1   541992646   223496316201907112019061720190630SFMAT-00000000000
CONT0001083308PLAN1   541992646   223496316201907112019061720190630DS   000000050872
CONT0001083308PLAN1   541992646   223554224201907112019061720190630SFMAT-00000000000
CONT0001083308PLAN1   541992646   223554224201907112019061720190630DS   000000016226
CONT0001083308PLAN1   541992646   223558990201907112019061720190630DS   000000010330
CONT0001083308PLAN1   541992646   223558990201907112019061720190630SFMAT-00000000000
CONT0001083308PLAN1   541992646   223785068201907112019061720190630SFMAT-00000000000
CONT0001083308PLAN1   541992646   223785068201907112019061720190630DS   000000024453
CONT0001083308PLAN1   541992646   224139701201907112019061720190630DS   000000009427
CONT0001083308PLAN1   541992646   224139701201907112019061720190630SFMAT-00000000000
CONT0001083308PLAN1   541992646   224158508201907112019061720190630SFMAT-00000000000
CONT0001083308PLAN1   541992646   224158508201907112019061720190630ROTH 000000007140
CONT0001083308PLAN1   541992646   224158508201907112019061720190630DS   000000007140
CONT0001083308PLAN1   541992646   224330505201907112019061720190630DS   000000022409
CONT0001083308PLAN1   541992646   224330505201907112019061720190630SFMAT-00000000000
CONT0001083308PLAN1   541992646   224352249201907112019061720190630SFMAT-00000000000
CONT0001083308PLAN1   541992646   224352249201907112019061720190630DS   000000032718
CONT0001083308PLAN1   541992646   224390335201907112019061720190630DS   000000012361
CONT0001083308PLAN1   541992646   224390335201907112019061720190630SFMAT-00000000000
CONT0001083308PLAN1   541992646   224539016201907112019061720190630SFMAT-00000000000
CONT0001083308PLAN1   541992646   224539016201907112019061720190630DS   000000016984
CONT0001083308PLAN1   541992646   224559010201907112019061720190630ROTH 000000022782
CONT0001083308PLAN1   541992646   224559010201907112019061720190630SFMAT-00000000000
CONT0001083308PLAN1   541992646   224590353201907112019061720190630SFMAT-00000000000
CONT0001083308PLAN1   541992646   224590353201907112019061720190630ROTH 000000005137
CONT0001083308PLAN1   541992646   224590353201907112019061720190630DS   000000013699
CONT0001083308PLAN1   541992646   224696759201907112019061720190630DS   000000013099
CONT0001083308PLAN1   541992646   224696759201907112019061720190630SFMAT-00000000000
CONT0001083308PLAN1   541992646   224774250201907112019061720190630SFMAT-00000000000
CONT0001083308PLAN1   541992646   224774250201907112019061720190630DS   000000023646
CONT0001083308PLAN1   541992646   224907544201907112019061720190630DS   000000035914
CONT0001083308PLAN1   541992646   224907544201907112019061720190630SFMAT-00000000000
CONT0001083308PLAN1   541992646   224909335201907112019061720190630SFMAT-00000000000
CONT0001083308PLAN1   541992646   224909335201907112019061720190630DS   000000007979
CONT0001083308PLAN1   541992646   224986421201907112019061720190630DS   000000025794
CONT0001083308PLAN1   541992646   224986421201907112019061720190630SFMAT-00000000000
CONT0001083308PLAN1   541992646   225048443201907112019061720190630SFMAT-00000000000
CONT0001083308PLAN1   541992646   225048443201907112019061720190630DS   000000004363
CONT0001083308PLAN1   541992646   225319531201907112019061720190630DS   000000060673
CONT0001083308PLAN1   541992646   225319531201907112019061720190630SFMAT-00000000000
CONT0001083308PLAN1   541992646   225355971201907112019061720190630DS   000000035046
CONT0001083308PLAN1   541992646   225355971201907112019061720190630SFMAT-00000000000
CONT0001083308PLAN1   541992646   225473848201907112019061720190630DS   000000034307
CONT0001083308PLAN1   541992646   225473848201907112019061720190630SFMAT-00000000000
CONT0001083308PLAN1   541992646   225475437201907112019061720190630SFMAT-00000000000
CONT0001083308PLAN1   541992646   225475437201907112019061720190630DS   000000051511
CONT0001083308PLAN1   541992646   225536298201907112019061720190630DS   000000033246
CONT0001083308PLAN1   541992646   225536298201907112019061720190630SFMAT-00000000000
CONT0001083308PLAN1   541992646   225554991201907112019061720190630SFMAT-00000000000
CONT0001083308PLAN1   541992646   225554991201907112019061720190630DS   000000014723
CONT0001083308PLAN1   541992646   225604795201907112019061720190630DS   000000072449
CONT0001083308PLAN1   541992646   225604795201907112019061720190630SFMAT-00000000000
CONT0001083308PLAN1   541992646   225613595201907112019061720190630SFMAT-00000000000
CONT0001083308PLAN1   541992646   225613595201907112019061720190630DS   000000005732
CONT0001083308PLAN1   541992646   225639972201907112019061720190630DS   000000050966
CONT0001083308PLAN1   541992646   225639972201907112019061720190630SFMAT-00000000000
CONT0001083308PLAN1   541992646   225643309201907112019061720190630SFMAT-00000000000
CONT0001083308PLAN1   541992646   225643309201907112019061720190630DS   000000012730
CONT0001083308PLAN1   541992646   225697923201907112019061720190630DS   000000012499
CONT0001083308PLAN1   541992646   225697923201907112019061720190630SFMAT-00000000000
CONT0001083308PLAN1   541992646   225737477201907112019061720190630SFMAT-00000000000
CONT0001083308PLAN1   541992646   225737477201907112019061720190630DS   000000013987
CONT0001083308PLAN1   541992646   225752361201907112019061720190630DS   000000011195
CONT0001083308PLAN1   541992646   225752361201907112019061720190630SFMAT-00000000000
CONT0001083308PLAN1   541992646   225796501201907112019061720190630SFMAT-00000000000
CONT0001083308PLAN1   541992646   225796501201907112019061720190630DS   000000008831
CONT0001083308PLAN1   541992646   226064760201907112019061720190630DS   000000077032
CONT0001083308PLAN1   541992646   226064760201907112019061720190630SFMAT-00000000000
CONT0001083308PLAN1   541992646   226069276201907112019061720190630SFMAT-00000000000
CONT0001083308PLAN1   541992646   226069276201907112019061720190630ROTH 000000035373
CONT0001083308PLAN1   541992646   226069276201907112019061720190630DS   000000113193
CONT0001083308PLAN1   541992646   226130763201907112019061720190630ROTH 000000006420
CONT0001083308PLAN1   541992646   226130763201907112019061720190630DS   000000038521
CONT0001083308PLAN1   541992646   226130763201907112019061720190630SFMAT-00000000000
CONT0001083308PLAN1   541992646   226135483201907112019061720190630SFMAT-00000000000
CONT0001083308PLAN1   541992646   226135483201907112019061720190630DS   000000030972
CONT0001083308PLAN1   541992646   226350186201907112019061720190630DS   000000045050
CONT0001083308PLAN1   541992646   226350186201907112019061720190630SFMAT-00000000000
CONT0001083308PLAN1   541992646   226356157201907112019061720190630DS   000000037055
CONT0001083308PLAN1   541992646   226356157201907112019061720190630SFMAT-00000000000
CONT0001083308PLAN1   541992646   226412728201907112019061720190630DS   000000012364
CONT0001083308PLAN1   541992646   226412728201907112019061720190630SFMAT-00000000000
CONT0001083308PLAN1   541992646   226430576201907112019061720190630SFMAT-00000000000
CONT0001083308PLAN1   541992646   226430576201907112019061720190630DS   000000027841
CONT0001083308PLAN1   541992646   226621941201907112019061720190630DS   000000009359
CONT0001083308PLAN1   541992646   226621941201907112019061720190630ROTH 000000023397
CONT0001083308PLAN1   541992646   226621941201907112019061720190630SFMAT-00000000000
CONT0001083308PLAN1   541992646   226636632201907112019061720190630SFMAT-00000000000
CONT0001083308PLAN1   541992646   226636632201907112019061720190630DS   000000022393
CONT0001083308PLAN1   541992646   226650823201907112019061720190630DS   000000011699
CONT0001083308PLAN1   541992646   226650823201907112019061720190630SFMAT-00000000000
CONT0001083308PLAN1   541992646   226656788201907112019061720190630SFMAT-00000000000
CONT0001083308PLAN1   541992646   226656788201907112019061720190630DS   000000012146
CONT0001083308PLAN1   541992646   226697641201907112019061720190630DS   000000009651
CONT0001083308PLAN1   541992646   226697641201907112019061720190630SFMAT-00000000000
CONT0001083308PLAN1   541992646   226759751201907112019061720190630SFMAT-00000000000
CONT0001083308PLAN1   541992646   226759751201907112019061720190630DS   000000012854
CONT0001083308PLAN1   541992646   226759869201907112019061720190630ROTH 000000010685
CONT0001083308PLAN1   541992646   226759869201907112019061720190630SFMAT-00000000000
CONT0001083308PLAN1   541992646   227316920201907112019061720190630SFMAT-00000000000
CONT0001083308PLAN1   541992646   227316920201907112019061720190630DS   000000020586
CONT0001083308PLAN1   541992646   227432088201907112019061720190630DS   000000024231
CONT0001083308PLAN1   541992646   227432088201907112019061720190630SFMAT-00000000000
CONT0001083308PLAN1   541992646   227478155201907112019061720190630SFMAT-00000000000
CONT0001083308PLAN1   541992646   227478155201907112019061720190630DS   000000030603
CONT0001083308PLAN1   541992646   227572985201907112019061720190630DS   000000024331
CONT0001083308PLAN1   541992646   227572985201907112019061720190630SFMAT-00000000000
CONT0001083308PLAN1   541992646   227753333201907112019061720190630DS   000000010616
CONT0001083308PLAN1   541992646   227753333201907112019061720190630SFMAT-00000000000
CONT0001083308PLAN1   541992646   228040035201907112019061720190630SFMAT-00000000000
CONT0001083308PLAN1   541992646   228040035201907112019061720190630DS   000000046743
CONT0001083308PLAN1   541992646   228135496201907112019061720190630DS   000000009641
CONT0001083308PLAN1   541992646   228135496201907112019061720190630SFMAT-00000000000
CONT0001083308PLAN1   541992646   228216825201907112019061720190630SFMAT-00000000000
CONT0001083308PLAN1   541992646   228216825201907112019061720190630DS   000000034307
CONT0001083308PLAN1   541992646   228370007201907112019061720190630DS   000000044832
CONT0001083308PLAN1   541992646   228370007201907112019061720190630SFMAT-00000000000
CONT0001083308PLAN1   541992646   228393608201907112019061720190630DS   000000046353
CONT0001083308PLAN1   541992646   228393608201907112019061720190630SFMAT-00000000000
CONT0001083308PLAN1   541992646   228414642201907112019061720190630SFMAT-00000000000
CONT0001083308PLAN1   541992646   228414642201907112019061720190630DS   000000030581
CONT0001083308PLAN1   541992646   228677489201907112019061720190630DS   000000014480
CONT0001083308PLAN1   541992646   228677489201907112019061720190630SFMAT-00000000000
CONT0001083308PLAN1   541992646   228746331201907112019061720190630SFMAT-00000000000
CONT0001083308PLAN1   541992646   228746331201907112019061720190630DS   000000027921
CONT0001083308PLAN1   541992646   228773384201907112019061720190630DS   000000013980
CONT0001083308PLAN1   541992646   228773384201907112019061720190630SFMAT-00000000000
CONT0001083308PLAN1   541992646   228824472201907112019061720190630SFMAT-00000000000
CONT0001083308PLAN1   541992646   228824472201907112019061720190630DS   000000026165
CONT0001083308PLAN1   541992646   228824472201907112019061720190630ROTH 000000018315
CONT0001083308PLAN1   541992646   229062625201907112019061720190630DS   000000019818
CONT0001083308PLAN1   541992646   229062625201907112019061720190630SFMAT-00000000000
CONT0001083308PLAN1   541992646   229111269201907112019061720190630DS   000000031780
CONT0001083308PLAN1   541992646   229111269201907112019061720190630SFMAT-00000000000
CONT0001083308PLAN1   541992646   229153807201907112019061720190630ROTH 000000014770
CONT0001083308PLAN1   541992646   229153807201907112019061720190630DS   000000029541
CONT0001083308PLAN1   541992646   229153807201907112019061720190630SFMAT-00000000000
CONT0001083308PLAN1   541992646   229155905201907112019061720190630SFMAT-00000000000
CONT0001083308PLAN1   541992646   229155905201907112019061720190630DS   000000040271
CONT0001083308PLAN1   541992646   229195141201907112019061720190630DS   000000060076
CONT0001083308PLAN1   541992646   229195141201907112019061720190630SFMAT-00000000000
CONT0001083308PLAN1   541992646   229431900201907112019061720190630DS   000000040328
CONT0001083308PLAN1   541992646   229431900201907112019061720190630SFMAT-00000000000
CONT0001083308PLAN1   541992646   229435685201907112019061720190630SFMAT-00000000000
CONT0001083308PLAN1   541992646   229435685201907112019061720190630DS   000000016062
CONT0001083308PLAN1   541992646   229450028201907112019061720190630ROTH 000000030866
CONT0001083308PLAN1   541992646   229450028201907112019061720190630SFMAT-00000000000
CONT0001083308PLAN1   541992646   229510651201907112019061720190630SFMAT-00000000000
CONT0001083308PLAN1   541992646   229510651201907112019061720190630DS   000000059006
CONT0001083308PLAN1   541992646   229558173201907112019061720190630DS   000000012746
CONT0001083308PLAN1   541992646   229558173201907112019061720190630SFMAT-00000000000
CONT0001083308PLAN1   541992646   229577380201907112019061720190630SFMAT-00000000000
CONT0001083308PLAN1   541992646   229577380201907112019061720190630DS   000000017506
CONT0001083308PLAN1   541992646   229578096201907112019061720190630DS   000000024993
CONT0001083308PLAN1   541992646   229578096201907112019061720190630SFMAT-00000000000
CONT0001083308PLAN1   541992646   229622163201907112019061720190630SFMAT-00000000000
CONT0001083308PLAN1   541992646   229622163201907112019061720190630DS   000000108113
CONT0001083308PLAN1   541992646   229881723201907112019061720190630DS   000000089896
CONT0001083308PLAN1   541992646   229881723201907112019061720190630SFMAT-00000000000
CONT0001083308PLAN1   541992646   229900807201907112019061720190630SFMAT-00000000000
CONT0001083308PLAN1   541992646   229900807201907112019061720190630DS   000000047151
CONT0001083308PLAN1   541992646   229900824201907112019061720190630DS   000000081532
CONT0001083308PLAN1   541992646   229900824201907112019061720190630SFMAT-00000000000
CONT0001083308PLAN1   541992646   229925884201907112019061720190630SFMAT-00000000000
CONT0001083308PLAN1   541992646   229925884201907112019061720190630ROTH 000000005947
CONT0001083308PLAN1   541992646   229925884201907112019061720190630DS   000000020816
CONT0001083308PLAN1   541992646   230175563201907112019061720190630ROTH 000000043212
CONT0001083308PLAN1   541992646   230175563201907112019061720190630SFMAT-00000000000
CONT0001083308PLAN1   541992646   230370747201907112019061720190630SFMAT-00000000000
CONT0001083308PLAN1   541992646   230370747201907112019061720190630DS   000000034893
CONT0001083308PLAN1   541992646   230450329201907112019061720190630DS   000000014250
CONT0001083308PLAN1   541992646   230450329201907112019061720190630SFMAT-00000000000
CONT0001083308PLAN1   541992646   230537367201907112019061720190630SFMAT-00000000000
CONT0001083308PLAN1   541992646   230537367201907112019061720190630DS   000000013769
CONT0001083308PLAN1   541992646   230553638201907112019061720190630DS   000000025778
CONT0001083308PLAN1   541992646   230553638201907112019061720190630SFMAT-00000000000
CONT0001083308PLAN1   541992646   230592220201907112019061720190630SFMAT-00000000000
CONT0001083308PLAN1   541992646   230592220201907112019061720190630DS   000000023752
CONT0001083308PLAN1   541992646   230727933201907112019061720190630SFMAT-00000000000
CONT0001083308PLAN1   541992646   230727933201907112019061720190630DS   000000101512
CONT0001083308PLAN1   541992646   230757626201907112019061720190630DS   000000008837
CONT0001083308PLAN1   541992646   230757626201907112019061720190630SFMAT-00000000000
CONT0001083308PLAN1   541992646   230770361201907112019061720190630SFMAT-00000000000
CONT0001083308PLAN1   541992646   230770361201907112019061720190630DS   000000044513
CONT0001083308PLAN1   541992646   230876935201907112019061720190630DS   000000060125
CONT0001083308PLAN1   541992646   230876935201907112019061720190630SFMAT-00000000000
CONT0001083308PLAN1   541992646   230923319201907112019061720190630SFMAT-00000000000
CONT0001083308PLAN1   541992646   230923319201907112019061720190630DS   000000102259
CONT0001083308PLAN1   541992646   231170142201907112019061720190630DS   000000042397
CONT0001083308PLAN1   541992646   231170142201907112019061720190630SFMAT-00000000000
CONT0001083308PLAN1   541992646   231197322201907112019061720190630SFMAT-00000000000
CONT0001083308PLAN1   541992646   231197322201907112019061720190630DS   000000109810
CONT0001083308PLAN1   541992646   231217506201907112019061720190630DS   000000039128
CONT0001083308PLAN1   541992646   231217506201907112019061720190630SFMAT-00000000000
CONT0001083308PLAN1   541992646   231559300201907112019061720190630SFMAT-00000000000
CONT0001083308PLAN1   541992646   231559300201907112019061720190630DS   000000081390
CONT0001083308PLAN1   541992646   231616284201907112019061720190630ROTH 000000017913
CONT0001083308PLAN1   541992646   231616284201907112019061720190630SFMAT-00000000000
CONT0001083308PLAN1   541992646   231617968201907112019061720190630SFMAT-00000000000
CONT0001083308PLAN1   541992646   231617968201907112019061720190630DS   000000005515
CONT0001083308PLAN1   541992646   231710233201907112019061720190630DS   000000008818
CONT0001083308PLAN1   541992646   231710233201907112019061720190630SFMAT-00000000000
CONT0001083308PLAN1   541992646   231732054201907112019061720190630SFMAT-00000000000
CONT0001083308PLAN1   541992646   231732054201907112019061720190630DS   000000005318
CONT0001083308PLAN1   541992646   231732054201907112019061720190630ROTH 000000001773
CONT0001083308PLAN1   541992646   231755240201907112019061720190630DS   000000017409
CONT0001083308PLAN1   541992646   231755240201907112019061720190630SFMAT-00000000000
CONT0001083308PLAN1   541992646   231755740201907112019061720190630SFMAT-00000000000
CONT0001083308PLAN1   541992646   231755740201907112019061720190630DS   000000026216
CONT0001083308PLAN1   541992646   231755740201907112019061720190630ROTH 000000026216
CONT0001083308PLAN1   541992646   231880008201907112019061720190630DS   000000018720
CONT0001083308PLAN1   541992646   231880008201907112019061720190630SFMAT-00000000000
CONT0001083308PLAN1   541992646   232215384201907112019061720190630SFMAT-00000000000
CONT0001083308PLAN1   541992646   232215384201907112019061720190630DS   000000028853
CONT0001083308PLAN1   541992646   232331284201907112019061720190630DS   000000009655
CONT0001083308PLAN1   541992646   232331284201907112019061720190630ROTH 000000009655
CONT0001083308PLAN1   541992646   232331284201907112019061720190630SFMAT-00000000000
CONT0001083308PLAN1   541992646   232331379201907112019061720190630SFMAT-00000000000
CONT0001083308PLAN1   541992646   232331379201907112019061720190630ROTH 000000004105
CONT0001083308PLAN1   541992646   232331379201907112019061720190630DS   000000028736
CONT0001083308PLAN1   541992646   233175377201907112019061720190630DS   000000028223
CONT0001083308PLAN1   541992646   233175377201907112019061720190630SFMAT-00000000000
CONT0001083308PLAN1   541992646   233885788201907112019061720190630SFMAT-00000000000
CONT0001083308PLAN1   541992646   233885788201907112019061720190630DS   000000017849
CONT0001083308PLAN1   541992646   235211071201907112019061720190630DS   000000040995
CONT0001083308PLAN1   541992646   235211071201907112019061720190630SFMAT-00000000000
CONT0001083308PLAN1   541992646   235355782201907112019061720190630SFMAT-00000000000
CONT0001083308PLAN1   541992646   235355782201907112019061720190630DS   000000029758
CONT0001083308PLAN1   541992646   236270019201907112019061720190630DS   000000030459
CONT0001083308PLAN1   541992646   236270019201907112019061720190630ROTH 000000017405
CONT0001083308PLAN1   541992646   236270019201907112019061720190630SFMAT-00000000000
CONT0001083308PLAN1   541992646   238817400201907112019061720190630SFMAT-00000000000
CONT0001083308PLAN1   541992646   238817400201907112019061720190630DS   000000012910
CONT0001083308PLAN1   541992646   247476687201907112019061720190630DS   000000025720
CONT0001083308PLAN1   541992646   247476687201907112019061720190630SFMAT-00000000000
CONT0001083308PLAN1   541992646   248558928201907112019061720190630SFMAT-00000000000
CONT0001083308PLAN1   541992646   248558928201907112019061720190630DS   000000037896
CONT0001083308PLAN1   541992646   248752723201907112019061720190630DS   000000054455
CONT0001083308PLAN1   541992646   248752723201907112019061720190630SFMAT-00000000000
CONT0001083308PLAN1   541992646   248798102201907112019061720190630SFMAT-00000000000
CONT0001083308PLAN1   541992646   248798102201907112019061720190630DS   000000111564
CONT0001083308PLAN1   541992646   248878209201907112019061720190630DS   000000014617
CONT0001083308PLAN1   541992646   248878209201907112019061720190630SFMAT-00000000000
CONT0001083308PLAN1   541992646   250394923201907112019061720190630SFMAT-00000000000
CONT0001083308PLAN1   541992646   250394923201907112019061720190630DS   000000048328
CONT0001083308PLAN1   541992646   251413063201907112019061720190630DS   000000043155
CONT0001083308PLAN1   541992646   251413063201907112019061720190630SFMAT-00000000000
CONT0001083308PLAN1   541992646   251796382201907112019061720190630SFMAT-00000000000
CONT0001083308PLAN1   541992646   251796382201907112019061720190630DS   000000018350
CONT0001083308PLAN1   541992646   254898484201907112019061720190630DS   000000012332
CONT0001083308PLAN1   541992646   254898484201907112019061720190630SFMAT-00000000000
CONT0001083308PLAN1   541992646   261636223201907112019061720190630SFMAT-00000000000
CONT0001083308PLAN1   541992646   261636223201907112019061720190630DS   000000017489
CONT0001083308PLAN1   541992646   262373834201907112019061720190630DS   000000101509
CONT0001083308PLAN1   541992646   262373834201907112019061720190630SFMAT-00000000000
CONT0001083308PLAN1   541992646   265378066201907112019061720190630ROTH 000000027960
CONT0001083308PLAN1   541992646   265378066201907112019061720190630DS   000000050328
CONT0001083308PLAN1   541992646   265378066201907112019061720190630SFMAT-00000000000
CONT0001083308PLAN1   541992646   266295163201907112019061720190630SFMAT-00000000000
CONT0001083308PLAN1   541992646   266295163201907112019061720190630DS   000000144057
CONT0001083308PLAN1   541992646   267896435201907112019061720190630DS   000000017522
CONT0001083308PLAN1   541992646   267896435201907112019061720190630SFMAT-00000000000
CONT0001083308PLAN1   541992646   274563635201907112019061720190630SFMAT-00000000000
CONT0001083308PLAN1   541992646   274563635201907112019061720190630DS   000000005769
CONT0001083308PLAN1   541992646   289748074201907112019061720190630DS   000000018223
CONT0001083308PLAN1   541992646   289748074201907112019061720190630SFMAT-00000000000
CONT0001083308PLAN1   541992646   292660484201907112019061720190630SFMAT-00000000000
CONT0001083308PLAN1   541992646   292660484201907112019061720190630DS   000000017975
CONT0001083308PLAN1   541992646   296685203201907112019061720190630ROTH 000000024289
CONT0001083308PLAN1   541992646   296685203201907112019061720190630DS   000000066795
CONT0001083308PLAN1   541992646   296685203201907112019061720190630SFMAT-00000000000
CONT0001083308PLAN1   541992646   299541911201907112019061720190630SFMAT-00000000000
CONT0001083308PLAN1   541992646   299541911201907112019061720190630DS   000000032590
CONT0001083308PLAN1   541992646   306085283201907112019061720190630DS   000000068913
CONT0001083308PLAN1   541992646   306085283201907112019061720190630SFMAT-00000000000
CONT0001083308PLAN1   541992646   315867673201907112019061720190630SFMAT-00000000000
CONT0001083308PLAN1   541992646   315867673201907112019061720190630DS   000000040516
CONT0001083308PLAN1   541992646   325603512201907112019061720190630DS   000000030206
CONT0001083308PLAN1   541992646   325603512201907112019061720190630SFMAT-00000000000
CONT0001083308PLAN1   541992646   344627011201907112019061720190630SFMAT-00000000000
CONT0001083308PLAN1   541992646   344627011201907112019061720190630DS   000000027812
CONT0001083308PLAN1   541992646   352623748201907112019061720190630DS   000000041314
CONT0001083308PLAN1   541992646   352623748201907112019061720190630SFMAT-00000000000
CONT0001083308PLAN1   541992646   380042827201907112019061720190630SFMAT-00000000000
CONT0001083308PLAN1   541992646   380042827201907112019061720190630DS   000000024170
CONT0001083308PLAN1   541992646   383827123201907112019061720190630DS   000000153684
CONT0001083308PLAN1   541992646   383827123201907112019061720190630SFMAT-00000000000
CONT0001083308PLAN1   541992646   391943030201907112019061720190630DS   000000027216
CONT0001083308PLAN1   541992646   391943030201907112019061720190630SFMAT-00000000000
CONT0001083308PLAN1   541992646   403026366201907112019061720190630SFMAT-00000000000
CONT0001083308PLAN1   541992646   403026366201907112019061720190630DS   000000007154
CONT0001083308PLAN1   541992646   407580928201907112019061720190630DS   000000049672
CONT0001083308PLAN1   541992646   407580928201907112019061720190630SFMAT-00000000000
CONT0001083308PLAN1   541992646   413067888201907112019061720190630SFMAT-00000000000
CONT0001083308PLAN1   541992646   413067888201907112019061720190630DS   000000051196
CONT0001083308PLAN1   541992646   424194215201907112019061720190630DS   000000052542
CONT0001083308PLAN1   541992646   424194215201907112019061720190630SFMAT-00000000000
CONT0001083308PLAN1   541992646   432042419201907112019061720190630SFMAT-00000000000
CONT0001083308PLAN1   541992646   432042419201907112019061720190630DS   000000104845
CONT0001083308PLAN1   541992646   448886565201907112019061720190630DS   000000023582
CONT0001083308PLAN1   541992646   448886565201907112019061720190630SFMAT-00000000000
CONT0001083308PLAN1   541992646   450393693201907112019061720190630SFMAT-00000000000
CONT0001083308PLAN1   541992646   450393693201907112019061720190630DS   000000052581
CONT0001083308PLAN1   541992646   450891507201907112019061720190630DS   000000021703
CONT0001083308PLAN1   541992646   450891507201907112019061720190630SFMAT-00000000000
CONT0001083308PLAN1   541992646   460111602201907112019061720190630SFMAT-00000000000
CONT0001083308PLAN1   541992646   460111602201907112019061720190630DS   000000029131
CONT0001083308PLAN1   541992646   473728720201907112019061720190630DS   000000084409
CONT0001083308PLAN1   541992646   473728720201907112019061720190630SFMAT-00000000000
CONT0001083308PLAN1   541992646   474967386201907112019061720190630SFMAT-00000000000
CONT0001083308PLAN1   541992646   474967386201907112019061720190630DS   000000078274
CONT0001083308PLAN1   541992646   481130609201907112019061720190630DS   000000019097
CONT0001083308PLAN1   541992646   481130609201907112019061720190630SFMAT-00000000000
CONT0001083308PLAN1   541992646   494941790201907112019061720190630SFMAT-00000000000
CONT0001083308PLAN1   541992646   494941790201907112019061720190630DS   000000015451
CONT0001083308PLAN1   541992646   494941790201907112019061720190630ROTH 000000009270
CONT0001083308PLAN1   541992646   495908614201907112019061720190630DS   000000042670
CONT0001083308PLAN1   541992646   495908614201907112019061720190630SFMAT-00000000000
CONT0001083308PLAN1   541992646   495987252201907112019061720190630SFMAT-00000000000
CONT0001083308PLAN1   541992646   495987252201907112019061720190630DS   000000022810
CONT0001083308PLAN1   541992646   502235165201907112019061720190630DS   000000011264
CONT0001083308PLAN1   541992646   502235165201907112019061720190630SFMAT-00000000000
CONT0001083308PLAN1   541992646   514904259201907112019061720190630SFMAT-00000000000
CONT0001083308PLAN1   541992646   514904259201907112019061720190630DS   000000024138
CONT0001083308PLAN1   541992646   520211627201907112019061720190630DS   000000019902
CONT0001083308PLAN1   541992646   520211627201907112019061720190630SFMAT-00000000000
CONT0001083308PLAN1   541992646   527594625201907112019061720190630SFMAT-00000000000
CONT0001083308PLAN1   541992646   527594625201907112019061720190630DS   000000053614
CONT0001083308PLAN1   541992646   530982094201907112019061720190630DS   000000020886
CONT0001083308PLAN1   541992646   530982094201907112019061720190630SFMAT-00000000000
CONT0001083308PLAN1   541992646   543087909201907112019061720190630SFMAT-00000000000
CONT0001083308PLAN1   541992646   543087909201907112019061720190630DS   000000053088
CONT0001083308PLAN1   541992646   548312932201907112019061720190630DS   000000017955
CONT0001083308PLAN1   541992646   548312932201907112019061720190630SFMAT-00000000000
CONT0001083308PLAN1   541992646   551459509201907112019061720190630SFMAT-00000000000
CONT0001083308PLAN1   541992646   551459509201907112019061720190630DS   000000017875
CONT0001083308PLAN1   541992646   552774106201907112019061720190630DS   000000031674
CONT0001083308PLAN1   541992646   552774106201907112019061720190630SFMAT-00000000000
CONT0001083308PLAN1   541992646   560976899201907112019061720190630SFMAT-00000000000
CONT0001083308PLAN1   541992646   560976899201907112019061720190630DS   000000015304
CONT0001083308PLAN1   541992646   561835486201907112019061720190630DS   000000011319
CONT0001083308PLAN1   541992646   561835486201907112019061720190630SFMAT-00000000000
CONT0001083308PLAN1   541992646   563965936201907112019061720190630SFMAT-00000000000
CONT0001083308PLAN1   541992646   563965936201907112019061720190630DS   000000034153
CONT0001083308PLAN1   541992646   575733344201907112019061720190630DS   000000013299
CONT0001083308PLAN1   541992646   575733344201907112019061720190630SFMAT-00000000000
CONT0001083308PLAN1   541992646   577194577201907112019061720190630SFMAT-00000000000
CONT0001083308PLAN1   541992646   577194577201907112019061720190630DS   000000014320
CONT0001083308PLAN1   541992646   585272912201907112019061720190630DS   000000029807
CONT0001083308PLAN1   541992646   585272912201907112019061720190630SFMAT-00000000000
CONT0001083308PLAN1   541992646   586219245201907112019061720190630SFMAT-00000000000
CONT0001083308PLAN1   541992646   586219245201907112019061720190630DS   000000007529
CONT0001083308PLAN1   541992646   589436435201907112019061720190630DS   000000007538
CONT0001083308PLAN1   541992646   589436435201907112019061720190630SFMAT-00000000000
CONT0001083308PLAN1   541992646   590961670201907112019061720190630SFMAT-00000000000
CONT0001083308PLAN1   541992646   590961670201907112019061720190630DS   000000018412
CONT0001083308PLAN1   541992646   600233007201907112019061720190630DS   000000088607
CONT0001083308PLAN1   541992646   600233007201907112019061720190630SFMAT-00000000000
CONT0001083308PLAN1   541992646   600548170201907112019061720190630SFMAT-00000000000
CONT0001083308PLAN1   541992646   600548170201907112019061720190630DS   000000004906
CONT0001083308PLAN1   541992646   613389217201907112019061720190630DS   000000017949
CONT0001083308PLAN1   541992646   613389217201907112019061720190630SFMAT-00000000000
CONT0001083308PLAN1   541992646   620205380201907112019061720190630SFMAT-00000000000
CONT0001083308PLAN1   541992646   620205380201907112019061720190630DS   000000029868
CONT0001083308PLAN1   541992646   622681514201907112019061720190630DS   000000036881
CONT0001083308PLAN1   541992646   622681514201907112019061720190630SFMAT-00000000000
CONT0001083308PLAN1   541992646   626053658201907112019061720190630SFMAT-00000000000
CONT0001083308PLAN1   541992646   626053658201907112019061720190630DS   000000020175
CONT0001083308PLAN1   541992646   694054629201907112019061720190630DS   000000012940
CONT0001083308PLAN1   541992646   694054629201907112019061720190630SFMAT-00000000000
LNRP0001083308PLAN1   541992646   0246098032019071120190630000000015474
LNRP0001083308PLAN1   541992646   1127276632019071120190630000000008806
LNRP0001083308PLAN1   541992646   1368842792019071120190630000000030638
LNRP0001083308PLAN1   541992646   1385899792019071120190630000000018365
LNRP0001083308PLAN1   541992646   1605444302019071120190630000000021191
LNRP0001083308PLAN1   541992646   2201550932019071120190630000000028531
LNRP0001083308PLAN1   541992646   2234963162019071120190630000000027943
LNRP0001083308PLAN1   541992646   2235589902019071120190630000000004176
LNRP0001083308PLAN1   541992646   2241585082019071120190630000000049680
LNRP0001083308PLAN1   541992646   2250484432019071120190630000000009148
LNRP0001083308PLAN1   541992646   2254738482019071120190630000000018187
LNRP0001083308PLAN1   541992646   2281354962019071120190630000000008545
LNRP0001083308PLAN1   541992646   2294319002019071120190630000000023370
LNRP0001083308PLAN1   541992646   2316179682019071120190630000000006319
LNRP0001083308PLAN1   541992646   2503949232019071120190630000000011173
LNRP0001083308PLAN1   541992646   4029420052019071120190630000000030638
LNRP0001083308PLAN1   541992646   4737287202019071120190630000000042725
LNRP0001083308PLAN1   541992646   5527741062019071120190630000000016425
CNTR0001083308000000000516000000000498000009002245000000000018000000371334
