*03001820000041291356200                                                             
00000014920427220000041291356203200000149760BRUNO MENDOZA                            
00000014930427220000041291356203200000159866SANTOS MENDEZ JIMON                      
00000014940427220000041291356203200000155757SANTOS BENITEZ                           
00000014950427220000041291356203200000170153JUAN M. BALTAZAR MARTINEZ                
00000014960427220000041291356203200000160688OLBIN IZAGUIRRE                          
00000014970427220000041291356203200000144617MOISES SALDIVAR SANCHEZ                  
00000014980427220000041291356203200000162075ANGEL MORALES GONZALEZ                   
00000014990427220000041291356203200000155757JOSE ANTONIO CASTANEDA                   
00000015000427220000041291356203200000139694OJILVIO AYALA VEGA                       
00000015010427220000041291356203200000012929ALAN ROMERO CALDERON                     
00000015020427220000041291356203200000000000RENE IZAGUIRREZ                          
&              0000011   0000001411296                                               
