20220429G000BW7JM400351584 Sallee                             Monte                     M19810328                                                                                                                                                                                                                   2010090420211220                                                                    202112200001                                                                      20220425H0000000000002607                                                                                                            20211220A001                                                                                                                                                                                                                                                                                                                                                                                                                          320211220ENETL0CEEVALC    202112200000250000           420220401ENETL0CSPVALC    202204010000100000           520220401ENETL0CDPVALC    202204010000010000           c20211220ENBTA0CEEVALC    202112200000250000           e20220401ENBTA0CSPVALC    202204010000100000           d20220401ENBTA0CDPVALC    202204010000010000           Q20220401ENYTS000CSALC
20220429G000BW7JM269828386 Derf Wheeler                       Amanda                    F19840130                                                                                                                                                                                                                   2014083020211220                                                                    202112200001                                                                      20220425H0000000000002485                                                                                                            20211220A001                                                                                                                                                                                                                                                                                                                                                                                                                          320211220ENETL0CEEVALC    202112200000200000           420220401ENETL0CSPVALC    202204010000050000           520220401ENETL0CDPVALC    202204010000010000           c20211220ENBTA0CEEVALC    202112200000200000           e20220401ENBTA0CSPVALC    202204010000050000           d20220401ENBTA0CDPVALC    202204010000010000                                 
20220429G000BW7JM276948748 Wagner                             Sarah                     F19910518                                                                                                                                                                                                                   2014121520211220                                                                    202112200001                                                                      20220425H0000000000002266                                                                                                            20211220A001                                                                                                                                                                                                                                                                                                                                                                                                                          320211220ENETL0CEEVALC    202112200000020000                                                                  520220401ENETL0CDPVALC    202204010000010000           c20211220ENBTA0CEEVALC    202112200000020000                                                                  d20220401ENBTA0CDPVALC    202204010000010000                                 
20220429G000BW7JM405432355 Middleton                          Myia                      F19920131                                                                                                                                                                                                                   2015012120211220                                                                    202112200001                                                                      20220425H0000000000002453                                                                                                            20211220A001                                                                                                                                                                                                                                                                                                                                                                                                                          320220401ENETL0CEEVALC    202204010000020000           420220401ENETL0CSPVALC    202204010000020000                                                                  c20220401ENBTA0CEEVALC    202204010000020000           e20220401ENBTA0CSPVALC    202204010000020000                                                                  Q20220401ENYTS000CSALC
20220429G000BW7JM400239662 Christensen                        Tim                       M19830822                                                                                                                                                                                                                   2020090520211220                                                                    202112200001                                                                      20220425A0000000005900000                                                                                                            20211220A001                                                                                                                                                                                                                                                                                                                                                                                                                          320211220ENETL0CEEVALC    202112200000300000           420211220ENETL0CSPVALC    202112200000050000                                                                  c20211220ENBTA0CEEVALC    202112200000300000           e20211220ENBTA0CSPVALC    202112200000050000                                                                                        
20220429G000BW7JH400239662 Christensen                        Lee                       M19730209                                                                                                                                                                                                                   2020090520211220                                                                    202112200001                                                                      20220425A0000000005900000                                                                                                            20211220A001                                                                                                                                                                                                                                                                                                                                                                                                                                                                                 420220401ENETL0CSPVALC    202204010000050000                                                                                                                         e20220401ENBTA0CSPVALC    202204010000050000                                                                                        
20220429G000BW7JM406965681 Thiel                              Diana                     F19590407                                                                                                                                                                                                                   2012090820211220                                                                    202112200001                                                                      20220425H0000000000002771                                                                                                            20211220A001                                                                                                                                                                                                                                                                                                                                                                                                                          320211220ENETL0CEEVALC    202112200000020000                                                                                                                         c20211220ENBTA0CEEVALC    202112200000020000                                                                                                                                               
20220429G000BW7JM407412640 Williams                           Allison                   F19910602                                                                                                                                                                                                                   2016091420211220                                                                    202112200001                                                                      20220425H0000000000002485                                                                                                            20211220A001                                                                                                                                                                                                                                                                                                                                                                                                                          320211220ENETL0CEEVALC    202112200000100000           420220401ENETL0CSPVALC    202204010000050000                                                                  c20211220ENBTA0CEEVALC    202112200000100000           e20220401ENBTA0CSPVALC    202204010000050000                                                                  Q20211220ENYTS000CSALC
20220429G000BW7JM402374303 Couch                              Tiffany                   F19880915                                                                                                                                                                                                                   2017051720211220                                                                    202112200001                                                                      20220425H0000000000002360                                                                                                            20211220A001                                                                                                                                                                                                                                                                                                                                                                                                                          320220313TMETL0CEEVALC    202112200000050000                                                                                                                         c20220313TMBTA0CEEVALC    202112200000050000                                                                                                                                               
20220429G000BW7JM007821631 Smith                              Amber                     F19830719                                                                                                                                                                                                                   2018091120211220                                                                    202112200001                                                                      20220425A0000000004810000                                                                                                            20211220A001                                                                                                                                                                                                                                                                                                                                                                                                                          320211220ENETL0CEEVALC    202112200000100000                                                                                                                         c20211220ENBTA0CEEVALC    202112200000100000                                                                                                                                               
20220429G000BW7JM401174294 Gabbard                            Steven                    M19641001                                                                                                                                                                                                                   2021011320211220                                                                    202112200001                                                                      20220425H0000000000002210                                                                                                            20211220A001                                                                                                                                                                                                                                                                                                                                                                                                                          320211220ENETL0CEEVALC    202112200000010000                                                                                                                         c20211220ENBTA0CEEVALC    202112200000010000                                                                                                                         Q20211220ENYTS000CSALC
20220429G000BW7JM375946564 Merlo Poole                        Kerry                     F19691109                                                                                                                                                                                                                   2017082320211220                                                                    202112200001                                                                      20211220A0000000005000000                                                                                                            20211220A001                                                                                                                                                                                                                                                                                                                                                                                                                          320211220ENETL0CEEVALC    202112200000200000                                                                                                                         c20211220ENBTA0CEEVALC    202112200000200000                                                                                                                                               
20220429G000BW7JM273909644 Baum                               Sarah                     F19861002                                                                                                                                                                                                                   2008010320211220                                                                    202112200001                                                                      20220425H0000000000002200                                                                                                            20211220A001                                                                                                                                                                                                                                                                                                                                                                                                                          320211220ENETL0CEEVALC    202112200000170000                                                                                                                         c20211220ENBTA0CEEVALC    202112200000170000                                                                                                                         Q20211220ENYTS000CSALC
20220429G000BW7JM462619456 Ross                               Tiffany                   F19800825                                                                                                                                                                                                                   2008010320211220                                                                    202112200001                                                                      20211220A0000000004800000                                                                                                            20211220A001                                                                                                                                                                                                                                                                                                                                                                                                                          320211220ENETL0CEEVALC    202112200000040000           420211220ENETL0CSPVALC    202112200000020000           520211220ENETL0CDPVALC    202112200000010000           c20211220ENBTA0CEEVALC    202112200000040000           e20211220ENBTA0CSPVALC    202112200000020000           d20211220ENBTA0CDPVALC    202112200000010000           Q20211220ENYTS000CSALC
20220429G000BW7JH462619456 Ross                               SCOTT                     M19740803                                                                                                                                                                                                                   2008010320211220                                                                    202112200001                                                                      20211220A0000000004800000                                                                                                            20211220A001                                                                                                                                                                                                                                                                                                                                                                                                                          320211220ENETL0CEEVALC    202112200000040000                                                                                                                         c20211220ENBTA0CEEVALC    202112200000040000                                                                                                                                               
20220429G000BW7JS462619456 Ross                               Gunnar                    M20081112                                                                                                                                                                                                                   2008010320211220                                                                    202112200001                                                                      20211220A0000000004800000                                                                                                            20211220A001                                                                                                                                                                                                                                                                                                                                                                                                                          320211220ENETL0CEEVALC    202112200000040000                                                                                                                         c20211220ENBTA0CEEVALC    202112200000040000                                                                                                                                               
20220429G000BW7JM402047148 Sharkey                            Charlotte                 F19680207                                                                                                                                                                                                                   2010072320211220                                                                    202112200001                                                                      20220425H0000000000002496                                                                                                            20211220A001                                                                                                                                                                                                                                                                                                                                                                                                                          320211220ENETL0CEEVALC    202112200000020000                                                                  520220401ENETL0CDPVALC    202204010000010000           c20211220ENBTA0CEEVALC    202112200000020000                                                                  d20220401ENBTA0CDPVALC    202204010000010000           Q20220401ENYTS000CSALC
20220429G000BW7JM289687868 Drumwright                         Karen                     F19680327                                                                                                                                                                                                                   2010072620211220                                                                    202112200001                                                                      20220425H0000000000002155                                                                                                            20211220A001                                                                                                                                                                                                                                                                                                                                                                                                                          320211220ENETL0CEEVALC    202112200000200000                                                                                                                         c20211220ENBTA0CEEVALC    202112200000200000                                                                                                                         Q20211220ENYTS000CSALC
20220429G000BW7JM279864744 Robb                               Casey                     F19800110                                                                                                                                                                                                                   2015051420211220                                                                    202112200001                                                                      20220425A0000000006050000                                                                                                            20211220A001                                                                                                                                                                                                                                                                                                                                                                                                                          320211220ENETL0CEEVALC    202112200000100000           420220401ENETL0CSPVALC    202204010000010000           520211220ENETL0CDPVALC    202112200000010000           c20211220ENBTA0CEEVALC    202112200000100000           e20220401ENBTA0CSPVALC    202204010000010000           d20211220ENBTA0CDPVALC    202112200000010000           Q20220401ENYTS000CSALC
20220429G000BW7JM180742075 Mann                               Julie                     F19930127                                                                                                                                                                                                                   2019100120211220                                                                    202112200001                                                                      20220425H0000000000001477                                                                                                            20211220A001                                                                                                                                                                                                                                                                                                                                                                                                                          320220401ENETL0CEEVALC    202204010000100000                                                                                                                         c20220401ENBTA0CEEVALC    202204010000100000                                                                                                                                               
20220429G000BW7JM372176689 Fagelman                           Amanda                    F19940614                                                                                                                                                                                                                   2017100920211220                                                                    202112200001                                                                      20220425A0000000005683700                                                                                                            20211220A001                                                                                                                                                                                                                                                                                                                                                                                                                          320220401ENETL0CEEVALC    202204010000030000                                                                                                                         c20220401ENBTA0CEEVALC    202204010000030000                                                                                                                                               
20220429G000BW7JM269804852 Mcconoughey                        Stefani                   F19810818                                                                                                                                                                                                                   2008042720211220                                                                    202112200001                                                                      20211220H0000000000002250                                                                                                            20211220A001                                                                                                                                                                                                                                                                                                                                                                                                                          320211220ENETL0CEEVALC    202112200000180000           420211220ENETL0CSPVALC    202112200000050000           520211220ENETL0CDPVALC    202112200000010000           c20211220ENBTA0CEEVALC    202112200000180000           e20211220ENBTA0CSPVALC    202112200000050000           d20211220ENBTA0CDPVALC    202112200000010000                                 
20220429G000BW7JM298805600 Mccullough                         Andreana                  F19800511                                                                                                                                                                                                                   2010030820211220                                                                    202112200001                                                                      20211220H0000000000002300                                                                                                            20211220A001                                                                                                                                                                                                                                                                                                                                                                                                                                                                                                                                                                                                                                                                                                                                                                    Q20211220ENYTS000CSALC
20220429G000BW7JM284928773 Bailey                             Chelsea                   F19900621                                                                                                                                                                                                                   2013092020211220                                                                    202112200001                                                                      20211220H0000000000002100                                                                                                            20211220A001                                                                                                                                                                                                                                                                                                                                                                                                                                                                                                                                                                                                                                                                                                                                                                    Q20220213TMYTS000CSALC
20220429G000BW7JM289684343 Burres                             Irma                      F19750313                                                                                                                                                                                                                   2016100520211220                                                                    202112200001                                                                      20211220H0000000000002125                                                                                                            20211220A001                                                                                                                                                                                                                                                                                                                                                                                                                          320211220ENETL0CEEVALC    202112200000010000                                                                                                                         c20211220ENBTA0CEEVALC    202112200000010000                                                                                                                                               
20220429G000BW7JM484191386 Swanson                            Jasmine                   F19910720                                                                                                                                                                                                                   2019092920220103                                                                    202201030001                                                                      20220103H0000000000001350                                                                                                            20220103A001                                                                                                                                                                                                                                                                                                                                                                                                                                                                                                                                                                                                                                                                                                                                                                    Q20220213TMYTS000CSALC
20220429G000BW7JM329664652 Irwin                              Lisa                      F19641014                                                                                                                                                                                                                   2013122720211220                                                                    202112200001                                                                      20220425H0000000000002200                                                                                                            20211220A001                                                                                                                                                                                                                                                                                                                                                                                                                          320211220ENETL0CEEVALC    202112200000010000                                                                                                                         c20211220ENBTA0CEEVALC    202112200000010000                                                                                                                         Q20211220ENYTS000CSALC
20220429G000BW7JM299983566 Fussner                            Richard                   M19960505                                                                                                                                                                                                                   2018080920211220                                                                    202112200001                                                                      20220425H0000000000002225                                                                                                            20211220A001                                                                                                                                                                                                                                                                                                                                                                                                                                                                                                                                                                                                                                                                                                                                                                    Q20220401ENYTS000CSALC
20220429G000BW7JM299881086 Moore                              Theresa                   F19760428                                                                                                                                                                                                                   2018120420220117                                                                    202201170001                                                                      20220425H0000000000002425                                                                                                            20220117A001                                                                                                                                                                                                                                                                                                                                                                                                                          320220117ENETL0CEEVALC    202201170000150000                                                                  520220117ENETL0CDPVALC    202201170000010000           c20220117ENBTA0CEEVALC    202201170000150000                                                                  d20220117ENBTA0CDPVALC    202201170000010000           Q20220117ENYTS000CSALC
20220429G000BW7JS299881086 Moore                              Austin                    M20020820                                                                                                                                                                                                                   2018120420220117                                                                    202201170001                                                                      20220425H0000000000002425                                                                                                            20220117A001                                                                                                                                                                                                                                                                                                                                                                                                                                                                                                                                        520210401TMETL0CDPVALC    202104010000010000                                                                                                                         d20210401TMBTA0CDPVALC    202104010000010000                                 
20220429G000BW7JM284927367 Willis                             Stephen                   M19900711                                                                                                                                                                                                                   2021112220211220                                                                    202112200001                                                                      20211220H0000000000001500                                                                                                            20211220A001                                                                                                                                                                                                                                                                                                                                                                                                                          320220313TMETL0CEEVALC    202105010000050000                                                                                                                         c20220313TMBTA0CEEVALC    202105010000050000                                                                                                                         Q20220313TMYTS000CSALC
20220429G000BW7JM281043757 Flannigan                          Janice                    F19770515                                                                                                                                                                                                                   2020090520211220                                                                    202112200001                                                                      20220425A0000000006150000                                                                                                            20211220A001                                                                                                                                                                                                                                                                                                                                                                                                                          320211220ENETL0CEEVALC    202112200000180000                                                                  520211220ENETL0CDPVALC    202112200000010000           c20211220ENBTA0CEEVALC    202112200000180000                                                                  d20211220ENBTA0CDPVALC    202112200000010000           Q20211220ENYTS000CSALC
20220429G000BW7JM283928331 Smiley                             Tyanna                    F19870618                                                                                                                                                                                                                   2020121520211220                                                                    202112200001                                                                      20211220A0000000004800000                                                                                                            20211220A001                                                                                                                                                                                                                                                                                                                                                                                                                          320211220ENETL0CEEVALC    202112200000050000                                                                                                                         c20211220ENBTA0CEEVALC    202112200000050000                                                                                                                                               
20220429G000BW7JM199729133 Habetz                             Jennifer                  F19890507                                                                                                                                                                                                                   2012110620211220                                                                    202112200001                                                                      20220228H0000000000002200                                                                                                            20211220A001                                                                                                                                                                                                                                                                                                                                                                                                                          320211220ENETL0CEEVALC    202112200000020000                                                                                                                         c20211220ENBTA0CEEVALC    202112200000020000                                                                                                                                               
20220429G000BW7JM619824154 Denny                              Letitia                   F19950519                                                                                                                                                                                                                   2015102820211220                                                                    202112200001                                                                      20220425H0000000000002168                                                                                                            20211220A001                                                                                                                                                                                                                                                                                                                                                                                                                          320211220ENETL0CEEVALC    202112200000050000           420220401ENETL0CSPVALC    202204010000050000                                                                  c20211220ENBTA0CEEVALC    202112200000050000           e20220401ENBTA0CSPVALC    202204010000050000                                                                                        
20220429G000BW7JM270843910 Drew                               Jennifer                  F19691127                                                                                                                                                                                                                   2017020320211220                                                                    202112200001                                                                      20211220A0000000004612500                                                                                                            20211220A001                                                                                                                                                                                                                                                                                                                                                                                                                          320211220ENETL0CEEVALC    202112200000030000                                                                                                                         c20211220ENBTA0CEEVALC    202112200000030000                                                                                                                                               
20220429G000BW7JM400272485 Rummel                             Susan                     F19680808                                                                                                                                                                                                                   2020071020211220                                                                    202112200001                                                                      20220425H0000000000001425                                                                                                            20211220A001                                                                                                                                                                                                                                                                                                                                                                                                                          320211220ENETL0CEEVALC    202112200000020000                                                                                                                         c20211220ENBTA0CEEVALC    202112200000020000                                                                                                                         Q20220401ENYTS000CSALC
20220429G000BW7JM365040957 Miller                             Tonya                     F19870813                                                                                                                                                                                                                   2019090420211220                                                                    202112200001                                                                      20220425H0000000000001625                                                                                                            20211220A001                                                                                                                                                                                                                                                                                                                                                                                                                          320211220ENETL0CEEVALC    202112200000140000                                                                  520211220ENETL0CDPVALC    202112200000010000           c20211220ENBTA0CEEVALC    202112200000140000                                                                  d20211220ENBTA0CDPVALC    202112200000010000                                 
20220429G000BW7JM157522404 Fish                               Robert                    M19720817                                                                                                                                                                                                                   2019042920210401                                                                    202104010001                                                                      20210315A0000000030076664                                                                                                            20210401A001                                                                                                                                                                                                                                                                                                                                                                                                                          320210401ENETL0CEEVALC    202104010000000000                                                                                                                         c20210401ENBTA0CEEVALC    202104010000000000                                                                                                                         Q20210401ENYTS000CSALC
20220429G000BW7JS157522404 Fish                               Chaitan                   M20020130                                                                                                                                                                                                                   2019042920210401                                                                    202104010001                                                                      20210315A0000000030076664                                                                                                            20210401A001                                                                                                                                                                                                                                                                                                                                                                                                                                                                                                                                        520210401ENETL0CDPVALC    202104010000010000                                                                                                                         d20210401ENBTA0CDPVALC    202104010000010000                                 
20220429G000BW7JS157522404 Fish                               Ras                       M19971011                                                                                                                                                                                                                   2019042920210401                                                                    202104010001                                                                      20210315A0000000030076664                                                                                                            20210401A001                                                                                                                                                                                                                                                                                                                                                                                                                                                                                                                                        520210401ENETL0CDPVALC    202104010000010000                                                                                                                         d20210401ENBTA0CDPVALC    202104010000010000                                 
20220429G000BW7JW157522404 Fish                               Renate                    F19711001                                                                                                                                                                                                                   2019042920210401                                                                    202104010001                                                                      20210315A0000000030076664                                                                                                            20210401A001                                                                                                                                                                                                                                                                                                                                                                                                                                                                                 420210401ENETL0CSPVALC    202104010000000000                                                                                                                         e20210401ENBTA0CSPVALC    202104010000000000                                                                                        
20220429G000BW7JM600221901 Manke                              Spencer                   M19701118                                                                                                                                                                                                                   2020021020210401                                                                    202104010001                                                                      20210315A0000000023606352                                                                                                            20210401A001                                                                                                                                                                                                                                                                                                                                                                                                                                                                                                                                                                                                                                                                                                                                                                    Q20210401ENYTS000CSALC
20220429G000BW7JM270821669 Markham                            Amy                       F19710420                                                                                                                                                                                                                   2009111020210401                                                                    202104010001                                                                      20210412A0000000016360000                                                                                                            20210401A001                                                                                                                                                                                                                                                                                                                                                                                                                                                                                                                                                                                                                                                                                                                                                                    Q20210401ENYTS000CSALC
20220429G000BW7JM595455764 Mariscal                           Jordan                    F19941021                                                                                                                                                                                                                   2015121720210401                                                                    202104010001                                                                      20210412A0000000004800000                                                                                                            20210401A001                                                                                                                                                                                                                                                                                                                                                                                                                          320220401ENETL0CEEVALC    202204010000100000                                                                                                                         c20220401ENBTA0CEEVALC    202204010000100000                                                                                                                         Q20210401ENYTS000CSALC
20220429G000BW7JM021729838 Sector                             Aliza                     F19891012                                                                                                                                                                                                                   2020111020210401                                                                    202104010001                                                                      20201116A0000000005500000                                                                                                            20210401A001                                                                                                                                                                                                                                                                                                                                                                                                                          320210401TMETL0CEEVALC    202104010000030000                                                                                                                         c20210401TMBTA0CEEVALC    202104010000030000                                                                                                                         Q20210401TMYTS000CSALC
20220429G000BW7JM525375807 Price                              Nancy                     F19691115                                                                                                                                                                                                                   2019111820210401                                                                    202104010001                                                                      20220425A0000000009594400                                                                                                            20210401A001                                                                                                                                                                                                                                                                                                                                                                                                                          320210401ENETL0CEEVALC    202104010000010000                                                                                                                         c20210401ENBTA0CEEVALC    202104010000010000                                                                                                                                               
20220429G000BW7JM360787098 Alex                               Cristin                   F19810310                                                                                                                                                                                                                   2019081920210401                                                                    202104010001                                                                      20210412A0000000010763500                                                                                                            20210401A001                                                                                                                                                                                                                                                                                                                                                                                                                          320210401ENETL0CEEVALC    202104010000100000                                                                                                                         c20210401ENBTA0CEEVALC    202104010000100000                                                                                                                                               
20220429G000BW7JM537291899 Esser                              Rebecca                   F19880825                                                                                                                                                                                                                   2019102520210401                                                                    202104010001                                                                      20220411H0000000000002000                                                                                                            20210401A001                                                                                                                                                                                                                                                                                                                                                                                                                                                                                                                                                                                                                                                                                                                                                                    Q20210401ENYTS000CSALC
20220429G000BW7JM225350337 Contreras Garay                    Antonia                   F19781224                                                                                                                                                                                                                   2004021520210401                                                                    202104010001                                                                      20211206H0000000000002585                                                                                                            20210401A001                                                                                                                                                                                                                                                                                                                                                                                                                          320210401ENETL0CEEVALC    202104010000200000                                                                  520210401ENETL0CDPVALC    202104010000010000           c20210401ENBTA0CEEVALC    202104010000200000                                                                  d20210401ENBTA0CDPVALC    202104010000010000           Q20210401ENYTS000CSALC
20220429G000BW7JS225350337 Garay                              Isaiah                    M20000918                                                                                                                                                                                                                   2004021520210401                                                                    202104010001                                                                      20211206H0000000000002585                                                                                                            20210401A001                                                                                                                                                                                                                                                                                                                                                                                                                                                                                                                                        520210401ENETL0CDPVALC    202104010000010000                                                                                                                         d20210401ENBTA0CDPVALC    202104010000010000                                 
20220429G000BW7JM601392194 Martinez                           Michael                   F19780328                                                                                                                                                                                                                   2005040220210401                                                                    202104010001                                                                      20220321H0000000000002613                                                                                                            20210401A001                                                                                                                                                                                                                                                                                                                                                                                                                          320210401ENETL0CEEVALC    202104010000010000                                                                  520210401ENETL0CDPVALC    202104010000010000           c20210401ENBTA0CEEVALC    202104010000010000                                                                  d20210401ENBTA0CDPVALC    202104010000010000           Q20220401ENYTS000CSALC
20220429G000BW7JS601392194 Mavis                              Sergio                    M20031028                                                                                                                                                                                                                   2005040220210401                                                                    202104010001                                                                      20220321H0000000000002613                                                                                                            20210401A001                                                                                                                                                                                                                                                                                                                                                                                                                                                                                                                                        520210401ENETL0CDPVALC    202104010000010000                                                                                                                         d20210401ENBTA0CDPVALC    202104010000010000                                 
20220429G000BW7JM527918588 Talamantes                         Maribel                   F19801125                                                                                                                                                                                                                   2005062520210401                                                                    202104010001                                                                      20210412H0000000000002700                                                                                                            20210401A001                                                                                                                                                                                                                                                                                                                                                                                                                          320220401ENETL0CEEVALC    202204010000100000                                                                                                                         c20220401ENBTA0CEEVALC    202204010000100000                                                                                                                                               
20220429G000BW7JM562614766 Finney                             David                     M19800422                                                                                                                                                                                                                   2005122820210401                                                                    202104010001                                                                      20211206H0000000000002645                                                                                                            20210401A001                                                                                                                                                                                                                                                                                                                                                                                                                          320210401ENETL0CEEVALC    202104010000000000                                                                                                                         c20210401ENBTA0CEEVALC    202104010000000000                                                                                                                         Q20210401ENYTS000CSALC
20220429G000BW7JM549611458 Gile                               Johnathan                 M19780731                                                                                                                                                                                                                   2006063020210401                                                                    202104010001                                                                      20210412H0000000000002540                                                                                                            20210401A001                                                                                                                                                                                                                                                                                                                                                                                                                          320210401ENETL0CEEVALC    202104010000200000                                                                                                                         c20210401ENBTA0CEEVALC    202104010000200000                                                                                                                         Q20210401ENYTS000CSALC
20220429G000BW7JS456712389 Brock                              Dominque                  M20060912                                                                                                                                                                                                                   2006121420210401                                                                    202104010001                                                                      20210412H0000000000002260                                                                                                            20210401A001                                                                                                                                                                                                                                                                                                                                                                                                                                                                                                                                        520210401TMETL0CDPVALC    202104010000010000                                                                                                                         d20210401TMBTA0CDPVALC    202104010000010000                                 
20220429G000BW7JS456712389 Brock                              James                     M20100516                                                                                                                                                                                                                   2006121420210401                                                                    202104010001                                                                      20210412H0000000000002260                                                                                                            20210401A001                                                                                                                                                                                                                                                                                                                                                                                                                                                                                                                                        520210401TMETL0CDPVALC    202104010000010000                                                                                                                         d20210401TMBTA0CDPVALC    202104010000010000                                 
20220429G000BW7JS456712389 Hernandez                          Anthony                   M19990408                                                                                                                                                                                                                   2006121420210401                                                                    202104010001                                                                      20210412H0000000000002260                                                                                                            20210401A001                                                                                                                                                                                                                                                                                                                                                                                                                                                                                                                                        520210401TMETL0CDPVALC    202104010000010000                                                                                                                         d20210401TMBTA0CDPVALC    202104010000010000                                 
20220429G000BW7JM341566642 Adams                              Dorraine                  F19641210                                                                                                                                                                                                                   2006122620210401                                                                    202104010001                                                                      20220425H0000000000002700                                                                                                            20210401A001                                                                                                                                                                                                                                                                                                                                                                                                                          320210401ENETL0CEEVALC    202104010000200000                                                                                                                         c20210401ENBTA0CEEVALC    202104010000200000                                                                                                                         Q20210401ENYTS000CSALC
20220429G000BW7JM331747832 Erhart                             Leann                     F19680616                                                                                                                                                                                                                   2007040420210401                                                                    202104010001                                                                      20220425H0000000000002250                                                                                                            20210401A001                                                                                                                                                                                                                                                                                                                                                                                                                                                                                                                                                                                                                                                                                                                                                                    Q20210401ENYTS000CSALC
20220429G000BW7JM365640984 Deadrick                           Rhonda                    F19600324                                                                                                                                                                                                                   2007040620210401                                                                    202104010001                                                                      20211206H0000000000002575                                                                                                            20210401A001                                                                                                                                                                                                                                                                                                                                                                                                                                                                                                                                                                                                                                                                                                                                                                    Q20210401ENYTS000CSALC
20220429G000BW7JM318786885 Wood                               Christopher               M19770831                                                                                                                                                                                                                   2007080220210401                                                                    202104010001                                                                      20220314H0000000000002288                                                                                                            20210401A001                                                                                                                                                                                                                                                                                                                                                                                                                                                                                                                                                                                                                                                                                                                                                                    Q20220410TMYTS000CSALC
20220429G000BW7JM601746148 Fleming                            Raylena                   F19880312                                                                                                                                                                                                                   2007083020210401                                                                    202104010001                                                                      20210412H0000000000002248                                                                                                            20210401A001                                                                                                                                                                                                                                                                                                                                                                                                                          320220401ENETL0CEEVALC    202204010000010000                                                                                                                         c20220401ENBTA0CEEVALC    202204010000010000                                                                                                                                               
20220429G000BW7JM339585806 Lewis                              Karla                     F19580906                                                                                                                                                                                                                   2007100520210401                                                                    202104010001                                                                      20220425H0000000000002500                                                                                                            20210401A001                                                                                                                                                                                                                                                                                                                                                                                                                          320210401ENETL0CEEVALC    202104010000010000                                                                                                                         c20210401ENBTA0CEEVALC    202104010000010000                                                                                                                         Q20210401ENYTS000CSALC
20220429G000BW7JM533762142 Gunberg                            Scott                     M19700801                                                                                                                                                                                                                   2007110620210401                                                                    202104010001                                                                      20220321H0000000000002500                                                                                                            20210401A001                                                                                                                                                                                                                                                                                                                                                                                                                                                                                                                                                                                                                                                                                                                                                                    Q20220401ENYTS000CSALC
20220429G000BW7JM318029469 Kadigrova                          Elena                     F19790620                                                                                                                                                                                                                   2008031220210401                                                                    202104010001                                                                      20210412H0000000000002200                                                                                                            20210401A001                                                                                                                                                                                                                                                                                                                                                                                                                                                                                                                                                                                                                                                                                                                                                                    Q20220401ENYTS000CSALC
20220429G000BW7JM274461771 Rongaus                            Bronwyn                   F19480601                                                                                                                                                                                                                   2008071820210401                                                                    202104010001                                                                      20211213H0000000000002500                                                                                                            20210401A001                                                                                                                                                                                                                                                                                                                                                                                                                          320220401ENETL0CEEVALC    202204010000010000                                                                                                                         c20220401ENBTA0CEEVALC    202204010000010000                                                                                                                                               
20220429G000BW7JM526874453 Garcia                             Sandra                    F19650514                                                                                                                                                                                                                   2008092920210401                                                                    202104010001                                                                      20210412H0000000000002358                                                                                                            20210401A001                                                                                                                                                                                                                                                                                                                                                                                                                                                                                                                                                                                                                                                                                                                                                                    Q20210401ENYTS000CSALC
20220429G000BW7JM353462908 Wilger                             Karen                     F19590801                                                                                                                                                                                                                   2008121620210401                                                                    202104010001                                                                      20220425H0000000000002550                                                                                                            20210401A001                                                                                                                                                                                                                                                                                                                                                                                                                                                                                                                                                                                                                                                                                                                                                                    Q20210401ENYTS000CSALC
20220429G000BW7JM539746398 Panhuise                           Velinda                   F19611128                                                                                                                                                                                                                   2009011820210401                                                                    202104010001                                                                      20220425H0000000000002363                                                                                                            20210401A001                                                                                                                                                                                                                                                                                                                                                                                                                          320210401ENETL0CEEVALC    202104010000010000                                                                                                                         c20210401ENBTA0CEEVALC    202104010000010000                                                                                                                         Q20210401ENYTS000CSALC
20220429G000BW7JM360762965 Showalter                          Mark                      M19770727                                                                                                                                                                                                                   2009031020210401                                                                    202104010001                                                                      20220425H0000000000002625                                                                                                            20210401A001                                                                                                                                                                                                                                                                                                                                                                                                                          320210401ENETL0CEEVALC    202104010000000000                                                                                                                         c20210401ENBTA0CEEVALC    202104010000000000                                                                                                                         Q20220401ENYTS000CSALC
