20211004G000BW7JM400351584 Sallee                             Monte                     M19810328                                                                                                                                                                                                                   2010090420210401                                                                    202104010001                                                                      20210823A0000000002901971                                                                                                            20210401A001                                                                                                                                                                                                                                                                                                                                                                                                                          320210401ENETL0CEEVALC    202104010000160000                                                                                                                         c20210401ENBTA0CEEVALC    202104010000160000                                                                                                                                               
20211004G000BW7JM269828386 Derf Wheeler                       Amanda                    F19840130                                                                                                                                                                                                                   2014083020210401                                                                    202104010001                                                                      20210413A0000000004286100                                                                                                            20210401A001                                                                                                                                                                                                                                                                                                                                                                                                                          320210401ENETL0CEEVALC    202104010000200000                                                                                                                         c20210401ENBTA0CEEVALC    202104010000200000                                                                                                                                               
20211004G000BW7JM276948748 Wagner                             Sarah                     F19910518                                                                                                                                                                                                                   2014121520210401                                                                    202104010001                                                                      20210823A0000000003364842                                                                                                            20210401A001                                                                                                                                                                                                                                                                                                                                                                                                                          320210401ENETL0CEEVALC    202104010000020000                                                                                                                         c20210401ENBTA0CEEVALC    202104010000020000                                                                                                                                               
20211004G000BW7JM400239662 Christensen                        Tim                       M19830822                                                                                                                                                                                                                   2020090520210401                                                                    202104010001                                                                      20210412A0000000005175000                                                                                                            20210401A001                                                                                                                                                                                                                                                                                                                                                                                                                          320210401ENETL0CEEVALC    202104010000180000           420210401ENETL0CSPVALC    202104010000050000                                                                  c20210401ENBTA0CEEVALC    202104010000180000           e20210401ENBTA0CSPVALC    202104010000050000                                                                                        
20211004G000BW7JM406965681 Thiel                              Diana                     F19590407                                                                                                                                                                                                                   2012090820210401                                                                    202104010001                                                                      20210412A0000000002052739                                                                                                            20210401A001                                                                                                                                                                                                                                                                                                                                                                                                                          320210401ENETL0CEEVALC    202104010000020000                                                                                                                         c20210401ENBTA0CEEVALC    202104010000020000                                                                                                                                               
20211004G000BW7JM407412640 Williams                           Allison                   F19910602                                                                                                                                                                                                                   2016091420210401                                                                    202104010001                                                                      20210412A0000000002870400                                                                                                            20210401A001                                                                                                                                                                                                                                                                                                                                                                                                                          320210401ENETL0CEEVALC    202104010000010000                                                                                                                         c20210401ENBTA0CEEVALC    202104010000010000                                                                                                                         Q20210401ENYTS000CSALC
20211004G000BW7JM402374303 Couch                              Tiffany                   F19880915                                                                                                                                                                                                                   2017051720210401                                                                    202104010001                                                                      20210412A0000000002521519                                                                                                            20210401A001                                                                                                                                                                                                                                                                                                                                                                                                                          320210401ENETL0CEEVALC    202104010000050000           420210401ENETL0CSPVALC    202104010000010000           520210401ENETL0CDPVALC    202104010000010000           c20210401ENBTA0CEEVALC    202104010000050000           e20210401ENBTA0CSPVALC    202104010000010000           d20210401ENBTA0CDPVALC    202104010000010000                                 
20211004G000BW7JM007821631 Smith                              Amber                     F19830719                                                                                                                                                                                                                   2018091120210401                                                                    202104010001                                                                      20210412A0000000004590000                                                                                                            20210401A001                                                                                                                                                                                                                                                                                                                                                                                                                          320210401ENETL0CEEVALC    202104010000100000                                                                                                                         c20210401ENBTA0CEEVALC    202104010000100000                                                                                                                                               
20211004G000BW7JM401174294 Gabbard                            Steven                    M19641001                                                                                                                                                                                                                   2021011320210401                                                                    202104010001                                                                      20210908A0000000002707250                                                                                                            20210401A001                                                                                                                                                                                                                                                                                                                                                                                                                          320210401ENETL0CEEVALC    202104010000010000                                                                                                                         c20210401ENBTA0CEEVALC    202104010000010000                                                                                                                         Q20210401ENYTS000CSALC
20211004G000BW7JM375946564 Merlo Poole                        Kerry                     F19691109                                                                                                                                                                                                                   2017082320210401                                                                    202104010001                                                                      20210526A0000000005000000                                                                                                            20210401A001                                                                                                                                                                                                                                                                                                                                                                                                                          320210401ENETL0CEEVALC    202104010000200000           420210401ENETL0CSPVALC    202104010000050000                                                                  c20210401ENBTA0CEEVALC    202104010000200000           e20210401ENBTA0CSPVALC    202104010000050000                                                                                        
20211004G000BW7JM273909644 Baum                               Sarah                     F19861002                                                                                                                                                                                                                   2008010320210401                                                                    202104010001                                                                      20210412A0000000002554110                                                                                                            20210401A001                                                                                                                                                                                                                                                                                                                                                                                                                          320210401ENETL0CEEVALC    202104010000170000                                                                                                                         c20210401ENBTA0CEEVALC    202104010000170000                                                                                                                         Q20210401ENYTS000CSALC
20211004G000BW7JM462619456 Ross                               Tiffany                   F19800825                                                                                                                                                                                                                   2008010320210401                                                                    202104010001                                                                      20210607A0000000004800000                                                                                                            20210401A001                                                                                                                                                                                                                                                                                                                                                                                                                          320210401ENETL0CEEVALC    202104010000040000           420210401ENETL0CSPVALC    202104010000020000           520210401ENETL0CDPVALC    202104010000010000           c20210401ENBTA0CEEVALC    202104010000040000           e20210401ENBTA0CSPVALC    202104010000020000           d20210401ENBTA0CDPVALC    202104010000010000           Q20210401ENYTS000CSALC
20211004G000BW7JM391110348 Berenz                             Kyra                      F19920918                                                                                                                                                                                                                   2016082520210401                                                                    202104010001                                                                      20210412A0000000001484438                                                                                                            20210401A001                                                                                                                                                                                                                                                                                                                                                                                                                                                                                                                                                                                                                                                                                                                                                                    Q20210401ENYTS000CSALC
20211004G000BW7JM402047148 Sharkey                            Charlotte                 F19680207                                                                                                                                                                                                                   2010072320210401                                                                    202104010001                                                                      20210913A0000000003432000                                                                                                            20210401A001                                                                                                                                                                                                                                                                                                                                                                                                                          320210401ENETL0CEEVALC    202104010000020000                                                                                                                         c20210401ENBTA0CEEVALC    202104010000020000                                                                                                                                               
20211004G000BW7JM279864744 Robb                               Casey                     F19800110                                                                                                                                                                                                                   2015051420210401                                                                    202104010001                                                                      20210830A0000000005650000                                                                                                            20210401A001                                                                                                                                                                                                                                                                                                                                                                                                                          320210401ENETL0CEEVALC    202104010000100000                                                                  520210401ENETL0CDPVALC    202104010000010000           c20210401ENBTA0CEEVALC    202104010000100000                                                                  d20210401ENBTA0CDPVALC    202104010000010000                                 
20211004G000BW7JM422861323 Hardy Anya                         Tammy                     F19631031                                                                                                                                                                                                                   2016111020210401                                                                    202104010001                                                                      20210412A0000000000938438                                                                                                            20210401A001                                                                                                                                                                                                                                                                                                                                                                                                                                                                                                                                                                                                                                                                                                                                                                    Q20210401ENYTS000CSALC
20211004G000BW7JM269804852 Mcconoughey                        Stefani                   F19810818                                                                                                                                                                                                                   2008042720210401                                                                    202104010001                                                                      20210324A0000000003363750                                                                                                            20210401A001                                                                                                                                                                                                                                                                                                                                                                                                                          320210401ENETL0CEEVALC    202104010000180000           420210401ENETL0CSPVALC    202104010000050000           520210401ENETL0CDPVALC    202104010000010000           c20210401ENBTA0CEEVALC    202104010000180000           e20210401ENBTA0CSPVALC    202104010000050000           d20210401ENBTA0CDPVALC    202104010000010000                                 
20211004G000BW7JM298805600 Mccullough                         Andreana                  F19800511                                                                                                                                                                                                                   2010030820210401                                                                    202104010001                                                                      20210324A0000000003985670                                                                                                            20210401A001                                                                                                                                                                                                                                                                                                                                                                                                                                                                                                                                                                                                                                                                                                                                                                    Q20210401ENYTS000CSALC
20211004G000BW7JM284928773 Bailey                             Chelsea                   F19900621                                                                                                                                                                                                                   2013092020210401                                                                    202104010001                                                                      20210830A0000000002533440                                                                                                            20210401A001                                                                                                                                                                                                                                                                                                                                                                                                                                                                                                                                                                                                                                                                                                                                                                    Q20210401ENYTS000CSALC
20211004G000BW7JM289684343 Burres                             Irma                      F19750313                                                                                                                                                                                                                   2016100520210401                                                                    202104010001                                                                      20210830A0000000002422713                                                                                                            20210401A001                                                                                                                                                                                                                                                                                                                                                                                                                          320210401ENETL0CEEVALC    202104010000010000                                                                                                                         c20210401ENBTA0CEEVALC    202104010000010000                                                                                                                                               
20211004G000BW7JM484191386 Swanson                            Jasmine                   F19910720                                                                                                                                                                                                                   2019092920210401                                                                    202104010001                                                                      20210412A0000000002586870                                                                                                            20210401A001                                                                                                                                                                                                                                                                                                                                                                                                                                                                                                                                                                                                                                                                                                                                                                    Q20210401ENYTS000CSALC
20211004G000BW7JM273800634 Sharp                              Andria                    F19830119                                                                                                                                                                                                                   2021020120210401                                                                    202104010001                                                                      20210324A0000000002402400                                                                                                            20210401A001                                                                                                                                                                                                                                                                                                                                                                                                                                                                                                                                                                                                                                                                                                                                                                    Q20210401ENYTS000CSALC
20211004G000BW7JM329664652 Irwin                              Lisa                      F19641014                                                                                                                                                                                                                   2013122720210401                                                                    202104010001                                                                      20210830A0000000001843140                                                                                                            20210401A001                                                                                                                                                                                                                                                                                                                                                                                                                          320210401ENETL0CEEVALC    202104010000010000                                                                                                                         c20210401ENBTA0CEEVALC    202104010000010000                                                                                                                         Q20210401ENYTS000CSALC
20211004G000BW7JM299881086 Moore                              Theresa                   F19760428                                                                                                                                                                                                                   2018120420210401                                                                    202104010001                                                                      20210719A0000000002332200                                                                                                            20210401A001                                                                                                                                                                                                                                                                                                                                                                                                                          320210401ENETL0CEEVALC    202104010000150000                                                                  520210401ENETL0CDPVALC    202104010000010000           c20210401ENBTA0CEEVALC    202104010000150000                                                                  d20210401ENBTA0CDPVALC    202104010000010000           Q20210401ENYTS000CSALC
20211004G000BW7JM284927367 Willis                             Stephen                   M19900711                                                                                                                                                                                                                   2019062120210401                                                                    202104010001                                                                      20210913A0000000003120000                                                                                                            20210401A001                                                                                                                                                                                                                                                                                                                                                                                                                          320210401ENETL0CEEVALC    202104010000050000                                                                                                                         c20210401ENBTA0CEEVALC    202104010000050000                                                                                                                         Q20210401ENYTS000CSALC
20211004G000BW7JM281043757 Flannigan                          Janice                    F19770515                                                                                                                                                                                                                   2020090520210401                                                                    202104010001                                                                      20210802A0000000005850000                                                                                                            20210401A001                                                                                                                                                                                                                                                                                                                                                                                                                          320210401ENETL0CEEVALC    202104010000180000           420210401ENETL0CSPVALC    202104010000050000           520210401ENETL0CDPVALC    202104010000010000           c20210401ENBTA0CEEVALC    202104010000180000           e20210401ENBTA0CSPVALC    202104010000050000           d20210401ENBTA0CDPVALC    202104010000010000           Q20210401ENYTS000CSALC
20211004G000BW7JM283928331 Smiley                             Tyanna                    F19870618                                                                                                                                                                                                                   2020121520210607                                                                    202106070001                                                                      20210607A0000000004800000                                                                                                            20210607A001                                                                                                                                                                                                                                                                                                                                                                                                                          320210607ENETL0CEEVALC    202106070000050000                                                                                                                         c20210607ENBTA0CEEVALC    202106070000050000                                                                                                                                               
20211004G000BW7JM199729133 Habetz                             Jennifer                  F19890507                                                                                                                                                                                                                   2012110620210401                                                                    202104010001                                                                      20210412A0000000002651272                                                                                                            20210401A001                                                                                                                                                                                                                                                                                                                                                                                                                          320210401ENETL0CEEVALC    202104010000020000                                                                                                                         c20210401ENBTA0CEEVALC    202104010000020000                                                                                                                                               
20211004G000BW7JM619824154 Denny                              Letitia                   F19950519                                                                                                                                                                                                                   2015102820210401                                                                    202104010001                                                                      20210830A0000000002485529                                                                                                            20210401A001                                                                                                                                                                                                                                                                                                                                                                                                                          320210401ENETL0CEEVALC    202104010000050000                                                                                                                         c20210401ENBTA0CEEVALC    202104010000050000                                                                                                                                               
20211004G000BW7JM270843910 Drew                               Jennifer                  F19691127                                                                                                                                                                                                                   2017020320210401                                                                    202104010001                                                                      20210412A0000000004612500                                                                                                            20210401A001                                                                                                                                                                                                                                                                                                                                                                                                                          320210401ENETL0CEEVALC    202104010000030000                                                                                                                         c20210401ENBTA0CEEVALC    202104010000030000                                                                                                                                               
20211004G000BW7JM400272485 Rummel                             Susan                     F19680808                                                                                                                                                                                                                   2020071020210401                                                                    202104010001                                                                      20210804A0000000001934400                                                                                                            20210401A001                                                                                                                                                                                                                                                                                                                                                                                                                          320211001ENETL0CEEVALC    202110010000020000                                                                                                                         c20211001ENBTA0CEEVALC    202110010000020000                                                                                                                                               
20211004G000BW7JM365040957 Miller                             Tonya                     F19870813                                                                                                                                                                                                                   2019090420210401                                                                    202104010001                                                                      20210422A0000000003049930                                                                                                            20210401A001                                                                                                                                                                                                                                                                                                                                                                                                                          320210401ENETL0CEEVALC    202104010000140000                                                                  520210401ENETL0CDPVALC    202104010000010000           c20210401ENBTA0CEEVALC    202104010000140000                                                                  d20210401ENBTA0CDPVALC    202104010000010000                                 
20211004G000BW7JM157522404 Fish                               Robert                    M19720817                                                                                                                                                                                                                   2019042920210401                                                                    202104010001                                                                      20210315A0000000030076664                                                                                                            20210401A001                                                                                                                                                                                                                                                                                                                                                                                                                          320210401ENETL0CEEVALC    202104010000050000           420210401ENETL0CSPVALC    202104010000025000           520210401ENETL0CDPVALC    202104010000010000           c20210401ENBTA0CEEVALC    202104010000050000           e20210401ENBTA0CSPVALC    202104010000025000           d20210401ENBTA0CDPVALC    202104010000010000           Q20210401ENYTS000CSALC
20211004G000BW7JM600221901 Manke                              Spencer                   M19701118                                                                                                                                                                                                                   2020021020210401                                                                    202104010001                                                                      20210315A0000000023606352                                                                                                            20210401A001                                                                                                                                                                                                                                                                                                                                                                                                                                                                                                                                                                                                                                                                                                                                                                    Q20210401ENYTS000CSALC
20211004G000BW7JM270821669 Markham                            Amy                       F19710420                                                                                                                                                                                                                   2009111020210401                                                                    202104010001                                                                      20210412A0000000016360000                                                                                                            20210401A001                                                                                                                                                                                                                                                                                                                                                                                                                                                                                                                                                                                                                                                                                                                                                                    Q20210401ENYTS000CSALC
20211004G000BW7JM595455764 Mariscal                           Jordan                    F19941021                                                                                                                                                                                                                   2015121720210401                                                                    202104010001                                                                      20210412A0000000004800000                                                                                                            20210401A001                                                                                                                                                                                                                                                                                                                                                                                                                                                                                                                                                                                                                                                                                                                                                                    Q20210401ENYTS000CSALC
20211004G000BW7JM021729838 Sector                             Aliza                     F19891012                                                                                                                                                                                                                   2020111020210401                                                                    202104010001                                                                      20201116A0000000005500000                                                                                                            20210401A001                                                                                                                                                                                                                                                                                                                                                                                                                          320210401ENETL0CEEVALC    202104010000030000                                                                                                                         c20210401ENBTA0CEEVALC    202104010000030000                                                                                                                         Q20210401ENYTS000CSALC
20211004G000BW7JM525375807 Price                              Nancy                     F19691115                                                                                                                                                                                                                   2019111820210401                                                                    202104010001                                                                      20210412A0000000009270000                                                                                                            20210401A001                                                                                                                                                                                                                                                                                                                                                                                                                          320210401ENETL0CEEVALC    202104010000100000                                                                                                                         c20210401ENBTA0CEEVALC    202104010000100000                                                                                                                                               
20211004G000BW7JM360787098 Alex                               Cristin                   F19810310                                                                                                                                                                                                                   2019081920210401                                                                    202104010001                                                                      20210412A0000000010763500                                                                                                            20210401A001                                                                                                                                                                                                                                                                                                                                                                                                                          320210401ENETL0CEEVALC    202104010000070000                                                                                                                         c20210401ENBTA0CEEVALC    202104010000070000                                                                                                                                               
20211004G000BW7JM537291899 Esser                              Rebecca                   F19880825                                                                                                                                                                                                                   2019102520210401                                                                    202104010001                                                                      20210412A0000000009270000                                                                                                            20210401A001                                                                                                                                                                                                                                                                                                                                                                                                                                                                                                                                                                                                                                                                                                                                                                    Q20210401ENYTS000CSALC
20211004G000BW7JM225350337 Contreras Garay                    Antonia                   F19781224                                                                                                                                                                                                                   2004021520210401                                                                    202104010001                                                                      20210412A0000000003757039                                                                                                            20210401A001                                                                                                                                                                                                                                                                                                                                                                                                                          320210401ENETL0CEEVALC    202104010000200000                                                                  520210401ENETL0CDPVALC    202104010000010000           c20210401ENBTA0CEEVALC    202104010000200000                                                                  d20210401ENBTA0CDPVALC    202104010000010000           Q20210401ENYTS000CSALC
20211004G000BW7JM601392194 Martinez                           Michael                   F19780328                                                                                                                                                                                                                   2005040220210401                                                                    202104010001                                                                      20210412A0000000003896244                                                                                                            20210401A001                                                                                                                                                                                                                                                                                                                                                                                                                          320210401ENETL0CEEVALC    202104010000200000                                                                  520210401ENETL0CDPVALC    202104010000010000           c20210401ENBTA0CEEVALC    202104010000200000                                                                  d20210401ENBTA0CDPVALC    202104010000010000                                 
20211004G000BW7JM562614766 Finney                             David                     M19800422                                                                                                                                                                                                                   2005122820210401                                                                    202104010001                                                                      20210426A0000000004538820                                                                                                            20210401A001                                                                                                                                                                                                                                                                                                                                                                                                                          320210401ENETL0CEEVALC    202104010000080000                                                                                                                         c20210401ENBTA0CEEVALC    202104010000080000                                                                                                                         Q20210401ENYTS000CSALC
20211004G000BW7JM549611458 Gile                               Johnathan                 M19780731                                                                                                                                                                                                                   2006063020210401                                                                    202104010001                                                                      20210412A0000000005283200                                                                                                            20210401A001                                                                                                                                                                                                                                                                                                                                                                                                                          320210401ENETL0CEEVALC    202104010000200000                                                                                                                         c20210401ENBTA0CEEVALC    202104010000200000                                                                                                                         Q20210401ENYTS000CSALC
20211004G000BW7JM456712389 Camargo                            Stephanie                 F19830701                                                                                                                                                                                                                   2006121420210401                                                                    202104010001                                                                      20210412A0000000000881400                                                                                                            20210401A001                                                                                                                                                                                                                                                                                                                                                                                                                          320210401ENETL0CEEVALC    202104010000190000                                                                  520210401ENETL0CDPVALC    202104010000010000           c20210401ENBTA0CEEVALC    202104010000190000                                                                  d20210401ENBTA0CDPVALC    202104010000010000           Q20210401ENYTS000CSALC
20211004G000BW7JM341566642 Adams                              Dorraine                  F19641210                                                                                                                                                                                                                   2006122620210401                                                                    202104010001                                                                      20210412A0000000004023084                                                                                                            20210401A001                                                                                                                                                                                                                                                                                                                                                                                                                          320210401ENETL0CEEVALC    202104010000200000                                                                                                                         c20210401ENBTA0CEEVALC    202104010000200000                                                                                                                         Q20210401ENYTS000CSALC
20211004G000BW7JM331747832 Erhart                             Leann                     F19680616                                                                                                                                                                                                                   2007040420210401                                                                    202104010001                                                                      20210412A0000000002507115                                                                                                            20210401A001                                                                                                                                                                                                                                                                                                                                                                                                                                                                                                                                                                                                                                                                                                                                                                    Q20210401ENYTS000CSALC
20211004G000BW7JM365640984 Deadrick                           Rhonda                    F19600324                                                                                                                                                                                                                   2007040620210401                                                                    202104010001                                                                      20210412A0000000003498138                                                                                                            20210401A001                                                                                                                                                                                                                                                                                                                                                                                                                                                                                                                                                                                                                                                                                                                                                                    Q20210401ENYTS000CSALC
20211004G000BW7JM339585806 Lewis                              Karla                     F19580906                                                                                                                                                                                                                   2007100520210401                                                                    202104010001                                                                      20210412A0000000002692492                                                                                                            20210401A001                                                                                                                                                                                                                                                                                                                                                                                                                          320210401ENETL0CEEVALC    202104010000010000                                                                                                                         c20210401ENBTA0CEEVALC    202104010000010000                                                                                                                         Q20210401ENYTS000CSALC
20211004G000BW7JM274461771 Rongaus                            Bronwyn                   F19480601                                                                                                                                                                                                                   2008071820210401                                                                    202104010001                                                                      20210412A0000000002616250                                                                                                            20210401A001                                                                                                                                                                                                                                                                                                                                                                                                                                                                                                                                                                                                                                                                                                                                                                    Q20210401ENYTS000CSALC
20211004G000BW7JM526874453 Garcia                             Sandra                    F19650514                                                                                                                                                                                                                   2008092920210401                                                                    202104010001                                                                      20210412A0000000003172689                                                                                                            20210401A001                                                                                                                                                                                                                                                                                                                                                                                                                                                                                                                                                                                                                                                                                                                                                                    Q20210401ENYTS000CSALC
20211004G000BW7JM353462908 Wilger                             Karen                     F19590801                                                                                                                                                                                                                   2008121620210401                                                                    202104010001                                                                      20210412A0000000003492970                                                                                                            20210401A001                                                                                                                                                                                                                                                                                                                                                                                                                                                                                                                                                                                                                                                                                                                                                                    Q20210401ENYTS000CSALC
20211004G000BW7JM539746398 Panhuise                           Velinda                   F19611128                                                                                                                                                                                                                   2009011820210401                                                                    202104010001                                                                      20210830A0000000002334150                                                                                                            20210401A001                                                                                                                                                                                                                                                                                                                                                                                                                          320210401ENETL0CEEVALC    202104010000010000                                                                                                                         c20210401ENBTA0CEEVALC    202104010000010000                                                                                                                         Q20210401ENYTS000CSALC
20211004G000BW7JM360762965 Showalter                          Mark                      M19770727                                                                                                                                                                                                                   2009031020210401                                                                    202104010001                                                                      20210802A0000000003807700                                                                                                            20210401A001                                                                                                                                                                                                                                                                                                                                                                                                                          320210401ENETL0CEEVALC    202104010000100000                                                                                                                         c20210401ENBTA0CEEVALC    202104010000100000                                                                                                                                               
20211004G000BW7JM504041329 Stewart                            Ruth                      F19671208                                                                                                                                                                                                                   2009040920210401                                                                    202104010001                                                                      20210412A0000000003397875                                                                                                            20210401A001                                                                                                                                                                                                                                                                                                                                                                                                                          320210401ENETL0CEEVALC    202104010000040000                                                                                                                         c20210401ENBTA0CEEVALC    202104010000040000                                                                                                                                               
20211004G000BW7JM337802320 Wieczorek                          Laura                     F19860825                                                                                                                                                                                                                   2009041420210401                                                                    202104010001                                                                      20210412A0000000003399630                                                                                                            20210401A001                                                                                                                                                                                                                                                                                                                                                                                                                          320210401ENETL0CEEVALC    202104010000010000           420210401ENETL0CSPVALC    202104010000010000                                                                  c20210401ENBTA0CEEVALC    202104010000010000           e20210401ENBTA0CSPVALC    202104010000010000                                                                                        
20211004G000BW7JM325746905 Power                              Jennifer                  F19830614                                                                                                                                                                                                                   2009052820210401                                                                    202104010001                                                                      20210412A0000000003060200                                                                                                            20210401A001                                                                                                                                                                                                                                                                                                                                                                                                                                                                                                                                                                                                                                                                                                                                                                    Q20210401ENYTS000CSALC
20211004G000BW7JM617185325 Correa                             Josema                    M19880210                                                                                                                                                                                                                   2009090220210401                                                                    202104010001                                                                      20210412A0000000002481453                                                                                                            20210401A001                                                                                                                                                                                                                                                                                                                                                                                                                          320210401ENETL0CEEVALC    202104010000100000           420210401ENETL0CSPVALC    202104010000050000           520210401ENETL0CDPVALC    202104010000010000           c20210401ENBTA0CEEVALC    202104010000100000           e20210401ENBTA0CSPVALC    202104010000050000           d20210401ENBTA0CDPVALC    202104010000010000           Q20210401ENYTS000CSALC
20211004G000BW7JM601443645 Dana                               Brandy                    F19820915                                                                                                                                                                                                                   2009113020210401                                                                    202104010001                                                                      20210412A0000000002595840                                                                                                            20210401A001                                                                                                                                                                                                                                                                                                                                                                                                                          320210401ENETL0CEEVALC    202104010000140000                                                                                                                         c20210401ENBTA0CEEVALC    202104010000140000                                                                                                                         Q20210401ENYTS000CSALC
20211004G000BW7JM527233032 Craven                             Kimberly                  F19580306                                                                                                                                                                                                                   2010010220210401                                                                    202104010001                                                                      20210820A0000000004160000                                                                                                            20210401A001                                                                                                                                                                                                                                                                                                                                                                                                                          320210401ENETL0CEEVALC    202104010000040000                                                                                                                         c20210401ENBTA0CEEVALC    202104010000040000                                                                                                                         Q20210401ENYTS000CSALC
20211004G000BW7JM600026074 Rosas                              Ana                       F19890804                                                                                                                                                                                                                   2010013120210401                                                                    202104010001                                                                      20210412A0000000003125850                                                                                                            20210401A001                                                                                                                                                                                                                                                                                                                                                                                                                          320210401ENETL0CEEVALC    202104010000030000                                                                                                                         c20210401ENBTA0CEEVALC    202104010000030000                                                                                                                                               
20211004G000BW7JM322027317 Ilciukiene                         Vanda                     F19550929                                                                                                                                                                                                                   2010030620210401                                                                    202104010001                                                                      20210414A0000000005304000                                                                                                            20210401A001                                                                                                                                                                                                                                                                                                                                                                                                                          320210401ENETL0CEEVALC    202104010000200000                                                                                                                         c20210401ENBTA0CEEVALC    202104010000200000                                                                                                                         Q20210401ENYTS000CSALC
20211004G000BW7JM601869759 Gruentzel                          Janet                     F19840703                                                                                                                                                                                                                   2010041220210401                                                                    202104010001                                                                      20210412A0000000003216160                                                                                                            20210401A001                                                                                                                                                                                                                                                                                                                                                                                                                          320210401ENETL0CEEVALC    202104010000020000           420210401ENETL0CSPVALC    202104010000010000                                                                  c20210401ENBTA0CEEVALC    202104010000020000           e20210401ENBTA0CSPVALC    202104010000010000                                                                  Q20210401ENYTS000CSALC
20211004G000BW7JM530803861 Wood                               Vicki                     F19650223                                                                                                                                                                                                                   2010050620210401                                                                    202104010001                                                                      20210412A0000000004401280                                                                                                            20210401A001                                                                                                                                                                                                                                                                                                                                                                                                                          320210401ENETL0CEEVALC    202104010000020000                                                                                                                         c20210401ENBTA0CEEVALC    202104010000020000                                                                                                                                               
20211004G000BW7JM371083190 Shipione                           Janelle                   F19870821                                                                                                                                                                                                                   2010052820210401                                                                    202104010001                                                                      20210802A0000000005002400                                                                                                            20210401A001                                                                                                                                                                                                                                                                                                                                                                                                                          320210401ENETL0CEEVALC    202104010000100000                                                                                                                         c20210401ENBTA0CEEVALC    202104010000100000                                                                                                                         Q20210401ENYTS000CSALC
20211004G000BW7JM600320461 Potter                             Matthew                   M19830428                                                                                                                                                                                                                   2010092320210401                                                                    202104010001                                                                      20210412A0000000006900000                                                                                                            20210401A001                                                                                                                                                                                                                                                                                                                                                                                                                          320210401ENETL0CEEVALC    202104010000100000           420210401ENETL0CSPVALC    202104010000050000           520210401ENETL0CDPVALC    202104010000010000           c20210401ENBTA0CEEVALC    202104010000100000           e20210401ENBTA0CSPVALC    202104010000050000           d20210401ENBTA0CDPVALC    202104010000010000                                 
20211004G000BW7JM699019201 Baxter                             Ana                       F19810610                                                                                                                                                                                                                   2010120720210401                                                                    202104010001                                                                      20210816A0000000002144142                                                                                                            20210401A001                                                                                                                                                                                                                                                                                                                                                                                                                                                                                                                                                                                                                                                                                                                                                                    Q20210401ENYTS000CSALC
20211004G000BW7JM527118608 Miller Jones                       Martha                    F19570915                                                                                                                                                                                                                   2010121320210401                                                                    202104010001                                                                      20210412A0000000003039173                                                                                                            20210401A001                                                                                                                                                                                                                                                                                                                                                                                                                                                                                                                                                                                                                                                                                                                                                                    Q20210401ENYTS000CSALC
20211004G000BW7JM288763526 Riedel                             Sara                      F19791001                                                                                                                                                                                                                   2011021520210401                                                                    202104010001                                                                      20210412A0000000005665000                                                                                                            20210401A001                                                                                                                                                                                                                                                                                                                                                                                                                          320210401ENETL0CEEVALC    202104010000100000                                                                  520210401ENETL0CDPVALC    202104010000010000           c20210401ENBTA0CEEVALC    202104010000100000                                                                  d20210401ENBTA0CDPVALC    202104010000010000                                 
20211004G000BW7JM600806647 Williams                           Amy                       F19871113                                                                                                                                                                                                                   2011031620210401                                                                    202104010001                                                                      20210802A0000000004269720                                                                                                            20210401A001                                                                                                                                                                                                                                                                                                                                                                                                                          320210401ENETL0CEEVALC    202104010000100000           420210401ENETL0CSPVALC    202104010000050000           520210401ENETL0CDPVALC    202104010000010000           c20210401ENBTA0CEEVALC    202104010000100000           e20210401ENBTA0CSPVALC    202104010000050000           d20210401ENBTA0CDPVALC    202104010000010000           Q20210401ENYTS000CSALC
20211004G000BW7JM398542813 Hintz                              Keith                     M19510206                                                                                                                                                                                                                   2011040120210401                                                                    202104010001                                                                      20210412A0000000002682498                                                                                                            20210401A001                                                                                                                                                                                                                                                                                                                                                                                                                                                                                                                                                                                                                                                                                                                                                                    Q20210401ENYTS000CSALC
20211004G000BW7JM574885648 Batley                             Leahann                   F19840709                                                                                                                                                                                                                   2011072820210401                                                                    202104010001                                                                      20210830A0000000002888600                                                                                                            20210401A001                                                                                                                                                                                                                                                                                                                                                                                                                          320210401ENETL0CEEVALC    202104010000020000                                                                  520210401ENETL0CDPVALC    202104010000010000           c20210401ENBTA0CEEVALC    202104010000020000                                                                  d20210401ENBTA0CDPVALC    202104010000010000                                 
