09-LF08530000000Apr 25 2023000                                                                                                                                                                                                                                                                                                                                                                                                                                                                                                                                                                                                                                                                                                                                                                                                                                                                                                                                                                                                                                                                                                                                                                                                                                                                                                                                                                                                                                                                                                                                                                                                                                                                                                                                                                                                                                                                                                                                                                                                                                                                                                                                                                                                                                                                                                                                                                                                                                                                                                                                                                                                                                                                                                                                                                                                                                                                                                                                                                                                                                                                                          
D            09-LF0853                                                                                                                                                                                                                                                                                                                                          0000                                                                                          BShaun                              Hurm                                                                                                                                  Shaun.Hurm@AgReliantGenetics.com                                                                                                                                                                            000052     MO00000000                   District Sales Mgr                                 Bradley                            Althide                            R     29255 Redbird Ln                                            La Plata            MO63549    USA                                        346668740  1M19670722          0 0    82654.85  0.0       20210926SL0.0       0.0       60.0       0                                                                                                                                                                                                                                                                                                                                                                                                                                                                                                                                                                                                                                                                                                                                                                                                                                 10   19951020  A        0.0   0.0       0.0      0.0                                                                        STD  STD01A19951020000999LTD  LTD01A19951020000060LEAVEFMLA A19951020000000                   0  0                     0  0                     0  0                     0  0                     0  0       H0.0        M012M0.0                  0.0      0.0      0.0      0.0      0.0      0.0      0.0              19951020 NY           20220425                                                                                                                                                                                                                                                                                                                                                                                                                                                                                                                              
D            09-LF0853                                                                                                                                                                                                                                                                                                                                          0000                                                                                          BShaun                              Hurm                                                                                                                                  Shaun.Hurm@AgReliantGenetics.com                                                                                                                                                                            000066     IL00000000                   Production Lead                                    John                               Callister                          A     21716 W Tucker Rd                                           Elmwood             IL61529    USA                                        357627391  1M19710310          0 0    0.0       53859.30  20220403HR0.0       0.0       10.0       0                                                                                                                                                                                                                                                                                                                                                                                                                                                                                                                                                                                                                                                                                                                                                                                                                                 10   19980706  A        0.0   0.0       0.0      0.0                                                                        STD  STD01A19980706000999LTD  LTD01A19980706000060LEAVEFMLA A19980706000000                   0  0                     0  0                     0  0                     0  0                     0  0       H0.0        M012M0.0                  0.0      0.0      0.0      0.0      0.0      0.0      0.0              19980706 NN           20220425                                                                                                                                                                                                                                                                                                                                                                                                                                                                                                                              
D            09-LF0853                                                                                                                                                                                                                                                                                                                                          0000                                                                                          BShaun                              Hurm                                                                                                                                  Shaun.Hurm@AgReliantGenetics.com                                                                                                                                                                            000072     IL00000000                   Area Business Manager                              Todd                               Condit                             J     8175 Log Cabin Rd                                           Putnam              IL61560    USA                                        327442143  1M19660115          0 0    121926.76 0.0       20210926SL0.0       0.0       60.0       0                                                                                                                                                                                                                                                                                                                                                                                                                                                                                                                                                                                                                                                                                                                                                                                                                                 10   19980831  A        0.0   0.0       0.0      0.0                                                                        STD  STD01A19980831000999LTD  LTD01A19980831000060LEAVEFMLA A19980831000000                   0  0                     0  0                     0  0                     0  0                     0  0       H0.0        M012M0.0                  0.0      0.0      0.0      0.0      0.0      0.0      0.0              19980831 NY           20220425                                                                                                                                                                                                                                                                                                                                                                                                                                                                                                                              
D            09-LF0853                                                                                                                                                                                                                                                                                                                                          0000                                                                                          BShaun                              Hurm                                                                                                                                  Shaun.Hurm@AgReliantGenetics.com                                                                                                                                                                            000082     IL00000000                   Area Agronomy Manager                              Travis                             Dollarhide                         W     201 S Walnut St                                             Strasburg           IL62465    USA                                        401663201  1M19571129          0 0    140000.00 0.0       20211024SL0.0       0.0       60.0       0                                                                                                                                                                                                                                                                                                                                                                                                                                                                                                                                                                                                                                                                                                                                                                                                                                 10   19841205  A        0.0   0.0       0.0      0.0                                                                        STD  STD01A19841205000999LTD  LTD01A19841205000060LEAVEFMLA A19841205000000                   0  0                     0  0                     0  0                     0  0                     0  0       H0.0        M012M0.0                  0.0      0.0      0.0      0.0      0.0      0.0      0.0              19841205 NY           20220425                                                                                                                                                                                                                                                                                                                                                                                                                                                                                                                              
D            09-LF0853                                                                                                                                                                                                                                                                                                                                          0000                                                                                          BShaun                              Hurm                                                                                                                                  Shaun.Hurm@AgReliantGenetics.com                                                                                                                                                                            000091     IL00000000                   Inventory & Qlty Coord                             Marion                             Harper                             G     1635 Knox Road 300 N                                        Maquon              IL61458    USA                                        339729251  1M19690623          0 0    79129.00  0.0       20220410SL0.0       0.0       60.0       0                                                                                                                                                                                                                                                                                                                                                                                                                                                                                                                                                                                                                                                                                                                                                                                                                                 10   19990517  A        0.0   0.0       0.0      0.0                                                                        STD  STD01A19990517000999LTD  LTD01A19990517000060LEAVEFMLA A19990517000000                   0  0                     0  0                     0  0                     0  0                     0  0       H0.0        M012M0.0                  0.0      0.0      0.0      0.0      0.0      0.0      0.0              19990517 NY           20220425                                                                                                                                                                                                                                                                                                                                                                                                                                                                                                                              
D            09-LF0853                                                                                                                                                                                                                                                                                                                                          0000                                                                                          BShaun                              Hurm                                                                                                                                  Shaun.Hurm@AgReliantGenetics.com                                                                                                                                                                            000093     IL00000000                   Germination Lab Tech                               Renee                              Hayes                              A     9526 W Grimm Ln                                             Edwards             IL61528    USA                                        327623767  1F19620723          0 0    0.0       43617.60  20220403HR0.0       0.0       10.0       0                                                                                                                                                                                                                                                                                                                                                                                                                                                                                                                                                                                                                                                                                                                                                                                                                                 10   19960701  A        0.0   0.0       0.0      0.0                                                                        STD  STD01A19960701000999LTD  LTD01A19960701000060LEAVEFMLA A19960701000000                   0  0                     0  0                     0  0                     0  0                     0  0       H0.0        M012M0.0                  0.0      0.0      0.0      0.0      0.0      0.0      0.0              19960701 NN           20220425                                                                                                                                                                                                                                                                                                                                                                                                                                                                                                                              
D            09-LF0853                                                                                                                                                                                                                                                                                                                                          0000                                                                                          BShaun                              Hurm                                                                                                                                  Shaun.Hurm@AgReliantGenetics.com                                                                                                                                                                            000098     IL00000000                   District Sales Mgr                                 James                              Himes                              D     918 E 1800 North Rd                                         Tower Hill          IL62571    USA                                        328447681  1M19611003          0 0    75902.40  0.0       20210926SL0.0       0.0       60.0       0                                                                                                                                                                                                                                                                                                                                                                                                                                                                                                                                                                                                                                                                                                                                                                                                                                 10   19911118  A        0.0   0.0       0.0      0.0                                                                        STD  STD01A19911118000999LTD  LTD01A19911118000060LEAVEFMLA A19911118000000                   0  0                     0  0                     0  0                     0  0                     0  0       H0.0        M012M0.0                  0.0      0.0      0.0      0.0      0.0      0.0      0.0              19911118 NY           20220425                                                                                                                                                                                                                                                                                                                                                                                                                                                                                                                              
D            09-LF0853                                                                                                                                                                                                                                                                                                                                          0000                                                                                          BShaun                              Hurm                                                                                                                                  Shaun.Hurm@AgReliantGenetics.com                                                                                                                                                                            000104     IL00000000                   Production Lead                                    Dan                                Jones                              E     569 N 2500 East Rd                                          Pana                IL62557    USA                                        348488801  1M19520729          0 0    0.0       58900.35  20220403HR0.0       0.0       10.0       0                                                                                                                                                                                                                                                                                                                                                                                                                                                                                                                                                                                                                                                                                                                                                                                                                                 10   19890417  A        0.0   0.0       0.0      0.0                                                                        STD  STD01A19890417000999LTD  LTD01A19890417000060LEAVEFMLA A19890417000000                   0  0                     0  0                     0  0                     0  0                     0  0       H0.0        M012M0.0                  0.0      0.0      0.0      0.0      0.0      0.0      0.0              19890417 NN           20220425                                                                                                                                                                                                                                                                                                                                                                                                                                                                                                                              
D            09-LF0853                                                                                                                                                                                                                                                                                                                                          0000                                                                                          BShaun                              Hurm                                                                                                                                  Shaun.Hurm@AgReliantGenetics.com                                                                                                                                                                            000119     IL00000000                   Production Lead                                    Ricky                              Marshall                           J     3565 N Dove Dr                                              Decatur             IL62526    USA                                        359569837  1M19570929          0 0    0.0       52811.20  20220403HR0.0       0.0       10.0       0                                                                                                                                                                                                                                                                                                                                                                                                                                                                                                                                                                                                                                                                                                                                                                                                                                 10   19850516  A        0.0   0.0       0.0      0.0                                                                        STD  STD01A19850516000999LTD  LTD01A19850516000060LEAVEFMLA A19850516000000                   0  0                     0  0                     0  0                     0  0                     0  0       H0.0        M012M0.0                  0.0      0.0      0.0      0.0      0.0      0.0      0.0              19850516 NN           20220425                                                                                                                                                                                                                                                                                                                                                                                                                                                                                                                              
D            09-LF0853                                                                                                                                                                                                                                                                                                                                          0000                                                                                          BShaun                              Hurm                                                                                                                                  Shaun.Hurm@AgReliantGenetics.com                                                                                                                                                                            000128     IL00000000                   IT Support Manager                                 Mary                               Pansch                             E     2263 Straza Ct                                              Decatur             IL62526    USA                                        347683757  1F19651103          0 0    99632.00  0.0       20210926SL0.0       0.0       60.0       0                                                                                                                                                                                                                                                                                                                                                                                                                                                                                                                                                                                                                                                                                                                                                                                                                                 10   19890410  A        0.0   0.0       0.0      0.0                                                                        STD  STD01A19890410000999LTD  LTD01A19890410000060LEAVEFMLA A19890410000000                   0  0                     0  0                     0  0                     0  0                     0  0       H0.0        M012M0.0                  0.0      0.0      0.0      0.0      0.0      0.0      0.0              19890410 NY           20220425                                                                                                                                                                                                                                                                                                                                                                                                                                                                                                                              
D            09-LF0853                                                                                                                                                                                                                                                                                                                                          0000                                                                                          BShaun                              Hurm                                                                                                                                  Shaun.Hurm@AgReliantGenetics.com                                                                                                                                                                            000135     IL00000000                   Supervisor, Warehouse                              David                              Rogers                             W     244 E Lewis St                                              Niantic             IL62551    USA                                        351565478  1M19610520          0 0    68215.24  0.0       20220410SL0.0       0.0       60.0       0                                                                                                                                                                                                                                                                                                                                                                                                                                                                                                                                                                                                                                                                                                                                                                                                                                 10   19950213  A        0.0   0.0       0.0      0.0                                                                        STD  STD01A19950213000999LTD  LTD01A19950213000060LEAVEFMLA A19950213000000                   0  0                     0  0                     0  0                     0  0                     0  0       H0.0        M012M0.0                  0.0      0.0      0.0      0.0      0.0      0.0      0.0              19950213 NY           20220425                                                                                                                                                                                                                                                                                                                                                                                                                                                                                                                              
D            09-LF0853                                                                                                                                                                                                                                                                                                                                          0000                                                                                          BShaun                              Hurm                                                                                                                                  Shaun.Hurm@AgReliantGenetics.com                                                                                                                                                                            000163     IN00000000                   Sales Agronomist                                   Philip                             Brunner                            J     8817 Ginnylock Dr                                           Indianapolis        IN46256    USA                                        317668615  1M19680813          0 0    85604.21  0.0       20210926SL0.0       0.0       60.0       0                                                                                                                                                                                                                                                                                                                                                                                                                                                                                                                                                                                                                                                                                                                                                                                                                                 10   19990915  A        0.0   0.0       0.0      0.0                                                                        STD  STD01A19990915000999LTD  LTD01A19990915000060LEAVEFMLA A19990915000000                   0  0                     0  0                     0  0                     0  0                     0  0       H0.0        M012M0.0                  0.0      0.0      0.0      0.0      0.0      0.0      0.0              19990915 NY           20220425                                                                                                                                                                                                                                                                                                                                                                                                                                                                                                                              
D            09-LF0853                                                                                                                                                                                                                                                                                                                                          0000                                                                                          BShaun                              Hurm                                                                                                                                  Shaun.Hurm@AgReliantGenetics.com                                                                                                                                                                            000169     IL00000000                   Administrative Assistant                           Joann                              Conro                              E     5245 Lawrence Dr                                            Kirkland            IL60146    USA                                        334522765  1F19641015          0 0    0.0       60320.00  20220403HR0.0       0.0       10.0       0                                                                                                                                                                                                                                                                                                                                                                                                                                                                                                                                                                                                                                                                                                                                                                                                                                 10   19850909  A        0.0   0.0       0.0      0.0                                                                        STD  STD01A19850909000999LTD  LTD01A19850909000060LEAVEFMLA A19850909000000                   0  0                     0  0                     0  0                     0  0                     0  0       H0.0        M012M0.0                  0.0      0.0      0.0      0.0      0.0      0.0      0.0              19850909 NN           20220425                                                                                                                                                                                                                                                                                                                                                                                                                                                                                                                              
D            09-LF0853                                                                                                                                                                                                                                                                                                                                          0000                                                                                          BShaun                              Hurm                                                                                                                                  Shaun.Hurm@AgReliantGenetics.com                                                                                                                                                                            000184     IA00000000                   Yield Trial Manager                                Michael                            Gregan                             D     1212 Marshall Street                                        Ames                IA50036    USA                                        484820528  1M19590103          0 0    77323.10  0.0       20210926SL0.0       0.0       60.0       0                                                                                                                                                                                                                                                                                                                                                                                                                                                                                                                                                                                                                                                                                                                                                                                                                                 10   19860501  A        0.0   0.0       0.0      0.0                                                                        STD  STD01A19860501000999LTD  LTD01A19860501000060LEAVEFMLA A19860501000000                   0  0                     0  0                     0  0                     0  0                     0  0       H0.0        M012M0.0                  0.0      0.0      0.0      0.0      0.0      0.0      0.0              19860501 NY           20220425                                                                                                                                                                                                                                                                                                                                                                                                                                                                                                                              
D            09-LF0853                                                                                                                                                                                                                                                                                                                                          0000                                                                                          BShaun                              Hurm                                                                                                                                  Shaun.Hurm@AgReliantGenetics.com                                                                                                                                                                            000192     IN00000000                   Equipment Manager                                  Jerry                              Klopfenstein                       W     626 Zephyr Way                                              Westfield           IN46074    USA                                        311800208  1M19701205          0 0    84127.08  0.0       20210926SL0.0       0.0       60.0       0                                                                                                                                                                                                                                                                                                                                                                                                                                                                                                                                                                                                                                                                                                                                                                                                                                 10   19950508  A        0.0   0.0       0.0      0.0                                                                        STD  STD01A19950508000999LTD  LTD01A19950508000060LEAVEFMLA A19950508000000                   0  0                     0  0                     0  0                     0  0                     0  0       H0.0        M012M0.0                  0.0      0.0      0.0      0.0      0.0      0.0      0.0              19950508 NY           20220425                                                                                                                                                                                                                                                                                                                                                                                                                                                                                                                              
D            09-LF0853                                                                                                                                                                                                                                                                                                                                          0000                                                                                          BShaun                              Hurm                                                                                                                                  Shaun.Hurm@AgReliantGenetics.com                                                                                                                                                                            000197     IL00000000                   Nursery Manager                                    Timothy                            Mickey                             M     1222 Crest Ln                                               Rochelle            IL61068    USA                                        325687746  1M19631012          0 0    81800.86  0.0       20210926SL0.0       0.0       60.0       0                                                                                                                                                                                                                                                                                                                                                                                                                                                                                                                                                                                                                                                                                                                                                                                                                                 10   19900619  A        0.0   0.0       0.0      0.0                                                                        STD  STD01A19900619000999LTD  LTD01A19900619000060LEAVEFMLA A19900619000000                   0  0                     0  0                     0  0                     0  0                     0  0       H0.0        M012M0.0                  0.0      0.0      0.0      0.0      0.0      0.0      0.0              19900619 NY           20220425                                                                                                                                                                                                                                                                                                                                                                                                                                                                                                                              
D            09-LF0853                                                                                                                                                                                                                                                                                                                                          0000                                                                                          BShaun                              Hurm                                                                                                                                  Shaun.Hurm@AgReliantGenetics.com                                                                                                                                                                            000203     IN00000000                   Manager, Foundation Seed                           Webb                               Peterson                           L     16747 Cavallina Ln                                          Westfield           IN46074    USA                                        337542267  1M19620503          0 0    117114.00 0.0       20210926SL0.0       0.0       60.0       0                                                                                                                                                                                                                                                                                                                                                                                                                                                                                                                                                                                                                                                                                                                                                                                                                                 10   19860701  A        0.0   0.0       0.0      0.0                                                                        STD  STD01A19860701000999LTD  LTD01A19860701000060LEAVEFMLA A19860701000000                   0  0                     0  0                     0  0                     0  0                     0  0       H0.0        M012M0.0                  0.0      0.0      0.0      0.0      0.0      0.0      0.0              19860701 NY           20220425                                                                                                                                                                                                                                                                                                                                                                                                                                                                                                                              
D            09-LF0853                                                                                                                                                                                                                                                                                                                                          0000                                                                                          BShaun                              Hurm                                                                                                                                  Shaun.Hurm@AgReliantGenetics.com                                                                                                                                                                            000212     IL00000000                   Inventory & Qlty Coord                             Ricky                              Sharp                              L     2055 Carl Ct                                                Decatur             IL62526    USA                                        331505673  1M19560816          0 0    83578.88  0.0       20220410SL0.0       0.0       60.0       0                                                                                                                                                                                                                                                                                                                                                                                                                                                                                                                                                                                                                                                                                                                                                                                                                                 10   19880411  A        0.0   0.0       0.0      0.0                                                                        STD  STD01A19880411000999LTD  LTD01A19880411000060LEAVEFMLA A19880411000000                   0  0                     0  0                     0  0                     0  0                     0  0       H0.0        M012M0.0                  0.0      0.0      0.0      0.0      0.0      0.0      0.0              19880411 NY           20220425                                                                                                                                                                                                                                                                                                                                                                                                                                                                                                                              
D            09-LF0853                                                                                                                                                                                                                                                                                                                                          0000                                                                                          BShaun                              Hurm                                                                                                                                  Shaun.Hurm@AgReliantGenetics.com                                                                                                                                                                            000223     IN00000000                   District Sales Mgr                                 Todd                               Armstrong                          E     3243 W Mount Carmel Rd                                      Fredericksburg      IN47120    USA                                        310825632  1M19720608          0 0    100360.81 0.0       20210926SL0.0       0.0       60.0       0                                                                                                                                                                                                                                                                                                                                                                                                                                                                                                                                                                                                                                                                                                                                                                                                                                 10   19930510  A        0.0   0.0       0.0      0.0                                                                        STD  STD01A19930510000999LTD  LTD01A19930510000060LEAVEFMLA A19930510000000                   0  0                     0  0                     0  0                     0  0                     0  0       H0.0        M012M0.0                  0.0      0.0      0.0      0.0      0.0      0.0      0.0              19930510 NY           20220425                                                                                                                                                                                                                                                                                                                                                                                                                                                                                                                              
D            09-LF0853                                                                                                                                                                                                                                                                                                                                          0000                                                                                          BShaun                              Hurm                                                                                                                                  Shaun.Hurm@AgReliantGenetics.com                                                                                                                                                                            000224     IL00000000                   Inventory & Qlty Coord                             Gerald                             Arseneau                           W     7160 E Chiniquy St                                          Saint Anne          IL60964    USA                                        329680613  1M19640718          0 0    82904.72  0.0       20220410SL0.0       0.0       60.0       0                                                                                                                                                                                                                                                                                                                                                                                                                                                                                                                                                                                                                                                                                                                                                                                                                                 10   19890401  A        0.0   0.0       0.0      0.0                                                                        STD  STD01A19890401000999LTD  LTD01A19890401000060LEAVEFMLA A19890401000000                   0  0                     0  0                     0  0                     0  0                     0  0       H0.0        M012M0.0                  0.0      0.0      0.0      0.0      0.0      0.0      0.0              19890401 NY           20220425                                                                                                                                                                                                                                                                                                                                                                                                                                                                                                                              
D            09-LF0853                                                                                                                                                                                                                                                                                                                                          0000                                                                                          BShaun                              Hurm                                                                                                                                  Shaun.Hurm@AgReliantGenetics.com                                                                                                                                                                            000252     SD00000000                   District Sales Mgr                                 G                                  Duhaime                            R     32997 480th Ave                                             Jefferson           SD57038    USA                                        503981596  1M19671210          0 0    83666.40  0.0       20210926SL0.0       0.0       60.0       0                                                                                                                                                                                                                                                                                                                                                                                                                                                                                                                                                                                                                                                                                                                                                                                                                                 10   19970415  A        0.0   0.0       0.0      0.0                                                                        STD  STD01A19970415000999LTD  LTD01A19970415000060LEAVEFMLA A19970415000000                   0  0                     0  0                     0  0                     0  0                     0  0       H0.0        M012M0.0                  0.0      0.0      0.0      0.0      0.0      0.0      0.0              19970415 NY           20220425                                                                                                                                                                                                                                                                                                                                                                                                                                                                                                                              
D            09-LF0853                                                                                                                                                                                                                                                                                                                                          0000                                                                                          BShaun                              Hurm                                                                                                                                  Shaun.Hurm@AgReliantGenetics.com                                                                                                                                                                            000254     IN00000000                   District Sales Mgr                                 Tarry                              Egnew                              L     4807 W Base Rd                                              Switz City          IN47465    USA                                        315588317  1M19550825          0 0    117670.40 0.0       20210926SL0.0       0.0       60.0       0                                                                                                                                                                                                                                                                                                                                                                                                                                                                                                                                                                                                                                                                                                                                                                                                                                 10   19881206  A        0.0   0.0       0.0      0.0                                                                        STD  STD01A19881206000999LTD  LTD01A19881206000060LEAVEFMLA A19881206000000                   0  0                     0  0                     0  0                     0  0                     0  0       H0.0        M012M0.0                  0.0      0.0      0.0      0.0      0.0      0.0      0.0              19881206 NY           20220425                                                                                                                                                                                                                                                                                                                                                                                                                                                                                                                              
D            09-LF0853                                                                                                                                                                                                                                                                                                                                          0000                                                                                          BShaun                              Hurm                                                                                                                                  Shaun.Hurm@AgReliantGenetics.com                                                                                                                                                                            000255     IL00000000                   District Sales Mgr                                 Bradley                            Ellerbrock                         H     13383 E 2000th St                                           Atkinson            IL61235    USA                                        332686534  1M19710528          0 0    150000.05 0.0       20210926SL0.0       0.0       60.0       0                                                                                                                                                                                                                                                                                                                                                                                                                                                                                                                                                                                                                                                                                                                                                                                                                                 10   19930521  A        0.0   0.0       0.0      0.0                                                                        STD  STD01A19930521000999LTD  LTD01A19930521000060LEAVEFMLA A19930521000000                   0  0                     0  0                     0  0                     0  0                     0  0       H0.0        M012M0.0                  0.0      0.0      0.0      0.0      0.0      0.0      0.0              19930521 NY           20220425                                                                                                                                                                                                                                                                                                                                                                                                                                                                                                                              
D            09-LF0853                                                                                                                                                                                                                                                                                                                                          0000                                                                                          BShaun                              Hurm                                                                                                                                  Shaun.Hurm@AgReliantGenetics.com                                                                                                                                                                            000256     IL00000000                   Area Business Manager                              Jeffrey                            Ellerbrock                         C     20082 N 1450th Ave                                          Atkinson            IL61235    USA                                        332688095  1M19680716          0 0    150000.00 0.0       20210926SL0.0       0.0       60.0       0                                                                                                                                                                                                                                                                                                                                                                                                                                                                                                                                                                                                                                                                                                                                                                                                                                 10   19900531  A        0.0   0.0       0.0      0.0                                                                        STD  STD01A19900531000999LTD  LTD01A19900531000060LEAVEFMLA A19900531000000                   0  0                     0  0                     0  0                     0  0                     0  0       H0.0        M012M0.0                  0.0      0.0      0.0      0.0      0.0      0.0      0.0              19900531 NY           20220425                                                                                                                                                                                                                                                                                                                                                                                                                                                                                                                              
D            09-LF0853                                                                                                                                                                                                                                                                                                                                          0000                                                                                          BShaun                              Hurm                                                                                                                                  Shaun.Hurm@AgReliantGenetics.com                                                                                                                                                                            000276     IL00000000                   District Sales Mgr                                 Charles                            Head                               M     2756 N 1900 East Rd                                         Blue Mound          IL62513    USA                                        354585387  1M19581220          0 0    95704.00  0.0       20210926SL0.0       0.0       60.0       0                                                                                                                                                                                                                                                                                                                                                                                                                                                                                                                                                                                                                                                                                                                                                                                                                                 10   19900702  A        0.0   0.0       0.0      0.0                                                                        STD  STD01A19900702000999LTD  LTD01A19900702000060LEAVEFMLA A19900702000000                   0  0                     0  0                     0  0                     0  0                     0  0       H0.0        M012M0.0                  0.0      0.0      0.0      0.0      0.0      0.0      0.0              19900702 NY           20220425                                                                                                                                                                                                                                                                                                                                                                                                                                                                                                                              
D            09-LF0853                                                                                                                                                                                                                                                                                                                                          0000                                                                                          BShaun                              Hurm                                                                                                                                  Shaun.Hurm@AgReliantGenetics.com                                                                                                                                                                            000284     IL00000000                   Specialty Products Mgr                             Charles                            Hill                               R     1173 Woods Ln                                               Jacksonville        IL62650    USA                                        319501752  1M19600208          0 0    107087.00 0.0       20210926SL0.0       0.0       60.0       0                                                                                                                                                                                                                                                                                                                                                                                                                                                                                                                                                                                                                                                                                                                                                                                                                                 10   19870223  A        0.0   0.0       0.0      0.0                                                                        STD  STD01A19870223000999LTD  LTD01A19870223000060LEAVEFMLA A19870223000000                   0  0                     0  0                     0  0                     0  0                     0  0       H0.0        M012M0.0                  0.0      0.0      0.0      0.0      0.0      0.0      0.0              19870223 NY           20220425                                                                                                                                                                                                                                                                                                                                                                                                                                                                                                                              
D            09-LF0853                                                                                                                                                                                                                                                                                                                                          0000                                                                                          BShaun                              Hurm                                                                                                                                  Shaun.Hurm@AgReliantGenetics.com                                                                                                                                                                            000303     IL00000000                   District Sales Mgr                                 Gerald                             Kastler                            L     202 Fairwood Pl                                             Rockton             IL61072    USA                                        328507009  1M19580718          0 0    119000.69 0.0       20210926SL0.0       0.0       60.0       0                                                                                                                                                                                                                                                                                                                                                                                                                                                                                                                                                                                                                                                                                                                                                                                                                                 10   19991018  A        0.0   0.0       0.0      0.0                                                                        STD  STD01A19991018000999LTD  LTD01A19991018000060LEAVEFMLA A19991018000000                   0  0                     0  0                     0  0                     0  0                     0  0       H0.0        M012M0.0                  0.0      0.0      0.0      0.0      0.0      0.0      0.0              19991018 NY           20220425                                                                                                                                                                                                                                                                                                                                                                                                                                                                                                                              
D            09-LF0853                                                                                                                                                                                                                                                                                                                                          0000                                                                                          BShaun                              Hurm                                                                                                                                  Shaun.Hurm@AgReliantGenetics.com                                                                                                                                                                            000316     IN00000000                   Key Account Manager                                Mark                               Law                                A     9890 S Tailwater Dr                                         Bloomington         IN47401    USA                                        304723434  1M19640608          0 0    145743.00 0.0       20210926SL0.0       0.0       60.0       0                                                                                                                                                                                                                                                                                                                                                                                                                                                                                                                                                                                                                                                                                                                                                                                                                                 10   19900822  A        0.0   0.0       0.0      0.0                                                                        STD  STD01A19900822000999LTD  LTD01A19900822000060LEAVEFMLA A19900822000000                   0  0                     0  0                     0  0                     0  0                     0  0       H0.0        M012M0.0                  0.0      0.0      0.0      0.0      0.0      0.0      0.0              19900822 NY           20220425                                                                                                                                                                                                                                                                                                                                                                                                                                                                                                                              
D            09-LF0853                                                                                                                                                                                                                                                                                                                                          0000                                                                                          BShaun                              Hurm                                                                                                                                  Shaun.Hurm@AgReliantGenetics.com                                                                                                                                                                            000335     IN00000000                   Director, Finance                                  Philip                             Nordeen                            M     1612 White Ash Dr                                           Carmel              IN46033    USA                                        510749585  1M19600624          0 0    180776.00 0.0       20210926SL0.0       0.0       60.0       0                                                                                                                                                                                                                                                                                                                                                                                                                                                                                                                                                                                                                                                                                                                                                                                                                                 10   19880225  A        0.0   0.0       0.0      0.0                                                                        STD  STD01A19880225000999LTD  LTD01A19880225000060LEAVEFMLA A19880225000000                   0  0                     0  0                     0  0                     0  0                     0  0       H0.0        M012M0.0                  0.0      0.0      0.0      0.0      0.0      0.0      0.0              19880225 NY           20220425                                                                                                                                                                                                                                                                                                                                                                                                                                                                                                                              
D            09-LF0853                                                                                                                                                                                                                                                                                                                                          0000                                                                                          BShaun                              Hurm                                                                                                                                  Shaun.Hurm@AgReliantGenetics.com                                                                                                                                                                            000342     IL00000000                   District Sales Mgr                                 Travis                             Phelps                             L     7449 Woodland Hills Rd                                      Rushville           IL62681    USA                                        360528868  1M19700310          0 0    157796.30 0.0       20210926SL0.0       0.0       60.0       0                                                                                                                                                                                                                                                                                                                                                                                                                                                                                                                                                                                                                                                                                                                                                                                                                                 10   19920601  A        0.0   0.0       0.0      0.0                                                                        STD  STD01A19920601000999LTD  LTD01A19920601000060LEAVEFMLA A19920601000000                   0  0                     0  0                     0  0                     0  0                     0  0       H0.0        M012M0.0                  0.0      0.0      0.0      0.0      0.0      0.0      0.0              19920601 NY           20220425                                                                                                                                                                                                                                                                                                                                                                                                                                                                                                                              
D            09-LF0853                                                                                                                                                                                                                                                                                                                                          0000                                                                                          BShaun                              Hurm                                                                                                                                  Shaun.Hurm@AgReliantGenetics.com                                                                                                                                                                            000343     IL00000000                   District Sales Mgr                                 Andrew                             Phelps                             K     202 E Main St # 112                                         Arenzville          IL62611    USA                                        360528882  1M19630223          0 0    104511.61 0.0       20210926SL0.0       0.0       60.0       0                                                                                                                                                                                                                                                                                                                                                                                                                                                                                                                                                                                                                                                                                                                                                                                                                                 10   19990524  A        0.0   0.0       0.0      0.0                                                                        STD  STD01A19990524000999LTD  LTD01A19990524000060LEAVEFMLA A19990524000000                   0  0                     0  0                     0  0                     0  0                     0  0       H0.0        M012M0.0                  0.0      0.0      0.0      0.0      0.0      0.0      0.0              19990524 NY           20220425                                                                                                                                                                                                                                                                                                                                                                                                                                                                                                                              
D            09-LF0853                                                                                                                                                                                                                                                                                                                                          0000                                                                                          BShaun                              Hurm                                                                                                                                  Shaun.Hurm@AgReliantGenetics.com                                                                                                                                                                            000349     IL00000000                   District Sales Mgr                                 Brian                              Rinderer                           A     871 Rinderer Rd                                             Highland            IL62249    USA                                        356587787  1M19731129          0 0    110000.00 0.0       20211024SL0.0       0.0       60.0       0                                                                                                                                                                                                                                                                                                                                                                                                                                                                                                                                                                                                                                                                                                                                                                                                                                 10   19960311  A        0.0   0.0       0.0      0.0                                                                        STD  STD01A19960311000999LTD  LTD01A19960311000060LEAVEFMLA A19960311000000                   0  0                     0  0                     0  0                     0  0                     0  0       H0.0        M012M0.0                  0.0      0.0      0.0      0.0      0.0      0.0      0.0              19960311 NY           20220425                                                                                                                                                                                                                                                                                                                                                                                                                                                                                                                              
