20220719G000BYQKM001003    Nicol                              James                     M19590522                                                                                                                                                                                                                   2010030820211101                                                                    202111010001                                                                      20211108A0000000013000000                                                                                                            20211101A001                                                                                                                                                                                              120181201ENLTL00NCSALC                                                                                        S20100501ENSTS00NCSALC                                 T20100501ENTTT00NCSALC                                 320100308ENETL0CEEVALC    201003080000100000                                                                                                                                                                                                                                                                                                                                                                                                                                                                                                                                                                                                       
20220719G000BYQKM001004    Oliver                             Pamela                    F19830905                                                                                                                                                                                                                   2010080220211101                                                                    202111010001                                                                      20210920A0000000009600000                                                                                                            20211101A002                                                                                                                                                                                              120100802ENLTL00NCSALC                                                                                        S20101001ENSTS00NCSALC                                 T20101001ENTTT00NCSALC                                                                                                                                                                                                                                                                                                                                                                                                                                                                                                                                                                                                                                                                                    
20220719G000BYQKM001005    Short                              Cecelia                   F19700125                                                                                                                                                                                                                   2001010120211101                                                                    202111010001                                                                      20211001A0000000007261000                                                                                                            20211101A002                                                                                                                                                                                              120100301ENLTL00NCSALC                                                                                        S20100501ENSTS00NCSALC                                 T20100501ENTTT00NCSALC                                 320100301ENETL0CEEVALC    201003010000075000                                                                                                                                                                                                                                                                                                                                                                                                                                                                                                                                                                                                       
20220719G000BYQKM001007    Wohlgenant                         Denise                    F19561017                                                                                                                                                                                                                   2010021520211101                                                                    202111010001                                                                      20211001A0000000017346500                                                                                                            20211101A002                                                                                                                                                                                              120100215ENLTL00NCSALC                                 a20100401ENATA00NCSALC                                 S20100401ENSTS00NCSALC                                 T20100401ENTTT00NCSALC                                                                                                                                                                                                                                                                                                                                                                                                                                                                                                                                                                                                                                                                                    
20220719G000BYQKD001012    DAVEY                              KATHERINE                 F19970326                                                                                                                                                                                                                   2010062420211101                                                                    202111010001                                                                      20201228A0000000031499995                                                                                                            20211101                                                                                                                                                                                                                                                                                                                                                                                                                                                                                                                                            420201201ENETL0CSPVALC            0000002500                                                                                                                                                                                                                                                                                                                                                                                                                                                                                         
20220719G000BYQKM001012    Kelly                              Mary                      F19621231                                                                                                                                                                                                                   2010062420211101                                                                    202111010001                                                                      20201228A0000000031499995                                                                                                            20211101A001                                                                                                                                                                                              120191201ENLTL00NCSALC                                                                                        S20210401ENSTS00NCSALC                                 T20210401ENTTT00NCSALC                                 320100624ENETL0CEEVALC    201006240000150000           420211201ENETL0CSPVALC    202112010000050000           420201201ENETL0CSPVALC    202112010000002500                                                                                                                                                                                                                                                                                                                                                                                                                                                                                         
20220719G000BYQKW001012    Davey                              Clare                     F19640714                                                                                                                                                                                                                   2010062420211101                                                                    202111010001                                                                      20201228A0000000031499995                                                                                                            20211101                                                                                                                                                                                                                                                                                                                                                                                                                                                                                     420211201ENETL0CSPVALC    202112010000050000                                                                                                                                                                                                                                                                                                                                                                                                                                                                                                                                                
20220719G000BYQKM001013    Kimble                             Roy                       M19480214                                                                                                                                                                                                                   2011071720211101                                                                    202111010001                                                                      20211001A0000000003074100                                                                                                            20211101A002                                                                                                                                                                                              120150112ENLTL00NCSALC                                 a20150301ENATA00NCSALC                                 S20150301ENSTS00NCSALC                                 T20150301ENTTT00NCSALC                                                                                                                                                                                                                                                                                                                                                                                                                                                                                                                                                                                                                                                                                    
20220719G000BYQKM001019    Passmore                           Keith                     M19680113                                                                                                                                                                                                                   2011100320211101                                                                    202111010001                                                                      20211001A0000000009412500                                                                                                            20211101A002                                                                                                                                                                                              120111003ENLTL00NCSALC                                                                                        S20111201ENSTS00NCSALC                                 T20111201ENTTT00NCSALC                                                                                                                                                                                                                                                                                                                                                                                                                                                                                                                                                                                                                                                                                    
20220719G000BYQKM001024    Ware                               Terra                     F19740502                                                                                                                                                                                                                   2012020920211101                                                                    202111010001                                                                      20220124A0000000005500000                                                                                                            20211101A002                                                                                                                                                                                              120120209ENLTL00NCSALC                                                                                        S20120401ENSTS00NCSALC                                 T20120401ENTTT00NCSALC                                 320201201ENETL0CEEVALC    202012010000025000                                                                                                                                                                                                                                                                                                                                                                                                                                                                                                                                                                                                       
20220719G000BYQKM001035    Schurz                             Joanna                    F19470729                                                                                                                                                                                                                   2013012220211101                                                                    202111010001                                                                      20211001A0000000006687500                                                                                                            20211101A002                                                                                                                                                                                              120130122ENLTL00NCSALC                                 a20130301ENATA00NCSALC                                 S20130301ENSTS00NCSALC                                 T20130301ENTTT00NCSALC                                                                                                                                                                                                                                                                                                                                                                                                                                                                                                                                                                                                                                                                                    
20220719G000BYQKM001044    Marmo                              Toshia                    F19871208                                                                                                                                                                                                                   2018022020211101                                                                    202111010001                                                                      20211001A0000000004794000                                                                                                            20211101A002                                                                                                                                                                                              120180220ENLTL00NCSALC                                 a20180401ENATA00NCSALC                                 S20180401ENSTS00NCSALC                                 T20180401ENTTT00NCSALC                                                                                                                                                                                                                                                                                                                                                                                                                                                                                                                                                                                                                                                                                    
20220719G000BYQKM001134    Gillespie                          Gavin                     M19640804                                                                                                                                                                                                                   2011122720211101                                                                    202111010001                                                                      20211001A0000000010035800                                                                                                            20211101A002                                                                                                                                                                                              120111227ENLTL00NCSALC                                                                                        S20120201ENSTS00NCSALC                                 T20120201ENTTT00NCSALC                                 320211201ENETL0CEEVALC    202112010000150000                                                                                                                                                                                                                                                                                                                                                                                                                                                                                                                                                                                                       
20220719G000BYQKD000141    MADIOUNI                           AYAH                      F20200420                                                                                                                                                                                                                   2009101920211101                                                                    202111010001                                                                      20211001A0000000005109300                                                                                                            20211101                                                                                                                                                                                                                                                                                                                                                                                                                                                                                                                                            420201201ENETL0CSPVALC            0000010000                                                                                                                                                                                                                                                                                                                                                                                                                                                                                         
20220719G000BYQKD000141    MORGAN                             MAKAILIN                  F20070501                                                                                                                                                                                                                   2009101920211101                                                                    202111010001                                                                      20211001A0000000005109300                                                                                                            20211101                                                                                                                                                                                                                                                                                                                                                                                                                                                                                                                                            420181201ENETL0CSPVALC            0000010000                                                                                                                                                                                                                                                                                                                                                                                                                                                                                         
20220719G000BYQKH000141    MADIOUNI                           MONTASAR                  M19900828                                                                                                                                                                                                                   2009101920211101                                                                    202111010001                                                                      20211001A0000000005109300                                                                                                            20211101                                                                                                                                                                                                                                                                                                                                                                                                                                                                                     420181201ENETL0CSPVALC    201812010000100000                                                                                                                                                                                                                                                                                                                                                                                                                                                                                                                                                
20220719G000BYQKM000141    Madiouni                           Rhonda                    F19770316                                                                                                                                                                                                                   2009101920211101                                                                    202111010001                                                                      20211001A0000000005109300                                                                                                            20211101A002                                                                                                                                                                                              120091019ENLTL00NCSALC                                                                                        S20091201ENSTS00NCSALC                                 T20091201ENTTT00NCSALC                                 320091019ENETL0CEEVALC    200910190000150000           420091019ENETL0CSPVALC    200910190000100000           420091019ENETL0CSPVALC    200910190000010000                                                                                                                                                                                                                                                                                                                                                                                                                                                                                         
20220719G000BYQKS000141    MADIOUNI                           ADAM                      M20130328                                                                                                                                                                                                                   2009101920211101                                                                    202111010001                                                                      20211001A0000000005109300                                                                                                            20211101                                                                                                                                                                                                                                                                                                                                                                                                                                                                                                                                            420181201ENETL0CSPVALC            0000010000                                                                                                                                                                                                                                                                                                                                                                                                                                                                                         
20220719G000BYQKS000141    MORGAN                             MALAKAI                   M20010715                                                                                                                                                                                                                   2009101920211101                                                                    202111010001                                                                      20211001A0000000005109300                                                                                                            20211101                                                                                                                                                                                                                                                                                                                                                                                                                                                                                                                                            420181201ENETL0CSPVALC            0000010000                                                                                                                                                                                                                                                                                                                                                                                                                                                                                         
20220719G000BYQKS000141    MORGAN                             MALEK                     M20041119                                                                                                                                                                                                                   2009101920211101                                                                    202111010001                                                                      20211001A0000000005109300                                                                                                            20211101                                                                                                                                                                                                                                                                                                                                                                                                                                                                                                                                            420181201ENETL0CSPVALC            0000010000                                                                                                                                                                                                                                                                                                                                                                                                                                                                                         
20220719G000BYQKM003052    Sull                               Jennifer                  F19840222                                                                                                                                                                                                                   2006050120211101                                                                    202111010001                                                                      20220214A0000000010000000                                                                                                            20211101A002                                                                                                                                                                                              120060501ENLTL00NCSALC                                                                                        S20060701ENSTS00NCSALC                                 T20060701ENTTT00NCSALC                                 320060501ENETL0CEEVALC    200605010000075000                                                                                                                                                                                                                                                                                                                                                                                                                                                                                                                                                                                                       
20220719G000BYQKM003527    Marsh                              Dylan                     M19781016                                                                                                                                                                                                                   2013120920211101                                                                    202111010001                                                                      20211001A0000000016000000                                                                                                            20211101A001                                                                                                                                                                                              120181201ENLTL00NCSALC                                                                                        S20140201ENSTS00NCSALC                                 T20140201ENTTT00NCSALC                                                                                                                                                                                                                                                                                                                                                                                                                                                                                                                                                                                                                                                                                    
20220719G000BYQKD003543    PENA                               SAVANNA                   F19980722                                                                                                                                                                                                                   2013122020211101                                                                    202111010001                                                                      20211001A0000000010380200                                                                                                            20211101                                                                                                                                                                                                                                                                                                                                                                                                                                                                                                                                            420191201ENETL0CSPVALC            0000010000                                                                                                                                                                                                                                                                                                                                                                                                                                                                                         
20220719G000BYQKM003543    Pacheco                            Jenny                     F19730110                                                                                                                                                                                                                   2013122020211101                                                                    202111010001                                                                      20211001A0000000010380200                                                                                                            20211101A002                                                                                                                                                                                              120131220ENLTL00NCSALC                                                                                        S20140201ENSTS00NCSALC                                 T20140201ENTTT00NCSALC                                 320131220ENETL0CEEVALC    201312200000150000                                                                  420131220ENETL0CSPVALC            0000010000                                                                                                                                                                                                                                                                                                                                                                                                                                                                                         
20220719G000BYQKM003606    Milligan                           Brandon                   M19781201                                                                                                                                                                                                                   2014031020211101                                                                    202111010001                                                                      20211001A0000000022000000                                                                                                            20211101A001                                                                                                                                                                                              120181201ENLTL00NCSALC                                                                                        S20140501ENSTS00NCSALC                                 T20140501ENTTT00NCSALC                                 320211201ENETL0CEEVALC    202112010000150000                                                                                                                                                                                                                                                                                                                                                                                                                                                                                                                                                                                                       
20220719G000BYQKM003610    Palumbo                            John                      M19640618                                                                                                                                                                                                                   2014032720211101                                                                    202111010004                                                                      20211001A0000000012985400                                                                                                            20211101A002                                                                                                                                                                                              120180615ENLTL00NCSALC                                                                                        S20140501ENSTS00NCSALC                                 T20140501ENTTT00NCSALC                                                                                                                                                                                                                                                                                                                                                                                                                                                                                                                                                                                                                                                                                    
20220719G000BYQKH003825    Scott                              Jason                     M19810128                                                                                                                                                                                                                   2015100520211101                                                                    202111010001                                                                      20211001A0000000004412500                                                                                                            20211101                                                                                                                                                                                                                                                                                                                                                                                                                                                                                     420211201ENETL0CSPVALC    202112010000050000                                                                                                                                                                                                                                                                                                                                                                                                                                                                                                                                                
20220719G000BYQKM003825    Scott                              Bernadette                F19801226                                                                                                                                                                                                                   2015100520211101                                                                    202111010001                                                                      20211001A0000000004412500                                                                                                            20211101A002                                                                                                                                                                                              120151005ENLTL00NCSALC                                                                                        S20200530ENSTS00NCSALC                                 T20200530ENTTT00NCSALC                                 320211201ENETL0CEEVALC    202112010000100000           420211201ENETL0CSPVALC    202112010000050000                                                                                                                                                                                                                                                                                                                                                                                                                                                                                                                                                
20220719G000BYQKM003830    Pittman                            Kelly                     M19660510                                                                                                                                                                                                                   2015101220211101                                                                    202111010001                                                                      20211001A0000000005797500                                                                                                            20211101A002                                                                                                                                                                                              120151012ENLTL00NCSALC                                                                                        S20151201ENSTS00NCSALC                                 T20151201ENTTT00NCSALC                                                                                                                                                                                                                                                                                                                                                                                                                                                                                                                                                                                                                                                                                    
20220719G000BYQKM003893    Rubio                              Mariana                   F19830515                                                                                                                                                                                                                   2016030720211101                                                                    202111010001                                                                      20211001A0000000004412500                                                                                                            20211101A002                                                                                                                                                                                              120160307ENLTL00NCSALC                                 a20160501ENATA00NCSALC                                 S20160501ENSTS00NCSALC                                 T20160501ENTTT00NCSALC                                                                                                                                                                                                                                                                                                                                                                                                                                                                                                                                                                                                                                                                                    
20220719G000BYQKM003898    Smith                              Kyle                      M19840625                                                                                                                                                                                                                   2016031520211101                                                                    202111010001                                                                      20211001A0000000009728300                                                                                                            20211101A002                                                                                                                                                                                              120160315ENLTL00NCSALC                                                                                        S20160501ENSTS00NCSALC                                 T20160501ENTTT00NCSALC                                 320160315ENETL0CEEVALC    201603150000150000                                                                                                                                                                                                                                                                                                                                                                                                                                                                                                                                                                                                       
20220719G000BYQKD004133    Granado                            Elena                     F20121223                                                                                                                                                                                                                   2017110620211101                                                                    202111010001                                                                      20211001A0000000004412500                                                                                                            20211101                                                                                                                                                                                                                                                                                                                                                                                                                                                                                                                                            420191201ENETL0CSPVALC            0000010000                                                                                                                                                                                                                                                                                                                                                                                                                                                                                         
20220719G000BYQKM004133    Sanchez                            Marilyn                   F19830107                                                                                                                                                                                                                   2017110620211101                                                                    202111010001                                                                      20211001A0000000004412500                                                                                                            20211101A002                                                                                                                                                                                              120171106ENLTL00NCSALC                                                                                        S20180101ENSTS00NCSALC                                 T20180101ENTTT00NCSALC                                 320191201ENETL0CEEVALC    201912010000100000                                                                  420191201ENETL0CSPVALC            0000010000                                                                                                                                                                                                                                                                                                                                                                                                                                                                                         
20220719G000BYQKS004133    granado                            christopher               M20101209                                                                                                                                                                                                                   2017110620211101                                                                    202111010001                                                                      20211001A0000000004412500                                                                                                            20211101                                                                                                                                                                                                                                                                                                                                                                                                                                                                                                                                            420191201ENETL0CSPVALC            0000010000                                                                                                                                                                                                                                                                                                                                                                                                                                                                                         
20220719G000BYQKS004133    Granado                            Eli                       M20160403                                                                                                                                                                                                                   2017110620211101                                                                    202111010001                                                                      20211001A0000000004412500                                                                                                            20211101                                                                                                                                                                                                                                                                                                                                                                                                                                                                                                                                            420191201ENETL0CSPVALC            0000010000                                                                                                                                                                                                                                                                                                                                                                                                                                                                                         
20220719G000BYQKM004184    Buel                               Zander                    M19920521                                                                                                                                                                                                                   2018012920211101                                                                    202111010001                                                                      20211001A0000000005446600                                                                                                            20211101A002                                                                                                                                                                                              120180129ENLTL00NCSALC                                                                                        S20180301ENSTS00NCSALC                                 T20180301ENTTT00NCSALC                                                                                                                                                                                                                                                                                                                                                                                                                                                                                                                                                                                                                                                                                    
20220719G000BYQKM000134    Orduno                             Miguel                    M19600319                                                                                                                                                                                                                   2010100520211101                                                                    202111010004                                                                      20211001A0000000006712300                                                                                                            20211101A002                                                                                                                                                                                              120101005ENLTL00NCSALC                                                                                        S20101201ENSTS00NCSALC                                 T20101201ENTTT00NCSALC                                 320181201ENETL0CEEVALC    201812010000025000           420201201ENETL0CSPVALC    202012010000005000                                                                                                                                                                                                                                                                                                                                                                                                                                                                                                                                                
20220719G000BYQKW000134    Orduno                             Alejandrina               F19610629                                                                                                                                                                                                                   2010100520211101                                                                    202111010004                                                                      20211001A0000000006712300                                                                                                            20211101                                                                                                                                                                                                                                                                                                                                                                                                                                                                                     420201201ENETL0CSPVALC    202012010000005000                                                                                                                                                                                                                                                                                                                                                                                                                                                                                                                                                
20220719G000BYQKM000137    Rivera-Diaz                        Grace                     F19710717                                                                                                                                                                                                                   2011010120211101                                                                    202111010004                                                                      20211001A0000000008427100                                                                                                            20211101A002                                                                                                                                                                                              120110101ENLTL00NCSALC                                                                                        S20110301ENSTS00NCSALC                                 T20110301ENTTT00NCSALC                                                                                                                                                                                                                                                                                                                                                                                                                                                                                                                                                                                                                                                                                    
20220719G000BYQKM000173    Caldwell                           Guy                       M19680715                                                                                                                                                                                                                   2011090620211101                                                                    202111010004                                                                      20211001A0000000006737800                                                                                                            20211101A002                                                                                                                                                                                              120110906ENLTL00NCSALC                                                                                        S20111201ENSTS00NCSALC                                 T20111201ENTTT00NCSALC                                                                                                                                                                                                                                                                                                                                                                                                                                                                                                                                                                                                                                                                                    
20220719G000BYQKD003441    BEJARANO                           JASMINE                   F19971202                                                                                                                                                                                                                   2013070820211101                                                                    202111010004                                                                      20211001A0000000006253800                                                                                                            20211101                                                                                                                                                                                                                                                                                                                                                                                                                                                                                                                                            420181201ENETL0CSPVALC            0000010000                                                                                                                                                                                                                                                                                                                                                                                                                                                                                         
20220719G000BYQKD003441    WATT                               JULIANNA                  F20060122                                                                                                                                                                                                                   2013070820211101                                                                    202111010004                                                                      20211001A0000000006253800                                                                                                            20211101                                                                                                                                                                                                                                                                                                                                                                                                                                                                                                                                            420181201ENETL0CSPVALC            0000010000                                                                                                                                                                                                                                                                                                                                                                                                                                                                                         
20220719G000BYQKM003441    Watt                               Christopher               M19710103                                                                                                                                                                                                                   2013070820211101                                                                    202111010004                                                                      20211001A0000000006253800                                                                                                            20211101A002                                                                                                                                                                                              120130708ENLTL00NCSALC                                                                                        S20171101ENSTS00NCSALC                                 T20171101ENTTT00NCSALC                                 320130708ENETL0CEEVALC    201307080000100000           420130708ENETL0CSPVALC    201307080000100000           420130708ENETL0CSPVALC    201307080000010000                                                                                                                                                                                                                                                                                                                                                                                                                                                                                         
20220719G000BYQKS003441    WATT                               ALEXANDER                 M20130814                                                                                                                                                                                                                   2013070820211101                                                                    202111010004                                                                      20211001A0000000006253800                                                                                                            20211101                                                                                                                                                                                                                                                                                                                                                                                                                                                                                                                                            420181201ENETL0CSPVALC            0000010000                                                                                                                                                                                                                                                                                                                                                                                                                                                                                         
20220719G000BYQKS003441    WATT                               CHRISTOPHER               M20090705                                                                                                                                                                                                                   2013070820211101                                                                    202111010004                                                                      20211001A0000000006253800                                                                                                            20211101                                                                                                                                                                                                                                                                                                                                                                                                                                                                                                                                            420181201ENETL0CSPVALC            0000010000                                                                                                                                                                                                                                                                                                                                                                                                                                                                                         
20220719G000BYQKW003441    Bejarano-Watt                      Lydia                     F19780503                                                                                                                                                                                                                   2013070820211101                                                                    202111010004                                                                      20211001A0000000006253800                                                                                                            20211101                                                                                                                                                                                                                                                                                                                                                                                                                                                                                     420181201ENETL0CSPVALC    201812010000100000                                                                                                                                                                                                                                                                                                                                                                                                                                                                                                                                                
20220719G000BYQKM004627    Wysack                             Megan                     F19870902                                                                                                                                                                                                                   2014092220211101                                                                    202111010001                                                                      20211001A0000000007140000                                                                                                            20211101A002                                                                                                                                                                                              120201005ENLTL00NCSALC                                 a20201005ENATA00NCSALC                                 S20201005ENSTS00NCSALC                                 T20201005ENTTT00NCSALC                                                                                                                                                                                                                                                                                                                                                                                                                                                                                                                                                                                                                                                                                    
20220719G000BYQKM004609    Hightower                          Taya                      F19820416                                                                                                                                                                                                                   2015011420211101                                                                    202111010001                                                                      20211001A0000000005406000                                                                                                            20211101A002                                                                                                                                                                                              120200824ENLTL00NCSALC                                 a20200824ENATA00NCSALC                                 S20200824ENSTS00NCSALC                                 T20200824ENTTT00NCSALC                                                                                                                                                                                                                                                                                                                                                                                                                                                                                                                                                                                                                                                                                    
20220719G000BYQKM003736    Wilnewic                           Sharon                    F19600425                                                                                                                                                                                                                   2015020920211101                                                                    202111010004                                                                      20211001A0000000008468800                                                                                                            20211101A002                                                                                                                                                                                              120150209ENLTL00NCSALC                                 a20150401ENATA00NCSALC                                 S20150401ENSTS00NCSALC                                 T20150401ENTTT00NCSALC                                                                                                                                                                                                                                                                                                                                                                                                                                                                                                                                                                                                                                                                                    
20220719G000BYQKM003824    Heiman II                          David                     M19660220                                                                                                                                                                                                                   2015093020211101                                                                    202111010004                                                                      20211001A0000000007885800                                                                                                            20211101A002                                                                                                                                                                                              120150930ENLTL00NCSALC                                                                                        S20151101ENSTS00NCSALC                                 T20151101ENTTT00NCSALC                                 320211201ENETL0CEEVALC    202112010000025000           420211201ENETL0CSPVALC    202112010000005000           420211201ENETL0CSPVALC    202112010000002500                                                                                                                                                                                                                                                                                                                                                                                                                                                                                         
20220719G000BYQKS003824    HEIMAN                             JAMES                     M20011212                                                                                                                                                                                                                   2015093020211101                                                                    202111010004                                                                      20211001A0000000007885800                                                                                                            20211101                                                                                                                                                                                                                                                                                                                                                                                                                                                                                                                                            420211201ENETL0CSPVALC            0000002500                                                                                                                                                                                                                                                                                                                                                                                                                                                                                         
20220719G000BYQKS003824    HEIMAN III                         DAVID                     M19990128                                                                                                                                                                                                                   2015093020211101                                                                    202111010004                                                                      20211001A0000000007885800                                                                                                            20211101                                                                                                                                                                                                                                                                                                                                                                                                                                                                                                                                            420211201ENETL0CSPVALC            0000002500                                                                                                                                                                                                                                                                                                                                                                                                                                                                                         
20220719G000BYQKW003824    HEIMAN                             PAMELA                    F19660829                                                                                                                                                                                                                   2015093020211101                                                                    202111010004                                                                      20211001A0000000007885800                                                                                                            20211101                                                                                                                                                                                                                                                                                                                                                                                                                                                                                     420211201ENETL0CSPVALC    202112010000005000                                                                                                                                                                                                                                                                                                                                                                                                                                                                                                                                                
20220719G000BYQKD003842    Jones                              ABBIGAIL                  F19960323                                                                                                                                                                                                                   2015110220211101                                                                    202111010004                                                                      20211001A0000000005625900                                                                                                            20211101                                                                                                                                                                                                                                                                                                                                                                                                                                                                                                                                            420191201ENETL0CSPVALC            0000005000                                                                                                                                                                                                                                                                                                                                                                                                                                                                                         
20220719G000BYQKD003842    King                               Isabell                   F20061211                                                                                                                                                                                                                   2015110220211101                                                                    202111010004                                                                      20211001A0000000005625900                                                                                                            20211101                                                                                                                                                                                                                                                                                                                                                                                                                                                                                                                                            420191201ENETL0CSPVALC            0000005000                                                                                                                                                                                                                                                                                                                                                                                                                                                                                         
20220719G000BYQKD003842    LUCIO                              JESSICA                   F19970410                                                                                                                                                                                                                   2015110220211101                                                                    202111010004                                                                      20211001A0000000005625900                                                                                                            20211101                                                                                                                                                                                                                                                                                                                                                                                                                                                                                                                                            420191201ENETL0CSPVALC            0000005000                                                                                                                                                                                                                                                                                                                                                                                                                                                                                         
20220719G000BYQKM003842    Lucio                              Alan                      M19651003                                                                                                                                                                                                                   2015110220211101                                                                    202111010004                                                                      20211001A0000000005625900                                                                                                            20211101A002                                                                                                                                                                                              120151102ENLTL00NCSALC                                                                                        S20160101ENSTS00NCSALC                                 T20160101ENTTT00NCSALC                                 320191201ENETL0CEEVALC    201912010000050000                                                                  420191201ENETL0CSPVALC            0000005000                                                                                                                                                                                                                                                                                                                                                                                                                                                                                         
20220719G000BYQKS003842    LUCIO                              JOSHUA                    M20010610                                                                                                                                                                                                                   2015110220211101                                                                    202111010004                                                                      20211001A0000000005625900                                                                                                            20211101                                                                                                                                                                                                                                                                                                                                                                                                                                                                                                                                            420191201ENETL0CSPVALC            0000005000                                                                                                                                                                                                                                                                                                                                                                                                                                                                                         
20220719G000BYQKM003977    Barnett                            Lisa                      F19690512                                                                                                                                                                                                                   2016111520211101                                                                    202111010004                                                                      20211001A0000000004024400                                                                                                            20211101A002                                                                                                                                                                                              120161115ENLTL00NCSALC                                                                                        S20170101ENSTS00NCSALC                                 T20170101ENTTT00NCSALC                                 320161115ENETL0CEEVALC    201611150000025000                                                                                                                                                                                                                                                                                                                                                                                                                                                                                                                                                                                                       
20220719G000BYQKM003990    Winters                            Joshua                    M19810721                                                                                                                                                                                                                   2016112820211101                                                                    202111010004                                                                      20211001A0000000004636600                                                                                                            20211101A002                                                                                                                                                                                              120161128ENLTL00NCSALC                                 a20170101ENATA00NCSALC                                 S20170101ENSTS00NCSALC                                 T20170101ENTTT00NCSALC                                                                                                                                                                                                                                                                                                                                                                                                                                                                                                                                                                                                                                                                                    
