09-LF0188    95720200819                                                                                                                                                                                                                                                                                                                                                                                                                                                                                                                                                                                                                                                                                                                                                                                                                  
F253777914  000061     Nasra                              Ahmed                              A     461 Waldwick Ct                                             Lawrenceville       GA30045    19860406F2015011920150119A        1GA000000000000    2008.00          67         8        8        8        8        8      0.0      0.0              Daniese                            Adams                              dadams@firstkeyhomes.com                                                                                                                                                                                                                                                                                                                                                                              20200819  
F257029447  000064     Sheila                             Morris                             H     1763 Kimberly Dr                                            Marietta            GA30008    19580705F2015021620150216A        1GA000000000000    2088.05          66         8        8        8        8        8      0.0      0.0              Daniese                            Adams                              dadams@firstkeyhomes.com                                                                                                                                                                                                                                                                                                                                                                              20200819  
F257436822  000065     Mark                               Banks                              A     219 Baywood Xing                                            Hiram               GA30141    19751026M2015033020150330A        1GA000000000000    1976.00          65         8        8        8        8        8      0.0      0.0              Daniese                            Adams                              dadams@firstkeyhomes.com                                                                                                                                                                                                                                                                                                                                                                              20200819  
F273806793  000072     Natalie                            Jones                              A     404 SE Nathan Pass                                          Lee's Summit        MO64063    19770715F2014092920140929A        1MO000000000000    1845.25          71         8        8        8        8        8      0.0      0.0              Daniese                            Adams                              dadams@firstkeyhomes.com                                                                                                                                                                                                                                                                                                                                                                              20200819  
F328804937  001038     Kristina                           Sifuentes                                502 W Lee St                                                Plano               IL60545    19790609F2015050420150504A        1IL000000000000    2217.14          63         8        8        8        8        8      0.0      0.0              Daniese                            Adams                              dadams@firstkeyhomes.com                                                                                                                                                                                                                                                                                                                                                                              20200819  
F335647144  001039     Marcella                           Holley                                   69 Peyton Drive                                             Chicago Heights     IL60411    19700404F2014112420141124T202004171IL000000000000    1072.07          69         8        8        8        8        8      0.0      0.0              Daniese                            Adams                              dadams@firstkeyhomes.com                                                                                                                                                                                                                                                                                                                                                                              20200819  
F338623421  001041     Damecko                            Pope                               D     11142 S Leamington Ave                                      Alsip               IL60803    19751216M2015031620150316A        1IL000000000000    1992.00          65         8        8        8        8        8      0.0      0.0              Daniese                            Adams                              dadams@firstkeyhomes.com                                                                                                                                                                                                                                                                                                                                                                              20200819  
F338803980  000094     Brooke                             Garcia                             M     520 Stonebriar Way SW                                       Atlanta             GA30331    19810104F2014121520141215A        1GA000000000000    1879.63          68         8        8        8        8        8      0.0      0.0              Daniese                            Adams                              dadams@firstkeyhomes.com                                                                                                                                                                                                                                                                                                                                                                              20200819  
F412218722  000103     Nancy                              Nelson                             S     9195 E. Holmes Road                                         Collierville        TN38017    19600217F2015060120150601A        1TN000000000000    1984.00          62         8        8        8        8        8      0.0      0.0              Daniese                            Adams                              dadams@firstkeyhomes.com                                                                                                                                                                                                                                                                                                                                                                              20200819  
F414672708  000104     Stephen                            Butler                             G     2033 Stone Pointe Dr NW                                     Kennesaw            GA30152    19851111M2013082620130826A        1GA000000000000    1826.30          84         8        8        8        8        8      0.0      0.0              Daniese                            Adams                              dadams@firstkeyhomes.com                                                                                                                                                                                                                                                                                                                                                                              20200819  
F416943220  000107     Gloria                             Garry                                    1049 Powers Ferry Rd          Apt 2402                      Marietta            GA30067    19611129F2013090320130903A        1GA000000000000    1879.12          83         8        8        8        8        8      0.0      0.0              Daniese                            Adams                              dadams@firstkeyhomes.com                                                                                                                                                                                                                                                                                                                                                                              20200819  
F433981925  000112     Sandra                             Ellis                              S     4427 Westside Dr                                            Acworth             GA30101    19541211F2014121520141215A        1GA000000000000    2229.23          68         8        8        8        8        8      0.0      0.0              Daniese                            Adams                              dadams@firstkeyhomes.com                                                                                                                                                                                                                                                                                                                                                                              20200819  
F436432607  001042     Aisha                              Preatto                            M     2143 Ridge Rd.                                              Homewood            IL60430    19800412F2015022320150223A        1IL000000000000    2008.00          66         8        8        8        8        8      0.0      0.0              Daniese                            Adams                              dadams@firstkeyhomes.com                                                                                                                                                                                                                                                                                                                                                                              20200819  
F489900300  000114     Sara                               Chapman                            B     1037 Sw Sunflower Dr                                        Lee'S Summit        MO64081    19720730F2014071020140710T202001211MO000000000000     872.00          73         8        8        8        8        8      0.0      0.0              Daniese                            Adams                              dadams@firstkeyhomes.com                                                                                                                                                                                                                                                                                                                                                                              20200819  
F489943687  000115     Steven                             Garrett                            C     18424 S Karg Rd                                             Pleasant Hill       MO64080    19730601M2014081820140818A        1MO000000000000    2574.41          72         8        8        8        8        8      0.0      0.0              Daniese                            Adams                              dadams@firstkeyhomes.com                                                                                                                                                                                                                                                                                                                                                                              20200819  
F491943009  000116     Scott                              Gray                               A     2624 SW Wintercreek Dr                                      Lees Summit         MO64081    19830826M2013041820130418T202003261MO000000000000    1144.00          88         8        8        8        8        8      0.0      0.0              Daniese                            Adams                              dadams@firstkeyhomes.com                                                                                                                                                                                                                                                                                                                                                                              20200819  
F591126630  000121     Lisa                               McNeil                             L     253 Stoneybrook Dr                                          Marietta            GA30062    19660905F2015021620150216A        1GA000000000000    2040.00          66         8        8        8        8        8      0.0      0.0              Daniese                            Adams                              dadams@firstkeyhomes.com                                                                                                                                                                                                                                                                                                                                                                              20200819  
F637268581  000127     Melissa                            Bruce                                    597 Wisteria Dr                                             Woodstock           GA30188    19860526F2013102220190923A        1GA000000000000    1768.00          11         8        8        8        8        8      0.0      0.0              Daniese                            Adams                              dadams@firstkeyhomes.com                                                                                                                                                                                                                                                                                                                                                                              20200819  
F497746503  000139     Timothy                            Gassen                                   28807 SE Ryan Rd                                            Blue Springs        MO64014    19681028M2015091420150914T201910221MO000000000000     424.00          59         8        8        8        8        8      0.0      0.0              Daniese                            Adams                              dadams@firstkeyhomes.com                                                                                                                                                                                                                                                                                                                                                                              20200819  
F507882697  000141     Christopher                        Hampson                            W     8316 Ne 104 Th Terr                                         Kansas City         MO64157    19661201M2013081920130819A        1MO000000000000    1864.00          84         8        8        8        8        8      0.0      0.0              Daniese                            Adams                              dadams@firstkeyhomes.com                                                                                                                                                                                                                                                                                                                                                                              20200819  
F316984823  000144     Matthew                            Soel                               E     16670 Blackbird Ct                                          Noblesville         IN46060    19721003M2014070720140707A        1IN000000000000    1788.00          73         8        8        8        8        8      0.0      0.0              Daniese                            Adams                              dadams@firstkeyhomes.com                                                                                                                                                                                                                                                                                                                                                                              20200819  
F307113910  000151     Jamison                            Snyder                             P     9885 River Oak Ln W                                         Fishers             IN46038    19910104M2015051120150511A        1IN000000000000    1985.83          63         8        8        8        8        8      0.0      0.0              Daniese                            Adams                              dadams@firstkeyhomes.com                                                                                                                                                                                                                                                                                                                                                                              20200819  
F304900344  000157     Janiece                            Bailey                                   1780 Dahlia Dr                                              Cumming             GA30040    19830307F2015102620151026A        1GA000000000000    1880.30          58         8        8        8        8        8      0.0      0.0              Daniese                            Adams                              dadams@firstkeyhomes.com                                                                                                                                                                                                                                                                                                                                                                              20200819  
F415988195  000158     Sandra                             Evans                                    732 Brownlee Rd                                             Memphis             TN38116    19570310F2015102620151026T202004171TN000000000000    1319.21          58         8        8        8        8        8      0.0      0.0              Daniese                            Adams                              dadams@firstkeyhomes.com                                                                                                                                                                                                                                                                                                                                                                              20200819  
F461590308  000169     Robert                             Sexton                                   1138 E Sheridan               Bridge Ln                     Olathe              KS66062    19800624M2016010620160106A        1MO000000000000    1904.00          55         8        8        8        8        8      0.0      0.0              Daniese                            Adams                              dadams@firstkeyhomes.com                                                                                                                                                                                                                                                                                                                                                                              20200819  
F253634773  000176     Rachel                             Spradlin                                 39 Glenn Eagles Vw                                          Hiram               GA30141    19810921F2016012920160129T202006261GA000000000000    1784.00          55         8        8        8        8        8      0.0      0.0              Daniese                            Adams                              dadams@firstkeyhomes.com                                                                                                                                                                                                                                                                                                                                                                              20200819  
F310828053  000177     Brandon                            Vaughn                                   6249 Fairlane Dr                                            Indianapolis        IN46259    19720929M2016020220160202A        1IN000000000000    2008.00          54         8        8        8        8        8      0.0      0.0              Daniese                            Adams                              dadams@firstkeyhomes.com                                                                                                                                                                                                                                                                                                                                                                              20200819  
F489845663  000191     Brian                              Hornberger                         W     605 Ash St                                                  Eudora              KS66025    19740822M2016050220160502A        1MO000000000000    2252.51          51         8        8        8        8        8      0.0      0.0              Daniese                            Adams                              dadams@firstkeyhomes.com                                                                                                                                                                                                                                                                                                                                                                              20200819  
F483064994  000213     Amanda                             Schable                            M     14611 NW 67th Street                                        Parkville           MO64152    19770413F2016060720160607A        1MO000000000000    1912.00          50         8        8        8        8        8      0.0      0.0              Daniese                            Adams                              dadams@firstkeyhomes.com                                                                                                                                                                                                                                                                                                                                                                              20200819  
F608364971  000226     Joseph                             Cittadino                          M     48 Sweetwoods DR                                            Atoka               TN38004    19840209M2016080120160801A        1TN000000000000    2024.00          48         8        8        8        8        8      0.0      0.0              Daniese                            Adams                              dadams@firstkeyhomes.com                                                                                                                                                                                                                                                                                                                                                                              20200819  
F591412238  000228     Celestial                          Tost-Fliss                         B     6456 Muller Ave                                             Cocoa               FL32927    19940329F2016080120160801A        1FL000000000000    2000.92          48         8        8        8        8        8      0.0      0.0              Daniese                            Adams                              dadams@firstkeyhomes.com                                                                                                                                                                                                                                                                                                                                                                              20200819  
F644206688  000229     David                              Dynes                              M     851 East 300 North                                          Orem                UT84097    19901105M2016080120200330A        1UT000000000000     760.00           5         8        8        8        8        8      0.0      0.0              Daniese                            Adams                              dadams@firstkeyhomes.com                                                                                                                                                                                                                                                                                                                                                                              20200819  
F266615255  000230     Sheffina                           Dorsey                             S     5995 MEGCOLE WAY SW                                         MABLETON            GA30126    19750111F2016080120160801A        1GA000000000000    2290.62          48         8        8        8        8        8      0.0      0.0              Daniese                            Adams                              dadams@firstkeyhomes.com                                                                                                                                                                                                                                                                                                                                                                              20200819  
F499748559  000237     Audrey                             LaRue                              M     404 Omar Court                                              Saint Peters        MO63376    19700119F2016072120160721A        1MO000000000000    1933.50          49         8        8        8        8        8      0.0      0.0              Daniese                            Adams                              dadams@firstkeyhomes.com                                                                                                                                                                                                                                                                                                                                                                              20200819  
F489088670  000241     Carolina                           Manar                              T     3036 Brentmoor DR                                           Saint Charles       MO63303    19830605F2016072720160727A        1MO000000000000    2224.50          49         8        8        8        8        8      0.0      0.0              Daniese                            Adams                              dadams@firstkeyhomes.com                                                                                                                                                                                                                                                                                                                                                                              20200819  
F453492745  000243     Jodi                               Pickett                            L     1225 Lindsay Lane                                           Florissant          MO63031    19731218F2016072720160727A        1MO000000000000    2207.79          49         8        8        8        8        8      0.0      0.0              Daniese                            Adams                              dadams@firstkeyhomes.com                                                                                                                                                                                                                                                                                                                                                                              20200819  
F316745927  000251     Thomas                             DeRue                              J     2185 River Cliff Dr.                                        Roswell             GA30076    19750225M2016100320161003A        1GA000000000000    2040.00          46         8        8        8        8        8      0.0      0.0              Daniese                            Adams                              dadams@firstkeyhomes.com                                                                                                                                                                                                                                                                                                                                                                              20200819  
F024567421  000253     Nikia                              Ward                               V     164 Baywood Crossing                                        Hiram               GA30141    19741022F2016101020161010A        1GA000000000000    2129.41          46         8        8        8        8        8      0.0      0.0              Daniese                            Adams                              dadams@firstkeyhomes.com                                                                                                                                                                                                                                                                                                                                                                              20200819  
F526312739  000254     David                              Backus                             W     5915 w 157th terrace                                        overland Park       KS66223    19571227M2016101720161017T202004171MO000000000000    1296.00          46         8        8        8        8        8      0.0      0.0              Daniese                            Adams                              dadams@firstkeyhomes.com                                                                                                                                                                                                                                                                                                                                                                              20200819  
F317805262  000261     Lynette                            McIntosh                                 2373 Hanover Rd                                             Brownsburg          IN46112    19750909F2016110820191028T202004171IN000000000000    1293.17          10         8        8        8        8        8      0.0      0.0              Daniese                            Adams                              dadams@firstkeyhomes.com                                                                                                                                                                                                                                                                                                                                                                              20200819  
F431199164  000266     Alvertia                           Charles                            P     84 Melinda Way SE                                           Smyrna              GA30082    19701214F2016103120161031T202004171GA000000000000    1528.91          46         8        8        8        8        8      0.0      0.0              Daniese                            Adams                              dadams@firstkeyhomes.com                                                                                                                                                                                                                                                                                                                                                                              20200819  
F494920244  000271     Robert                             Wolf                               S     2708 s Scott ave                                            Independence        MO64052    19790326M2016111420161114T202004171MO000000000000    1645.51          45         8        8        8        8        8      0.0      0.0              Daniese                            Adams                              dadams@firstkeyhomes.com                                                                                                                                                                                                                                                                                                                                                                              20200819  
F549837892  000276     James                              Barker                                   2117 Wyeth Walk                                             Marietta            GA30062    19840423M2016011120160111T202001151GA000000000000     860.00          55         8        8        8        8        8      0.0      0.0              Daniese                            Adams                              dadams@firstkeyhomes.com                                                                                                                                                                                                                                                                                                                                                                              20200819  
F498909040  000278     Ciera                              Collins-Hardy                      S     21 Gray Brooke Ln                                           Florissant          MO63031    19850823F2016120520161205A        1MO000000000000    1942.74          44         8        8        8        8        8      0.0      0.0              Daniese                            Adams                              dadams@firstkeyhomes.com                                                                                                                                                                                                                                                                                                                                                                              20200819  
F393742381  000283     Eric                               Payne                              J     2640 st. catherine s                                        florissant          MO63033    19590218M2016121920161219T202004171MO000000000000    1250.28          44         8        8        8        8        8      0.0      0.0              Daniese                            Adams                              dadams@firstkeyhomes.com                                                                                                                                                                                                                                                                                                                                                                              20200819  
F489809328  000284     Dennis                             Dawes                              RII   2521 Oakland                                                Maplewood           MO63143    19771221M2017010920170109A        1MO000000000000    2032.00          43         8        8        8        8        8      0.0      0.0              Daniese                            Adams                              dadams@firstkeyhomes.com                                                                                                                                                                                                                                                                                                                                                                              20200819  
F093808460  000288     Amanda                             Church                             C     1606 Stonehaven Cir                                         Cartersville        GA30121    19920211F2014101420141014A        1GA000000000000    1964.00          70         8        8        8        8        8      0.0      0.0              Daniese                            Adams                              dadams@firstkeyhomes.com                                                                                                                                                                                                                                                                                                                                                                              20200819  
F607070506  000289     Ron                                Soldano                            R     5786 Morgnton Dr                                            Olive Branch        MS38654    19760212M2017011720170117A        1TN000000000000    2008.00          43         8        8        8        8        8      0.0      0.0              Daniese                            Adams                              dadams@firstkeyhomes.com                                                                                                                                                                                                                                                                                                                                                                              20200819  
F415339192  000302     Marquis                            Jefferson                          L     5120 oak meadow ave.                                        memphis             TN38134    19800926M2017020120170201A        1TN000000000000    2169.34          42         8        8        8        8        8      0.0      0.0              Daniese                            Adams                              dadams@firstkeyhomes.com                                                                                                                                                                                                                                                                                                                                                                              20200819  
F494988589  000309     Jessie                             Johnson                            EJr   618 Garfield Ave.                                           Edwardsville        IL62025    19880128M2017022720170227T202004171MO000000000000    1232.49          42         8        8        8        8        8      0.0      0.0              Daniese                            Adams                              dadams@firstkeyhomes.com                                                                                                                                                                                                                                                                                                                                                                              20200819  
F175684755  000310     Mark                               Murphy                             JJr   1925 El Dorado BlvdN                                        Cape Coral          FL33993    19840829M2017031320170313A        1FL000000000000    1960.00          41         8        8        8        8        8      0.0      0.0              Daniese                            Adams                              dadams@firstkeyhomes.com                                                                                                                                                                                                                                                                                                                                                                              20200819  
F069663613  000312     Carmen                             Velilla                            I     506 Lakescape Court                                         Orlando             FL32828    19710329F2017031320170313A        1FL000000000000    1868.00          41         8        8        8        8        8      0.0      0.0              Daniese                            Adams                              dadams@firstkeyhomes.com                                                                                                                                                                                                                                                                                                                                                                              20200819  
F305901470  000322     Jamie                              Hadden                             L     4429 Barharbor Ct                                           Indianapolis        IN46268    19770617M2017032020170320T201802091IN000000000000       0.00          41         8        8        8        8        8      0.0      0.0              Daniese                            Adams                              dadams@firstkeyhomes.com                                                                                                                                                                                                                                                                                                                                                                              20200819  
F398908590  000323     Brenda                             Galvan Perez                       I     1990 Patriot Way                                            St. Cloud           FL34769    19831022F2017040220170402T201909061FL000000000000     143.18          40         8        8        8        8        8      0.0      0.0              Daniese                            Adams                              dadams@firstkeyhomes.com                                                                                                                                                                                                                                                                                                                                                                              20200819  
F366942038  000325     Timothy                            Williams                           C     305 Engle Drive                                             Tucker              GA30084    19780703M2017041720170417A        1GA000000000000    2008.00          40         8        8        8        8        8      0.0      0.0              Daniese                            Adams                              dadams@firstkeyhomes.com                                                                                                                                                                                                                                                                                                                                                                              20200819  
F410370723  000327     Detroy                             Williams                                 1413 Leery Cove                                             Cordova             TN38016    19701205M2017041020170410A        1TN000000000000    2225.63          40         8        8        8        8        8      0.0      0.0              Daniese                            Adams                              dadams@firstkeyhomes.com                                                                                                                                                                                                                                                                                                                                                                              20200819  
F316020963  000328     Sara                               Hiatt                              L     212 N John St                                               Arcadia             IN46030    19820409F2017042420170424A        1IN000000000000    2159.75          40         8        8        8        8        8      0.0      0.0              Daniese                            Adams                              dadams@firstkeyhomes.com                                                                                                                                                                                                                                                                                                                                                                              20200819  
F135563213  000331     June                               Pearson                            R     914 Missy Lane                                              Woodstock           GA30188    19600626F2017042420170424A        1GA000000000000    1976.00          40         8        8        8        8        8      0.0      0.0              Daniese                            Adams                              dadams@firstkeyhomes.com                                                                                                                                                                                                                                                                                                                                                                              20200819  
F413417700  000332     John                               Sheffield                                2113 Linden ave                                             memphis             TN38104    19681228M2017042620170426A        1TN000000000000    2016.00          40         8        8        8        8        8      0.0      0.0              Daniese                            Adams                              dadams@firstkeyhomes.com                                                                                                                                                                                                                                                                                                                                                                              20200819  
F415638531  000334     Andrew                             Key                                M     1762 Glenwood Place                                         Memphis             TN38104    19870123M2017050120170501T201912131TN000000000000     560.00          39         8        8        8        8        8      0.0      0.0              Daniese                            Adams                              dadams@firstkeyhomes.com                                                                                                                                                                                                                                                                                                                                                                              20200819  
F431272535  000335     Teresa                             Stribling                          J     3556 Summerdale Dr                                          BARTLETT            TN38133    19600414F2017050120170501A        1TN000000000000    2267.89          39         8        8        8        8        8      0.0      0.0              Daniese                            Adams                              dadams@firstkeyhomes.com                                                                                                                                                                                                                                                                                                                                                                              20200819  
F428275984  000336     Willie                             Liggins                            M     4645 Blanding Ave                                           Memphis             TN38118    19600301M2017050320170503A        1TN000000000000    2288.34          39         8        8        8        8        8      0.0      0.0              Daniese                            Adams                              dadams@firstkeyhomes.com                                                                                                                                                                                                                                                                                                                                                                              20200819  
F241870327  000337     Nisha                              Patel                                    1809 Lily Pond Way                                          Kennesaw            GA30152    19830528F2017052220170522T201909161GA000000000000     118.62          39         8        8        8        8        8      0.0      0.0              Daniese                            Adams                              dadams@firstkeyhomes.com                                                                                                                                                                                                                                                                                                                                                                              20200819  
F411237667  000338     Ronnie                             Mitchell                           R     3358 Lynchburg St                                           memphis             TN38134    19750402M2017050820170508A        1TN000000000000    2006.64          39         8        8        8        8        8      0.0      0.0              Daniese                            Adams                              dadams@firstkeyhomes.com                                                                                                                                                                                                                                                                                                                                                                              20200819  
F493966248  000339     Wayne                              Wencker                            J     2316 Gene                                                   St. Louis           MO63125    19830908M2017050120170501A        1MO000000000000    1896.00          39         8        8        8        8        8      0.0      0.0              Daniese                            Adams                              dadams@firstkeyhomes.com                                                                                                                                                                                                                                                                                                                                                                              20200819  
F264916418  000340     Lisa                               Basinger                           C     1335 Greenbrook Parkway                                     memphis             TN38134    19650925F2017042820170428A        1TN000000000000    2045.44          40         8        8        8        8        8      0.0      0.0              Daniese                            Adams                              dadams@firstkeyhomes.com                                                                                                                                                                                                                                                                                                                                                                              20200819  
F509824545  000341     Sparkle                            Allen                              A     5825 Catalpa Court                                          Cumming             GA30040    19800225F2017061220170612A        1GA000000000000    2064.00          38         8        8        8        8        8      0.0      0.0              Daniese                            Adams                              dadams@firstkeyhomes.com                                                                                                                                                                                                                                                                                                                                                                              20200819  
F521478961  000342     Antonio                            Woodard                            L     11432 Cosmo Court                                           Indianapolis        IN46229    19850217M2017052220170522T202004171IN000000000000    1424.00          39         8        8        8        8        8      0.0      0.0              Daniese                            Adams                              dadams@firstkeyhomes.com                                                                                                                                                                                                                                                                                                                                                                              20200819  
F600304879  000345     Sharron                            McElroy                            D     2100 Shiloh Valley Drive NW   Apt #9012                     Kennesaw            GA30144    19700715F2017052220170522T202004171GA000000000000    1301.21          39         8        8        8        8        8      0.0      0.0              Daniese                            Adams                              dadams@firstkeyhomes.com                                                                                                                                                                                                                                                                                                                                                                              20200819  
F026580892  000346     Martin                             Esteverena                               225 Cliff Avenue                                            Pelham              NY10803    19711202M2017060120170601T201901031GA000000000000       0.00          38         8        8        8        8        8      0.0      0.0              Daniese                            Adams                              dadams@firstkeyhomes.com                                                                                                                                                                                                                                                                                                                                                                              20200819  
F507299168  000360     Matthew                            Singh                              P     2520 tulip dr                                               Indianapolis        IN46227    19911003M2017061220170612T201912261IN000000000000     873.74          38         8        8        8        8        8      0.0      0.0              Daniese                            Adams                              dadams@firstkeyhomes.com                                                                                                                                                                                                                                                                                                                                                                              20200819  
F306867009  000363     Marshall                           Highbaugh                          E     3193 River Villa Way                                        Indianapolis        IN46208    19780208M2017070320170703T202004171IN000000000000    1424.00          37         8        8        8        8        8      0.0      0.0              Daniese                            Adams                              dadams@firstkeyhomes.com                                                                                                                                                                                                                                                                                                                                                                              20200819  
F490065111  000367     Gary                               Ruble                              W     12 Ken Drive                                                Fenton              MO63026    19880301M2017062620170626T201907191MO000000000000       0.00          38         8        8        8        8        8      0.0      0.0              Daniese                            Adams                              dadams@firstkeyhomes.com                                                                                                                                                                                                                                                                                                                                                                              20200819  
F587579993  000368     Bryan                              White                              M     4055 Print Avenue                                           Memphis             TN38108    19841222M2017062820170628T202004171TN000000000000    1294.76          38         8        8        8        8        8      0.0      0.0              Daniese                            Adams                              dadams@firstkeyhomes.com                                                                                                                                                                                                                                                                                                                                                                              20200819  
F587376387  000374     Travis                             Griffin                            M     1109 Red Fern Cir. E                                        Cordova             TN38018    19801212M2017071720170717A        1TN000000000000    1984.00          37         8        8        8        8        8      0.0      0.0              Daniese                            Adams                              dadams@firstkeyhomes.com                                                                                                                                                                                                                                                                                                                                                                              20200819  
F592101158  000375     Derek                              McGee                              C     3345 Harlock RD                                             Melbourne           FL32934    19691025M2017071720170717A        1FL000000000000    1832.00          37         8        8        8        8        8      0.0      0.0              Daniese                            Adams                              dadams@firstkeyhomes.com                                                                                                                                                                                                                                                                                                                                                                              20200819  
F486782238  000377     Jack                               Maness                             M     5850 Barberry Drive                                         Imperial            MO63052    19661006M2017073120170731A        1MO000000000000    1872.00          37         8        8        8        8        8      0.0      0.0              Daniese                            Adams                              dadams@firstkeyhomes.com                                                                                                                                                                                                                                                                                                                                                                              20200819  
F061689136  000382     Chris                              Woodhouse                          D     155 Stonewood Creek                                         Dallas              GA30132    19821223M2017080220170802A        1GA000000000000    1827.29          36         8        8        8        8        8      0.0      0.0              Daniese                            Adams                              dadams@firstkeyhomes.com                                                                                                                                                                                                                                                                                                                                                                              20200819  
F021546883  000383     Ayda                               Beltre                             E     4570 Winkler Ave              Apt 101                       Ft Myers            FL33966    19620118F2017073120170731A        1FL000000000000    1970.36          37         8        8        8        8        8      0.0      0.0              Daniese                            Adams                              dadams@firstkeyhomes.com                                                                                                                                                                                                                                                                                                                                                                              20200819  
F438299889  000384     Shunta                             Sims                               E     1429 Glynn Oaks Dr.                                         Marietta            GA30008    19660512F2017073120170731A        1GA000000000000    1588.50          37         8        8        8        8        8      0.0      0.0              Daniese                            Adams                              dadams@firstkeyhomes.com                                                                                                                                                                                                                                                                                                                                                                              20200819  
F019546231  000385     Robert                             Moore                              J     12670 Equestrian Cir          2204                          Fort Myers          FL33907    19620704M2017081420170814A        1FL000000000000    2044.13          36         8        8        8        8        8      0.0      0.0              Daniese                            Adams                              dadams@firstkeyhomes.com                                                                                                                                                                                                                                                                                                                                                                              20200819  
F360709670  000386     Sarah                              Hankins                            E     276 Maywood Dr.                                             East Alton          IL62024    19760222F2017082120170821A        1MO000000000000    1984.00          36         8        8        8        8        8      0.0      0.0              Daniese                            Adams                              dadams@firstkeyhomes.com                                                                                                                                                                                                                                                                                                                                                                              20200819  
F644121467  000390     Joel                               Howard                             A     1174 Green Vista Cir                                        Apopka              FL32712    19860813M2017081420170814A        1FL000000000000    1472.00          36         8        8        8        8        8      0.0      0.0              Daniese                            Adams                              dadams@firstkeyhomes.com                                                                                                                                                                                                                                                                                                                                                                              20200819  
F059842689  000394     Gustavo                            Rodriguez                          A     4720 NW 49th Ct                                             Tamarac             FL33319    19651124M2017080720170807T201902211FL000000000000       0.00          36         8        8        8        8        8      0.0      0.0              Daniese                            Adams                              dadams@firstkeyhomes.com                                                                                                                                                                                                                                                                                                                                                                              20200819  
F580115657  000395     Hipolito                           Amaro                                    6441 NW 24 Place                                            Sunrise             FL33313    19641123M2017081420170814A        1FL000000000000    2469.13          36         8        8        8        8        8      0.0      0.0              Daniese                            Adams                              dadams@firstkeyhomes.com                                                                                                                                                                                                                                                                                                                                                                              20200819  
F141884439  000399     Darryl                             Glover                             CJR   133 Greystone Cir                                           Hiram               GA30141    19891027M2017082820170828T201912131GA000000000000     643.00          36         8        8        8        8        8      0.0      0.0              Daniese                            Adams                              dadams@firstkeyhomes.com                                                                                                                                                                                                                                                                                                                                                                              20200819  
F213517123  000405     Cassandra                          Hattam                                   1323 Weatherstone Wa                                        Atlanta             GA30324    19890218F2017082820170828A        1GA000000000000    2057.52          36         8        8        8        8        8      0.0      0.0              Daniese                            Adams                              dadams@firstkeyhomes.com                                                                                                                                                                                                                                                                                                                                                                              20200819  
F259573975  000406     Leigh                              Monteith                           C     285 Brook Dr                                                Atlanta             GA30328    19760805F2017082820170828A        1GA000000000000    2008.00          36         8        8        8        8        8      0.0      0.0              Daniese                            Adams                              dadams@firstkeyhomes.com                                                                                                                                                                                                                                                                                                                                                                              20200819  
F131622409  000407     Kimberly                           Raymond                            A     1521 SW 58th Street                                         Cape Coral          FL33914    19700611F2017091120170911A        1FL000000000000    2016.00          35         8        8        8        8        8      0.0      0.0              Daniese                            Adams                              dadams@firstkeyhomes.com                                                                                                                                                                                                                                                                                                                                                                              20200819  
F591417044  000408     Raven                              Wright                             A     4502 Swan Trace                                             Union City          GA30349    19940331F2017090420170904A        1GA000000000000    1952.35          35         8        8        8        8        8      0.0      0.0              Daniese                            Adams                              dadams@firstkeyhomes.com                                                                                                                                                                                                                                                                                                                                                                              20200819  
F495987513  000409     Joseph                             Wiese                              A     1646 Stardust Dr.                                           Arnold              MO63010    19830730M2017082420170824A        1MO000000000000    1904.00          36         8        8        8        8        8      0.0      0.0              Daniese                            Adams                              dadams@firstkeyhomes.com                                                                                                                                                                                                                                                                                                                                                                              20200819  
F152723729  000410     Ryan                               Killian                            C     965 Forrest St                                              Rosewell            GA30075    19791123M2017081520170815A        1GA000000000000    2024.00          36         8        8        8        8        8      0.0      0.0              Daniese                            Adams                              dadams@firstkeyhomes.com                                                                                                                                                                                                                                                                                                                                                                              20200819  
F259837843  000412     Cydnee                             Barrow                             A     7548 Edenberry Way                                          Lithonia            GA30058    19920626F2017091120170911T202003201GA000000000000    1232.00          35         8        8        8        8        8      0.0      0.0              Daniese                            Adams                              dadams@firstkeyhomes.com                                                                                                                                                                                                                                                                                                                                                                              20200819  
F309748971  000416     John                               Farley                             D     8541 Applewood Ln                                           Indianapolis        IN46256    19620301M2017091120170911A        1IN000000000000    2301.16          35         8        8        8        8        8      0.0      0.0              Daniese                            Adams                              dadams@firstkeyhomes.com                                                                                                                                                                                                                                                                                                                                                                              20200819  
F200661511  000418     Brian                              Stann                              M     15858 Winterfield Wa                                        Milton              GA30004    19800924M2017091820170918A        1GA000000000000    1984.00          35         8        8        8        8        8      0.0      0.0              Daniese                            Adams                              dadams@firstkeyhomes.com                                                                                                                                                                                                                                                                                                                                                                              20200819  
F326729264  000419     LaVondria                          Cobb                               Z     5880 Garden Circle                                          Douglasville        GA30135    19820719F2017101620171016T202003161GA000000000000    1116.37          34         8        8        8        8        8      0.0      0.0              Daniese                            Adams                              dadams@firstkeyhomes.com                                                                                                                                                                                                                                                                                                                                                                              20200819  
F636013225  000426     Clifford                           Stephenson                               14024 Walding Woods           Drive                         Montgomery          TX77356    19770228M2017102320171023A        1TX000000000000    2040.00          34         8        8        8        8        8      0.0      0.0              Daniese                            Adams                              dadams@firstkeyhomes.com                                                                                                                                                                                                                                                                                                                                                                              20200819  
F456930218  000427     Goldye                             Jones                              D     19043 Minero Dr                                             Montgomery          TX77356    19820728F2017102320171023A        1TX000000000000    1992.00          34         8        8        8        8        8      0.0      0.0              Daniese                            Adams                              dadams@firstkeyhomes.com                                                                                                                                                                                                                                                                                                                                                                              20200819  
F594963704  000428     Vecky                              Jefferson                                2941 Meadowview Drive SE                                    Atlanta             GA30316    19900405F2017102320171023A        1GA000000000000    2227.63          34         8        8        8        8        8      0.0      0.0              Daniese                            Adams                              dadams@firstkeyhomes.com                                                                                                                                                                                                                                                                                                                                                                              20200819  
F498687142  000433     Samantha                           Fondren                            E     1739 S. Fifth Street                                        St. Charles         MO63303    19670211F2017100920171009A        1MO000000000000    2225.04          34         8        8        8        8        8      0.0      0.0              Daniese                            Adams                              dadams@firstkeyhomes.com                                                                                                                                                                                                                                                                                                                                                                              20200819  
F493988291  000434     Daniel                             Clardy                                   18936 e 6th st n                                            independence        MO64056    19781211M2017100220171002T202004171MO000000000000    1624.43          34         8        8        8        8        8      0.0      0.0              Daniese                            Adams                              dadams@firstkeyhomes.com                                                                                                                                                                                                                                                                                                                                                                              20200819  
F130580541  000436     Victor                             Tention                                  4015 Malibu Dr                                              Indianapolis        IN46226    19700902M2017100920171009T202001281IN000000000000    1345.14          34         8        8        8        8        8      0.0      0.0              Daniese                            Adams                              dadams@firstkeyhomes.com                                                                                                                                                                                                                                                                                                                                                                              20200819  
F534179105  000438     Caitlin                            Callahan                           M     1680 Sierra Drive                                           Marietta            GA30062    19880320F2017092520170925A        1GA000000000000    2209.74          35         8        8        8        8        8      0.0      0.0              Daniese                            Adams                              dadams@firstkeyhomes.com                                                                                                                                                                                                                                                                                                                                                                              20200819  
F090741043  000441     Joshua                             Nathan                             A     45 Hudson View Way            Unit 101                      Tarrytown           NY10591    19871001M2016040420160404A        1NY000000000000    2040.00          52         8        8        8        8        8      0.0      0.0              Daniese                            Adams                              dadams@firstkeyhomes.com                                                                                                                                                                                                                                                                                                                                                                              20200819  
F126761484  000442     Amanda                             Rosen                              Z     911 Park Ave                                                New York            NY10075    19900306F2013071020130710A        1NY000000000000    2064.00          85         8        8        8        8        8      0.0      0.0              Daniese                            Adams                              dadams@firstkeyhomes.com                                                                                                                                                                                                                                                                                                                                                                              20200819  
F415272671  000444     Mitchell                           King                                     5182 twin woods ave                                         Memphis             TN38134    19770623M2017102320171023A        1TN000000000000    2160.19          34         8        8        8        8        8      0.0      0.0              Daniese                            Adams                              dadams@firstkeyhomes.com                                                                                                                                                                                                                                                                                                                                                                              20200819  
F380966830  000446     Shane                              Robinette                          E     5703 S Bayberry Ln                                          Tamarac             FL33319    19841129M2017102320171023T202008141FL000000000000    1912.00          34         8        8        8        8        8      0.0      0.0              Daniese                            Adams                              dadams@firstkeyhomes.com                                                                                                                                                                                                                                                                                                                                                                              20200819  
F486040692  000449     Dane                               Sackrider                                7525 windsor st                                             prairie village     KS66208    19870422M2017101620171016A        1MO000000000000    2580.61          34         8        8        8        8        8      0.0      0.0              Daniese                            Adams                              dadams@firstkeyhomes.com                                                                                                                                                                                                                                                                                                                                                                              20200819  
F428372829  000450     John                               Brooks                             K     6101 Nelson Ct                                              Indianapolis        IN46219    19631228M2017102320171023T202005221IN000000000000    1888.87          34         8        8        8        8        8      0.0      0.0              Daniese                            Adams                              dadams@firstkeyhomes.com                                                                                                                                                                                                                                                                                                                                                                              20200819  
F437614193  000451     Shanise                            Hall                                     3220 Creek Trace W                                          Powder Springs      GA30127    19851123F2017102020171020A        1GA000000000000    1412.65          34         8        8        8        8        8      0.0      0.0              Daniese                            Adams                              dadams@firstkeyhomes.com                                                                                                                                                                                                                                                                                                                                                                              20200819  
F574344965  000452     Alan                               Dunaway                            D     1510 E 1st Ave Pl                                           Mount Dora          FL32757    19660805M2017102320171023T202004171FL000000000000    1383.67          34         8        8        8        8        8      0.0      0.0              Daniese                            Adams                              dadams@firstkeyhomes.com                                                                                                                                                                                                                                                                                                                                                                              20200819  
F597506270  000453     Fermin                             Medrano                            A     536 Winding Oak Ln                                          Longwood            FL32750    19780221M2017103020171030T201907191FL000000000000       0.00          34         8        8        8        8        8      0.0      0.0              Daniese                            Adams                              dadams@firstkeyhomes.com                                                                                                                                                                                                                                                                                                                                                                              20200819  
F766980825  000455     Guy                                de Havillande                            300 W PALMETTO PK RD, #304 A                                BOCA RATON          FL33432    19640629M2017102320171023A        1FL000000000000    1440.00          34         8        8        8        8        8      0.0      0.0              Daniese                            Adams                              dadams@firstkeyhomes.com                                                                                                                                                                                                                                                                                                                                                                              20200819  
F254892879  000461     Lisa                               Stroud                             M     1905 Ascot Terrace NW                                       Acworth             GA30102    19940113F2017103020171030A        1GA000000000000    1829.47          34         8        8        8        8        8      0.0      0.0              Daniese                            Adams                              dadams@firstkeyhomes.com                                                                                                                                                                                                                                                                                                                                                                              20200819  
F425371327  000463     Sandra                             Baker                              M     449 Rosemont Ct                                             Hiram               GA30141    19670419F2017110620171106T202004171GA000000000000    1413.73          33         8        8        8        8        8      0.0      0.0              Daniese                            Adams                              dadams@firstkeyhomes.com                                                                                                                                                                                                                                                                                                                                                                              20200819  
F565995028  000465     Noble                              Pickett                            LIII  2214 Park Ave SE                                            Smyrna              GA30080    19870119M2017110620171106A        1GA000000000000    2032.00          33         8        8        8        8        8      0.0      0.0              Daniese                            Adams                              dadams@firstkeyhomes.com                                                                                                                                                                                                                                                                                                                                                                              20200819  
F309139258  000466     Alyssa                             Stiffler                           M     5704 Stafford Castle Lane     Apt 1235                      Indianapolis        IN46250    19920929F2017110620171106T202004171IN000000000000    1248.94          33         8        8        8        8        8      0.0      0.0              Daniese                            Adams                              dadams@firstkeyhomes.com                                                                                                                                                                                                                                                                                                                                                                              20200819  
F408473400  000467     Joshua                             Stone                                    8621 Wood Mills Dr W                                        Cordova             TN38016    19751013M2017110620171106T201908191TN000000000000      48.00          33         8        8        8        8        8      0.0      0.0              Daniese                            Adams                              dadams@firstkeyhomes.com                                                                                                                                                                                                                                                                                                                                                                              20200819  
F575271529  000471     Dawn-Danielle                      Benavente                                3831 N. 14th Ave.                                           Phoenix             AZ85013    19840722F2017111320171113A        1AZ000000000000    2016.00          33         8        8        8        8        8      0.0      0.0              Daniese                            Adams                              dadams@firstkeyhomes.com                                                                                                                                                                                                                                                                                                                                                                              20200819  
F255696524  000472     Thomas                             Crosby                             D     4533 Madison Ridge            Place NW                      Marietta            GA30064    19831007M2017111320171113A        1GA000000000000    2064.00          33         8        8        8        8        8      0.0      0.0              Daniese                            Adams                              dadams@firstkeyhomes.com                                                                                                                                                                                                                                                                                                                                                                              20200819  
F142783643  000474     James                              Ravencraft                               8018 Glamorgan Ln                                           Matthews            NC28104    19741211M2017111320171113A        1NC000000000000    2048.00          33         8        8        8        8        8      0.0      0.0              Daniese                            Adams                              dadams@firstkeyhomes.com                                                                                                                                                                                                                                                                                                                                                                              20200819  
F265656599  000475     Shannon                            Reed                                     202 Birch River Crossing                                    Dallas              GA30132    19740729F2017111320171113A        1GA000000000000    1934.07          33         8        8        8        8        8      0.0      0.0              Daniese                            Adams                              dadams@firstkeyhomes.com                                                                                                                                                                                                                                                                                                                                                                              20200819  
