462714594124793               0000                                       Belk                               Tammy                    Stewart                            19700124FM    N                                                                                                         4517 Woodland Bend Ct                                                 Spring                        TX77386                                   USTX                                 P                                            NEAC        P20080306                            000100026                                       Operations Director                                                                                                                                                                                                        TCA000100026                                                                                                                                                                 U                                                                                                                                                                                                                                                                                                                                                                                                                                                                                                                  01AC FLX969612                                000010000                      000000000                                                                             00120210101                                                                                                                                                                                                                                                                                                                                                                                                                                                                                                                                                                                                                                                                                                                                                                                                                                                                                                                                                                                                                                                                                                                                                                                                                        tbelk@symplr.com                                                                                                                                      
466535737124796               0000                                       Merton                             Aubrey                   A                                  19800711FM    N                                                                                                         6534 Grant Dr                                                         Magnolia                      TX77354                                   USTX                                 P                                            NEAC        P20121107                            000057179                                       Sr Cust Support Analyst H                                                                                                                                                                                                  TCH000000027                                      25        541084431Merton                             Kaleb                                                       19790314MN                                                                                                                                                                                                                                                                                                                                                                                                                                                                                                                  01AC FLX969612                                000200000    000100000         000000000    000000000                                                                0012021010120210101                                                                                                                                                                                                                                                                                                                                                                                                                                                                                                                                                                                                                                                                                                                                                                                                                                                                                                                                                                                                                                                                                                                                                                                                                amerton@symplr.com                                                                                                                                    
642097387124797               0000                                       Miller                             Mandy                    Jean                               19850615FM    N                                                                                                         4823 Aquagate Dr.                                                     SPRING                        TX77373                                   USTX                                 P                                            NEAC        P20110517                            000067974                                       Sr Cust Support Special H                                                                                                                                                                                                  TCH000000033                                      25        466855618Page Jr                            David                                                       20150623MN                                                                                                                                                                                                                                                                                                                                                                                                                                                                                                                  01AC FLX969612                                000010000    000005000         000000000    000000000                                                                0012021010120210101                                                                                                                                                                                                                                                                                                                                                                                                                                                                                                                                                                                                                                                                                                                                                                                                                                                                                                                                                                                                                                                                                                                                                                                                                mmiller@symplr.com                                                                                                                                    
463818825124800               0000                                       Purdy                              Kristal                  Raynelle                           19821129FI    N                                                                                                         9011 Springcroft Court                                                TOMBALL                       TX77375                                   USTX                                 P                                            NEAC        P20120220                            000052676                                       Pre-Sales Development Rep                                                                                                                                                                                                  TCA000052676                                                                                                                                                                 U                                                                                                                                                                                                                                                                                                                                                                                                                                                                                                                  01AC FLX969612                                000150000                      000000000                                                                             00120200101                                                                                                                                                                                                                                                                                                                                                                                                                                                                                                                                                                                                                                                                                                                                                                                                                                                                                                                                                                                                                                                                                                                                                                                                                        kpurdy@symplr.com                                                                                                                                     
636365076124801               0000                                       Carias                             Brianna                  Marie                              19930503FM    N                                                                                                         4400 COLLEGE PARK DR               Apt 621                            THE WOODLANDS                 TX77384                                   USTX                                 P                                            NEAC        P20130121                            000052800                                       Operations Manager                                                                                                                                                                                                         TCA000052800                                                                                                                                                                 U                                                                                                                                                                                                                                                                                                                                                                                                                                                                                                                  01AC FLX969612                                000020000                      000000000                                                                             00120210101                                                                                                                                                                                                                                                                                                                                                                                                                                                                                                                                                                                                                                                                                                                                                                                                                                                                                                                                                                                                                                                                                                                                                                                                                        bcarias@symplr.com                                                                                                                                    
454653454124805               0000                                       Payne                              Brittany                 Elise                              19830406FM    N                                                                                                         1726 Ketelby Reach Drive                                              Spring                        TX77386                                   USTX                                 P                                            NEAC        P20140414                            000071000                                       Office Manager                                                                                                                                                                                                             TCA000071000                                      25        645090310Payne                              Kristopher                                                  19840710MN                                                                                                                                                                                                                                                                                                                                                                                                                                                                                                                  01AC FLX969612                                000150000    000075000         000000000    000000000                                                                0012021010120210101                                                                                                                                                                                                                                                                                                                                                                                                                                                                                                                                                                                                                                                                                                                                                                                                                                                                                                                                                                                                                                                                                                                                                                                                                bpayne@symplr.com                                                                                                                                     
555572339124807               0000                                       Chestnutt                          Judy                     Wanda                              19650814FM    N                                                                                                         830 Shriver Circle                                                    Lake Mary                     FL32746                                   USFL                                 P                                            NEAC        P20091102                            000063509                                       Trainer and Proj Mgr-Impl                                                                                                                                                                                                  TCA000063509                                      25        241316677Chestnutt                          Larry                                                       19640802MN                                                                                                                                                                                                                                                                                                                                                                                                                                                                                                                  01AC FLX969612                                000020000    000020000         000000000    000000000                                                                0012020010120200101                                                                                                                                                                                                                                                                                                                                                                                                                                                                                                                                                                                                                                                                                                                                                                                                                                                                                                                                                                                                                                                                                                                                                                                                                jchestnutt@symplr.com                                                                                                                                 
410046001124809               0000                                       Hoffman                            Marvin                   Lloyd Charles                      19600505MI    N                                                                                                         2816 Roscommon Dr                                                     Murfreesboro                  TN37128                                   USTN                                 P                                            NEAC        P20001015                            000122459                                       Sr. Software Engineer Mgr                                                                                                                                                                                                  TCA000122459                                                                                                                                                                 U                                                                                                                                                                                                                                                                                                                                                                                                                                                                                                                  01AC FLX969612                                000010000                      000000000                                                                             00120210101                                                                                                                                                                                                                                                                                                                                                                                                                                                                                                                                                                                                                                                                                                                                                                                                                                                                                                                                                                                                                                                                                                                                                                                                                        mhoffman@symplr.com                                                                                                                                   
402924032124810               0000                                       Orand                              Joni                                                        19590919FI    N                                                                                                         1570 Cypress Bend Trail                                               Gulf Breeze                   FL32563                                   USFL                                 P                                            NEAC        P20090105                            000110000                                       Quality Solutions Manager                                                                                                                                                                                                  TCA000110000                                                                                                                                                                 U                                                                                                                                                                                                                                                                                                                                                                                                                                                                                                                  01AC FLX969612                                000010000                      000000000                                                                             00120210101                                                                                                                                                                                                                                                                                                                                                                                                                                                                                                                                                                                                                                                                                                                                                                                                                                                                                                                                                                                                                                                                                                                                                                                                                        jorand@symplr.com                                                                                                                                     
515826162124811               0000                                       Smith                              Todd                     C                                  19661106MI    N                                                                                                         25290 171st                                                           Leavenworth                   KS66048                                   USKS                                 P                                            NEAC        P20001015                            000057342                                       BI Analyst                                                                                                                                                                                                                 TCA000057342                                                                                                                                                                 U                                                                                                                                                                                                                                                                                                                                                                                                                                                                                                                  01AC FLX969612                                000200000                      000000000                                                                             00120210101                                                                                                                                                                                                                                                                                                                                                                                                                                                                                                                                                                                                                                                                                                                                                                                                                                                                                                                                                                                                                                                                                                                                                                                                                        tsmith@symplr.com                                                                                                                                     
408290560124812               0000                                       Boling                             Susan                    A                                  19670826FM    N                                                                                                         471 Bay Point Dr.                                                     Gallatin                      TN37066                                   USTN                                 P                                            NEAC        P20140915                            000137517                                       Director of PES                                                                                                                                                                                                            TCA000137517                                                                                                                                                                 U                                                                                                                                                                                                                                                                                                                                                                                                                                                                                                                  01AC FLX969612                                000010000                      000000000                                                                             00120210101                                                                                                                                                                                                                                                                                                                                                                                                                                                                                                                                                                                                                                                                                                                                                                                                                                                                                                                                                                                                                                                                                                                                                                                                                        sboling@symplr.com                                                                                                                                    
594503022124813               0000                                       Avello                             Kimberly                 Dawn                               19841206FM    N                                                                                                         3058 Everleigh Place                                                  Spring Hill                   TN37174                                   USTN                                 P                                            NEAC        P20141124                            000074507                                       Manager Payor Enrollment                                                                                                                                                                                                   TCA000074507                                      25        592748560Avello                             Stephen                                                     19820305MN                                                                                                                                                                                                                                                                                                                                                                                                                                                                                                                  01AC FLX969612                                000200000    000050000         000000000    000000000                                                                0012020010120200101                                                                                                                                                                                                                                                                                                                                                                                                                                                                                                                                                                                                                                                                                                                                                                                                                                                                                                                                                                                                                                                                                                                                                                                                                kavello@symplr.com                                                                                                                                    
364668575124817               0000                                       Mazurek                            Kathleen                 Ann                                19570609FD    N                                                                                                         3219 Saint Marys Road                                                 Hillsborough                  NC27278                                   USNC                                 P                                            NEAC        P20150501                            000124826                                       Sr. Implement Specialist                                                                                                                                                                                                   TCA000124826                                      25        379508277Rohder                             Timothy                                                     19540311MN                                                                                                                                                                                                                                                                                                                                                                                                                                                                                                                  01AC FLX969612                                000050000    000020000         000000000    000000000                                                                0012020010120200101                                                                                                                                                                                                                                                                                                                                                                                                                                                                                                                                                                                                                                                                                                                                                                                                                                                                                                                                                                                                                                                                                                                                                                                                                kmazurek@symplr.com                                                                                                                                   
240434182124818               0000                                       Pearson                            Alesha                   Dianne                             19840224FM    N                                                                                                         402 Great Smokey Mountain Dr                                          Mebane                        NC27302                                   USNC                                 P                                            NEAC        P20150501                            000068679                                       Quality Team Lead                                                                                                                                                                                                          TCA000068679                                      25        239636262Pearson                            Michael                                                     19840720MN                                                                                                                                                                                                                                                                                                                                                                                                                                                                                                                  01AC FLX969612                                000200000    000150000         000000000    000000000                                                                0012021010120210101                                                                                                                                                                                                                                                                                                                                                                                                                                                                                                                                                                                                                                                                                                                                                                                                                                                                                                                                                                                                                                                                                                                                                                                                                apearson@symplr.com                                                                                                                                   
537968571124819               0000                                       McPhie                             Jennika                  Annise                             19820527FM    N                                                                                                         3906 Markspring Lane                                                  Spring                        TX77388                                   USTX                                 P                                            NEAC        P20150511                            000087446                                       Senior Accountant                                                                                                                                                                                                          TCA000087446                                      25        466896765McPhie                             Nathan                                                      19810405MN                                                                                                                                                                                                                                                                                                                                                                                                                                                                                                                  01AC FLX969612                                000300000    000150000         000000000    000000000                                                                0012021010120210101                                                                                                                                                                                                                                                                                                                                                                                                                                                                                                                                                                                                                                                                                                                                                                                                                                                                                                                                                                                                                                                                                                                                                                                                                jmcphie@symplr.com                                                                                                                                    
413473861124820               0000                                       Darr                               Aubrey                                                      19730727FM    N                                                                                                         2002 E McLaughlin St                                                  Smyrna                        TN37167                                   USTN                                 P                                            NEAC        P20181201                            000056650                                       Payor Enrollment Speciali                                                                                                                                                                                                  TCA000056650                                                                                                                                                                 U                                                                                                                                                                                                                                                                                                                                                                                                                                                                                                                  01AC FLX969612                                000200000                      000000000                                                                             00120200101                                                                                                                                                                                                                                                                                                                                                                                                                                                                                                                                                                                                                                                                                                                                                                                                                                                                                                                                                                                                                                                                                                                                                                                                                        adarr@symplr.com                                                                                                                                      
409572739124821               0000                                       Vaughn                             Beverly                  Amanda                             19791110FW    N                                                                                                         683 Old Six Mile Rd                                                   Somerville                    AL35670                                   USAL                                 P                                            NEAC        P20160208                            000061532                                       Credentialing SpecialistS                                                                                                                                                                                                  TCA000061532                                                                                                                                                                 U                                                                                                                                                                                                                                                                                                                                                                                                                                                                                                                  01AC FLX969612                                000200000                      000000000                                                                             00120210101                                                                                                                                                                                                                                                                                                                                                                                                                                                                                                                                                                                                                                                                                                                                                                                                                                                                                                                                                                                                                                                                                                                                                                                                                        avaughn@symplr.com                                                                                                                                    
636162859124823               0000                                       Culver                             Nathan                   Grey                               19900228FM    N                                                                                                         9844 Preserve Way                                                     Conroe                        TX77385                                   USTX                                 P                                            NEAC        P20160307                            000054995                                       Cust Support Special HRLY                                                                                                                                                                                                  TCH000000026                                                                                                                                                                 U                                                                                                                                                                                                                                                                                                                                                                                                                                                                                                                  01AC FLX969612                                000100000                      000000000                                                                             00120210101                                                                                                                                                                                                                                                                                                                                                                                                                                                                                                                                                                                                                                                                                                                                                                                                                                                                                                                                                                                                                                                                                                                                                                                                                        nculver@symplr.com                                                                                                                                    
589580767124824               0000                                       Forsha                             Christopher              Steven                             19770804MI    N                                                                                                         1110 W. 26TH St                    #4                                 Houston                       TX77008                                   USTX                                 P                                            NEAC        P20160502                            000123600                                       Salesforce Solution Arch                                                                                                                                                                                                   TCA000123600                                                                                                                                                                 U                                                                                                                                                                                                                                                                                                                                                                                                                                                                                                                  01AC FLX969612                                000200000                      000000000                                                                             00120200101                                                                                                                                                                                                                                                                                                                                                                                                                                                                                                                                                                                                                                                                                                                                                                                                                                                                                                                                                                                                                                                                                                                                                                                                                        cforsha@symplr.com                                                                                                                                    
374154088124825               0000                                       Tucker                             Taylor                   Marie                              19921120FK    N                                                                                                         7823 Willowick Drive                                                  Spring                        TX77389                                   USTX                                 P                                            NEAC        P20160705                            000036244                                       Research Associate                                                                                                                                                                                                         TCH000000017                                                                                                                                                                 U                                                                                                                                                                                                                                                                                                                                                                                                                                                                                                                  01AC FLX969612                                000010000                      000000000                                                                             00120200101                                                                                                                                                                                                                                                                                                                                                                                                                                                                                                                                                                                                                                                                                                                                                                                                                                                                                                                                                                                                                                                                                                                                                                                                                        ttucker@symplr.com                                                                                                                                    
409439251124827               0000                                       Crawford                           Tamula                   L                                  19760528FM    N                                                                                                         26239 Park Ivy Lane                                                   Katy                          TX77494                                   USTX                                 P                                            NEAC        P20160718                            000070728                                       PES Supervisor                                                                                                                                                                                                             TCA000070728                                      25        285800965Crawford                           Steve                                                       19730508MN                                                                                                                                                                                                                                                                                                                                                                                                                                                                                                                  01AC FLX969612                                000010000    000005000         000000000    000000000                                                                0012020010120200101                                                                                                                                                                                                                                                                                                                                                                                                                                                                                                                                                                                                                                                                                                                                                                                                                                                                                                                                                                                                                                                                                                                                                                                                                tcrawford@symplr.com                                                                                                                                  
414250426124828               0000                                       Davidson                           Rachel                   Ellen                              19710910FM    N                                                                                                         1413 Jones Rd                                                         Hendersonville                TN37075                                   USTN                                 P                                            NEAC        P20160718                            000069432                                       Payor Enrollment Speciali                                                                                                                                                                                                  TCA000069432                                                                                                                                                                 U                                                                                                                                                                                                                                                                                                                                                                                                                                                                                                                  01AC FLX969612                                000150000                      000000000                                                                             00120200101                                                                                                                                                                                                                                                                                                                                                                                                                                                                                                                                                                                                                                                                                                                                                                                                                                                                                                                                                                                                                                                                                                                                                                                                                        rdavidson@symplr.com                                                                                                                                  
492986969124829               0000                                       Friskel                            Carolyn                                                     19870102FI    N                                                                                                         4813 Briarwood Dr                                                     Nashville                     TN37211                                   USTN                                 P                                            NEAC        P20160808                            000068783                                       Training & Dev Coord                                                                                                                                                                                                       TCA000068783                                                                                                                                                                 U                                                                                                                                                                                                                                                                                                                                                                                                                                                                                                                  01AC FLX969612                                000300000                      000000000                                                                             00120210101                                                                                                                                                                                                                                                                                                                                                                                                                                                                                                                                                                                                                                                                                                                                                                                                                                                                                                                                                                                                                                                                                                                                                                                                                        cfriskel@symplr.com                                                                                                                                   
511789597124831               0000                                       Alexander                          Kevin                                                       19770228MM    N                                                                                                         5735 Walmer St                                                        Mission                       KS66202                                   USKS                                 P                                            NEAC        P20100913                            000088467                                       Systems Team Lead                                                                                                                                                                                                          TCA000088467                                                                                                                                                                 U                                                                                                                                                                                                                                                                                                                                                                                                                                                                                                                  01AC FLX969612                                000200000                      000000000                                                                             00120200101                                                                                                                                                                                                                                                                                                                                                                                                                                                                                                                                                                                                                                                                                                                                                                                                                                                                                                                                                                                                                                                                                                                                                                                                                        kalexander@symplr.com                                                                                                                                 
510962968124840               0000                                       Dexter                             Matthew                  Alan                               19760428MD    N                                                                                                         5206 w. 165th Terrace                                                 Stilwell                      KS66085                                   USKS                                 P                                            NEAC        P19990401                            000136475                                       Solution Consultant                                                                                                                                                                                                        TCA000136475                                                                                                                                                                 U                                                                                                                                                                                                                                                                                                                                                                                                                                                                                                                  01AC FLX969612                                000100000                      000000000                                                                             00120210101                                                                                                                                                                                                                                                                                                                                                                                                                                                                                                                                                                                                                                                                                                                                                                                                                                                                                                                                                                                                                                                                                                                                                                                                                        mdexter@symplr.com                                                                                                                                    
480784515124842               0000                                       Feller                             Michael                  James                              19700429MM    N                                                                                                         6617 Garnett Ct                                                       Shawnee                       KS66203                                   USKS                                 P                                            NEAC        P20140701                            000062186                                       Customer Support Expert                                                                                                                                                                                                    TCA000062186                                      25        486787495Feller                             Barbara                                                     19711010FN                                                                                                                                                                                                                                                                                                                                                                                                                                                                                                                  01AC FLX969612                                000100000    000050000         000000000    000000000                                                                0012020010120200101                                                                                                                                                                                                                                                                                                                                                                                                                                                                                                                                                                                                                                                                                                                                                                                                                                                                                                                                                                                                                                                                                                                                                                                                                jimf@symplr.com                                                                                                                                       
498842673124844               0000                                       Gee                                Dion                                                        19780903MK    N                                                                                                         5610 W 147th Ter                                                      Overland Park                 KS66223                                   USKS                                 P                                            NEAC        P20140801                            000200000                                       VP Information Technology                                                                                                                                                                                                  TCA000200000                                      25        500920530Gee                                Cali                                                        19780319FN                                                                                                                                                                                                                                                                                                                                                                                                                                                                                                                  01AC FLX969612                                000300000    000150000         000000000    000000000                                                                0012021010120210101                                                                                                                                                                                                                                                                                                                                                                                                                                                                                                                                                                                                                                                                                                                                                                                                                                                                                                                                                                                                                                                                                                                                                                                                                dgee@symplr.com                                                                                                                                       
490947458124849               0000                                       HELFERS                            CLINTON                                                     19820820MK    N                                                                                                         112 NW Nutall Dr                                                      Lee's Summit                  MO64081                                   USMO                                 P                                            NEAC        P20150908                            000136428                                       Staff Software Engineer                                                                                                                                                                                                    TCA000136428                                      25        425952545Helfers                            Haydee                                                      19761224FN                                                                                                                                                                                                                                                                                                                                                                                                                                                                                                                  01AC FLX969612                                000250000    000050000         000000000    000000000                                                                0012021010120210101                                                                                                                                                                                                                                                                                                                                                                                                                                                                                                                                                                                                                                                                                                                                                                                                                                                                                                                                                                                                                                                                                                                                                                                                                clinth@symplr.com                                                                                                                                     
318742824124853               0000                                       McCully                            Matthew                                                     19830528MK    N                                                                                                         1324 E. 153rd St                                                      Olathe                        KS66062                                   USKS                                 P                                            NEAC        P20140401                            000078795                                       Customer Support Manager                                                                                                                                                                                                   TCA000078795                                                                                                                                                                 U                                                                                                                                                                                                                                                                                                                                                                                                                                                                                                                  01AC FLX969612                                000010000                      000000000                                                                             00120200101                                                                                                                                                                                                                                                                                                                                                                                                                                                                                                                                                                                                                                                                                                                                                                                                                                                                                                                                                                                                                                                                                                                                                                                                                        mattm@symplr.com                                                                                                                                      
513940530124854               0000                                       Merz                               Andrew                   Kyle                               19860222MM    N                                                                                                         12501 S Parker Terr                                                   Olathe                        KS66061                                   USKS                                 P                                            NEAC        P20080701                            000100816                                       Sr. Tech Consulting TL                                                                                                                                                                                                     TCA000100816                                      25        513888647Merz                               Jennifer                                                    19850112FN                                                                                                                                                                                                                                                                                                                                                                                                                                                                                                                  01AC FLX969612                                000150000    000035000         000000000    000000000                                                                0012020010120200101                                                                                                                                                                                                                                                                                                                                                                                                                                                                                                                                                                                                                                                                                                                                                                                                                                                                                                                                                                                                                                                                                                                                                                                                                andrewm@symplr.com                                                                                                                                    
488584430124857               0000                                       Moore                              Thomas                   Travis                             19650625MD    N                                                                                                         7010 W 124th St                    Apt 1915                           Overland Park                 KS66209                                   USKS                                 P                                            NEAC        P19911201                            000102459                                       Consultant                                                                                                                                                                                                                 TCA000102459                                                                                                                                                                 U                                                                                                                                                                                                                                                                                                                                                                                                                                                                                                                  01AC FLX969612                                000200000                      000000000                                                                             00120210101                                                                                                                                                                                                                                                                                                                                                                                                                                                                                                                                                                                                                                                                                                                                                                                                                                                                                                                                                                                                                                                                                                                                                                                                                        tomm@symplr.com                                                                                                                                       
500988394124858               0000                                       Gregg                              Jillian                                                     19890407FM    N                                                                                                         3003 West 71st Terrace                                                Prairie Village               KS66208                                   USKS                                 P                                            NEAC        P20150615                            000089370                                       Engagement Leader, Mng TL                                                                                                                                                                                                  TCA000089370                                                                                                                                                                 U                                                                                                                                                                                                                                                                                                                                                                                                                                                                                                                  01AC FLX969612                                000010000                      000000000                                                                             00120200101                                                                                                                                                                                                                                                                                                                                                                                                                                                                                                                                                                                                                                                                                                                                                                                                                                                                                                                                                                                                                                                                                                                                                                                                                        jgregg@symplr.com                                                                                                                                     
501963574124859               0000                                       Outhonesak                         Phai Vanh                                                   19800926MM    N                                                                                                         1402 E. 153rd Ter                                                     Olathe                        KS66062                                   USKS                                 P                                            NEAC        P20120604                            000077015                                       Quality Engineer                                                                                                                                                                                                           TCA000077015                                      25        512887216Yang                               Mao                                                         19841015FN                                                                                                                                                                                                                                                                                                                                                                                                                                                                                                                  01AC FLX969612                                000100000    000007000         000000000    000000000                                                                0012020010120200101                                                                                                                                                                                                                                                                                                                                                                                                                                                                                                                                                                                                                                                                                                                                                                                                                                                                                                                                                                                                                                                                                                                                                                                                                PhaiVanhO@symplr.com                                                                                                                                  
