20200729G000BN9YM462714594 Belk                               Tammy                     F19700124                                                                                                                                                                                                                   2008030620200501                                                                    202005010001                                                                      20190401A000000001000260020200729A01000000000045000020200729A03                                                                      20200501A001                                                                                                                                                                                              120200101ENLTL00NCSALC                                 A20200101ENATA00NCSALC                                 S20200101ENSTS00NCSALC                                 T20200101ENTTT00NCSALC                                 320200101ENETL0CEEVALC    202001010000010000                                                                                                                         c20200101ENBTA0CEEVALC    202001010000010000                                                                                                                                                                                                                                                                                                                                                                                                                                                                                                                                                                                                                                                                                                                                                                                          
20200729G000BN9YM414494568 Weaver                             Candice                   F19790621                                                                                                                                                                                                                   2011091920200501                                                                    202005010001                                                                      20191007A000000000756250020200729A01000000000037500020200729A03                                                                      20200501A001                                                                                                                                                                                              120200101ENLTL00NCSALC                                 A20200101ENATA00NCSALC                                 S20200101ENSTS00NCSALC                                 T20200101ENTTT00NCSALC                                                                                                                                                                                                                                                                                                                                                                                                                                                                                                                                                                                                                                                                                                                                                                                                                                                                                                                                                                                                                                            
20200729G000BN9YM452996931 Maloney                            Colleen                   F19880323                                                                                                                                                                                                                   2012012320200501                                                                    202005010001                                                                      20191229A000000000501382020200729A01000000000010000020200729A03                                                                      20200501A001                                                                                                                                                                                              120200101ENLTL00NCSALC                                 A20200101ENATA00NCSALC                                 S20200101ENSTS00NCSALC                                 T20200101ENTTT00NCSALC                                                                                                                                                                                                                                                                                                                                                                                                                                                                                                                                                                                                                                                                                                                                                                                                                                                                                                                                                                                                                                            
20200729G000BN9YH466535737 Merton                             Kaleb                     M19790314                                                                                                                                                                                                                   2012110720200501                                                                            0001                                                                              A                        A01                        A03                                                                                                                                                                                                                                                                                                                                                                                                                                                                                                                                                                                                                                                                                                                                                                                                                                                                                                                                                                                                                                                                                                                                                                                                                                                                                                                                                                                                                                                                                                                       
20200729G000BN9YM466535737 Merton                             Aubrey                    F19800711                                                                                                                                                                                                                   2012110720200501                                                                    202005010001                                                                      20190401A000000000571788020200729A01                20200729A030000000000021047                                                      20200501A001                                                                                                                                                                                              120200101ENLTL00NCSALC                                 A20200101ENATA00NCSALC                                 S20200101ENSTS00NCSALC                                 T20200101ENTTT00NCSALC                                 320200101ENETL0CEEVALC    202001010000200000           420200101ENETL0CSPVALC    202001010000100000           520200101ENETL0CDPVALC    202001010000010000           c20200101ENBTA0CEEVALC    202001010000200000           e20200101ENBTA0CSPVALC    202001010000100000           d20200101ENBTA0CDPVALC    202001010000010000                                                                                                                                                                                                                                                                                                                                                                                                                                                                                                                                                                                                                                                                            
20200729G000BN9YS466535737 Merton                             William                   M20140909                                                                                                                                                                                                                   2012110720200501                                                                            0001                                                                              A                        A01                        A03                                                                                                                                                                                                                                                                                                                                                                                                                                                                                                                                                                                                                                                                                                                                                                                                                                                                                                                                                                                                                                                                                                                                                                                                                                                                                                                                                                                                                                                                                                                       
20200729G000BN9YD642097387 Freund                             Makenna                   F20030707                                                                                                                                                                                                                   2011051720200501                                                                            0001                                                                              A                        A01                        A03                                                                                                                                                                                                                                                                                                                                                                                                                                                                                                                                                                                                                                                                                                                                                                                                                                                                                                                                                                                                                                                                                                                                                                                                                                                                                                                                                                                                                                                                                                                       
20200729G000BN9YM642097387 Miller                             Mandy                     F19850615                                                                                                                                                                                                                   2011051720200501                                                                    202005010001                                                                      20190401A000000000679744020200729A01000000000149915520200729A030000000000037059                                                      20200501A001                                                                                                                                                                                              120200101ENLTL00NCSALC                                 A20200101ENATA00NCSALC                                 S20200101ENSTS00NCSALC                                 T20200101ENTTT00NCSALC                                 320200101ENETL0CEEVALC    202001010000150000                                                                  520200101ENETL0CDPVALC    202001010000010000           c20200101ENBTA0CEEVALC    202001010000150000                                                                  d20200101ENBTA0CDPVALC    202001010000010000                                                                                                                                                                                                                                                                                                                                                                                                                                                                                                                                                                                                                                                                            
20200729G000BN9YS642097387 Page                               Caden                     M20080312                                                                                                                                                                                                                   2011051720200501                                                                            0001                                                                              A                        A01                        A03                                                                                                                                                                                                                                                                                                                                                                                                                                                                                                                                                                                                                                                                                                                                                                                                                                                                                                                                                                                                                                                                                                                                                                                                                                                                                                                                                                                                                                                                                                                       
20200729G000BN9YS642097387 Page                               Reece                     M20031019                                                                                                                                                                                                                   2011051720200501                                                                            0001                                                                              A                        A01                        A03                                                                                                                                                                                                                                                                                                                                                                                                                                                                                                                                                                                                                                                                                                                                                                                                                                                                                                                                                                                                                                                                                                                                                                                                                                                                                                                                                                                                                                                                                                                       
20200729G000BN9YM463818825 Purdy                              Kristal                   F19821129                                                                                                                                                                                                                   2012022020200501                                                                    202005010001                                                                      20190401A000000000526760020200729A01000000000229305720200729A03                                                                      20200501A001                                                                                                                                                                                              120200101ENLTL00NCSALC                                 A20200101ENATA00NCSALC                                 S20200101ENSTS00NCSALC                                 T20200101ENTTT00NCSALC                                 320200101ENETL0CEEVALC    202001010000150000                                                                                                                         c20200101ENBTA0CEEVALC    202001010000150000                                                                                                                                                                                                                                                                                                                                                                                                                                                                                                                                                                                                                                                                                                                                                                                          
20200729G000BN9YM636365076 Carias                             Brianna                   F19930503                                                                                                                                                                                                                   2013012120200501                                                                    202005010001                                                                      20191007A000000000528000020200729A01000000000012500020200729A03                                                                      20200501A001                                                                                                                                                                                              120200101ENLTL00NCSALC                                 A20200101ENATA00NCSALC                                 S20200101ENSTS00NCSALC                                 T20200101ENTTT00NCSALC                                 320200101ENETL0CEEVALC    202001010000020000                                                                                                                         c20200101ENBTA0CEEVALC    202001010000020000                                                                                                                                                                                                                                                                                                                                                                                                                                                                                                                                                                                                                                                                                                                                                                                          
20200729G000BN9YM645101485 Eppler                             Jamie                     F19840606                                                                                                                                                                                                                   2011111420200501                                                                    202005010001                                                                      20190401A000000000566452020200729A01000000000100819320200729A030000000000002450                                                      20200501A001                                                                                                                                                                                              120200101ENLTL00NCSALC                                 A20200101ENATA00NCSALC                                 S20200101ENSTS00NCSALC                                 T20200101ENTTT00NCSALC                                 320200101ENETL0CEEVALC    202001010000010000                                                                                                                         c20200101ENBTA0CEEVALC    202001010000010000                                                                                                                                                                                                                                                                                                                                                                                                                                                                                                                                                                                                                                                                                                                                                                                          
20200729G000BN9YM778598865 Yadav                              Vishal                    M19800906                                                                                                                                                                                                                   2012030520200501                                                                    202005010001                                                                      20190407A000000001746750020200729A01000000000068250020200729A03                                                                      20200501A001                                                                                                                                                                                              120200101ENLTL00NCSALC                                 A20200101ENATA00NCSALC                                 S20200101ENSTS00NCSALC                                 T20200101ENTTT00NCSALC                                 320200101ENETL0CEEVALC    202001010000200000                                                                                                                         c20200101ENBTA0CEEVALC    202001010000200000                                                                                                                                                                                                                                                                                                                                                                                                                                                                                                                                                                                                                                                                                                                                                                                          
20200729G000BN9YM466934311 Pleczko                            Richard                   M19580109                                                                                                                                                                                                                   2014021720200501                                                                    202005010001                                                                      20181230A000000003500000020200729A01                20200729A03                                                                      20200501A001                                                                                                                                                                                              120200101ENLTL00NCSALC                                 A20200101ENATA00NCSALC                                 S20200101ENSTS00NCSALC                                 T20200101ENTTT00NCSALC                                                                                                                                                                                                                                                                                                                                                                                                                                                                                                                                                                                                                                                                                                                                                                                                                                                                                                                                                                                                                                            
20200729G000BN9YD454653454 Senegal                            Brelyn                    F20000620                                                                                                                                                                                                                   2014041420200501                                                                            0001                                                                              A                        A01                        A03                                                                                                                                                                                                                                                                                                                                                                                                                                                                                                                                                                                                                                                                                                                                                                                                                                                                                                                                                                                                                                                                                                                                                                                                                                                                                                                                                                                                                                                                                                                       
20200729G000BN9YH454653454 Payne                              Kristopher                M19840710                                                                                                                                                                                                                   2014041420200501                                                                            0001                                                                              A                        A01                        A03                                                                                                                                                                                                                                                                                                                                                                                                                                                                                                                                                                                                                                                                                                                                                                                                                                                                                                                                                                                                                                                                                                                                                                                                                                                                                                                                                                                                                                                                                                                       
20200729G000BN9YM454653454 Payne                              Brittany                  F19830406                                                                                                                                                                                                                   2014041420200501                                                                    202005010001                                                                      20190401A000000000710000020200729A01000000000028653820200729A03                                                                      20200501A001                                                                                                                                                                                              120200101ENLTL00NCSALC                                 A20200101ENATA00NCSALC                                 S20200101ENSTS00NCSALC                                 T20200101ENTTT00NCSALC                                 320200101ENETL0CEEVALC    202001010000170000           420200101ENETL0CSPVALC    202001010000150000           520200101ENETL0CDPVALC    202001010000010000           c20200101ENBTA0CEEVALC    202001010000170000           e20200101ENBTA0CSPVALC    202001010000150000           d20200101ENBTA0CDPVALC    202001010000010000                                                                                                                                                                                                                                                                                                                                                                                                                                                                                                                                                                                                                                                                            
20200729G000BN9YS454653454 Senegal                            Kayden                    M20061016                                                                                                                                                                                                                   2014041420200501                                                                            0001                                                                              A                        A01                        A03                                                                                                                                                                                                                                                                                                                                                                                                                                                                                                                                                                                                                                                                                                                                                                                                                                                                                                                                                                                                                                                                                                                                                                                                                                                                                                                                                                                                                                                                                                                       
20200729G000BN9YM409060596 Birmingham                         Patrick                   M19700618                                                                                                                                                                                                                   2006020120200501                                                                    202005010001                                                                      20060201A000000002000000020200729A01                20200729A03                                                                      20200501A001                                                                                                                                                                                              120200101ENLTL00NCSALC                                 A20200101ENATA00NCSALC                                 S20200101ENSTS00NCSALC                                 T20200101ENTTT00NCSALC                                                                                                                                                                                                                                                                                                                                                                                                                                                                                                                                                                                                                                                                                                                                                                                                                                                                                                                                                                                                                                            
20200729G000BN9YD555572339 Chestnutt                          Madison                   F19970314                                                                                                                                                                                                                   2009110220200501                                                                            0001                                                                              A                        A01                        A03                                                                                                                                                                                                                                                                                                                                                                                                                                                                                                                                                                                                                                                                                                                                                                                                                                                                                                                                                                                                                                                                                                                                                                                                                                                                                                                                                                                                                                                                                                                       
20200729G000BN9YD555572339 Chestnutt                          Payton                    F20001208                                                                                                                                                                                                                   2009110220200501                                                                            0001                                                                              A                        A01                        A03                                                                                                                                                                                                                                                                                                                                                                                                                                                                                                                                                                                                                                                                                                                                                                                                                                                                                                                                                                                                                                                                                                                                                                                                                                                                                                                                                                                                                                                                                                                       
20200729G000BN9YD555572339 Chestnutt                          Savannah                  F20040423                                                                                                                                                                                                                   2009110220200501                                                                            0001                                                                              A                        A01                        A03                                                                                                                                                                                                                                                                                                                                                                                                                                                                                                                                                                                                                                                                                                                                                                                                                                                                                                                                                                                                                                                                                                                                                                                                                                                                                                                                                                                                                                                                                                                       
20200729G000BN9YH555572339 Chestnutt                          Larry                     M19640802                                                                                                                                                                                                                   2009110220200501                                                                            0001                                                                              A                        A01                        A03                                                                                                                                                                                                                                                                                                                                                                                                                                                                                                                                                                                                                                                                                                                                                                                                                                                                                                                                                                                                                                                                                                                                                                                                                                                                                                                                                                                                                                                                                                                       
20200729G000BN9YM555572339 Chestnutt                          Judy                      F19650814                                                                                                                                                                                                                   2009110220200501                                                                    202005010001                                                                      20190401A000000000635091520200729A01000000000015125020200729A03                                                                      20200501A001                                                                                                                                                                                              120200101ENLTL00NCSALC                                 A20200101ENATA00NCSALC                                 S20200101ENSTS00NCSALC                                 T20200101ENTTT00NCSALC                                 320200101ENETL0CEEVALC    202001010000050000           420200101ENETL0CSPVALC    202001010000025000           520200101ENETL0CDPVALC    202001010000010000           c20200101ENBTA0CEEVALC    202001010000050000           e20200101ENBTA0CSPVALC    202001010000025000           d20200101ENBTA0CDPVALC    202001010000010000                                                                                                                                                                                                                                                                                                                                                                                                                                                                                                                                                                                                                                                                            
20200729G000BN9YM481720118 Gordon                             Debra                     F19551221                                                                                                                                                                                                                   2000101520200501                                                                    202005010001                                                                      20190401A000000000841220020200729A01                20200729A03                                                                      20200501A001                                                                                                                                                                                              120200101ENLTL00NCSALC                                 A20200101ENATA00NCSALC                                 S20200101ENSTS00NCSALC                                 T20200101ENTTT00NCSALC                                                                                                                                                                                                                                                                                                                                                                                                                                                                                                                                                                                                                                                                                                                                                                                                                                                                                                                                                                                                                                            
20200729G000BN9YM410046001 Hoffman                            Marvin                    M19600505                                                                                                                                                                                                                   2000101520200501                                                                    202005010001                                                                      20190401A000000001224590020200729A01000000000049120020200729A03                                                                      20200501A001                                                                                                                                                                                              120200101ENLTL00NCSALC                                 A20200101ENATA00NCSALC                                 S20200101ENSTS00NCSALC                                 T20200101ENTTT00NCSALC                                 320200101ENETL0CEEVALC    202001010000100000                                                                                                                         c20200101ENBTA0CEEVALC    202001010000100000                                                                                                                                                                                                                                                                                                                                                                                                                                                                                                                                                                                                                                                                                                                                                                                          
20200729G000BN9YM402924032 Orand                              Joni                      F19590919                                                                                                                                                                                                                   2009010520200501                                                                    202005010001                                                                      20180401A000000001100000020200729A01000000000117030820200729A03                                                                      20200501A001                                                                                                                                                                                              120200101ENLTL00NCSALC                                 A20200101ENATA00NCSALC                                 S20200101ENSTS00NCSALC                                 T20200101ENTTT00NCSALC                                 320200101ENETL0CEEVALC    202001010000050000                                                                                                                         c20200101ENBTA0CEEVALC    202001010000050000                                                                                                                                                                                                                                                                                                                                                                                                                                                                                                                                                                                                                                                                                                                                                                                          
20200729G000BN9YM515826162 Smith                              Todd                      M19661106                                                                                                                                                                                                                   2000101520200501                                                                    202005010001                                                                      20190401A000000000573420020200729A01                20200729A03                                                                      20200501A001                                                                                                                                                                                              120200101ENLTL00NCSALC                                 A20200101ENATA00NCSALC                                 S20200101ENSTS00NCSALC                                 T20200101ENTTT00NCSALC                                 320200101ENETL0CEEVALC    202001010000200000                                                                                                                         c20200101ENBTA0CEEVALC    202001010000200000                                                                                                                                                                                                                                                                                                                                                                                                                                                                                                                                                                                                                                                                                                                                                                                          
20200729G000BN9YD408290560 Ward                               Sadie                     F19960918                                                                                                                                                                                                                   2014091520200501                                                                            0001                                                                              A                        A01                        A03                                                                                                                                                                                                                                                                                                                                                                                                                                                                                                                                                                                                                                                                                                                                                                                                                                                                                                                                                                                                                                                                                                                                                                                                                                                                                                                                                                                                                                                                                                                       
20200729G000BN9YH408290560 Boling                             Stephen                   M19690326                                                                                                                                                                                                                   2014091520200501                                                                            0001                                                                              A                        A01                        A03                                                                                                                                                                                                                                                                                                                                                                                                                                                                                                                                                                                                                                                                                                                                                                                                                                                                                                                                                                                                                                                                                                                                                                                                                                                                                                                                                                                                                                                                                                                       
20200729G000BN9YM408290560 Boling                             Susan                     F19670826                                                                                                                                                                                                                   2014091520200501                                                                    202005010001                                                                      20190401A000000001375170020200729A01000000000050070020200729A03                                                                      20200501A001                                                                                                                                                                                              120200101ENLTL00NCSALC                                 A20200101ENATA00NCSALC                                 S20200101ENSTS00NCSALC                                 T20200101ENTTT00NCSALC                                 320200101ENETL0CEEVALC    202001010000100000           420200101ENETL0CSPVALC    202001010000050000           520200101ENETL0CDPVALC    202001010000010000           c20200101ENBTA0CEEVALC    202001010000100000           e20200101ENBTA0CSPVALC    202001010000050000           d20200101ENBTA0CDPVALC    202001010000010000                                                                                                                                                                                                                                                                                                                                                                                                                                                                                                                                                                                                                                                                            
20200729G000BN9YH594503022 Avello                             Stephen                   M19820305                                                                                                                                                                                                                   2014112420200501                                                                            0001                                                                              A                        A01                        A03                                                                                                                                                                                                                                                                                                                                                                                                                                                                                                                                                                                                                                                                                                                                                                                                                                                                                                                                                                                                                                                                                                                                                                                                                                                                                                                                                                                                                                                                                                                       
20200729G000BN9YM594503022 Avello                             Kimberly                  F19841206                                                                                                                                                                                                                   2014112420200501                                                                    202005010001                                                                      20190401A000000000745070020200729A01000000000037087520200729A03                                                                      20200501A001                                                                                                                                                                                              120200101ENLTL00NCSALC                                 A20200101ENATA00NCSALC                                 S20200101ENSTS00NCSALC                                 T20200101ENTTT00NCSALC                                 320200101ENETL0CEEVALC    202001010000200000           420200101ENETL0CSPVALC    202001010000050000                                                                  c20200101ENBTA0CEEVALC    202001010000200000           e20200101ENBTA0CSPVALC    202001010000050000                                                                                                                                                                                                                                                                                                                                                                                                                                                                                                                                                                                                                                                                                                                                   
20200729G000BN9YM453579054 Lehman                             Deborah                   F19710814                                                                                                                                                                                                                   2014120920200501                                                                    202005010001                                                                      20190401A000000000590000020200729A01000000000017500020200729A03                                                                      20200501A001                                                                                                                                                                                              120200101ENLTL00NCSALC                                 A20200101ENATA00NCSALC                                 S20200101ENSTS00NCSALC                                 T20200101ENTTT00NCSALC                                                                                                                                                                                                                                                                                                                                                                                                                                                                                                                                                                                                                                                                                                                                                                                                                                                                                                                                                                                                                                            
20200729G000BN9YM631188267 Pipkin                             Taylor                    M19850629                                                                                                                                                                                                                   2014120820200501                                                                    202005010001                                                                      20141208A000000001500000020200729A01000000000615561520200729A03                                                                      20200501A001                                                                                                                                                                                              120200101ENLTL00NCSALC                                 A20200101ENATA00NCSALC                                 S20200101ENSTS00NCSALC                                 T20200101ENTTT00NCSALC                                                                                                                                                                                                                                                                                                                                                                                                                                                                                                                                                                                                                                                                                                                                                                                                                                                                                                                                                                                                                                            
20200729G000BN9YM521573787 Brown                              Brandi                    F19710305                                                                                                                                                                                                                   2015042720200501                                                                    202005010001                                                                      20190401A000000000828350020200729A01000000000082365020200729A03                                                                      20200501A001                                                                                                                                                                                              120200101ENLTL00NCSALC                                 A20200101ENATA00NCSALC                                 S20200101ENSTS00NCSALC                                 T20200101ENTTT00NCSALC                                 320200101ENETL0CEEVALC    202001010000100000                                                                                                                         c20200101ENBTA0CEEVALC    202001010000100000                                                                                                                                                                                                                                                                                                                                                                                                                                                                                                                                                                                                                                                                                                                                                                                          
20200729G000BN9YH364668575 Rohder                             Timothy                   M19540311                                                                                                                                                                                                                   2015050120200501                                                                            0001                                                                              A                        A01                        A03                                                                                                                                                                                                                                                                                                                                                                                                                                                                                                                                                                                                                                                                                                                                                                                                                                                                                                                                                                                                                                                                                                                                                                                                                                                                                                                                                                                                                                                                                                                       
20200729G000BN9YM364668575 Mazurek                            Kathleen                  F19570609                                                                                                                                                                                                                   2015050120200501                                                                    202005010001                                                                      20190401A000000001248258420200729A01000000000012500020200729A03                                                                      20200501A001                                                                                                                                                                                              120200101ENLTL00NCSALC                                 A20200101ENATA00NCSALC                                 S20200101ENSTS00NCSALC                                 T20200101ENTTT00NCSALC                                 320200101ENETL0CEEVALC    202001010000050000           420200101ENETL0CSPVALC    202001010000020000                                                                  c20200101ENBTA0CEEVALC    202001010000050000           e20200101ENBTA0CSPVALC    202001010000020000                                                                                                                                                                                                                                                                                                                                                                                                                                                                                                                                                                                                                                                                                                                                   
20200729G000BN9YH240434182 Pearson                            Michael                   M19840720                                                                                                                                                                                                                   2015050120200501                                                                            0001                                                                              A                        A01                        A03                                                                                                                                                                                                                                                                                                                                                                                                                                                                                                                                                                                                                                                                                                                                                                                                                                                                                                                                                                                                                                                                                                                                                                                                                                                                                                                                                                                                                                                                                                                       
20200729G000BN9YM240434182 Pearson                            Alesha                    F19840224                                                                                                                                                                                                                   2015050120200501                                                                    202005010001                                                                      20190728A000000000686790820200729A01000000000061820020200729A03                                                                      20200501A001                                                                                                                                                                                              120200101ENLTL00NCSALC                                 A20200101ENATA00NCSALC                                 S20200101ENSTS00NCSALC                                 T20200101ENTTT00NCSALC                                 320200101ENETL0CEEVALC    202001010000200000           420200101ENETL0CSPVALC    202001010000150000           520200101ENETL0CDPVALC    202001010000010000           c20200101ENBTA0CEEVALC    202001010000200000           e20200101ENBTA0CSPVALC    202001010000150000           d20200101ENBTA0CDPVALC    202001010000010000                                                                                                                                                                                                                                                                                                                                                                                                                                                                                                                                                                                                                                                                            
20200729G000BN9YS240434182 Pearson                            Avery                     M20140912                                                                                                                                                                                                                   2015050120200501                                                                            0001                                                                              A                        A01                        A03                                                                                                                                                                                                                                                                                                                                                                                                                                                                                                                                                                                                                                                                                                                                                                                                                                                                                                                                                                                                                                                                                                                                                                                                                                                                                                                                                                                                                                                                                                                       
20200729G000BN9YD537968571 McPhie                             Ashlynn                   F20181024                                                                                                                                                                                                                   2015051120200501                                                                            0001                                                                              A                        A01                        A03                                                                                                                                                                                                                                                                                                                                                                                                                                                                                                                                                                                                                                                                                                                                                                                                                                                                                                                                                                                                                                                                                                                                                                                                                                                                                                                                                                                                                                                                                                                       
20200729G000BN9YD537968571 Simmons                            Brynn                     F20110130                                                                                                                                                                                                                   2015051120200501                                                                            0001                                                                              A                        A01                        A03                                                                                                                                                                                                                                                                                                                                                                                                                                                                                                                                                                                                                                                                                                                                                                                                                                                                                                                                                                                                                                                                                                                                                                                                                                                                                                                                                                                                                                                                                                                       
20200729G000BN9YH537968571 McPhie                             Nathan                    M19810405                                                                                                                                                                                                                   2015051120200501                                                                            0001                                                                              A                        A01                        A03                                                                                                                                                                                                                                                                                                                                                                                                                                                                                                                                                                                                                                                                                                                                                                                                                                                                                                                                                                                                                                                                                                                                                                                                                                                                                                                                                                                                                                                                                                                       
20200729G000BN9YM537968571 McPhie                             Jennika                   F19820527                                                                                                                                                                                                                   2015051120200501                                                                    202005010001                                                                      20190401A000000000874460020200729A01000000000046435020200729A03                                                                      20200501A001                                                                                                                                                                                              120200101ENLTL00NCSALC                                 A20200101ENATA00NCSALC                                 S20200101ENSTS00NCSALC                                 T20200101ENTTT00NCSALC                                 320200101ENETL0CEEVALC    202001010000300000           420200101ENETL0CSPVALC    202001010000150000           520200101ENETL0CDPVALC    202001010000010000           c20200101ENBTA0CEEVALC    202001010000300000           e20200101ENBTA0CSPVALC    202001010000150000           d20200101ENBTA0CDPVALC    202001010000010000                                                                                                                                                                                                                                                                                                                                                                                                                                                                                                                                                                                                                                                                            
20200729G000BN9YS537968571 Simmons                            Brayden                   M20070712                                                                                                                                                                                                                   2015051120200501                                                                            0001                                                                              A                        A01                        A03                                                                                                                                                                                                                                                                                                                                                                                                                                                                                                                                                                                                                                                                                                                                                                                                                                                                                                                                                                                                                                                                                                                                                                                                                                                                                                                                                                                                                                                                                                                       
20200729G000BN9YS537968571 Simmons                            Rylan                     M20090125                                                                                                                                                                                                                   2015051120200501                                                                            0001                                                                              A                        A01                        A03                                                                                                                                                                                                                                                                                                                                                                                                                                                                                                                                                                                                                                                                                                                                                                                                                                                                                                                                                                                                                                                                                                                                                                                                                                                                                                                                                                                                                                                                                                                       
20200729G000BN9YD413473861 Frye                               Zoie                      F20030213                                                                                                                                                                                                                   2015121420200501                                                                            0001                                                                              A                        A01                        A03                                                                                                                                                                                                                                                                                                                                                                                                                                                                                                                                                                                                                                                                                                                                                                                                                                                                                                                                                                                                                                                                                                                                                                                                                                                                                                                                                                                                                                                                                                                       
