HD021449251      T20191018DAS Companies, Inc.                2  2                                                                                                                                                                                                                                                                                                                                                                                                                                                                                                                                                                                                                                                                                                                                                                                                                                                                                                                                                                                                                                                                                                                                                                                                                                                                                                                                                                                                                                                                                                                                                                                                                                                                                                                                                                                                                                                                                                                                                                                                                                                                                                                                                                                                                                                                                                                                                                                                                                                                                                                                                                                                                                                                                                                                                                                                                                                                                                                                                                                                                                                       
189441727000002                   000309498000019911                     Abel                               David                    Z                                  19580124MM                                                                                                              1000 N Market St                                                      Elizabethtown                 PA17022     US                            US     R        7173675056          R                                               AC        P1979010119790101                             A052000000        YYN Y     PA                                                                                                                                                                                       N                                          PA                                                                                                                                                                                                  03FMLA         FML0752004                                                                                                STD          LK 07520042019110106667         00000        N                                                            LTD          LK 09650172019110106000         00000        N                                                                                                                                                                                                                                                                                                                                                                                                                                                                                                                                                                                                                                                                                                                                                                                                                                                                                                                                                                                                                                                                                                                                                                                                                                                                                                                                                                                                                                                                                                                                                                                                                                                                                                                                               
200762866000004                   000309498000019911                     Sahd                               Mai-Lynn                 A                                  19870205FI                                                                                                              101 Farmington Way                                                    Mount Joy                     PA17552     US                            US     R        7173335057          R                                               AC        P2010121320101213                             A006786562        YYN Y     PA                                                                                                                                                                                       N                                          PA                                                                                                                                                                                                  03FMLA         FML0752004                                                                                                STD          LK 07520042019110106667         00000        N                                                            LTD          LK 09650172019110106000         00000        N                                                                                                                                                                                                                                                                                                                                                                                                                                                                                                                                                                                                                                                                                                                                                                                                                                                                                                                                                                                                                                                                                                                                                                                                                                                                                                                                                                                                                                                                                                                                                                                                                                                                                                                                               
189441716000005                   000309498000019911                     Abel                               Michael                  Z                                  19651111MM                                                                                                              1322 Sylvan Road                                                      Lancaster                     PA17601     US                            US     R        7178982419          R                                               AC        P1987051519870515                             A060000000        YYN Y     PA                                                                                                                                                                                       N                                          PA                                                                                                                                                                                                  03FMLA         FML0752004                                                                                                STD          LK 07520042019110106667         00000        N                                                            LTD          LK 09650172019110106000         00000        N                                                                                                                                                                                                                                                                                                                                                                                                                                                                                                                                                                                                                                                                                                                                                                                                                                                                                                                                                                                                                                                                                                                                                                                                                                                                                                                                                                                                                                                                                                                                                                                                                                                                                                                                               
162761637000007                   000309498000019911                     Abel-Nweze                         Lorraine                 M                                  19760315FM                                                                                                              2141 Raleigh Rd                                                       Hummelstown                   PA17036     US                            US     R        7173675056          R                                               AC        P2005050919970812                             A003642080        YYN N     PA                                                                                                                                                                                       N                                          PA                                                                                                                                                                                                  03FMLA         FML0752004                                                                                                STD          LK 07520042019110106667         00000        N                                                            LTD          LK 09650172019110106000         00000        N                                                                                                                                                                                                                                                                                                                                                                                                                                                                                                                                                                                                                                                                                                                                                                                                                                                                                                                                                                                                                                                                                                                                                                                                                                                                                                                                                                                                                                                                                                                                                                                                                                                                                                                                               
185621772000009                   000309498000019911                     Alonzo                             Deborah                  A                                  19670407FI                                                                                                              426 W Queen St                                                        Annville                      PA17003     US                            US     R        7178671383          R                                               AC        P1993080219930802                             H000002360        NYN N     PA                                                                                                                                                                                       N                                          PA                                                                                                                                                                                                  03FMLA         FML0752004                                                                                                STD          LK 07520042019110106667         00000        N                                                            LTD          LK 09650172019110106000         00000        N                                                                                                                                                                                                                                                                                                                                                                                                                                                                                                                                                                                                                                                                                                                                                                                                                                                                                                                                                                                                                                                                                                                                                                                                                                                                                                                                                                                                                                                                                                                                                                                                                                                                                                                                               
181621108000012                   000309498000019911                     Amey                               Jay                      E                                  19670125MI                                                                                                              42 S 3rd St                                                           Steelton                      PA17113     US                            US     R        7178141695          R                                               AC        P1999091319990913                             H000001872        NYN N     PA                                                                                                                                                                                       N                                          PA                                                                                                                                                                                                  03FMLA         FML0752004                                                                                                STD          LK 07520042019110106667         00000        N                                                            LTD          LK 09650172019110106000         00000        N                                                                                                                                                                                                                                                                                                                                                                                                                                                                                                                                                                                                                                                                                                                                                                                                                                                                                                                                                                                                                                                                                                                                                                                                                                                                                                                                                                                                                                                                                                                                                                                                                                                                                                                                               
529803198000013                   000309498000019911                     Anderson                           Peggy                    J                                  19521009FI                                                                                                              7835 S Candlestick Ln              APT 303                            Midvale                       UT84047     US                            US     R        3852162984          R                                               AC        P2002040920020409                             H000001514        NNN N     UT                                                                                                                                                                                       N                                          UT                                                                                                                                                                                                  03FMLA         FML0752004                                                                                                STD          LK 07520042019110106667         00000        N                                                            LTD          LK 09650172019110106000         00000        N                                                                                                                                                                                                                                                                                                                                                                                                                                                                                                                                                                                                                                                                                                                                                                                                                                                                                                                                                                                                                                                                                                                                                                                                                                                                                                                                                                                                                                                                                                                                                                                                                                                                                                                                               
167584335000020                   000309498000019911                     Leedom                             Arlene                   M                                  19660916FI                                                                                                              5325 Bossler Road                                                     Elizabethtown                 PA17022     US                            US     R        7173664386          R                                               AC        P2000040320000403                             H000001801        NYN N     PA                                                                                                                                                                                       N                                          PA                                                                                                                                                                                                  03FMLA         FML0752004                                                                                                STD          LK 07520042019110106667         00000        N                                                            LTD          LK 09650172019110106000         00000        N                                                                                                                                                                                                                                                                                                                                                                                                                                                                                                                                                                                                                                                                                                                                                                                                                                                                                                                                                                                                                                                                                                                                                                                                                                                                                                                                                                                                                                                                                                                                                                                                                                                                                                                                               
200583890000024                   000309498000019911                     Barker                             John                     E                                  19600516MI                                                                                                              340 E High Street                                                     Elizabethtown                 PA17022     US                            US     R        7176699493          R                                               AC        P2005101020051010                             H000001928        NYN N     PA                                                                                                                                                                                       N                                          PA                                                                                                                                                                                                  03FMLA         FML0752004                                                                                                STD          LK 07520042019110106667         00000        N                                                            LTD          LK 09650172019110106000         00000        N                                                                                                                                                                                                                                                                                                                                                                                                                                                                                                                                                                                                                                                                                                                                                                                                                                                                                                                                                                                                                                                                                                                                                                                                                                                                                                                                                                                                                                                                                                                                                                                                                                                                                                                                               
183420728000027                   000309498000019911                     Beck                               Nancy                    J                                  19480215FI                                                                                                              633 Groff Ave                                                         Elizabethtown                 PA17022     US                            US     R        7173673152          R                                               AC        P2006101620061016                             H000001576        NYN N     PA                                                                                                                                                                                       N                                          PA                                                                                                                                                                                                  03FMLA         FML0752004                                                                                                STD          LK 07520042019110106667         00000        N                                                            LTD          LK 09650172019110106000         00000        N                                                                                                                                                                                                                                                                                                                                                                                                                                                                                                                                                                                                                                                                                                                                                                                                                                                                                                                                                                                                                                                                                                                                                                                                                                                                                                                                                                                                                                                                                                                                                                                                                                                                                                                                               
175606958000030                   000309498000019911                     Binkle                             Travis                   W                                  19761212MM                                                                                                              45 Bullrush Landing                                                   Elizabethtown                 PA17022     US                            US     R        7174758320          R                                               AC        P2010053120100531                             A006305208        YYN Y     PA                                                                                                                                                                                       N                                          PA                                                                                                                                                                                                  03FMLA         FML0752004                                                                                                STD          LK 07520042019110106667         00000        N                                                            LTD          LK 09650172019110106000         00000        N                                                                                                                                                                                                                                                                                                                                                                                                                                                                                                                                                                                                                                                                                                                                                                                                                                                                                                                                                                                                                                                                                                                                                                                                                                                                                                                                                                                                                                                                                                                                                                                                                                                                                                                                               
178484867000031                   000309498000019911                     Birli                              Stephen                  J                                  19610604MI                                                                                                              1420 Ridge Road                                                       Lancaster                     PA17603     US                            US     R        7172698597          R                                               AC        P1984041619840416                             A031500000        YYN Y     PA                                                                                                                                                                                       N                                          PA                                                                                                                                                                                                  03FMLA         FML0752004                                                                                                STD          LK 07520042019110106667         00000        N                                                            LTD          LK 09650172019110106000         00000        N                                                                                                                                                                                                                                                                                                                                                                                                                                                                                                                                                                                                                                                                                                                                                                                                                                                                                                                                                                                                                                                                                                                                                                                                                                                                                                                                                                                                                                                                                                                                                                                                                                                                                                                                               
170700840000032                   000309498000019911                     Bisset                             Franklin                 J                                  19821129MI                                                                                                              227 Race Street                    Apt 3   PO Box 63                  Bainbridge                    PA17502     US                            US     R        7177154588          R                                               AC        P2001070920010709                             H000002020        NYN N     PA                                                                                                                                                                                       N                                          PA                                                                                                                                                                                                  03FMLA         FML0752004                                                                                                STD          LK 07520042019110106667         00000        N                                                            LTD          LK 09650172019110106000         00000        N                                                                                                                                                                                                                                                                                                                                                                                                                                                                                                                                                                                                                                                                                                                                                                                                                                                                                                                                                                                                                                                                                                                                                                                                                                                                                                                                                                                                                                                                                                                                                                                                                                                                                                                                               
195624031000035                   000309498000019911                     Boozer                             Jason                    P                                  19820317MM                                                                                                              222 N Locust t                     Apt 201                            Elizabethtown                 PA17022     US                            US     R        7175174049          R                                               AC        P2010041520100415                             A004144150        YYN Y     PA                                                                                                                                                                                       N                                          PA                                                                                                                                                                                                  03FMLA         FML0752004                                                                                                STD          LK 07520042019110106667         00000        N                                                            LTD          LK 09650172019110106000         00000        N                                                                                                                                                                                                                                                                                                                                                                                                                                                                                                                                                                                                                                                                                                                                                                                                                                                                                                                                                                                                                                                                                                                                                                                                                                                                                                                                                                                                                                                                                                                                                                                                                                                                                                                                               
160649124000036                   000309498000019911                     Boozer                             Timothy                  B                                  19820516MI                                                                                                              942 Hedgewyck Lane                                                    Elizabethtown                 PA17022     US                            US     R        7173429281          R                                               AC        P2008010720010507                             H000002046        NYN N     PA                                                                                                                                                                                       N                                          PA                                                                                                                                                                                                  03FMLA         FML0752004                                                                                                STD          LK 07520042019110106667         00000        N                                                            LTD          LK 09650172019110106000         00000        N                                                                                                                                                                                                                                                                                                                                                                                                                                                                                                                                                                                                                                                                                                                                                                                                                                                                                                                                                                                                                                                                                                                                                                                                                                                                                                                                                                                                                                                                                                                                                                                                                                                                                                                                               
195480198000037                   000309498000019911                     Borst                              John                     W                                  19600323MM                                                                                                              230 Little Beaver Rd                                                  Strasburg                     PA17579     US                            US     R        7176870174          R                                               AC        P1994102519941025                             A020000000        YYN Y     PA                                                                                                                                                                                       N                                          PA                                                                                                                                                                                                  03FMLA         FML0752004                                                                                                STD          LK 07520042019110106667         00000        N                                                            LTD          LK 09650172019110106000         00000        N                                                                                                                                                                                                                                                                                                                                                                                                                                                                                                                                                                                                                                                                                                                                                                                                                                                                                                                                                                                                                                                                                                                                                                                                                                                                                                                                                                                                                                                                                                                                                                                                                                                                                                                                               
191602234000038                   000309498000019911                     Boyd                               Renee                    A                                  19640809FM                                                                                                              2600 Long Lane                                                        Lebanon                       PA17046     US                            US     R        7178675327          R                                               AC        P1984110919841109                             A013239720        YYN Y     PA                                                                                                                                                                                       N                                          PA                                                                                                                                                                                                  03FMLA         FML0752004                                                                                                STD          LK 07520042019110106667         00000        N                                                            LTD          LK 09650172019110106000         00000        N                                                                                                                                                                                                                                                                                                                                                                                                                                                                                                                                                                                                                                                                                                                                                                                                                                                                                                                                                                                                                                                                                                                                                                                                                                                                                                                                                                                                                                                                                                                                                                                                                                                                                                                                               
195503156000040                   000309498000019911                     Bradley                            Brenda                   S                                  19630825FM                                                                                                              570 Union School Road                                                 Mount Joy                     PA17552     US                            US     R        7172033622          R                                               AC        P2003052320030523                             H000001771        NYN N     PA                                                                                                                                                                                       N                                          PA                                                                                                                                                                                                  03FMLA         FML0752004                                                                                                STD          LK 07520042019110106667         00000        N                                                            LTD          LK 09650172019110106000         00000        N                                                                                                                                                                                                                                                                                                                                                                                                                                                                                                                                                                                                                                                                                                                                                                                                                                                                                                                                                                                                                                                                                                                                                                                                                                                                                                                                                                                                                                                                                                                                                                                                                                                                                                                                               
201407023000041                   000309498000019911                     Brehm                              Matthew                  E                                  19650303MM                                                                                                              309 Arch St                                                           Elizabethtown                 PA17022     US                            US     R        7176697888          R                                               AC        P2008040720080407                             A007062848        YYN N     PA                                                                                                                                                                                       N                                          PA                                                                                                                                                                                                  03FMLA         FML0752004                                                                                                STD          LK 07520042019110106667         00000        N                                                            LTD          LK 09650172019110106000         00000        N                                                                                                                                                                                                                                                                                                                                                                                                                                                                                                                                                                                                                                                                                                                                                                                                                                                                                                                                                                                                                                                                                                                                                                                                                                                                                                                                                                                                                                                                                                                                                                                                                                                                                                                                               
191708490000047                   000309498000019911                     Brown                              Bryan                    S                                  19851105MM                                                                                                              2059 E Raleigh Rd                                                     Hummelstown                   PA17036     US                            US     R        7175801552          R                                               AC        P2014032420100412                             H000002089        NYN N     PA                                                                                                                                                                                       N                                          PA                                                                                                                                                                                                  03FMLA         FML0752004                                                                                                STD          LK 07520042019110106667         00000        N                                                            LTD          LK 09650172019110106000         00000        N                                                                                                                                                                                                                                                                                                                                                                                                                                                                                                                                                                                                                                                                                                                                                                                                                                                                                                                                                                                                                                                                                                                                                                                                                                                                                                                                                                                                                                                                                                                                                                                                                                                                                                                                               
193527221000049                   000309498000019911                     Buchter                            Melinda                  M                                  19600330FM                                                                                                              2379 River Rd                      Lot #28                            Bainbridge                    PA17502     US                            US     R        7173673935          R                                               AC        P2006121120061211                             H000001750        NYN N     PA                                                                                                                                                                                       N                                          PA                                                                                                                                                                                                  03FMLA         FML0752004                                                                                                STD          LK 07520042019110106667         00000        N                                                            LTD          LK 09650172019110106000         00000        N                                                                                                                                                                                                                                                                                                                                                                                                                                                                                                                                                                                                                                                                                                                                                                                                                                                                                                                                                                                                                                                                                                                                                                                                                                                                                                                                                                                                                                                                                                                                                                                                                                                                                                                                               
558938404000051                   000309498000019911                     Bullough                           Bryan                    S                                  19841127MI                                                                                                              312 Seventh St #4                                                     Seal Beach                    CA90740     US                            US     R        6029099371          R                                               L120190819P2006011620060116                             A008411312        YYN Y     CA                                                                                                                                                                                       N                                          CA                                                                                                                                                                                                  03FMLA         FML0752004                                                                                                STD          LK 07520042019110106667         00000        N                                                            LTD          LK 09650172019110106000         00000        N                                                                                                                                                                                                                                                                                                                                                                                                                                                                                                                                                                                                                                                                                                                                                                                                                                                                                                                                                                                                                                                                                                                                                                                                                                                                                                                                                                                                                                                                                                                                                                                                                                                                                                                                               
211521163000060                   000309498000019911                     Chaffins                           Wanda                    J                                  19700826FM                                                                                                              PO Box 364                         13 South Second Street Apt 3       Bainbridge                    PA17502     US                            US     R        7179177163          R                                               AC        P2008102120071105                             H000001540        NYN N     PA                                                                                                                                                                                       N                                          PA                                                                                                                                                                                                  03FMLA         FML0752004                                                                                                STD          LK 07520042019110106667         00000        N                                                            LTD          LK 09650172019110106000         00000        N                                                                                                                                                                                                                                                                                                                                                                                                                                                                                                                                                                                                                                                                                                                                                                                                                                                                                                                                                                                                                                                                                                                                                                                                                                                                                                                                                                                                                                                                                                                                                                                                                                                                                                                                               
171563421000062                   000309498000019911                     Cheatle                            Thomas                   A                                  19600608MI                                                                                                              PO Box 596                                                            Elizabethtown                 PA17022     US                            US     R        7173679129          R                                               AC        P2002050620020506                             H000001932        NYN N     PA                                                                                                                                                                                       N                                          PA                                                                                                                                                                                                  03FMLA         FML0752004                                                                                                STD          LK 07520042019110106667         00000        N                                                            LTD          LK 09650172019110106000         00000        N                                                                                                                                                                                                                                                                                                                                                                                                                                                                                                                                                                                                                                                                                                                                                                                                                                                                                                                                                                                                                                                                                                                                                                                                                                                                                                                                                                                                                                                                                                                                                                                                                                                                                                                                               
174701405000066                   000309498000019911                     Clark                              Chad                     S                                  19830224MI                                                                                                              212 Maple St                                                          Elizabethtown                 PA17022     US                            US     R        7173676732          R                                               AC        P2002032520020325                             A006035328        YYN Y     PA                                                                                                                                                                                       N                                          PA                                                                                                                                                                                                  03FMLA         FML0752004                                                                                                STD          LK 07520042019110106667         00000        N                                                            LTD          LK 09650172019110106000         00000        N                                                                                                                                                                                                                                                                                                                                                                                                                                                                                                                                                                                                                                                                                                                                                                                                                                                                                                                                                                                                                                                                                                                                                                                                                                                                                                                                                                                                                                                                                                                                                                                                                                                                                                                                               
543789808000070                   000309498000019911                     Cochenour                          Mathew                   H                                  19720404MM                                                                                                              5110 SW Mesa Way                                                      Redmond                       OR97756     US                            US     R        4355922704          R                                               AC        P2007041620070416                             A000000000        YYN N     OR                                                                                                                                                                                       N                                          OR                                                                                                                                                                                                  03FMLA         FML0752004                                                                                                STD          LK 07520042019110106667         00000        N                                                            LTD          LK 09650172019110106000         00000        N                                                                                                                                                                                                                                                                                                                                                                                                                                                                                                                                                                                                                                                                                                                                                                                                                                                                                                                                                                                                                                                                                                                                                                                                                                                                                                                                                                                                                                                                                                                                                                                                                                                                                                                                               
197702744000071                   000309498000019911                     Conant                             Kayla                    C                                  19871004FI                                                                                                              410C S Geyers Church Rd                                               Middletown                    PA17057     US                            US     R        7176490181          R                                               AC        P2006082820060828                             H000001612        NYN N     PA                                                                                                                                                                                       N                                          PA                                                                                                                                                                                                  03FMLA         FML0752004                                                                                                STD          LK 07520042019110106667         00000        N                                                            LTD          LK 09650172019110106000         00000        N                                                                                                                                                                                                                                                                                                                                                                                                                                                                                                                                                                                                                                                                                                                                                                                                                                                                                                                                                                                                                                                                                                                                                                                                                                                                                                                                                                                                                                                                                                                                                                                                                                                                                                                                               
205586749000073                   000309498000019911                     Conrad                             Christopher              L                                  19780814MM                                                                                                              761 Barrholly Drive                                                   Lancaster                     PA17603     US                            US     R        7175755971          R                                               AC        P2012081920060330                             H000001585        NYN N     PA                                                                                                                                                                                       N                                          PA                                                                                                                                                                                                  03FMLA         FML0752004                                                                                                STD          LK 07520042019110106667         00000        N                                                            LTD          LK 09650172019110106000         00000        N                                                                                                                                                                                                                                                                                                                                                                                                                                                                                                                                                                                                                                                                                                                                                                                                                                                                                                                                                                                                                                                                                                                                                                                                                                                                                                                                                                                                                                                                                                                                                                                                                                                                                                                                               
178527853000074                   000309498000019911                     Coolidge                           Mary                     E                                  19590716FI                                                                                                              834 Wood Street                                                       Mount Joy                     PA17552     US                            US     R        7177998321          R                                               AC        P2004092020040920                             A004422080        YYN N     PA                                                                                                                                                                                       N                                          PA                                                                                                                                                                                                  03FMLA         FML0752004                                                                                                STD          LK 07520042019110106667         00000        N                                                            LTD          LK 09650172019110106000         00000        N                                                                                                                                                                                                                                                                                                                                                                                                                                                                                                                                                                                                                                                                                                                                                                                                                                                                                                                                                                                                                                                                                                                                                                                                                                                                                                                                                                                                                                                                                                                                                                                                                                                                                                                                               
463773559000075                   000309498000019911                     Shue (Cooper)                      Kory                     L                                  19860515FM                                                                                                              122 Greider Ave                                                       Elizabethtown                 PA17022     US                            US     R        7173802130          R                                               AC        P2006091120060911                             H000001621        NYN N     PA                                                                                                                                                                                       N                                          PA                                                                                                                                                                                                  03FMLA         FML0752004                                                                                                STD          LK 07520042019110106667         00000        N                                                            LTD          LK 09650172019110106000         00000        N                                                                                                                                                                                                                                                                                                                                                                                                                                                                                                                                                                                                                                                                                                                                                                                                                                                                                                                                                                                                                                                                                                                                                                                                                                                                                                                                                                                                                                                                                                                                                                                                                                                                                                                                               
509641448000079                   000309498000019911                     Cowles                             Clayton                  A                                  19550921MM                                                                                                              3002 S Millwood                                                       Wichita                       KS67217     US                            US     R        3165229323          R                                               AC        P2005050220050502                             A000000000        YYN N     KS                                                                                                                                                                                       N                                          KS                                                                                                                                                                                                  03FMLA         FML0752004                                                                                                STD          LK 07520042019110106667         00000        N                                                            LTD          LK 09650172019110106000         00000        N                                                                                                                                                                                                                                                                                                                                                                                                                                                                                                                                                                                                                                                                                                                                                                                                                                                                                                                                                                                                                                                                                                                                                                                                                                                                                                                                                                                                                                                                                                                                                                                                                                                                                                                                               
204483172000080                   000309498000019911                     Criswell                           Kirk                     B                                  19770417MI                                                                                                              926 Debra Dr                                                          Hummelstown                   PA17036     US                            US     R        7175334176          R                                               AC        P2005100320051003                             H000001959        NYN N     PA                                                                                                                                                                                       N                                          PA                                                                                                                                                                                                  03FMLA         FML0752004                                                                                                STD          LK 07520042019110106667         00000        N                                                            LTD          LK 09650172019110106000         00000        N                                                                                                                                                                                                                                                                                                                                                                                                                                                                                                                                                                                                                                                                                                                                                                                                                                                                                                                                                                                                                                                                                                                                                                                                                                                                                                                                                                                                                                                                                                                                                                                                                                                                                                                                               
