100RBH213-43-1625DIBILIO, RYAN C                 000000000000000000000000000000000000000000000000000000000000000000000000000000000000000000000000000000000000000000000000000000000000000000000000000000000000000000000000000000000000000000568182000000568182000000568182            0087000000000000000000000000000000000000000000000000000000000000000000000000000000000000000000000000000000000000000000000000000002587401000002587401000002587401            0000136363680395S419 W 8th Street, Unit 50                                                       Charlotte                                                                       NC28202     USA                            082219940506201910012021                                09082020               A                                                         704-377-8390   rdibilio@robinsonbradshaw.com                     EMS 0F                                                                                                                           
100RBH242-35-2604HORTON, SEBRINA                 000000010000000000000000000000000000000000000000000000000000000000000000000000000000000000000000000000000000000000000000000000013886000000000000000000000000000000000000000000000000000000346589000000346589000000346589            0087000000210000000000000000000000000000000000000000000000000000000000000000000000000000000000000000000000000000000000000000000007216905000007216905000007216905            0000083181361820S149 Westview Lane                                                               Statesville                                                                     NC28625     USA                            122119680906201110012012                                                       A                                                         704-377-2536   shorton@robinsonbradshaw.com                      EFM 0F                                                                                                                           
100RBH098-64-7699MARKMAN, CLIFFORD B.            000000000000000000000000000000025000000000000000000000000000000000000000000000000000000000000000000000000000000000000000000000000000000000000000000000000000000000000000000000000000000000454568000000454568000000454568            0087000000000000000000000000000000525000000000000000000000000000000000000000000000000000000000000000000000000000000000000000000009465312000009465312000009465312            0000109096261820S15513 Oleander Drive                                                            Charlotte                                                                       NC28278     USA                            090319760311201304012014                                                       A                                                         704-377-2536   cmarkman@robinsonbradshaw.com                     EMM 0F                                                                                                                           
100RBH244-75-8653SARRIMANOLIS, ADRIANNA G.       000000080000000000000000000000000000000000000000000000000000000000000000000000000000000000000000000000000000000000000000000000000000000000000000000000000000000000000000000000000000000000587121000000587121000000587121            0087000001680000000000000000000000000000000000000000000000000000000000000000000000000000000000000000000000000000000000000000000012329541000012329541000012329541            0000140909041820S1310 Iris Dr                            Apt. 1403                               Charlotte                                                                       NC28205     USA                            041719930904201810012019                                                       A                                                         704-377-2536   asarrimanolis@robinsonbradshaw.com                EFS 0F                                                                                                                           
100RBH343-66-9521CARUSONE, JENNIFER              000000000000000000000000000000000000000000000000000000000000000000000000000000000000000000000000000000000000000000000000000000000000000000000000000000000000000000000000000000000000000000388404000000388404000000388404            0087000000000000000000000000000000000000000000000000000000000000000000000000000000000000000000000000000000000000000000000000000007762305000007762305000007762305            0000086145241791S123 Alexandria Drive                                                            Mooresville                                                                     NC28115     USA                            110519740601201307012014                                                       A                                                         704-377-2536   jcarusone@robinsonbradshaw.com                    EFM 3F                                                                                                                           
100RBH247-19-1839ELLIS, DANA R.                  000000082000000000028000000000000000000000000000000000000000000000000000000000000000000000000000000000000000000000000000000000000000000000000000000000000000000000000000000000000000000001104167000001104167000001104167            0087000001722000000000588000000000000000000000000000000000000000000000000000000000000000000000000000000000000000000000000000000023187507000023187507000023187507            0000265000081820S6206 Fair Valley Drive                                                          Charlotte                                                                       NC28226     USA                            071119570917201810012019                                                       A                                                         704-377-2536   dellis@robinsonbradshaw.com                       EMM 2F                                                                                                                           
100RBH248-89-4818EVANS, CHELSEA N.               000000000000000000000000000000000000000000000000000000045475000000000000000000000000000000000000000000000000000000000000000000000000000000000000000000000000000000000000000000000000000000568182000000568182000000568182            0087000000000000000000000000000000000000000000000000000000090950000000000000000000000000000000000000000000000000000000000000000011931822000011931822000011931822            0000136363681820S905 Kenilworth Avenue                   Apt 523                                 Charlotte                                                                       NC28204     USA                            033019920619201707012018                                08122019               A                                                         704-377-8310   cevans@robinsonbradshaw.com                       EFS 0F                                                                                                                           
100RBH175-62-2937WEHLER, ADAM                    000000000000000000000000000000000000000000000000000000000000000000000000000000000000000000000000000000000000000000000000000000021294000000017510000000000000000000000000000000000000000000612500000000612500000000612500            0087000000000000000000000000000000000000000000000000000000000000000000000000000000000000000000000000000000000000000000000000000012862500000012862500000012862500            0000147000001820S6610 Walton Hall Court                                                          Waxhaw                                                                          NC28173     USA                            102719810615201507012016                                                       A                                                         704-377-2536   awehler@robinsonbradshaw.com                      EMM 1F                                                                                                                           
100RBH438-04-6839GOSEY, SALLY L.                 000000010000000000002500000000000000000000000000000000000000000000000000000000000000000000000000000000000000000000000000000000000000000000000000000000000000000000000000000000000000000000299871000000299871000000299871            0083000000210000000000052500000000000000000000000000000000000000000000000000000000000000000000000000000000000000000000000000000006317219000006423319000006423319            0000070750081771S8618 Canter Post Drive                                                          Charlotte                                                                       NC28216     USA                            120519630805199209011993                                                       A                                                         704-350-7125   sgosey@robinsonbradshaw.com                       EFM 0F                                                                                                                           
100RBH570-65-8414WEBBER, JONATHAN M.             000000007500000000002500000000000000000000000000000000000000000000000000000000000000000000000000000000000000000000000000000000002804000000000000000000000000000000000000000000000000000000222158000000222158000000222158            0081000000157500000000052500000000000000000000000000000000000000000000000000000000000000000000000000000000000000000000000000000004722750000004722750000004722750            0000053317951779S4416 Carriage Drive Circle                                                      Charlotte                                                                       NC28205     USA                            070719670801200609012007                                                       A                                                         704-377-2536   jwebber@robinsonbradshaw.com                      EMS 1F                                                                                                                           
100RBH237-31-6340SMILEY, BRENTON R.              000000000000000000000000000000000000000000000000000000000000000000000000000000000000000000000000000000000000000000000000000000000000000000000000000000000000000000000000000000000000000000000000000000000000000000000000            0000000000000000000000000000000000000000000000000000000000000000000000000000000000000000000000000000000000000000000000000000000000775063000000775063000000775063            0000035000160503S749 Sam Brown Road                                                              Gastonia                                                                        NC28056     USA                            0731197908122019                                03182020                       T                                                         704-377-2536   bsmiley@robinsonbradshaw.com                       MS 0F                                                                                                                           
100RBH263-83-4304GOMEZ, DAVID A.                 000000000000000000000000000000000000000000000000000000000000000000000000000000000000000000000000000000000000000000000000000000000000000000000000000000000000000000000000000000000000000000507500000000507500000000507500            0087000000000000000000000000000000000000000000000000000000000000000000000000000000000000000000000000000000000000000000000000000010567500000010567500000010567500            0000121800001820S6326 Shining Rock Court                                                         Charotte                                                                        NC28277     USA                            082419641118201912012020                                                       A                                                         704-377-2536   dgomez@robinsonbradshaw.com                       EMM 2F                                                                                                                           
100RBH106-74-5819BURKS, MONICA                   000000000000000000000000000000000000000000000000000000000000000000000000000000000000000000000000000000000000000000000000000000000000000000000000000000000000000000000000000000000000000000568182000000568182000000568182            0087000000000000000000000000000000000000000000000000000000000000000000000000000000000000000000000000000000000000000000000000000011931822000011931822000011931822            0000136363681820S102 Laurel Mist Way                                                             Durham                                                                          NC27703     USA                            061219870619201707012018                                11182019               A                                                         704-377-2536   mburks@robinsonbradshaw.com                       EFM 3F                                                                                                                           
100RBH241-75-2312ROGERS, CARSON                  000000005000000000000000000000000000000000000000000000000000000000000000000000000000000000000000000000000000000000000000000000000000000000000000000000000000000000000000000000000000000000192187000000192187000000192187            0082000000105000000000000000000000000000000000000000000000000000000000000000000000000000000000000000000000000000000000000000000004042669000004042669000004042669            0000045675001769S1449-A Ashcraft Lane                                                            Charlotte                                                                       NC28209     USA                            120119920706201508012016                                                       A                                                         704-377-8167   cpeacock@robinsonbradshaw.com                     EFS 1F                                                                                                                           
100RBH208-70-9277CADWALADER, STEPHANIE           000000075000000000000000000000000000000000000000000000000000000000000000000000000000000000000000000000000000000000000000000000000000000000000000000000000000000000000000000000000000000000304772000000304772000000304772            0084000001575000000000000000000000000000000000000000000000000000000000000000000000000000000000000000000000000000000000000000000006533185000006533185000006533185            0000070725361854S1314 Ashbrook Place                                                             Charlotte                                                                       NC28209     USA                            030219890515201706012018                                                       A                                                         704-377-8363   sprzezdecki@robinsonbradshaw.com                  EFM 0F                                                                                                                           
100RBH239-57-7642O'ROURKE, ALLEN T.              000000000000000000000000000000000000000000000000000000000000000000000000000000000000000000000000000000000000000000000000000000000000000000000000000000000000000000000000000000000000000000833334000000833334000000833334            0087000000000000000000000000000000000000000000000000000000000000000000000000000000000000000000000000000000000000000000000000000017500014000017500014000017500014            0000200000161820S3206 Pinehurst Place                                                            Charlotte                                                                       NC28209     USA                            120119810930201910012020                                                       A                                                         704-377-8316   aorourke@robinsonbradshaw.com                     EMM 0F                                                                                                                           
100RBH472-08-7450BERKLAND, ADAM A.               000000000000000000000000000000000000000000000000000000000000000000000000000000000000000000000000000000000000000000000000000000000000000000000000000000000000000000000000000000000000000000662879000000662879000000662879            0087000000000000000000000000000000000000000000000000000000000000000000000000000000000000000000000000000000000000000000000000000013920459000013920459000013920459            0000159090961820S305 Spring Garden Drive                                                         Durham                                                                          NC27713     USA                            081819860928201510012016                                                       A                                                         919-328-8823   aberkland@robinsonbradshaw.com                    EMM 4F                                                                                                                           
100RBH275-70-6717STEPHENSON, LINDA               000000000000000000000000000000005000000000000000000000000000000000000000000000000000000000000000000000000000000000000000000000000000000000000000000000000000000000000000000000000000000000313832000000313832000000313832            0086000000000000000000000000000000105000000000000000000000000000000000000000000000000000000000000000000000000000000000000000000006608927000006716127000006716127            0000071450161825S704 Lake Stone Drive                                                            Monroe                                                                          NC28112     USA                            051619610713201508012016                                                       A                                                         704-377-2536   lstephenson@robinsonbradshaw.com                  EFM 0F                                                                                                                           
100RBH239-27-0837HIGDON, PENNY H.                000000022500000000000000000000015000000000000000000000000000000000000000000000000000000000000000000000000000000000000000000000000000000000000000000000000000000000000000000000000000000000247424000000247424000000247424            0065000000472500000000000000000000315000000000000000000000000000000000000000000000000000000000000000000000000000000000000000000005152020000005152020000005152020            0000059381641410S1100 Ashley Creek Dr                                                            Matthews                                                                        NC28105     USA                            042419630119199402011995                                                       A                                                         704-377-2536   phigdon@robinsonbradshaw.com                      EFM 0F                                                                                                                           
100RBH176-74-6772HENDRICKSON, KRISTIN L.         000000081250000000000000000000000000000000000000000000000000000000000000000000000000000000000000000000000000000000000000000000000000000000000000000000000000000000000000000000000000000000587121000000587121000000587121            0087000001706250000000000000000000000000000000000000000000000000000000000000000000000000000000000000000000000000000000000000000012329541000012329541000012329541            0000140909041820S2142 Commonwealth Avenue                #318                                    Charlotte                                                                       NC28205     USA                            122419920917201810012019                                                       A                                                         704-377-2536   klhendrickson@robinsonbradshaw.com                EFS 0F                                                                                                                           
100RBH129-68-5312BERMUDEZ, YANIRA                000000000000000000000000000000000000000000000000000000000000000000000000000000000000000000000000000000000000000000000000000000000000000000000000000000000000000000000000000000000000000000000000000000000000000000000000            0000000000020000000000000000000000000000000000000000000000000000000000000000000000000000000000000000000000000000000000000000000002007861000002334853000002334853            0000059758080700S6043 Shamrock Green Drive                                                       Clover                                                                          SC29710     USA                            0807197907012008                                02192020                       T                                                         704-377-2536   ybermudez@robinsonbradshaw.com                     FM 2F                                                                                                                           
100RBH228-96-2258WORONOFF, ADAIR T.              000000025000000000000000000000000000000000000000000000000000000000000000000000000000000000000000000000000000000000000000000000000000000000000000000000000000000000000000000000000000000000378614000000378614000000378614            0082000000525000000000000000000000000000000000000000000000000000000000000000000000000000000000000000000000000000000000000000000008295743000008295743000008295743            0000090588751813S120 Brookline Drive                                                             Pinehurst                                                                       NC28374     USA                            012919670620201607012017                                                       A                                                         704-377-2536   aworonoff@robinsonbradshaw.com                    EFM 3F                                                                                                                           
100RBH134-68-5455DUKARM, TAMMY JO                000000005000000000000000000000000000000000000000000000000000000000000000000000000000000000000000000000000000000000000000000000000000000000000000000000000000000000000000000000000000000000353607000000353607000000353607            0084000000105000000000000000000000000000000000000000000000000000000000000000000000000000000000000000000000000000000000000000000007275693000007325693000007325693            0000081940951791S3020 Graceland Circle                                                           Pineville                                                                       NC28134     USA                            022819731016201711012018                                                       A                                                         704-377-8372   tdukarm@robinsonbradshaw.com                      EFS 0F                                                                                                                           
100RBH238-23-8212EVANS, TENLEY FARRELL           000000000000000000000000000000000000000000000000000000000000000000000000000000000000000000000000000000000000000000000000000000000000000000000000000000000000000000000000000000000000000000562500000000562500000000562500            0087000000000000000000000000000000000000000000000000000000000000000000000000000000000000000000000000000000000000000000000000000011405763000011405763000011405763            0000135000001757S416 Greenfield Drive                                                            Lexington                                                                       NC27295     USA                            121019650624201907012020                                                       A                                                         704-377-2536   tfevans@robinsonbradshaw.com                      EFM 0F                                                                                                                           
100RBH327-60-0270HEUSING, TINA                   000000000000000000000000000000000000000000000000000000000000000000000000000000000000000000000000000000000000000000000000000000000000000000000000000000000000000000000000000000000000000000000000000000000000000000000000            0000000000000000000000000000000000000000000000000000000000000000000000000000000000000000000000000000000000000000000000000000000000542359000000542359000000542359            0000041000160241S11810 Elevation Point Drive             Apt. 5102                               Charlotte                                                                       NC28277     USA                            0614196805142018                                02202020                       T                                                         704-377-2536   theusing@robinsonbradshaw.com                      FM 2F                                                                                                                           
100RBH047-48-9580MORRISON, MARIANNE E.           000000060000000000000000000000000000000000000000000000000000000000000000000000000000000000000000000000000000000000000000000000000000000000000000000000000000000000000000000000000000000000309231000000309231000000309231            0082000001220000000000000000000000000000000000000000000000000000000000000000000000000000000000000000000000000000000000000000000006535207000006535207000006535207            0000073536751778S1133 Market Street                                                              FortMill                                                                        SC29708     USA                            121619540730201808012019                        11102020                       T                                                         704-377-2536   mmorrison@robinsonbradshaw.com                    EFS 0F                                                                                                                           
100RBH367-74-3553CAMPBELL, ELIZABETH M.          000000002500000000000000000000000000000000000000000000000000000000000000000000000000000000000000000000000000000000000000000000000000000000000000000000000000000000000000000000000000000000367106000000367106000000367106            0082000000052500000000000000000000000000000000000000000000000000000000000000000000000000000000000000000000000000000000000000000007863238000007863238000007863238            0000087034381844S4433 Mountain Cove Drive                                                        Charlotte                                                                       NC28216     USA                            051919740301200504012006                                                       A                                                         704-377-2536   ecampbell@robinsonbradshaw.com                    EFM 0F                                                                                                                           
100RBH250-27-4525SMITH, HARRY L                  000000000000000000000000000000000000000000000000000000000000000000000000000000000000000000000000000000000000000000000000000000000000000000000000000000000000000000000000000000000000000000214418000000214418000000214418            0086000000000000000000000000000000000000000000000000000000000000000000000000000000000000000000000000000000000000000000000000000004096370000004096370000004096370            0000048720001848S1630 Pamela Lorraine Drive                                                      Charlotte                                                                       NC28213     USA                            112419670102201902012020                                                       A                                                         704-377-2536   hsmith@robinsonbradshaw.com                       EMM 6F                                                                                                                           
100RBH055-56-1344SWARINGEN, VICTORIA L.          000000010000000000000000000000000000000000000000000000000000000000000000000000000000000000000000000000000000000000000000000000005740000000019406000000019203000000000000000000000000000000237404000000237404000000237404            0081000000210000000000000000000000000000000000000000000000000000000000000000000000000000000000000000000000000000000000000000000004943388000004943388000004943388            0000056977071749SPO Box 2533                                                                     Huntersville                                                                    NC28070     USA                            081119570324200804012009                                                       A                                                         704-377-2536   vswaringen@robinsonbradshaw.com                   EFS 0F                                                                                                                           
100RBH576-55-1427WAGNER, ANDREW R.               000000000000000000000000000000000000000000000000000000000000000000000000000000000000000000000000000000000000000000000000000000000000000000000000000000000000000000000000000000000000000000587121000000587121000000587121            0087000000000000000000000000000000000000000000000000000000000000000000000000000000000000000000000000000000000000000000000000000012329541000012329541000012329541            0000140909041820S3211 Lassiter Street                                                            Durham                                                                          NC27707     USA                            123019900806201809012019                                                       A                                                         704-377-2536   awagner@robinsonbradshaw.com                      EMM 3F                                                                                                                           
100RBH247-83-3003STEADMAN, GARRETT               000000000000000000000000000000000000000000000000000000000000000000000000000000000000000000000000000000000000000000000000000000000000000000000000000000000000000000000000000000000000000000568182000000568182000000568182            0087000000000000000000000000000000000000000000000000000000000000000000000000000000000000000000000000000000000000000000000000000002377619000004377619000004377619            0000136363680363S26 Olde Farm Road                                                               Pittsboro                                                                       NC27312     USA                            091219890507201810012021                                09082020               A                                                         704-377-8179   gsteadman@robinsonbradshaw.com                    EMM 0F                                                                                                                           
100RBH098-56-3659RUSH, MESHAUNA                  000000000000000000000000000000000000000000000000000000000000000000000000000000000000000000000000000000000000000000000000000000000000000000000000000000000000000000000000000000000000000000327761000000327761000000327761            0087000000007500000000000000000000000000000000000000000000000000000000000000000000000000000000000000000000000000000000000000000006824853000006824853000006824853            0000078662581820S1251 New River Drive                                                            Concord                                                                         NC28025     USA                            061219660102201802012019                                                       A                                                         704-377-8119   srush@robinsonbradshaw.com                        EFM 2F                                                                                                                           
100RBH241-67-5925MOBLEY, VERONICA R.             000000000000000000000000000000000000000000000000000000000000000000000000000000000000000000000000000000000000000000000000000000000000000000000000000000000000000000000000000000000000000000218434000000218434000000218434            0084000000000000000000000000000000000000000000000000000000000000000000000000000000000000000000000000000000000000000000000000000004531722000004531722000004531722            0000050750161786S7915 Philadelphia Court                 Apt 205                                 Charlotte                                                                       NC28216     USA                            041019900528201906012020                                                       A                                                         704-377-2536   vmobley@robinsonbradshaw.com                      EFM 0F                                                                                                                           
100RBH244-23-3543FLOYD, SUSAN K.                 000000020000000000000000000000000000000000000000000000000000000000000000000000000000000000000000000000000000000000000000000000011049000000000000000000010560000000018967000000000000000000404167000000404167000000404167            0065000000420000000000000000000000000000000000000000000000000000000000000000000000000000000000000000000000000000000000000000000008487507000008487507000008487507            0000097000001365S4110 Quail View Road                                                            Charlotte                                                                       NC28226     USA                            021519610128199702011998                                                       A                                                         704-377-2536   sfloyd@robinsonbradshaw.com                       EFM 1P                                                                                                                           
100RBH401-37-6908KOENINGER, KELLY A.             000000079100000000000000000000000000000000000000000000000000000000000000000000000000000000000000000000000000000000000000000000000000000000000000000000000000000000000000000000000000000000687500000000687500000000687500            0087000001661100000000000000000000000000000000000000000000000000000000000000000000000000000000000000000000000000000000000000000014437500000014437500000014437500            0000165000001820S3117 Linkside Court                                                             FortMill                                                                        SC29715     USA                            022219840821201709012018                                                       A                                                         704-377-2536   kkoeninger@robinsonbradshaw.com                   EFM 1F                                                                                                                           
100RBH264-81-6709REDI, TAMARA C                  000000005708000000000000000000000000000000000000000000000000000000000000000000000000000000000000000000000000000000000000000000000000000000000000000000000000000000000000000000000000000000285469000000285469000000285469            0081000000065708000000000000000000000000000000000000000000000000000000000000000000000000000000000000000000000000000000000000000006017028000006017028000006017028            0000068512501762S807 Charter Hills Road                                                          Beech Mountain                                                                  NC28604     USA                            041319640401201905012020                                                       A                                                         704-377-8109   tredi@robinsonbradshaw.com                        EFS 4F                                                                                                                           
100RBH602-05-2750KERR, JASON S                   000000000000000000000000000000000000000000000000000000000000000000000000000000000000000000000000000000000000000000000000000000000000000000000000000000000000000000000000000000000000000000937500000000937500000000937500            0087000000000000000000000000000000000000000000000000000000000000000000000000000000000000000000000000000000000000000000000000000019687500000019687500000019687500            0000225000001820S215 N Pine Street                       Unit 3409                               Charlotte                                                                       NC28202     USA                            092819771009201911012020                                                       A                                                         704-377-2536   jkerr@robinsonbradshaw.com                        EMM 2F                                                                                                                           
100RBH564-99-1696SEERY, RYAN                     000000005000000000000000000000000000000000000000000000000000000000000000000000000000000000000000000000000000000000000000000000000000000000000000000000000000000000000000000000000000000000170397000000170397000000170397            0087000000105000000000000000000000000000000000000000000000000000000000000000000000000000000000000000000000000000000000000000000003544607000003544607000003544607            0000040600001876S2225 Dundeen St                                                                 Charlotte                                                                       NC28216     USA                            090319871128201612012017                                                       A                                                         704-377-2536   rseery@robinsonbradshaw.com                       EMS 1F                                                                                                                           
100RBH242-67-8065WRIGHT, GABRIEL                 000000000000000000000000000000000000000000000000000000000000000000000000000000000000000000000000000000000000000000000000000000000000000000000000000000000000000000000000000000000000000000000000000000000000000000000000            0000000000000000000000000000000000000000000000000000000000000000000000000000000000000000000000000000000000000000000000000000000011850811000011850811000011850811            0000145454641695S2922 S Devon Street                                                             Charlotte                                                                       NC28213     USA                            071919850911201710012018                        10232020                       T                                                         704-377-2536   gwright@robinsonbradshaw.com                      EMM 0F                                                                                                                           
100RBH302-86-8279SUNNYCALB, JAMIE                000000005000000000000000000000005000000000000000000000000000000000000000000000000000000000000000000000000000000000000000000000000000000000000000000000000000000000000000000000000000000000191758000000191758000000191758            0087000000105000000000000000000000105000000000000000000000000000000000000000000000000000000000000000000000000000000000000000000003985266000003985266000003985266            0000045918601870S3822 Woodleaf Rd                                                                Charlotte                                                                       NC28205     USA                            061219820817201509012016                                                       A                                                         704-377-2536   jsunnycalb@robinsonbradshaw.com                   EFS 1F                                                                                                                           
100RBH515-54-3426TAYLOR, MARYON L.               000000000000000000000000000000000000000000000000000000000000000000000000000000000000000000000000000000000000000000000000000000000000000000000000000000000000000000000000000000000000000000000000000000000000000000000000            0000000000000000000000000000000000000000000000000000000000000000000000000000000000000000000000000000000000000000000000000000000001194174000001445831000001445831            0000070108080362S8360 Old Beatty Ford Road                                                       Rockwell                                                                        NC28138     USA                            0809195001172000                                02282020                       T                                                         704-377-2536   mtaylor@robinsonbradshaw.com                       FM 0F                                                                                                                           
100RBH225-65-5563HAYNES, MEGAN C.                000000040000000000000000000000000000000000000000000000000000000000000000000000000000000000000000000000000000000000000000000000000000000000000000000000000000000000000000000000000000000000606061000000606061000000606061            0087000000840000000000000000000000000000000000000000000000000000000000000000000000000000000000000000000000000000000000000000000012727281000012727281000012727281            0000145454641820S2551 Barry Street                                                               Charlotte                                                                       NC28205     USA                            040619920911201710012018                                                       A                                                         704-377-8379   mhaynes@robinsonbradshaw.com                      EFS 0F                                                                                                                           
100RBH224-15-2989WILBURN, SANDRA K.              000000000000000000000000000000000000000000000000000000000000000000000000000000000000000000000000000000000000000000000000000000000000000000000000000000000000000000000000000000000000000000000000000000000000000000000000            0000000001625000000000000000000000000000000000000000000000000000000000000000000000000000000000000000000000000000000000000000000013573134000013573134000013573134            0000168181921679S3529 Tree Farm Road                                                             Hillsborough                                                                    NC27278     USA                            070719770815201609012017                                                       A                                                         919-328-8810   swilburn@robinsonbradshaw.com                     EFM 0F                                                                                                                           
100RBH225-23-4838VINTINNER, M.  SCOTT            000000081250000000000000000000000000000000000000000000000000000000000000000000000000000000000000000000000000000000000000000000000000000000000000000000000000000000000000000000000000000000668209000000668209000000668209            0087000001706250000000000000000000000000000000000000000000000000000000000000000000000000000000000000000000000000000000000000000013913889000013913889000013913889            0000160370161820S5725 Mctaggart Lane                                                             Charlotte                                                                       NC28269     USA                            122719710830199309011994                                                       A                                                         704-377-2536   scottv@robinsonbradshaw.com                       EMM 1F                                                                                                                           
100RBH005-60-3464ROY, LORI A.                    000000050000000000000000000000000000000000000000000000000000000000000000000000000000000000000000000000000000000000000000000000000000000000000000000000000000000000000000000000000000000000472822000000472822000000472822            0087000001050000000000000000000000000000000000000000000000000000000000000000000000000000000000000000000000000000000000000000000009845406000009845406000009845406            0000113477161820S8008 Pawleys Court                                                              FortMill                                                                        SC29707     USA                            011119630922198810011989                                                       A                                                         704-377-2536   lroy@robinsonbradshaw.com                         EFS 1F                                                                                                                           
100RBH247-27-9968ESTES, VICTORIA D.              000000000000000000000000000000000000000000000000000000000000000000000000000000000000000000000000000000000000000000000000000000000000000000000000000000000000000000000000000000000000000000201504000000201504000000201504            0082000000000000000000000000000000000000000000000000000000000000000000000000000000000000000000000000000000000000000000000000000004211717000004211717000004211717            0000048212581763S460 Fred Nims Road                                                              Fort Mill                                                                       SC29715     USA                            090419741128200512012006                                                       A                                                         704-377-2536   vestes@robinsonbradshaw.com                       EFM 3F                                                                                                                           
100RBH246-69-1451HINMAN, TRAVIS S.               000000000000000000000000000000025000000000000000000000000000000000000000000000000000000000000000000000000000000000000000000000000000000000000000000000000000000000000000000000000000000000606061000000606061000000606061            0087000000000000000000000000000000525000000000000000000000000000000000000000000000000000000000000000000000000000000000000000000012727281000012727281000012727281            0000145454641820S2025 Charlotte Drive                                                            Charlotte                                                                       NC28203     USA                            020619910925201710012018                                                       A                                                         704-377-2536   thinman@robinsonbradshaw.com                      EFM 0F                                                                                                                           
100RBH474-17-4335FUNK, BERNARD C.                000000050000000000000000000000000000000000000000000000000000000000000000000000000000000000000000000000000000000000000000000000000000000000000000000000000000000000000000000000000000000000634470000000634470000000634470            0087000001050000000000000000000000000000000000000000000000000000000000000000000000000000000000000000000000000000000000000000000013323870000013323870000013323870            0000152272801820S301 W 10Th Street                       #201                                    Charlotte                                                                       NC28202     USA                            082319860912201610012017                                                       A                                                         704-377-2536   bfunk@robinsonbradshaw.com                        EMM 0F                                                                                                                           
100RBH127-60-8592AMADORI, JUSTIN                 000000000000000000000000000000000000000000000000000000037824000000000000000000000000000000000000000000000000000000000000000000005233000000000000000000000000000000000000000000000000000000315073000000315073000000315073            0087000000157500000000000000000000000000000000000000000000075648000000000000000000000000000000000000000000000000000000000000000006560661000006560661000006560661            0000075617581820S5669 Berry Ridge Dr                                                             Harrisburg                                                                      NC28075     USA                            032019770501201206012013                                                       A                                                         704-377-2536   jamadori@robinsonbradshaw.com                     EMM 0F                                                                                                                           
100RBH244-65-0713GRAHAM, KRISTIN M.              000000000000000000000000000000000000000000000000000000000000000000000000000000000000000000000000000000000000000000000000000000000000000000000000000000000000000000000000000000000000000000000000000000000000000000000000            0000000000075000000000000000000000000000000000000000000000000000000000000000000000000000000000000000000000000000000000000000000001981251000002187342000002187342            0000084000000493S2900 Woodrow Drive                                                              Mebane                                                                          NC27302     USA                            1025197911122008                                03182020                       T                                                         704-377-2536   kgraham@robinsonbradshaw.com                       FM 0F                                                                                                                           
100RBH036-62-8786ATHANAS, ADRIENNE               000000000000000000000000000000004375000000000000000000000000000000000000000000000000000000000000000000000000000000000000000000002026000000000000000000000000000000000000000000000000000000148534000000148534000000148534            0087000000000000000000000000000000091875000000000000000000000000000000000000000000000000000000000000000000000000000000000000000003124187000003124187000003124187            0000035525161902S5800 Avelon Valley Drive                Apt 1628                                Charlotte                                                                       NC28277     USA                            051119910924201810012019                                                       A                                                         704-377-2536   aathanas@robinsonbradshaw.com                     EFS 0F                                                                                                                           
100RBH243-53-8806HALL, TONYA D.                  000000000000000000000000000000006500000000000000000000000000000000000000000000000000000000000000000000000000000000000000000000003907000000006525000000000000000000002848000000003328000000160692000000160692000000160692            0084000000000000000000000000000000136500000000000000000000000000000000000000000000000000000000000000000000000000000000000000000003266728000003266728000003266728            0000037113681794S4818 Mcclure Road                                                               Charlotte                                                                       NC28216     USA                            050419820501201206012013                                                       A                                                         704-377-2536   thall@robinsonbradshaw.com                        EFM 1F                                                                                                                           
100RBH240-41-3876BARE, APRIL H.                  000000005000000000000000000000000000000000000000000000000000000000000000000000000000000000000000000000000000000000000000000000009283000000000000000000000000000000000000000000000000000000220526000000220526000000220526            0065000000105000000000000000000000000000000000000000000000000000000000000000000000000000000000000000000000000000000000000000000004877916000004877916000004877916            0000052780081493S6111 Bost Cutoff Rd                                                             Concord                                                                         NC28025     USA                            111519720808199609011997                                01092008               A                                                         704-377-2536   abare@robinsonbradshaw.com                        EFM 0F                                                                                                                           
100RBH227-65-3242EVANGELISTO, MATTHEW R.         000000000000000000000000000000000000000000000000000000000000000000000000000000000000000000000000000000000000000000000000000000000000000000000000000000000000000000000000000000000000000000587121000000587121000000587121            0087000000000000000000000000000000000000000000000000000000000000000000000000000000000000000000000000000000000000000000000000000012329541000012329541000012329541            0000140909041820S1518 Mainline Blvd                      Apt. 16303                              Charlotte                                                                       NC28203     USA                            041219920917201810012019                                                       A                                                         704-377-2536   mevangelisto@robinsonbradshaw.com                 EMS 2F                                                                                                                           
100RBH239-82-6857DEAL, J.  ELISE                 000000010000000000000000000000000000000000000000000000000000000000000000000000000000000000000000000000000000000000000000000000003316000000006052000000003832000000000000000000000000000000367227000000367227000000367227            0084000000210000000000000000000000000000000000000000000000000000000000000000000000000000000000000000000000000000000000000000000007551198000007551198000007551198            0000085503601769S1701 Dilworth Rd West                   #4                                      Charlotte                                                                       NC28203     USA                            060219650601201107012012                                                       A                                                         704-377-2536   edeal@robinsonbradshaw.com                        EFS 2F                                                                                                                           
100RBH107-48-4376BROWN, ANNETTE L.               000000000000000000000000000000000000000000000000000000000000000000000000000000000000000000000000000000000000000000000000000000014387000000013670000000015794000000000000000000000000000000300103000000300103000000300103            0084000000000000000000000000000000000000000000000000000000000000000000000000000000000000000000000000000000000000000000000000000006346525000006451525000006451525            0000070000081806S932 Clover Gap Dr                                                               Charlotte                                                                       NC28214     USA                            050719570617200207012003                                                       A                                                         704-377-2536   abrown@robinsonbradshaw.com                       EFS 2F                                                                                                                           
100RBH100-70-7498FANNIN, AMANDA M                000000000000000000000000000000000000000000000000000000000000000000000000000000000000000000000000000000000000000000000000000000000000000000000000000000000000000000000000000000000000000000587121000000587121000000587121            0087000000000000000000000000000000000000000000000000000000000000000000000000000000000000000000000000000000000000000000000000000012329541000012329541000012329541            0000140909041820S2331 Crockett Park Pl                                                           Charlotte                                                                       NC28203     USA                            021919860729201908012020                                                       A                                                         704-377-8117   afannin@robinsonbradshaw.com                      EFM 2F                                                                                                                           
100RBH242-11-6439EARNEST, LINDA                  000000015000000000000000000000000000000000000000000000000000000000000000000000000000000000000000000000000000000000000000000000009180000000005838000000000000000000000000000000000000000000200623000000200623000000200623            0087000000315000000000000000000000000000000000000000000000000000000000000000000000000000000000000000000000000000000000000000000004227450000004299450000004299450            0000048000001870S1423 Weststone Drive                                                            Charlotte                                                                       NC28208     USA                            021819631115200412012005                                                       A                                                         704-377-2536   learnest@robinsonbradshaw.com                     EFM 0F                                                                                                                           
100RBH213-41-5358LAROSE, BRANDON                 000000000000000000000000000000000000000000000000000000000000000000000000000000000000000000000000000000000000000000000000000000000000000000000000000000000000000000000000000000000000000000568182000000568182000000568182            0087000000000000000000000000000000000000000000000000000000000000000000000000000000000000000000000000000000000000000000000000000002587401000002587401000002587401            0000136363680395S225 S. Poplar St                        Apt 2509                                Charlotte                                                                       NC28202     USA                            020319940513201910012021                                09082020               A                                                         704-377-8124   blarose@robinsonbradshaw.com                      EMS 0F                                                                                                                           
100RBH242-41-8219MIMS, LATOYA B.                 000000000000000000000000000000000000000000000000000000000000000000000000000000000000000000000000000000000000000000000000000000000000000000000000000000000000000000000000000000000000000000210208000000210208000000210208            0087000000000000000000000000000000000000000000000000000000000000000000000000000000000000000000000000000000000000000000000000000004483501000004483501000004483501            0000050250001882S909 Sandy Lane                                                                  Gastonia                                                                        NC28056     USA                            090619831104201312012014                                                       A                                                         704-377-2536   lmims@robinsonbradshaw.com                        EFM 0F                                                                                                                           
100RBH194-64-6273KELLY, ANNE I.                  000000000000000000000000000000000000000000000000000000000000000000000000000000000000000000000000000000000000000000000000000000000000000000000000000000000000000000000000000000000000000000360186000000360186000000360186            0082000000000000000000000000000000000000000000000000000000000000000000000000000000000000000000000000000000000000000000000000000007576099000007705099000007705099            0000086000161752S1530 Queens Rd                          Apt 404                                 Charlotte                                                                       NC28207     USA                            031219671219199601011998                                                       A                                                         704-377-2536   akelly@robinsonbradshaw.com                       EFM 0F                                                                                                                           
100RBH342-88-2991BIFFANY, BRENDAN                000000000000000000000000000000000000000000000000000000000000000000000000000000000000000000000000000000000000000000000000000000000000000000000000000000000000000000000000000000000000000000568182000000568182000000568182            0087000000000000000000000000000000000000000000000000000000000000000000000000000000000000000000000000000000000000000000000000000011931822000011931822000011931822            0000136363681820S3405 Dairy Farm Lane                                                            Charlotte                                                                       NC28209     USA                            031819930507201806012019                                08052019               A                                                         704-377-8125   bbiffany@robinsonbradshaw.com                     EMM 2F                                                                                                                           
100RBH317-56-3684HUFFMAN, DEBRA K.               000000020000000000000000000000000000000000000000000000000000000000000000000000000000000000000000000000000000000000000000000000000000000000005615000000026754000000000000000000000000000000321150000000321150000000321150            0081000000420000000000000000000000000000000000000000000000000000000000000000000000000000000000000000000000000000000000000000000006789809000006905309000006905309            0000077000161751S15911 Sunset Drive                                                              Huntersville                                                                    NC28078     USA                            120119511016200011012001                                                       A                                                         704-377-2536   dhuffman@robinsonbradshaw.com                     EFM 1F                                                                                                                           
100RBH136-88-4295BRUYNELL, BRET                  000000000000000000000000000000000000000000000000000000000000000000000000000000000000000000000000000000000000000000000000000000000000000000000000000000000000000000000000000000000000000000256554000000256554000000256554            0083000000000000000000000000000000000000000000000000000000000000000000000000000000000000000000000000000000000000000000000000000002446860000002446860000002446860            0000060000000837S1010 Glen Lake Blvd                                                             Pitman                                                                          NJ08071     USA                            052719870615202007012021                                                       A                                                         704-943-7707   bbruynell@robinsonbradshaw.com                    EMS 0F                                                                                                                           
100RBH238-47-5928SIGMON, CHRISTINE N.            000000000000000000000000000000000000000000000000000000000000000000000000000000000000000000000000000000000000000000000000000000022861000000007664000000008800000000008332000000002444000000279603000000279603000000279603            0081000000060000000000000000000000000000000000000000000000000000000000000000000000000000000000000000000000000000000000000000000005828012000005828012000005828012            0000067104741753S3101 Sunnybrook Drive                                                           Charlotte                                                                       NC28210     USA                            030619721103199712011998                                                       A                                                         704-377-8172   csigmon@robinsonbradshaw.com                      EFS 1F                                                                                                                           
100RBH313-11-6612TAFF, ELLEN A.                  000000000000000000000000000000000000000000000000000000000000000000000000000000000000000000000000000000000000000000000000000000000000000000000000000000000000000000000000000000000000000000000000000000000000000000000000            0000000000000000000000000000000000300000000000000000000000000000000000000000000000000000000000000000000000000000000000000000000002317783000002436233000002436233            0000051450000919S522 North Pine Street                                                           Charlotte                                                                       NC28202     USA                            1112199103132017                                05292020                       T                                                         704-377-2536   etaff@robinsonbradshaw.com                        EFM 0F                                                                                                                           
100RBH243-11-6888VERKUILEN, MARY D.              000000047500000000000000000000000000000000000000000000000000000000000000000000000000000000000000000000000000000000000000000000000000000000000000000000000000000000000000000000000000000000328807000000328807000000328807            0089000000997500000000000000000000000000000000000000000000000000000000000000000000000000000000000000000000000000000000000000000006774543000007231443000007231443            0000071277121882S5023 Walt Gay Road                                                              Monroe                                                                          NC28112     USA                            100419570201198503011986                                                       A                                                         704-377-2536   mverkuilen@robinsonbradshaw.com                   EFM 0F                                                                                                                           
100RBH190-62-5308EKWURUIBE, BEVERLY R.           000000002500000000000000000000000000000000000000000000000000000000000000000000000000000000000000000000000000000000000000000000012693000000000000000000000000000000000000000000000000000000297949000000297949000000297949            0083000000052500000000000000000000000000000000000000000000000000000000000000000000000000000000000000000000000000000000000000000006180349000006285349000006285349            0000070000081759S13208 Great Laurel Road                                                         Charlotte                                                                       NC28227     USA                            091119681017201111012012                                                       A                                                         704-377-2536   bekwuruibe@robinsonbradshaw.com                   EFM 9F                                                                                                                           
100RBH120-76-9629EVERETT, PORCIA                 000000005000000000000000000000000000000000000000000000000000000000000000000000000000000000000000000000000000000000000000000000000000000000000000000000000000000000000000000000000000000000198312000000198312000000198312            0083000000105000000000000000000000000000000000000000000000000000000000000000000000000000000000000000000000000000000000000000000004111271000004111271000004111271            0000046817001765S334 Northcreek Drive                                                            Durham                                                                          NC27707     USA                            030319880716201808012019                                                       A                                                         919-328-8853   peverett@robinsonbradshaw.com                     EFS 0F                                                                                                                           
100RBH351-48-4362DOWDY, MICHELLE A.              000000007500000000000000000000017500000000000000000000000000000000000000000000000000000000000000000000000000000000000000000000010353000000000000000000000000000000000000000000000000000000289238000000289238000000289238            0083000000157500000000000000000000367500000000000000000000000000000000000000000000000000000000000000000000000000000000000000000005942968000005942968000005942968            0000068216281744S514 Rook Road                                                                   Charlotte                                                                       NC28216     USA                            122419540820200709012008                                                       A                                                         704-377-2536   mdowdy@robinsonbradshaw.com                       EFS 1F                                                                                                                           
100RBH114-72-6138FORNERIS, JOHN W.               000000000000000000000000000000015000000000000000000000000000000000000000000000000000000000000000000000000000000000000000000000000000000000000000000000000000000000000000000000000000000000738636000000738636000000738636            0087000000000000000000000000000000285000000000000000000000000000000000000000000000000000000000000000000000000000000000000000000015511356000015511356000015511356            0000177272641820S6500 Ciscayne Place                                                             Charlotte                                                                       NC28211     USA                            110219870702201208012013                                                       A                                                         704-377-2536   jforneris@robinsonbradshaw.com                    EMM 5F                                                                                                                           
100RBH445-96-6877EDMISTON, KATHERINE ROBERSON    000000000000000000000000000000025000000000000000000000000000000000000000000000000000000000000000000000000000000000000000000000000000000000000000000000000000000000000000000000000000000000224147000000224147000000224147            0081000000000000000000000000000000525000000000000000000000000000000000000000000000000000000000000000000000000000000000000000000004816111000004816111000004816111            0000053795161780S3014 Markworth Avenue                                                           Charlotte                                                                       NC28210     USA                            033119870826201309012014                                                       A                                                         704-350-7132   kroberson@robinsonbradshaw.com                    EFM 1F                                                                                                                           
100RBH270-66-6799MCCULLAR, JEANNE M.             000000040000000000000000000000040000000000000000000000000000000000000000000000000000000000000000000000000000000000000000000000000000000000000000000000000000000000000000000000000000000000762500000000762500000000762500            0087000000840000000000000000000000840000000000000000000000000000000000000000000000000000000000000000000000000000000000000000000016012500000016012500000016012500            0000183000001820S6620 Stephens Road                                                              Huntersville                                                                    NC28078     USA                            042019620812199609011997                                                       A                                                         704-377-8155   jmccullar@robinsonbradshaw.com                    EFM 1F                                                                                                                           
100RBH246-47-9305MARSHALL, STEPHANIE S.          000000062500000000000000000000000000000000000000000000000000000000000000000000000000000000000000000000000000000000000000000000000000000000000000000000000000000000000000000000000000000000375000000000375000000000375000            0087000001312500000000000000000000000000000000000000000000000000000000000000000000000000000000000000000000000000000000000000000007875000000007875000000007875000            0000090000001820S2022 Knickerbocker Drive                                                        Charlotte                                                                       NC28212     USA                            112319771115200512012006                                                       A                                                         704-350-7171   smarshall@robinsonbradshaw.com                    EFS 0F                                                                                                                           
100RBH056-80-4165WHITE, ETHAN R.                 000000000000000000000000000000000000000000000000000000000000000000000000000000000000000000000000000000000000000000000000000000000000000000000000000000000000000000000000000000000000000000568182000000568182000000568182            0087000000000000000000000000000000000000000000000000000000000000000000000000000000000000000000000000000000000000000000000000000011931822000011931822000011931822            0000136363681820S1209 S College Street                   #2204                                   Charlotte                                                                       NC28203     USA                            100319910916201910012020                                                       A                                                         704-377-8395   ewhite@robinsonbradshaw.com                       EMS 2F                                                                                                                           
100RBH251-69-4307LECOMPTE, JONATHAN D.           000000000000000000000000000000000000000000000000000000000000000000000000000000000000000000000000000000000000000000000000000000000000000000000000000000000000000000000000000000000000000000000000000000000000000000000000            0000000000000000000000000000000000282000000000000000000000000000000000000000000000000000000000000000000000000000000000000000000003982513000003982513000003982513            0000152272800544S3819 Annlin Avenue                                                              Charlotte                                                                       NC28209     USA                            0320198409122016                                04032020                       T                                                         704-377-2536   jlecompte@robinsonbradshaw.com                     MM 0F                                                                                                                           
100RBH248-49-7245POTTS, COLLETTE                 000000006000000000000000000000000000000000000000000000000000000000000000000000000000000000000000000000000000000000000000000000000000000000000000000000000000000000000000000000000000000000157579000000157579000000157579            0081000000126000000000000000000000000000000000000000000000000000000000000000000000000000000000000000000000000000000000000000000003302656000003302656000003302656            0000037818901747S2816 Starnes Road                                                               Edgemoor                                                                        SC29712     USA                            122219790117201802012019                                                       A                                                         704-377-2536   cpotts@robinsonbradshaw.com                       EFM 1F                                                                                                                           
100RBH011-54-3593MURPHY, ROBERT F                000000050000000000000000000000000000000000000000000000000000000000000000000000000000000000000000000000000000000000000000000000000000000000000000000000000000000000000000000000000000000000500000000000500000000000500000            0087000000950000000000000000000000000000000000000000000000000000000000000000000000000000000000000000000000000000000000000000000010500000000010500000000010500000            0000120000001820S246 Iverson Way                                                                 Charlotte                                                                       NC28203     USA                            102619630122201902012020                                                       A                                                         704-377-2536   rmurphy@robinsonbradshaw.com                      EMM 0F                                                                                                                           
100RBH239-69-5338FERGUSON, MAEGAN                000000009000000000000000000000000000000000000000000000000000000000000000000000000000000000000000000000000000000000000000000000000000000000000000000000000000000000000000000000000000000000127281000000127281000000127281            0087000000189000000000000000000000000000000000000000000000000000000000000000000000000000000000000000000000000000000000000000000002668110000002668110000002668110            0000030547441854S7021 Highland Way                                                               Belmont                                                                         NC28012     USA                            012619880317201404012015                                                       A                                                         704-377-2536   mkeller@robinsonbradshaw.com                      EFM 0F                                                                                                                           
100RBH244-06-1645KLECKNER, CHRISTINA R.          000000020000000000000000000000000000000000000000000000000000000000000000000000000000000000000000000000000000000000000000000000000000000000008795000000001930000000004369000000011716000000307274000000307274000000307274            0082000000420000000000000000000000000000000000000000000000000000000000000000000000000000000000000000000000000000000000000000000006437420000006546920000006546920            0000073000081780S1776 Mt Carmel Cir                                                              Denver                                                                          NC28037     USA                            061219620818199709011998                                                       A                                                         704-377-2536   ckleckner@robinsonbradshaw.com                    EFM 2F                                                                                                                           
100RBH095-50-3521GRANNUM, GAYLE S.               000000005000000000000000000000005000000000000000000000000000000000000000000000000000000000000000000000000000000000000000000000000000000000000000000000000000000000000000000000000000000000352012000000352012000000352012            0085000000105000000000000000000000105000000000000000000000000000000000000000000000000000000000000000000000000000000000000000000007342117000007462917000007462917            0000080500081824S3518 Cross Winds Road                                                           Charlotte                                                                       NC28227     USA                            032619580822198809011989                                                       A                                                         704-377-2536   ggrannum@robinsonbradshaw.com                     EFS 0F                                                                                                                           
100RBH239-41-1328ANDERSON, PAULA A.              000000002000000000000000000000000000000000000000000000000000000000000000000000000000000000000000000000000000000000000000000000000000000000000000000000000000000000000000000000000000000000161686000000161686000000161686            0087000000042000000000000000000000000000000000000000000000000000000000000000000000000000000000000000000000000000000000000000000003426708000003426708000003426708            0000038681731903S4416 Truscott Road                                                              Charlotte                                                                       NC28226     USA                            021519700501201206012013                                                       A                                                         704-377-2536   panderson@robinsonbradshaw.com                    EFM 0F                                                                                                                           
100RBH264-19-7238SACHS, PAMELA C.                000000020000000000000000000000000000000000000000000000000000000000000000000000000000000000000000000000000000000000000000000000018910000000000000000000000000000000000000000000000000000000687500000000687500000000687500            0087000000710000000000000000000000000000000000000000000000000000000000000000000000000000000000000000000000000000000000000000000014437500000014437500000014437500            0000165000001820S543 Turquoise Way                                                               Fort Mill                                                                       SC29708     USA                            110319520602200807012009                                                       A                                                         704-377-2536   psachs@robinsonbradshaw.com                       EFM 0F                                                                                                                           
100RBH241-19-1942OXIDINE, KAREN G.               000000015000000000000000000000000000000000000000000000000000000000000000000000000000000000000000000000000000000000000000000000013922000000000000000000000000000000000000000000000000000000318654000000318654000000318654            0083000000265000000000000000000000000000000000000000000000000000000000000000000000000000000000000000000000000000000000000000000007034955000007147455000007147455            0000075000001841S155 Quiet Cove Road                                                             Mooresville                                                                     NC28117     USA                            121619600203198603011987                                                       A                                                         704-377-2536   koxidine@robinsonbradshaw.com                     EFM 0F                                                                                                                           
100RBH238-13-3116HENDRIX, J.  ROBERT             000000000000000000000000000000000000000000000000000000000000000000000000000000000000000000000000000000000000000000000000000000000000000000000000000000000000000000000000000000000000000000294033000000294033000000294033            0087000000000000000000000000000000000000000000000000000000000000000000000000000000000000000000000000000000000000000000000000000006160380000006300380000006300380            0000070568001828S3915 Pomfret Lane                                                               Charlotte                                                                       NC28211     USA                            103019680216200903012010                                                       A                                                         704-377-2536   bhendrix@robinsonbradshaw.com                     EMS 0F                                                                                                                           
100RBH354-90-7851MISNER, TIMOTHY P               000000000000000000000000000000000000000000000000000000000000000000000000000000000000000000000000000000000000000000000000000000000000000000000000000000000000000000000000000000000000000000568182000000568182000000568182            0087000000000000000000000000000000000000000000000000000000000000000000000000000000000000000000000000000000000000000000000000000002587401000002587401000002587401            0000136363680395S525 S. Church Street                    Apt 1908                                Charlotte                                                                       NC28202     USA                            032319950513201910012021                                09082020               A                                                         704-377-8315   tmisner@robinsonbradshaw.com                      EMS 0F                                                                                                                           
100RBH523-83-8067SULLIVAN, CAITLIN H.            000000050000000000000000000000000000000000000000000000000000000000000000000000000000000000000000000000000000000000000000000000000000000000000000000000000000000000000000000000000000000000606061000000606061000000606061            0087000001050000000000000000000000000000000000000000000000000000000000000000000000000000000000000000000000000000000000000000000012727281000012727281000012727281            0000145454641820S577 Peigler St Nw                       #217                                    Concord                                                                         NC28027     USA                            103019900911201710012018                                                       A                                                         704-377-8360   csullivan@robinsonbradshaw.com                    EFM 0F                                                                                                                           
100RBH237-43-5100WOOLARD, DEBORAH D.             000000000000000000000000000000000000000000000000000000000000000000000000000000000000000000000000000000000000000000000000000000000000000000000000000000000000000000000000000000000000000000000000000000000000000000000000            0000000000053900000000000000000000000000000000000000000000000000000000000000000000000000000000000000000000000000000000000000000001800579000001853079000001853079            0000061200000665S7137 Founders Club Court                                                        Charlotte                                                                       NC28269     USA                            1206197307102017                                04152020                       T                                                         704-377-2536   dwoolard@robinsonbradshaw.com                      FS 6F                                                                                                                           
100RBH239-77-2135LINDSAY, MEGAN                  000000000000000000000000000000000000000000000000000000000000000000000000000000000000000000000000000000000000000000000000000000000000000000000000000000000000000000000000000000000000000000222843000000222843000000222843            0083000000000000000000000000000000000000000000000000000000000000000000000000000000000000000000000000000000000000000000000000000004886662000004886662000004886662            0000052272661874S709 Stratford Woods Road                                                        Matthews                                                                        NC28105     USA                            081019931126201812012019                                                       A                                                         704-377-2536   mlindsay@robinsonbradshaw.com                     EFS 0F                                                                                                                           
100RBH246-31-0719CHILDRESS, MEGAN A.             000000020000000000000000000000000000000000000000000000000000000000000000000000000000000000000000000000000000000000000000000000000000000000000000000000000000000000000000000000000000000000346792000000346792000000346792            0087000000420000000000000000000000000000000000000000000000000000000000000000000000000000000000000000000000000000000000000000000007221132000007221132000007221132            0000083230081820S8825 Glade Court                                                                Huntersville                                                                    NC28078     USA                            101019751229199701011999                                                       A                                                         704-377-2536   mchildress@robinsonbradshaw.com                   EFM 0F                                                                                                                           
100RBH147-78-5530WILLIAMS, SERITA R.             000000000000000000000000000000000000000000000000000000000000000000000000000000000000000000000000000000000000000000000000000000019543000000005823000000016271000000000000000000000000000000372167000000372167000000372167            0087000000030000000000000000000000000000000000000000000000000000000000000000000000000000000000000000000000000000000000000000000007749507000007749507000007749507            0000089320081820S12903 Cleopatra Drive                                                           Charlotte                                                                       NC28213     USA                            071019760623200807012009                                                       A                                                         704-377-8121   swilliams@robinsonbradshaw.com                    EFS 0F                                                                                                                           
100RBH457-15-5810RIGGINS, SATYRA L.              000000005000000000000000000000000000000000000000000000000000000000000000000000000000000000000000000000000000000000000000000000000000000000000000000000000000000000000000000000000000000000344788000000344788000000344788            0082000000105000000000000000000000000000000000000000000000000000000000000000000000000000000000000000000000000000000000000000000007531167000007531167000007531167            0000081743151830S14118 Whistling Duck Court                                                      Charlotte                                                                       NC28273     USA                            060219720305200704012008                                                       A                                                         704-377-2536   sriggins@robinsonbradshaw.com                     EFM 3F                                                                                                                           
100RBH159-58-1166PIGEON, JILL J.                 000000000000000000000000000000000000000000000000000000000000000000000000000000000000000000000000000000000000000000000000000000008826000000000000000000011832000000000000000000000000000000316614000000316614000000316614            0085000000000000000000000000000000000000000000000000000000000000000000000000000000000000000000000000000000000000000000000000000006776915000006886415000006886415            0000073000081848S4014 Halyard Drive                                                              Denver                                                                          NC28037     USA                            070419731127200612012007                                                       A                                                         704-350-7148   jokerlund@robinsonbradshaw.com                    EFS 1F                                                                                                                           
100RBH238-55-0924SMITH, TRACY M                  000000000000000000000000000000000000000000000000000000000000000000000000000000000000000000000000000000000000000000000000000000000000000000000000000000000000000000000000000000000000000000000000000000000000000000000000            0000000000000000000000000000000000000000000000000000000000000000000000000000000000000000000000000000000000000000000000000000000004403897000005182356000005182356            0000065975161348S804 W Morgan Street                     Apt. K1A                                Raleigh                                                                         NC27603     USA                            0328197305132019                                09032020                       T                                                         919-328-8836   tsmith@robinsonbradshaw.com                       EFM 1F                                                                                                                           
100RBH246-55-0430HAYES, CHRISTOPHER              000000019500000000000000000000000000000000000000000000000000000000000000000000000000000000000000000000000000000000000000000000000000000000000000000000000000000000000000000000000000000000328657000000328657000000328657            0090000000409500000000000000000000000000000000000000000000000000000000000000000000000000000000000000000000000000000000000000000006469734000006807234000006807234            0000071050001928S4830 Samuel Pinckney Dr                                                         Belmont                                                                         NC28012     USA                            101119771015201811012019                                                       A                                                         704-377-2536   chayes@robinsonbradshaw.com                       EMM 0F                                                                                                                           
100RBH032-70-5487BHAGWANDASS, AMIT               000000075000000000000000000000000000000000000000000000000000000000000000000000000000000000000000000000000000000000000000000000000000000000000000000000000000000000000000000000000000000000738636000000738636000000738636            0087000001575000000000000000000000000000000000000000000000000000000000000000000000000000000000000000000000000000000000000000000015511356000015511356000015511356            0000177272641820S14442 Beatties Ford Road                                                        Huntersville                                                                    NC28078     USA                            021319860625201207012013                                                       A                                                         704-377-2536   abhagwandass@robinsonbradshaw.com                 EMS 3F                                                                                                                           
100RBH241-71-1018DECELLE, BENJAMIN C.            000000030000000000000000000000000000000000000000000000000000000000000000000000000000000000000000000000000000000000000000000000000000000000000000000000000000000000000000000000000000000000606061000000606061000000606061            0087000000630000000000000000000000000000000000000000000000000000000000000000000000000000000000000000000000000000000000000000000012727281000012727281000012727281            0000145454641820S5001 Century Drive                                                              Kannapolis                                                                      NC28081     USA                            062819910509201609012018                                08142017               A                                                         704-377-2536   bdecelle@robinsonbradshaw.com                     EMM 2F                                                                                                                           
100RBH537-23-6091SOLODYANKIN, ANATOLIY           000000000000000000000000000000000000000000000000000000000000000000000000000000000000000000000000000000000000000000000000000000000000000000000000000000000000000000000000000000000000000000738636000000738636000000738636            0087000000000000000000000000000000000000000000000000000000000000000000000000000000000000000000000000000000000000000000000000000015511356000015511356000015511356            0000177272641820S3100 Fairington Drive                                                           IndianTrail                                                                     NC28079     USA                            082719880514201206012013                                                       A                                                         704-377-2536   asolo@robinsonbradshaw.com                        EMM 4F                                                                                                                           
100RBH078-54-5188TOMLINSON, GREGORY R.           000000000000000000000000000000000000000000000000000000000000000000000000000000000000000000000000000000000000000000000000000000009087000000006035000000004630000000010049000000005904000000318049000000318049000000318049            0087000000000000000000000000000000000000000000000000000000000000000000000000000000000000000000000000000000000000000000000000000006783068000006783068000006783068            0000075586161932S5880 Heartwood Court                                                            Harrisburg                                                                      NC28075     USA                            080819620730201208012013                                                       A                                                         704-377-2536   gtomlinson@robinsonbradshaw.com                   EMM 0F                                                                                                                           
